:100000000C946C010C949D010C949D010C949D0129
:100010000C949D010C949D010C949D010C949D01E8
:100020000C949D010C949D010C949D010C949D01D8
:100030000C949D010C949D010C949D010C949D01C8
:100040000C949D010C949D010C949D010C949D01B8
:100050000C949D010C949D010C949D010C94F3084B
:100060000C949D010C94BD080C9493080C949D0174
:100070000C949D010C949D010C949D010C949D0188
:100080000C949D010C949D010C949D010C949D0178
:100090000C949D010C949D010C949D010C949D0168
:1000A0000C949D010C949D010C949D010C949D0158
:1000B0000C949D010C949D010C949D010C949D0148
:1000C0000C949D010C949D010C949D010C949D0138
:1000D0000C949D010C949D010C949D010C949D0128
:1000E0000C949D010C9455020C94B3060C94490396
:1000F0000C94A2020C94650E0C94C5060C94C706D1
:100100000C9446030C9438070C9479030C943E032A
:100110000C94BF010C9453070C94C1060C94AB06CD
:100120000C94EC010C945C070C94C9060C9423030A
:100130000C9444070C9461030C94BD060C94700657
:100140000C94BB060C9436070C944D070C94B50622
:100150000C9450070C946B030C94B1060C94340768
:100160000C94AF060C940F020C9459070C94750371
:100170000C94C3060C9441070C944A070C94BF06D8
:100180000C945D030C9442030C9453030C941D02D5
:100190000C9459030C944F030C9456070C945E076F
:1001A0000C9447070C94FB010C943E070C946703D6
:1001B0000C943A030C9410070C94B9060C943B076A
:1001C0000C9428030C94AD060C946F030C94B706A2
:1001D00000000A0B02090C0D0E08070304010000C1
:1001E000000000000000000000000000000000000F
:1001F00000000000000000000000000012111000CC
:1002000000000000000000000000000000000000EE
:1002100000000000000000002200250028002B0044
:100220002E003100340002010000050108010B011D
:1002300000002100240027002A002D003000330098
:1002400001010000040107010A0105050505070574
:1002500008080808020202020A0A08080404040442
:10026000010101010101010103030303030303036E
:10027000040707070C0C0C0C0C0C0C0C02020202FD
:1002800006060606060606060B0B0B0B0B0B0B0BE6
:100290000102102020080810204010204080020198
:1002A000020108040201010204081020408080407D
:1002B000201008040201800402018040201008047C
:1002C000020108040201010204081020408001021A
:1002D000040810204080650E11241FBECFEFD1E22C
:1002E000DEBFCDBF00E00CBF12E0A0E0B2E0ECE961
:1002F000F4E200E00BBF02C007900D92A238B107F4
:10030000D9F728E0A2E8B2E001C01D92A630B207FA
:10031000E1F711E0CCE6D1E000E006C02197010949
:10032000802FFE010E940B10CB36D10780E008071A
:10033000A9F70E943D090C944C120C94000090E027
:10034000FC01E057FD4F2491865B9D4FFC01849199
:10035000882399F090E0880F991FFC01E05DFD4F24
:10036000A591B491FC01EA5EFD4F859194918FB700
:10037000F894EC91E22BEC938FBF08950895AF921F
:10038000BF92CF92DF92EF92FF920F931F93CF9382
:10039000DF936C017B018B01040F151FEB015E01E4
:1003A000AE18BF08C017D10759F06991D601ED9179
:1003B000FC910190F081E02DC6011995892B79F708
:1003C000C501DF91CF911F910F91FF90EF90DF90CA
:1003D000CF90BF90AF900895FC01538D448D252F91
:1003E00030E0842F90E0821B930B541710F0CF96CF
:1003F000089501970895FC01918D828D981761F001
:10040000A28DAE0FBF2FB11D5D968C91928D9F5F17
:100410009F73928F90E008958FEF9FEF0895FC01F6
:10042000918D828D981731F0828DE80FF11D858DA9
:1004300090E008958FEF9FEF0895FC01918D228D3C
:10044000892F90E0805C9F4F821B91098F739927C1
:10045000089585E697E00E941D0221E0892B09F4AA
:1004600020E0822F0895FC01A48DA80FB92FB11DA3
:10047000A35ABF4F2C91848D90E001968F739927DA
:10048000848FA689B7892C93A089B1898C918370B8
:1004900080648C93938D848D981306C00288F389B1
:1004A000E02D80818F7D80830895EF92FF920F93DE
:1004B0001F93CF93DF93EC0181E0888F9B8D8C8D10
:1004C00098131AC0E889F989808185FF15C09FB704
:1004D000F894EE89FF896083E889F98980818370C7
:1004E000806480839FBF81E090E0DF91CF911F9176
:1004F0000F91FF90EF900895F62E0B8D10E00F5F97
:100500001F4F0F731127E02E8C8D8E110CC00FB66C
:1005100007FCFACFE889F989808185FFF5CFCE0104
:100520000E943302F1CFEB8DEC0FFD2FF11DE35A4A
:10053000FF4FF0829FB7F8940B8FEA89FB89808187
:100540008062CFCFCF93DF93EC01888D8823B9F001
:10055000AA89BB89E889F9898C9185FD03C08081CE
:1005600086FD0DC00FB607FCF7CF8C9185FFF2CF4B
:10057000808185FFEDCFCE010E943302E9CFDF916C
:10058000CF91089580E090E0892B29F00E94290204
:1005900081110E94000080E090E0892B49F080E00A
:1005A00090E0892B29F00E94000081110E94000038
:1005B00080E090E0892B49F080E090E0892B29F0E1
:1005C0000E94000081110E94000080E090E0892BD1
:1005D00049F080E090E0892B29F00E940000811111
:1005E0000C9400000895282F30E0F901E053FE4FED
:1005F0009491F901E057FD4F4491265B3D4FF9017D
:100600002491222309F435C0992311F1915092319C
:10061000F8F4E92FF0E08827EF5EFC4F8F4F0C9441
:100620000B104203460323033A033E032803490306
:100630004F03530359035D03610367036B032803EF
:100640006F0375037903809180008F77809380001A
:10065000E22FF0E0EE0FFF1FEA5EFD4FA591B4918F
:100660008FB7F894EC91611148C040954E234C939C
:100670008FBF0895809180008F7DE8CF80918000AA
:10068000877FE4CF84B58F7784BDE2CF84B58F7D3B
:10069000FBCF8091B0008F778093B000D9CF80914D
:1006A000B0008F7DF9CF809190008F77809390007C
:1006B000CFCF809190008F7DF9CF80919000877F80
:1006C000F5CF8091A0008F778093A000C1CF80915B
:1006D000A0008F7DF9CF8091A000877FF5CF80911A
:1006E00020018F7780932001B3CF809120018F7DEF
:1006F000F9CF80912001877FF5CF4E2BB8CF2FB750
:10070000F89460918702709188028091890290919B
:100710008A022FBF08950F931F930E947F03609357
:100720006D0770936E0780936F079093700785E64F
:1007300097E00E940F0297FF1DC00E947F03009167
:100740006D0710916E0720916F0730917007601B45
:10075000710B820B930B0091690710916A0720912E
:100760006B0730916C076017710782079307F8F2E7
:100770008FEF9FEF1F910F9108950F931F930E948A
:100780007F0360936D0770936E0780936F0790935C
:10079000700785E697E00E94FB0197FF1DC00E944D
:1007A0007F0300916D0710916E0720916F073091C4
:1007B0007007601B710B820B930B009169071091FE
:1007C0006A0720916B0730916C07601771078207E9
:1007D0009307F8F28FEF9FEF1F910F910895CF923B
:1007E000DF92EF92FF92CF93D12CC12C85E697E058
:1007F0000E941D02181619060CF050C00E948B03AF
:10080000FC0197FD47C08D32910519F0C0970A97FA
:10081000D0F5C12CD12C7601C0E0E130F105D1F04A
:10082000ED32F105A9F1CF01C0970A9798F4AAE03B
:10083000B0E0A70196010E94B30F6F01FF0FEE0811
:10084000FF08C60ED71EE81EF91E80E3C81AD1089D
:10085000E108F10885E697E00E94FB010E948B0306
:10086000FC01C0970A97C8F2E130F105B1F2CC2340
:1008700009F4BCCFF094E094D094C094C11CD11C76
:10088000E11CF11CB3CF85E697E00E94FB01B6CFD7
:10089000C1E0E0CFC12CD12C7601A8CFC601CF9109
:1008A000FF90EF90DF90CF900895FC010190002021
:1008B000E9F73197AF01481B590BBC0185E697E07A
:1008C0000C94BF01CF93DF93FC014481558160817B
:1008D000718185E697E00E94BF01EC018CE192E016
:1008E0000E9455048C0F9D1FDF91CF910895EF92C8
:1008F000FF920F931F93CF93DF937C01D0E0C0E072
:10090000062F10E0C017D1072CF4C7010E94620423
:100910002196F8CFDF91CF911F910F91FF90EF902B
:100920000895CF93DF930E945504EC018CE192E08F
:100930000E9455048C0F9D1FDF91CF910895CF9297
:10094000DF92EF92FF920F931F93CF93DF93CDB778
:10095000DEB7A1970FB6F894DEBF0FBECDBF282F2C
:1009600030E050E040E019A28E010F5D1F4F8AE099
:10097000C82ED12CE12CF12CCA01B901A701960196
:100980000E94C60F605DF80162938F012115310549
:100990004105510589F790E080E0309719F0CF01CB
:1009A0000E945504A1960FB6F894DEBF0FBECDBFCE
:1009B000DF91CF911F910F91FF90EF90DF90CF903B
:1009C0000895FC0180819181009711F00C94360FFD
:1009D00060E070E0CB010895FC0180819181009777
:1009E00011F00C94C31008950F931F93CF93DF93CE
:1009F0008C01EB01FC01808191810097E1F068811D
:100A0000798161157105A9F0428153812C813D8165
:100A10004217530770F00E9436128C819D81F801B5
:100A2000958384831D821C82DF91CF911F910F914A
:100A300008950E94C31088819981F8019183808371
:100A40008A819B81938382838C819D81958384831A
:100A5000198218821B821A82E5CF0F931F93CF93BE
:100A6000DF93EC0188819981009759F02A813B81BD
:100A70002617370730F081E0DF91CF911F910F915A
:100A800008958B016F5F7F4F0E944C11009759F0C2
:100A9000998388831B830A832C813D81232B59F7FB
:100AA000FC011082E8CF80E0E7CFEF92FF920F9336
:100AB0001F93CF93DF93EC017B01198218821B8275
:100AC0001A821D821C82FB0101900020E9F73197F8
:100AD0008F01061B170BB8010E942D052881398153
:100AE000811113C02115310519F0C9010E94C310ED
:100AF000198218821D821C821B821A82DF91CF917B
:100B00001F910F91FF90EF9008951D830C83B70103
:100B1000C901DF91CF911F910F91FF90EF900C943D
:100B200036128F929F92AF92BF92CF92DF92EF9246
:100B3000FF920F931F93CF93DF931F921F92CDB716
:100B4000DEB78C015B017A0149016EE172E00E941F
:100B50005505EA0CFB1CC7018A199B0988159905E4
:100B60000CF5F70181917F0189831A82F801C48015
:100B7000D580FFEFCF1ADF0AB601C8010E942D050C
:100B8000882349F3F8012081318184819581BE0158
:100B90006F5F7F4F820F931F0E943612F801D5823C
:100BA000C482D9CFC8010F900F90DF91CF911F91D0
:100BB0000F91FF90EF90DF90CF90BF90AF909F90FC
:100BC0008F9008951F93CF93DF93EC01162F0E940F
:100BD0007E0F181739F0612FCE01DF91CF911F9151
:100BE0000C94860FDF91CF911F9108950C947E0F86
:100BF0002F923F924F925F926F927F928F929F922D
:100C0000AF92BF92CF92DF92EF92FF920F931F931A
:100C1000CF93DF930CE812E0C8EFD4E0F12CE12C85
:100C200084E4D82E93E4C92E22E4B22E31E4A32E1C
:100C300040E4942E5FE3852E6EE3762E7DE3672EEF
:100C4000ECE35E2EFBE34F2EAAE33A2EB9E32B2E04
:100C5000C7010E94F605813009F09DC0C701CF96FB
:100C60000E94F605982FE2EFE80FE13308F091C0FB
:100C7000F0E08827E15CF94F8F4F0C940B10700661
:100C8000AB06AD06AF06B106B306B506C906C90682
:100C9000C906C906C906C906C906C906C906C906DC
:100CA000C906C906C906C906C906C906C906C906CC
:100CB000C906C906C906C906C906C906C906C906BC
:100CC000C906C906C906C906C906C906C906B706BE
:100CD000B906BB06BD06BF06C106C306C506C706E4
:100CE00086E3888388810E949F01C70183589F4FB4
:100CF0000E94F6058983C70185549F4F0E94F6051F
:100D00008A83C70187509F4F0E94F6058B83C701D6
:100D1000895C9E4F0E94F6058C83FFEFEF1AFF0A55
:100D2000065F1F4F2A968FE3E816F10409F090CF73
:100D3000DF91CF911F910F91FF90EF90DF90CF90B7
:100D4000BF90AF909F908F907F906F905F904F90EB
:100D50003F902F90089587E3C4CF88E3C2CF2882C5
:100D6000C1CF3882BFCF4882BDCF5882BBCF688207
:100D7000B9CF7882B7CF8882B5CF9882B3CFA88217
:100D8000B1CFB882AFCFC882ADCFD882ABCF85E428
:100D9000A8CF9883A7CF823009F0BFCFC701CF96E5
:100DA0000E94F605982FE2EFE80FE13308F086C0C5
:100DB000F0E08827E152F94F8F4F0C940B10100789
:100DC0003407360738073B073E0741075E075E07D3
:100DD0005E075E075E075E075E075E075E075E07EB
:100DE0005E075E075E075E075E075E075E075E07DB
:100DF0005E075E075E075E075E075E075E075E07CB
:100E00005E075E075E075E075E075E075E074407D4
:100E100047074A074D0750075307560759075C070E
:100E200086E3F8018083F80180810E949F01C70159
:100E300083589F4F0E94F605F8018183C7018554AE
:100E40009F4F0E94F605F8018483C70187509F4F8A
:100E50000E94F605F8018383C701895C9E4F0E94BA
:100E6000F605F801828359CF87E3DBCF88E3D9CF3A
:100E7000F8012082D8CFF8013082D5CFF801408226
:100E8000D2CFF8015082CFCFF8016082CCCFF801E9
:100E90007082C9CFF8018082C6CFF8019082C3CF9B
:100EA000F801A082C0CFF801B082BDCFF801C082A6
:100EB000BACFF801D082B7CF85E4B3CFF8019083E1
:100EC000B2CF8F929F92AF92BF92CF92DF92EF926A
:100ED000FF920F931F93CF93DF931F921F92CDB773
:100EE000DEB77C018B0185E697E00E941D02892B0D
:100EF00021F4C8010E946204F6CF6EE172E0C701DE
:100F00000E9455050E94BD0397FD20C089831A8267
:100F1000D70114960D911C910F5F1F4FB801C701A7
:100F20000E942D05882371F3F7012081318184818E
:100F30009581BE016F5F7F4F820F931F0E94361213
:100F4000D70115961C930E931497DCCFF701A08060
:100F5000B180A114B10431F004811581650101153E
:100F6000110589F4C7010F900F90DF91CF911F9168
:100F70000F91FF90EF90DF90CF90BF90AF909F9038
:100F80008F90089564014601FFEF8F1A9F0AD601E2
:100F90008C91082E000C990B0E94720F892B91F7EF
:100FA000015011090A0D1B1DF8018081082E000C4B
:100FB000990B0E94720F892B31F00C151D0518F04A
:100FC00001501109F1CFA8014F5F5F4F4C195D0926
:100FD000D70115965C934E931497AC14BD0420F47E
:100FE000B601C5010E942D12D701ED91FC91119718
:100FF00014968D919C91E80FF91F1082B3CF8F92B8
:101000009F92AF92BF92DF92EF92FF920F931F9346
:10101000CF93DF93E82EF12C9AE0899FE001112411
:10102000C850DB4F1B8109858D809E80AF80B884BE
:10103000013009F044C0D9800E947F03AB01BC019C
:10104000481959096A097B09D19EC0011124092E4A
:10105000000CAA0BBB0B84179507A607B70718F55A
:1010600060E088810E94F3028C81813059F40E94F3
:10107000DE0E22E030E040E050E00E94940F61116B
:1010800001C000E08AE08E9DE0018F9DD00D11240B
:10109000C850DB4F81E0082709870E947F036D83DA
:1010A0007E838F839887DF91CF911F910F91FF905F
:1010B000EF90DF90BF90AF909F908F9008950A813E
:1010C0000E947F03AB01BC01481959096A097B09D9
:1010D000109FC0011124092E000CAA0BBB0B841712
:1010E0009507A607B707F8F661E088810E94F3022A
:1010F0008C81813059F40E94DE0E22E030E040E025
:1011000050E00E94940F81E0611101C080E09AE0FC
:101110009E9DE0019F9DD00D1124C850DB4F91E0B2
:1011200089278987BACF1F920F920FB60F92112489
:101130000BB60F922F933F934F935F936F937F93D1
:101140008F939F93AF93BF93EF93FF9385E697E0C1
:101150000E943302FF91EF91BF91AF919F918F91C8
:101160007F916F915F914F913F912F910F900BBEA7
:101170000F900FBE0F901F9018951F920F920FB6F1
:101180000F9211240BB60F922F938F939F93EF938F
:10119000FF93E0917507F09176078081E0917B07DE
:1011A000F0917C0782FD1DC0908180917E078F5F4A
:1011B0008F7320917F07821741F0E0917E07F0E066
:1011C000EB59F84F958F80937E07FF91EF919F9198
:1011D0008F912F910F900BBE0F900FBE0F901F900D
:1011E00018958081F2CF1F920F920FB60F921124A3
:1011F0002F933F938F939F93AF93BF9380918702D9
:1012000090918802A0918902B0918A023091860261
:1012100023E0230F2D3758F50196A11DB11D209312
:1012200086028093870290938802A0938902B093EC
:101230008A028091820290918302A0918402B091EF
:1012400085020196A11DB11D8093820290938302B5
:10125000A0938402B0938502BF91AF919F918F912B
:101260003F912F910F900FBE0F901F90189526E879
:10127000230F0296A11DB11DD2CFCF93DF93CDB71F
:10128000DEB7C055D1090FB6F894DEBF0FBECDBF93
:10129000789484B5826084BD84B5816084BD85B551
:1012A000826085BD85B5816085BD80916E0081605D
:1012B00080936E0010928100809181008260809303
:1012C0008100809181008160809381008091800005
:1012D0008160809380008091B10084608093B10030
:1012E0008091B00081608093B00080919100826015
:1012F0008093910080919100816080939100809112
:1013000090008160809390008091A1008260809322
:10131000A1008091A10081608093A1008091A00034
:1013200081608093A00080912101826080932101DF
:101330008091210181608093210180912001816051
:101340008093200180917A00846080937A0080915C
:101350007A00826080937A0080917A008160809325
:101360007A0080917A00806880937A001092C100A0
:10137000E0917507F091760782E08083E091710734
:10138000F09172071082E0917307F091740780E189
:10139000808310927D07E0917907F0917A078EE3C0
:1013A0008083E0917707F091780780818061808366
:1013B000E0917707F0917807808188608083E091E1
:1013C0007707F0917807808180688083E0917707C4
:1013D000F091780780818F7D80830E94F80508EF67
:1013E00014E0ECE8EE2EE2E0FE2ED8018C91815064
:1013F0008E3F38F40E947F03F801658376838783EC
:101400009087D7018C9181508E3F38F40E947F03E2
:10141000F7016583768387839087065F1F4FFAE025
:10142000EF0EF11C27E004361207F9F68E010F5F6C
:101430001F4F74E6C72ED12C85E697E00E941D024F
:10144000181619060CF010C36AE0A62EB12C8FE115
:1014500092E00E9491040E94EF037C011816190685
:10146000B4F785E697E00E941D02892B81F738ECDE
:10147000E316F10409F4D6C308F07FC096E6E91636
:10148000F10441F55AE0F52EE0908B02E110BBC269
:101490006CE372E0C8010E945505B801CE01855B7E
:1014A0009F4F0E946107C8010E94EC0461968EACB8
:1014B0009FAC61978114910409F0B7C119820E9411
:1014C000EF03009709F0C5C1CE01855B9F4F0E94D5
:1014D0006204F5CFA7E6EA16F10468F5B5E6EB1667
:1014E000F10409F0B4CF4AE0F42EE0908B02E11051
:1014F00066C165E272E0C8010E945505B801CE01DF
:10150000855B9F4F0E946107C8010E94EC046196B1
:101510008EAC9FAC61978114910409F057C0198279
:101520000E94EF03009709F065C0CE01855B9F4FD5
:101530000E946204F5CFEEE6EE16F10409F492C2C1
:10154000FFE6EF16F10409F082CF61E472E0C80112
:101550000E94550565E0C8010E947704C8010E94F9
:10156000EC040E94EF037C010097D9F38F3F9105B3
:1015700009F00CC36BE472E00DC023EDE216F10438
:1015800009F46CC390F465E672E082EDE816F104AC
:1015900009F05DCFC8010E94550565E0C8010E94B1
:1015A0007704C8010E94EC0452CF94EDE916F104CF
:1015B00009F45BC3A5EDEA16F10409F048CF66E72C
:1015C00072E0C8010E94550563E0E8CFB1E38B16D5
:1015D000910418F031E3832E912C2D966EAD7FADE2
:1015E0002D97A401C8010E943D12F801E80DF91DD4
:1015F000108296CF029709F0D4C06AE272E0CE0161
:10160000CF960E94550565E0CE01CF960E947704E3
:10161000CE01CF960E94EC0423E030E050E040E0A1
:10162000B801CE018B5B9F4F0E949105CE018B5B71
:101630009F4F0E94E104CB01B6010E94F70F4C01BD
:10164000EE24EA94E80EFE9CF0011124E850FB4FD2
:10165000808326E030E043E050E0B801CE01CF9631
:101660000E949105BE01615C7F4FCE018B5B9F4F55
:101670000E94F404CE01CF960E94EC04CE018B5B55
:101680009F4F0E94E104E1E08E1A9108F89C9001BE
:10169000F99C300D1124C90188509B4F4C01DC018D
:1016A00011966C9329E030E046E050E0B801CE019D
:1016B000CF960E949105BE01615C7F4FCE018B5B8E
:1016C0009F4F0E94F404CE01CF960E94EC04CE01FD
:1016D0008B5B9F4F0E94E104F40162832CE030E0B9
:1016E00049E050E0B801CE01CF960E949105BE01BD
:1016F000615C7F4FCE018B5B9F4F0E94F404CE0153
:10170000CF960E94EC04CE018B5B9F4F0E94E104B8
:10171000D40113966C932FE030E04CE050E0B80118
:10172000CE01CF960E949105BE01615C7F4FCE0134
:101730008B5B9F4F0E94F404CE01CF960E94EC0475
:10174000CE018B5B9F4F0E94E104CB01B5010E944B
:10175000F70FF401848380810E949F0182E392E06D
:101760000E9491040E94EF0382309105B9F3009723
:10177000A9F38330910511F0892B31F48E2D0E944D
:10178000FF070E94EF03F5CFCE018B5B9F4F0E94B6
:10179000EC04CE01855B9F4F0E94EC04E0928B022B
:1017A000A4CE65E372E0CE01CF960E94550565E0B8
:1017B000CE01CF960E947704CE01CF96E8CFF12CD0
:1017C00061E0C7010E94E2052AE02E9DC0012F9D25
:1017D000900D11249C0128503B4F4901D9016C9177
:1017E000C701CF960E94E205F4016181C7018358C9
:1017F0009F4F0E94E205D40112966C91C701855457
:101800009F4F0E94E205F4016381C70187509F4FFB
:101810000E94E205D40114966C91C701895C9E4F29
:101820000E94E20510928B0212CEB1E38B16910456
:1018300018F021E3822E912C2D966EAD7FAD2D9761
:10184000A401C8010E943D12F801E80DF91D1082A3
:1018500036CE029709F0C9C06AE272E0CE01CF9697
:101860000E94550565E0CE01CF960E947704CE0117
:10187000CF960E94EC0423E030E050E040E0B80155
:10188000CE018B5B9F4F0E949105CE018B5B9F4FDA
:101890000E94E104CB01B6010E94F70F4C01EE2437
:1018A000EA94E80EFE9CF0011124E457FD4F80837A
:1018B00026E030E043E050E0B801CE01CF960E9430
:1018C0009105BE01615C7F4FCE018B5B9F4F0E94F3
:1018D000F404CE01CF960E94EC04CE018B5B9F4FA7
:1018E0000E94E104E1E08E1A9108F89C9001F99CB5
:1018F000300D1124C90184579D4F4C01DC01119614
:101900006C9329E030E046E050E0B801CE01CF967C
:101910000E949105BE01615C7F4FCE018B5B9F4FA2
:101920000E94F404CE01CF960E94EC04CE018B5BA2
:101930009F4F0E94E104F40163832CE030E049E012
:1019400050E0B801CE01CF960E949105BE01615CC6
:101950007F4FCE018B5B9F4F0E94F404CE01CF9648
:101960000E94EC04CE018B5B9F4F0E94E104D401E6
:1019700014966C932FE030E04CE050E0B801CE01BB
:10198000CF960E949105BE01615C7F4FCE018B5BBB
:101990009F4F0E94F404CE01CF960E94EC04CE012A
:1019A0008B5B9F4F0E94E104CB01B5010E94F70FB2
:1019B000F401828380810E949F0182E392E00E9471
:1019C00091040E94EF0382309105B9F3892BA9F3AA
:1019D000CE018B5B9F4F0E94EC04CE01855B9F4F35
:1019E0000E94EC04E0928B024FCD65E372E0CE01E1
:1019F000CF960E94550565E0CE01CF960E947704F0
:101A0000CE01CF96E8CFF12C62E0C7010E94E2053B
:101A10002AE02E9DC0012F9D900D11249C0124577A
:101A20003D4F4901D9016C91C701CF960E94E20553
:101A3000F4016181C70183589F4F0E94E205D401E0
:101A400014966C91C70185549F4F0E94E205F401E2
:101A50006381C70187509F4F0E94E205D40112960F
:101A60006C91DBCE0E94F805809164072AE0829F8A
:101A7000F0011124E850FB4F908191509E3F10F4EB
:101A80000E94FF07B09064078B2C912C3AE0B39E24
:101A9000C0011124DC01A457BD4F3D018C91815040
:101AA0008E3F08F008C111963C9011971296AC90A9
:101AB00012971396EC90139714968C91E89E7001F0
:101AC00011240E947F03F3012581368147815085CF
:101AD0002B013C01421A530A640A750AB301A201A0
:101AE000C701FF0CAA0BBB0B84179507A607B70706
:101AF00008F0E1C0B982E9EFF4E0EB2C90E0FF24BC
:101B0000F3948EE3232D30E02F5F3F4FB81681F022
:101B10004181A4120DC0D801AF0DB11D8C9340813D
:101B20004217130609F4E82E40854111942FF394CF
:101B300081503A978111EACFBE1011C02AE0289F48
:101B4000F0011124E457FD4F3281A31205C0318109
:101B5000331510F4E82E8EE38F5F8E3380F39111EE
:101B6000AAC038019AE0592E862D801B8F1508F0E7
:101B70007FC0D301ED913D015E9EF0011124E45739
:101B8000FD4F60E080810E94F302EECF01970E943A
:101B9000F605582EC701CE960E94F605682EC7019D
:101BA00084589F4F0E94F605782EC70186549F4F98
:101BB0000E94F605882EC70188509F4F0E94F605A7
:101BC000982EC7018A5C9E4F0E94F605F82E852D3F
:101BD0000E949F0485E592E00E945504862D0E9494
:101BE0009F0485E592E00E945504872D0E949F0482
:101BF00085E592E00E945504882D0E949F0485E5AA
:101C000092E00E945504892D0E949F0485E592E090
:101C10000E9455048F2D0E949F048CE192E00E9447
:101C200055049FCCF12CE12C60E0C7010E94E20535
:101C3000EFEFEE1AFE0AFEE3EF16F104A9F70E9499
:101C4000F80567E572E0C8010E94550565E0C80126
:101C50000E947704C8010E94EC0406CF6AE672E095
:101C6000C8010E94550561E099CC60E772E0F8CFA9
:101C70008AE0782E7E9C70011124F701E457FD4F15
:101C80007F018281A81217C061E080810E94F30267
:101C9000789CF001799CF00D1124E457FD4F1186DA
:101CA00081E0D70119968C930E947F03F701658329
:101CB00076838783908781E08B0D809364078E33D2
:101CC00009F0BACB10926407B4CBE5E6F7E01382D3
:101CD000128288EE93E0A0E0B0E084839583A6832F
:101CE000B7838EE092E09183808385EC90E09587C6
:101CF000848784EC90E09787868780EC90E0918BD6
:101D0000808B81EC90E0938B828B82EC90E0958BC2
:101D1000848B86EC90E0978B868B118E128E138EBF
:101D2000148E08958F929F92AF92BF92CF92DF92BE
:101D3000EF92FF92CF93DF93EC01688179818A81E2
:101D40009B81611571058105910521F464E279EDAE
:101D50008BE597E02DE133EF41E050E00E94940FD6
:101D600049015A019B01AC01A7EAB1E40E94B30FFB
:101D70006B017C01ACEEB4EFA50194010E94C10F90
:101D8000C60ED71EE81EF91EF7FE06C081E0C81A6F
:101D9000D108E10880E8F80AC882D982EA82FB8289
:101DA000C701B6019F77DF91CF91FF90EF90DF9051
:101DB000CF90BF90AF909F908F9008958F929F92F9
:101DC000AF92BF92CF92DF92EF92FF9260910002AA
:101DD00070910102809102029091030261157105D8
:101DE0008105910521F464E279ED8BE597E02DE121
:101DF00033EF41E050E00E94940F49015A019B01EA
:101E0000AC01A7EAB1E40E94B30F6B017C01ACEE18
:101E1000B4EFA50194010E94C10FC60ED71EE81EA3
:101E2000F91EF7FE06C081E0C81AD108E10880E873
:101E3000F80AC0920002D0920102E0920202F092EF
:101E40000302C701B6019F77FF90EF90DF90CF901C
:101E5000BF90AF909F908F90089560930002709311
:101E60000102809302029093030208951F93FC01E4
:101E700099278827BC01E89411911032E9F31930B1
:101E800010F01E30C8F31B3251F01D3249F4689433
:101E900006C00E945D0F610F711D811D911D119182
:101EA00010531A30B0F33EF490958095709561957B
:101EB0007F4F8F4F9F4F1F910895592F482F372FD6
:101EC000262F660F771F881F991F660F771F881FA1
:101ED000991F620F731F841F951F660F771F881F3E
:101EE000991F089591110C947B0F803219F089503D
:101EF0008550C8F70895992788270895F999FECF46
:101F000092BD81BDF89A992780B50895262FF99939
:101F1000FECF1FBA92BD81BD20BD0FB6F894FA9ACC
:101F2000F99A0FBE01960895052E97FB1EF40094B2
:101F30000E94AB0F57FD07D00E94C60F07FC03D0CD
:101F40004EF40C94AB0F50954095309521953F4F32
:101F50004F4F5F4F089590958095709561957F4F95
:101F60008F4F9F4F08950E94E80FA59F900DB49F3B
:101F7000900DA49F800D911D11240895B7FF0C941E
:101F8000B30F0E94B30F821B930B0895A1E21A2E88
:101F9000AA1BBB1BFD010DC0AA1FBB1FEE1FFF1F0D
:101FA000A217B307E407F50720F0A21BB30BE40B5D
:101FB000F50B661F771F881F991F1A9469F76095A4
:101FC0007095809590959B01AC01BD01CF0108955E
:101FD000A29FB001B39FC001A39F700D811D11246A
:101FE000911DB29F700D811D1124911D089597FBC5
:101FF000072E16F4009407D077FD09D00E94131025
:1020000007FC05D03EF4909581959F4F08957095FB
:1020100061957F4F0895EE0FFF1F881F8BBF0790BC
:10202000F691E02D1994AA1BBB1B51E107C0AA1F12
:10203000BB1FA617B70710F0A61BB70B881F991F69
:102040005A95A9F780959095BC01CD0108950F93FD
:102050001F93CF93DF938230910510F482E090E0DC
:10206000E0910408F091050830E020E0B0E0A0E045
:10207000309799F42115310509F44AC0281B390B12
:1020800024303105D8F58A819B816115710589F16C
:10209000FB0193838283FE0111C040815181028143
:1020A000138148175907E0F04817590799F410971A
:1020B00061F012960C93129713961C933296CF01EF
:1020C000DF91CF911F910F91089500930408109311
:1020D0000508F4CF2115310551F04217530738F0A8
:1020E000A901DB019A01BD01DF01F801C1CFEF01B8
:1020F000F9CF9093050880930408CDCFFE01E20F3D
:10210000F31F819391932250310939832883D7CFCC
:102110002091020830910308232B41F420910602FC
:1021200030910702309303082093020820910402A3
:10213000309105022115310541F42DB73EB740918C
:10214000080250910902241B350BE0910208F0911E
:102150000308E217F307A0F42E1B3F0B28173907DB
:1021600078F0AC014E5F5F4F2417350748F04E0FF3
:102170005F1F5093030840930208819391939FCF70
:10218000F0E0E0E09CCFCF93DF930097E9F0FC0113
:10219000329713821282A0910408B0910508ED01D4
:1021A00030E020E01097A1F420813181820F931F4D
:1021B00020910208309103082817390709F061C0FF
:1021C000F0930308E0930208DF91CF910895EA01AC
:1021D000CE17DF07E8F54A815B819E014115510565
:1021E000B1F7E901FB83EA8349915991C40FD51FE7
:1021F000EC17FD0761F4808191810296840F951F91
:10220000E90199838883828193819B838A83F0E0AB
:10221000E0E012968D919C9113970097B9F52D915E
:102220003C911197CD010296820F931F20910208D5
:10223000309103082817390739F6309751F5109275
:10224000050810920408B0930308A0930208BCCFBD
:10225000D383C28340815181840F951FC817D9074A
:1022600061F44E5F5F4F88819981480F591F5183F8
:1022700040838A819B81938382832115310509F0F4
:10228000B0CFF0930508E09304089ECFFD01DC0178
:10229000C0CF13821282D7CF4F925F926F927F92FC
:1022A0008F929F92AF92BF92CF92DF92EF92FF9266
:1022B0000F931F93CF93DF938C01009799F4CB0179
:1022C000DF91CF911F910F91FF90EF90DF90CF9012
:1022D000BF90AF909F908F907F906F905F904F9046
:1022E0000C942710FC01E60FF71F9C0122503109C6
:1022F000E217F30708F4AEC0D901CD91DC91119734
:10230000C617D70720F1C530D10578F0CE01049764
:102310008617970750F0C61BD70B2297C193D1930E
:102320006D937C93CF010E94C310C801DF91CF91C0
:102330001F910F91FF90EF90DF90CF90BF90AF90E3
:102340009F908F907F906F905F904F9008955B016A
:10235000AC1ABD0A4C018C0E9D1EA0910408B091D0
:102360000508512C412CF12CE12C109731F580916E
:102370000208909103088815990509F05CC046167B
:10238000570608F058C0809104029091050200970A
:1023900041F48DB79EB74091080250910902841B09
:1023A000950BE817F90708F055C0F0930308E09380
:1023B0000208F90171836083B8CF8D919C911197C8
:1023C00012966C90129713967C901397A815B905E6
:1023D00059F56C0142E0C40ED11CCA14DB0420F193
:1023E000AC014A195B09DA011296159780F06282F6
:1023F000738251834083D9016D937C93E114F1047E
:1024000071F0D7011396FC93EE9312978ECF22961C
:102410008C0F9D1FF90191838083F301EFCFF0931F
:102420000508E093040881CF4816590608F42C01EA
:102430007D01D3019ACFCB010E9427107C01009728
:1024400049F0AE01B8010E942D12C8010E94C310CC
:1024500087016BCF10E000E068CFFB01DC0102C018
:1024600001900D9241505040D8F70895FB01DC01D6
:1024700001900D920020E1F70895FB01DC0141502D
:10248000504048F001900D920020C9F701C01D9204
:0C24900041505040E0F70895F894FFCF51
:10249C00010000000000060880000000000055024A
:1024AC00BF01EC01A2021D02FB010F020D0A005339
:1024BC0054415254007031303100696E7374616C48
:1024CC006C004F4B0063616E63656C007031303291
:1024DC0000726561645F6D6F646500726561645F55
:1024EC0065786974003B00666C6173685F636C654A
:1024FC006172656400636F6E6E00312E302E340095
:10250C0032333035310061746D6567613235363088
:02251C000000BD
:00000001FF
