:100000000C9451000C9479000C9479000C947900B4
:100010000C9479000C9479000C94D90A0C94790012
:100020000C9479000C9479000C9479000C9479006C
:100030000C94D10B0C9479000C9479000C947900F9
:100040000C9479000C9479000C9479000C9479004C
:100050000C946A0A0C9479000C9479000C94790041
:100060000C948F0A0C9479000C9479000C9479000C
:100070000C9479000C94200A0C9479000C9479006B
:100080000C9479000C9479000C94B40A0C94450AF1
:100090000C946D0B0C94240B0C94FE0A0C947900B8
:1000A000670C11241FBECFEFCDBFDFE3DEBF2AE216
:1000B000AAE0B8E201C01D92AA3FB207E1F718E238
:1000C000A0E0B8E2EFECFFE202C005900D92AA308A
:1000D000B107D9F710E0C1E5D0E004C02197FE01D7
:1000E0000E944715C035D107C9F70E94BC0C0C947B
:1000F0006A170C94000080E09091192A891760F427
:10010000282F30E0F901E85EF54D92812454354DF9
:10011000F90190838F5FF0CF8091192A8093C22AD2
:1001200081E08093C32A08959091192A8091C22A70
:10013000981320C080E091E02091192A821770F472
:10014000282F30E0F901E85EF54D42812454354D09
:10015000F9012081421390E08F5FEECF992351F097
:100160009091C32A9F5F9093C32A81E0923009F057
:1001700080E008950E947B00FBCFE4ECFAE2148259
:1001800081E0858316821782108611861286089573
:10019000CF938091192AC2E0863009F0C1E00E9415
:1001A0009400882309F44CC02C2F30E0F901E85E5C
:1001B000F54D9281F901E75EF54D5281265E354D90
:1001C000F9014281892F90E09C013595279535955D
:1001D0002795237033272230310569F1233031050B
:1001E00051F12130310539F11092102A1092112A63
:1001F000982F882788279370850F911D01968093EB
:10020000122A9093132A4093142A8091102A9091D5
:10021000112A029769F444FB992790F99093152AC3
:1002200043FB882780F98093162A47704093172A4A
:1002300083E190E007C02093102A3093112AD8CF91
:1002400081E090E0CF91089520911A2A822F90E0CA
:1002500027FF38C021E02093C62A20911B2A982F1F
:10026000882788279F73822B8093C42A9093C52A5E
:10027000E0911C2A80911D2A2091C42A3091C52A20
:100280004091DD2A5091DE2A9E2F907C903409F017
:1002900047C08E2F90E0E5FBEE27E0F9BC01660F2A
:1002A000771F6E7182958170862B8430B4F491E053
:1002B000823008F490E080E02417350798F483E05A
:1002C00090E008951092C62A8093C42A9093C52A7C
:1002D000E0911B2A80911C2ACFCF83502417350729
:1002E000B0F190E04091DF2A5091E02A4217530785
:1002F00058F12091C72A291309C02091C82A281330
:1003000005C02091C92AE21709F4CDC0992311F143
:100310001092C82A81E08093C72A86E090E0089571
:10032000EF3309F0BCC0E82FEE1FEE27EE1F8F77EA
:10033000823040F4813009F0BDCF91E024173507B9
:1003400088F605C08150CACF882309F4B8CF84E06D
:1003500090E008958093C82A1092C72AE093C92A92
:1003600085E090E008958091DF2A9091E02A82173D
:10037000930708F498C08E2F807F803E11F40C9470
:10038000C800E11105C00E94BD0082E090E0089520
:100390009E2F907E903859F4EF718091CA2AE81709
:1003A00009F481C0E093CA2A87E090E00895903A6A
:1003B000C1F48E2F8F70E4FF0AC09091CB2A891769
:1003C00009F471C08093CB2A88E090E00895909161
:1003D000CC2A891709F467C08093CC2A89E090E081
:1003E0000895803D09F05FC0EF708091C62A882390
:1003F00099F080911D2AE850E83008F054C0F0E0F0
:10040000EC5FFD4F0C94471522022B0234023D0293
:10041000460253020F02190280911C2AECCF9091E0
:10042000CD2A981709F43FC08093CD2A8AE090E046
:1004300008959091CE2A8917B1F18093CE2A8BE04E
:1004400090E008959091CF2A891769F18093CF2A7F
:100450008CE090E008959091D02A891721F1809343
:10046000D02A8DE090E008959091D12A8917D9F093
:100470008093D12A8EE090E008959091D22A891736
:1004800091F08093D22A8FE090E008959091D32A42
:10049000891749F08093D32A80E190E008952417CA
:1004A000350708F060CF81E090E00895E091DC2806
:1004B000F091DD2812861386808181608083089503
:1004C000AF92BF92CF92DF92EF92FF920F931F9362
:1004D000CF93DF936C017B018B01040F151FEB01A0
:1004E0005E01AE18BF08C017D10759F06991D60157
:1004F000ED91FC910190F081E02DC6010995892BC9
:1005000079F7C501DF91CF911F910F91FF90EF9087
:10051000DF90CF90BF90AF900895EF92FF920F932E
:100520001F93CF93DF93C82FD0E0A09695E0CC0F18
:10053000DD1F9A95E1F7E984F82EFF0CFF0CFF0C04
:1005400001E010E08E2D8023A9F02F2D210F30E047
:10055000220F331FF901E458F74D80819181892BD7
:1005600049F00190F081E02D245E374DD9018D9145
:100570009C9109951F5F000F183021F7E986DF91E4
:10058000CF911F910F91FF90EF900895FC01548936
:100590004589252F30E0842F90E0821B930B541760
:1005A00010F0CF96089501970895FC0192898389F0
:1005B000981761F0A389AE0FBF2FB11D59968C918A
:1005C00093899F5F9F73938B90E008958FEF9FEFC8
:1005D0000895FC0192898389981731F08389E80F87
:1005E000F11D818D90E008958FEF9FEF0895FC013C
:1005F00092892389892F90E0805C9F4F821B91090B
:100600008F7399270895CF93DF93EC01E881F981E7
:100610000680F781E02D0995EC85FD8586818F7335
:100620008683EC85FD8585818F7585838B898A8B93
:10063000198ADF91CF910895CF93DF93FC019489BC
:100640008589C485D585981306C08D818F7D8D835E
:10065000DF91CF910895A589AE0FBF2FB11DA75A85
:10066000BF4F2C91858990E001968F739927858BD8
:1006700080E48C83A485B58512962C939489858912
:100680009813E6CFA485B58515968C9115978F7D27
:1006900015968C9387898823D9F2808D80931301D6
:1006A000178AD6CFDC011C96ED91FC910FB607FEA0
:1006B00003C0258125FD04C0248125FD0C941C0365
:1006C0000895EF92FF920F931F93CF93DF93EC0166
:1006D00081E0898B9C898D8998131CC0AC85BD8570
:1006E00014968C91149785FF15C012966C93AC8567
:1006F000BD8580E414968C93EC85FD8585818F7D86
:10070000858381E090E0DF91CF911F910F91FF9061
:10071000EF9008958091110180FF08C0809113012E
:10072000888F8E898093130181E08F8BF62E0C8940
:1007300010E00F5F1F4F0F731127E02E8D898E1170
:1007400004C0CE010E945203F9CFEC89EC0FFD2FBB
:10075000F11DE75AFF4FF0820C8BEC85FD858581FA
:100760008062CECFCF93DF93FC0121892223C9F091
:10077000EC018091110180FF08C080911301808FEE
:1007800086898093130181E0878BEC85FD858581C7
:1007900085FD03C0848186FD04C0CE010E94520302
:1007A000F4CFDF91CF91089581E00895CF93DF9347
:1007B00090E0FC01E45FF04920812F3F69F0FC01EB
:1007C000EA5DF049E08130E2E39FF0011124FC5F33
:1007D0006130710521F42183DF91CF9108958E500E
:1007E0009149EC01A881AF3F69F0CF014096A80F75
:1007F000B92FB11D9FB7F89422838C9188608C9398
:100800009FBFEACFB0E0A0E0F5CF8B3208F05AC02E
:1008100090E0FC01E45FF04940814F3F09F452C091
:10082000FC01E852F149E081EE2329F0E130A1F02A
:1008300010F0E63018F1FC01EA5DF049E081A0E239
:10084000EA9FF0011124FC5F2081242341F161150E
:100850007105F1F446830895E091010ADC01AE5080
:10086000B1495C915C5F21E030E001C0220F5A95F4
:10087000EAF720952E232093010ADDCF20E1E29FA5
:10088000F0011124E05AF54F21812F7E2183D3CF2F
:100890006230710511F447830895458308958E50A1
:1008A0009149DC018C91309771F08F3F61F0709627
:1008B000E80FF11D9FB7F8948081672B39F4877F8B
:1008C00080839FBF0895F0E0E0E0F4CF8860F8CF28
:1008D000CF92DF92EF92FF920F931F93CF93DF930C
:1008E000EC016A017B01022F8989882339F0E881B4
:1008F000F9810288F389E02DCE01099598898091CC
:10090000E205892B8093E2051FB7F89460E070E25E
:1009100081EA97E0A70196010E94061569017A0114
:100920008FEFC81AD80AE80AF80AF694E794D79421
:10093000C794EC85FD8586818D7F8683EC85FD855A
:1009400086818683198AA09123110A2E000CBB0B85
:10095000A70196010E944D1520E034E040E050E0F0
:100960000E942815EC85FD85C20ED31EE41EF51EDF
:10097000C086D186EC85FD850783EC85FD85868163
:10098000806C8683EC85FD858581806885838E8576
:100990008B3220F462E070E00E94D6038F8561E024
:1009A00070E00E9405048F858B3220F461E070E0D6
:1009B0000E94D6031FBFDF91CF911F910F91FF902F
:1009C000EF90DF90CF900895CF93DF938FB7F89497
:1009D000209110283091112840911228509113280D
:1009E000E091BA0A9091B60A90FF06C02F5F3F4F80
:1009F0004F4F5F4FE091BA0A8FBFA0911A28B09174
:100A00001B28C0911828D09119280E94A714EC9F88
:100A10009001ED9F300D1124620F731F811D911DF8
:100A2000DF91CF9108952FB7F89460910C287091C1
:100A30000D2880910E2890910F282FBF08950F93B5
:100A40001F930E9413056093292A70932A2A80938A
:100A50002B2A90932C2A81E29AE20E94D50297FFDA
:100A60001DC00E9413050091292A10912A2A209165
:100A70002B2A30912C2A601B710B820B930B009157
:100A8000252A1091262A2091272A3091282A60179A
:100A9000710782079307F8F28FEF9FEF1F910F9175
:100AA00008950F931F930E9413056093292A709352
:100AB0002A2A80932B2A90932C2A81E29AE20E9480
:100AC000E90297FF1DC00E9413050091292A109189
:100AD0002A2A20912B2A30912C2A601B710B820B21
:100AE000930B0091252A1091262A2091272A3091D4
:100AF000282A6017710782079307F8F28FEF9FEF9C
:100B00001F910F910895CF92DF92EF92FF92CF93B2
:100B1000D12CC12C81E29AE20E94F7021816190624
:100B20000CF04EC00E945105FC0197FD45C08D326E
:100B3000910519F0C0970A97C0F5C12CD12C760108
:100B4000C0E0E130D1F0ED32F105A1F1CF01C09765
:100B50000A9798F4AAE0B0E0A70196010E94A714B2
:100B60006F01FF0FEE08FF08C60ED71EE81EF91E24
:100B700080E3C81AD108E108F10881E29AE20E94F4
:100B8000D5020E945105FC01C0970A97D0F2E130CE
:100B9000C1F2CC2309F4BECFF094E094D094C09479
:100BA000C11CD11CE11CF11CB5CF81E29AE20E946C
:100BB000D502B8CFC1E0E1CFC12CD12C7601AACFAC
:100BC000C601CF91FF90EF90DF90CF9008950F93E3
:100BD0001F930E941305E0919F292BE0E29FF001F3
:100BE0001124E151F74D0081118122813381601B75
:100BF000710B820B930B21E0653F714081059105DC
:100C000008F420E0822F1F910F9108958F929F92F8
:100C1000AF92BF92CF92DF92EF92FF920F931F930A
:100C2000CF93C82FC62ED12C2BE0629FF001112448
:100C3000E151F74D81859285892B21F488E893E174
:100C400081879287C13009F07CC08BE08C9D800148
:100C50008D9D100D11240151174DF801C085C13033
:100C600009F047C00E94E404F801E184F284848022
:100C70009580A680B780681979098A099B09470180
:100C8000B12CA12C86169706A806B90698F4F5EFA4
:100C9000EF16F1E0FF0670F00E94E404F8016483AF
:100CA000758386839783F9E8EF16F3E1FF0658F022
:100CB000C1E007C0C701855F91408439914150F47C
:100CC000C0E08C2F1EC044E6E41AF108F801E1866A
:100CD000F286F7CFF4EFEF16F1E0FF0691F48BE028
:100CE0008C9DF0018D9DF00D1124E151F74D108682
:100CF000E8CFC11106C00E94E705813011F4F80168
:100D00008087CF911F910F91FF90EF90DF90CF9050
:100D1000BF90AF909F908F9008950E94E404F701D8
:100D2000648375838683978381E08087043FF1E045
:100D30001F0708F4BDCF0C591F4FF7010187128719
:100D4000B7CF0E94E4044BE04C9D90014D9D300DC7
:100D50001124A9014151574D7A01FA0101851285EB
:100D600084809580A680B780681979098A099B09D3
:100D70004801B12CA12C86169706A806B90620F4C6
:100D80000838F3E11F0748F2C801855F91408339B5
:100D9000914108F495CF0838134109F0B2CF9FCFA5
:100DA000DC01ED91FC910088F189E02D23E030E039
:100DB0000994FC0101900020E9F73197AF01481B2D
:100DC000590BBC0181E29AE20C946002CF93DF934D
:100DD000FC01448155816081718181E29AE20E9427
:100DE0006002EC018AE59FE60E94D9068C0F9D1FE8
:100DF000DF91CF910895EF92FF920F931F93CF93BE
:100E0000DF937C01D0E0C0E0062F10E0C017D107CF
:100E10002CF4C7010E94E6062196F8CFDF91CF910E
:100E20001F910F91FF90EF9008958F929F92AF9234
:100E3000BF920F931F93CF93DF93CDB7DEB7A197E8
:100E4000CDBFDEBF19A2423008F44AE08E010F5D2B
:100E50001F4F842E912CB12CA12CA50194010E942E
:100E60000615E62FB901CA01EA30DCF4E05DD801CD
:100E7000EE938D01232B242B252B79F790E080E036
:100E8000109719F0CD010E94D906A196CDBFDEBF03
:100E9000DF91CF911F910F91BF90AF909F908F9056
:100EA0000895E95CE4CFCF93DF930E94D906EC016B
:100EB0008AE59FE60E94D9068C0F9D1FDF91CF9196
:100EC0000895FC0180819181009711F00C94F11537
:100ED0000895FC0124813581232B39F421E0FB01A5
:100EE0008081882349F020E007C0808191810E94A1
:100EF000521721E0892BB9F7822F08950F931F9382
:100F0000CF93DF93EC0188819981009759F02A8172
:100F10003B812617370730F081E0DF91CF911F9199
:100F20000F9108958B016F5F7F4F0E947A16009793
:100F300059F0888399830A831B832C813D81232B5D
:100F400059F7FC011082E8CF80E0E7CFEF92FF92E3
:100F50000F931F93CF93DF93EC017B018A01BA01BA
:100F60000E947E0728813981811114C02115310525
:100F700019F0C9010E94F115188219821C821D8284
:100F80001A821B82CE01DF91CF911F910F91FF90AA
:100F9000EF9008950C831D83A801B701C9010E9439
:100FA0003717E881F9818C819D81E80FF91F108244
:100FB000E9CFFC0110821182128213821482158201
:100FC000FB0101900020E9F73197AF01461B570B59
:100FD0000C94A6079F92AF92BF92CF92DF92EF92AE
:100FE000FF920F931F93CF93DF93EC015B017A0184
:100FF00069016CE57FE60E94D907EA0CFB1CC7017A
:101000008A199B098C159D05ECF4F70191907F01DD
:101010000C811D810F5F1F4FB801CE010E947E071A
:10102000882369F3E881F9818C819D81E80FF91F9C
:1010300090820C831D8388819981080F191FF80104
:101040001082DDCFCE01DF91CF911F910F91FF90E4
:10105000EF90DF90CF90BF90AF909F9008957F92D8
:101060008F929F92AF92BF92CF92DF92EF92FF92B8
:101070000F931F93CF93DF93CDB7DEB7EA97CDBF22
:10108000DEBF7C01762E19821A821B821C821D8291
:101090001E82FC01608171816115710531F044810E
:1010A0005581CE0101960E94A60781E29AE20E9434
:1010B000F702892B29F4CE0101960E94E606F5CFAE
:1010C0006CE57FE6CE01C5960E94D9070E941F05F8
:1010D0006C0197FD1BC009AD1AAD0F5F1F4FB80122
:1010E000CE01C5960E947E07882381F3EDA9FEA953
:1010F00089AD9AADE80FF91FC08209AF1AAF8DA96B
:101100009EA9080F191FF8011082E0CFADA8BEA854
:10111000A114B10439F009AD1AAD6501011511052D
:1011200009F0FBC0CE0101960E94610709AD1AAD1E
:101130000115110509F027C11982CE01C5960E943B
:10114000E6060E9483050097C1F3029709F051C19A
:101150006DE57FE6CE0189960E94D90765E0CE0154
:1011600089960E94FB06CE0189960E94610723E0C2
:1011700030E050E040E0BE016F5F7F4FCE018F96C0
:101180000E94EA078FA598A960E0009711F00E94DD
:101190004314072D10E087E0D82ED09EF001D19E99
:1011A000F00D1124E056F64D628365E67FE6C70137
:1011B0000E9469078111FFC06AE67FE6C7010E94AD
:1011C0006907811104C16FE67FE6C7010E946907C4
:1011D000811100C127E030E043E050E0BE016F5FC5
:1011E0007F4FCE0189960E94EA078FA598A90E9499
:1011F000F11589A59AA58FA798AB8DA59EA58BAB58
:101200009CAB8BA59CA589AB9AAB19A61AA61DA66B
:101210001EA61BA61CA6CE0189960E9461078FA55B
:1012200098A9009709F4C3C00E94431487E0809FE7
:10123000F001819FF00D1124E056F64D608371831B
:1012400064E77FE6C7010E946907811108C06FE665
:101250007FE6C7010E946907882309F4C8C02AE015
:1012600030E047E050E0BE016F5F7F4FCE018996CE
:101270000E94EA078FA598A90E94F11589A59AA551
:101280008FA798AB8DA59EA58BAB9CAB8BA59CA582
:1012900089AB9AAB19A61AA61DA61EA61BA61CA64C
:1012A000CE0189960E9461078FA598A960E00097FA
:1012B00011F00E94431484E6861B97E0909FF00192
:1012C000919FF00D1124E056F64D868389E79FE645
:1012D0000E9453070E94830582309105B9F3892B40
:1012E000A9F3CE018F960E94610711E0CE01C59649
:1012F0000E946107812FEA96CDBFDEBFDF91CF91BB
:101300001F910F91FF90EF90DF90CF90BF90AF9023
:101310009F908F907F90089564014601FFEF8F1A90
:101320009F0AF6018081082E000C990B0E947F1401
:10133000892B91F7015011090A0D1B1DF8018081BD
:10134000082E000C990B0E947F14892B31F00C158C
:101350001D0518F001501109F1CFA8014F5F5F4F33
:101360004C195D0949AF5AAFAC14BD0420F4B60165
:10137000C5010E944017EDA9FEA989AD9AADE80FFD
:10138000F91F1082CFCE0732110510F007E210E0EE
:101390006DA97EA9A801CE0101960E945B17E1E02C
:1013A000F0E0EC0FFD1FE00FF11F1082C6CE60E0F1
:1013B00070E0CB013BCFC8010197D89EF001D99EC8
:1013C000F00D1124E056F64D608171812FCFC801D8
:1013D0000397F3CF6FE67FE6C7010E94690770E0CD
:1013E00060E0882309F422CFC8010297E6CF80E0AD
:1013F00064CF6CE77FE6CE0189960E94D90765E04D
:10140000CE0189960E94FB06CE0189960E94610753
:1014100010E06CCF1F93CF93DF93EC01162F0E9447
:101420008B14181739F0612FCE01DF91CF911F91E6
:101430000C949314DF91CF911F9108950C948B1409
:101440001F920F920FB60F9211242F933F934F9339
:101450005F936F937F938F939F93AF93BF93EF931C
:10146000FF9385E00E948D02FF91EF91BF91AF91B4
:101470009F918F917F916F915F914F913F912F91AC
:101480000F900FBE0F901F9018951F920F920FB6DE
:101490000F9211242F933F934F935F936F937F93FA
:1014A0008F939F93AF93BF93EF93FF9384E00E943A
:1014B0008D02FF91EF91BF91AF919F918F917F919D
:1014C0006F915F914F913F912F910F900FBE0F90B1
:1014D0001F9018951F920F920FB60F9211242F9301
:1014E0003F934F935F936F937F938F939F93AF93AC
:1014F000BF93EF93FF9383E00E948D02FF91EF91E2
:10150000BF91AF919F918F917F916F915F914F911B
:101510003F912F910F900FBE0F901F9018951F9223
:101520000F920FB60F9211242F933F934F935F9317
:101530006F937F938F939F93AF93BF93EF93FF939B
:1015400082E00E948D02FF91EF91BF91AF919F9138
:101550008F917F916F915F914F913F912F910F905C
:101560000FBE0F901F9018951F920F920FB60F92FB
:1015700011242F933F934F935F936F937F938F9398
:101580009F93AF93BF93EF93FF9381E00E948D02EF
:10159000FF91EF91BF91AF919F918F917F916F914B
:1015A0005F914F913F912F910F900FBE0F901F9021
:1015B00018951F920F920FB60F9211242F933F93FD
:1015C0004F935F936F937F938F939F93AF93BF934B
:1015D000EF93FF9380E00E948D02FF91EF91BF9106
:1015E000AF919F918F917F916F915F914F913F91BB
:1015F0002F910F900FBE0F901F9018951F920F9272
:101600000FB60F9211242F933F934F935F936F93D5
:101610007F938F939F93AF93BF93EF93FF9381E259
:101620009AE20E941C03FF91EF91BF91AF919F91AD
:101630008F917F916F915F914F913F912F910F907B
:101640000FBE0F901F9018951F920F920FB60F921A
:1016500011242F933F934F935F936F937F938F93B7
:101660009F93AF93BF93EF93FF93E0912D2AF09157
:101670002E2A818181FD2FC060818091332A8F5F66
:101680008F739091342A891741F0E091332AF0E06A
:10169000EF5DF54D618F8093332A8091BA2A909146
:1016A000BB2A009739F0DC01ED91FC910190F081AB
:1016B000E02D0995FF91EF91BF91AF919F918F918F
:1016C0007F916F915F914F913F912F910F900FBE3E
:1016D0000F901F9018958081EDCF1F920F920FB63B
:1016E0000F9211242F933F934F935F936F937F93A8
:1016F0008F939F93AF93BF9340910C2850910D28E7
:1017000060910E2870910F2880910A2890910B28E3
:101710002091162830911728420F531F611D711D0B
:101720002091142830911528820F931F883E23E0C2
:10173000920730F0885E93404F5F5F4F6F4F7F4F4F
:1017400080930A2890930B2840930C2850930D28DF
:1017500060930E2870930F28809110289091112883
:10176000A0911228B09113280196A11DB11D80935C
:10177000102890931128A0931228B093132881E089
:101780008093B60ABF91AF919F918F917F916F9196
:101790005F914F913F912F910F900FBE0F901F902F
:1017A00018951F920F920FB60F9211242F933F930B
:1017B0008F939F93EF93FF93E091E028F091E128BE
:1017C00080819091DF288923E091DC28F091DD2849
:1017D00096819160968390819E7F90831286138676
:1017E0002091E2282F5F2093E2289CB3923061F190
:1017F00068F4913011F1FF91EF919F918F913F919A
:101800002F910F900FBE0F901F901895943091F16B
:10181000983089F7811158C02091E92890E080E044
:10182000821708F048C0FC01EE51F74D3181FC01F0
:10183000E85EF54D32830196F3CF81112CC02B3039
:10184000D0F282E08CBBD7CF8823A9F284E08CBB96
:101850001092E9281092E3281092E4281092E528CB
:101860001092E6281092E7281092E8281092E228B9
:101870001DBAC1CF9DB3990F9DBB811101C0E89ADC
:101880008091E228883009F0B6CF9091E92896300F
:1018900029F481E08CBB1092E228ADCF8CBBE091A3
:1018A000E92881E08E0F8093E928F0E08DB3EE51B6
:1018B000F74D8183A0CF2093192A81E08CBBF89447
:1018C0008093182A7894D2CF84E08CBBCFCFE1E20A
:1018D000FAE21282138288EE93E0A0E0B0E0848303
:1018E0009583A683B78384E49FE68083918380E613
:1018F00098E08487958788E1868789E1878780E4F7
:10190000808B128A138A148A158A86E2868B178A3C
:10191000108E1092BA2A1092BB2AECEBFAE21682D1
:10192000178281E08093EA2AE1EEFAE28FEF9FEFDF
:1019300080839183828393838483958317822FEF9F
:101940002087E4ECFAE28083918312821382EDED2A
:10195000FAE280839183828393830E94BD0088E2B0
:1019600090E0A0E0B0E08093D92A9093DA2AA09387
:10197000DB2AB093DC2A0895CF93DF93CDB7DEB78F
:101980002697CDBFDEBF88ED90E084BF90936100C5
:1019900080E094E2A4EFB0E08093002890930128C7
:1019A000A0930228B093032880910206866080935A
:1019B00002068091000681608093000680910206F5
:1019C0008F7C809302068091A0008F788093A00086
:1019D000809102068061809302061092E20581E008
:1019E0008093E40583E08093010A8FEF90E0809379
:1019F000260A9093270A80E890E08093380A909313
:101A0000390A80933A0A90933B0A80933C0A909358
:101A10003D0A8BE08093000A8091E5058160809308
:101A2000E5058091E50582608093E505E0E8FAE050
:101A300027E01FEF90E885E0218314879587808356
:101A40007096E03C3AE0F307B9F780E094E08093C9
:101A50001A2890931B2880911A2890911B282FEF09
:101A600030E0B9010E94F21460931828709319288D
:101A700080911A2890911B28E8EEF3E0BF010E94A4
:101A8000F214609316287093172880911A28909169
:101A90001B28BF010E94F2148093142890931528EC
:101AA0002093BC0A3093BD0A8091B50A816080936F
:101AB000B50A84E08093B00A8091B00A8160809377
:101AC000B00A78941092ED2802E00093202A1DBA03
:101AD000FF24F394FCBA1092E2281092192A109273
:101AE000182A80E89AE08093DC289093DD28F89407
:101AF000E091DC28F091DD2880818E7F8083128642
:101B000013861082118285818160858380E294E052
:101B100084879587789462E070E082E00E94D60323
:101B200086E592E080937C2890937D2810921C2873
:101B300010921D2880911004887F8093100480915A
:101B400010048260809310041092DE28F092DF2847
:101B500088E094E08093E0289093E1281093EE28A9
:101B60000093EA2A0E9413052B013C0140E052EC4D
:101B700061E070E081E29AE20E94D00667E0962E72
:101B80008824839483E89FE60E94530781E29AE2C7
:101B90000E94F702181619060CF095C153E0C52EE5
:101BA00083E89FE60E9453070E9483058C01181664
:101BB0001906B4F781E29AE20E94F702892B81F7B5
:101BC0008091EA2890E047E0489FF001499FF00D9E
:101BD0001124E056F64D14820E36110509F40AC19F
:101BE00008F04CC00736110509F49EC040F50536D3
:101BF000110509F47DC00636110591F60197989EEE
:101C0000D001999EB00D1124A056B64D8CE01596CA
:101C10008C9385821091EA2865E67FE6CE010196D5
:101C20000E94D907612FCE0101960E942F08182F1C
:101C3000CE0101960E946107112361F36FC008363F
:101C4000110509F49EC00936110509F0A9CF44E039
:101C500045831091EA286FE67FE6CE0101960E9447
:101C6000D907612FCE0101960E942F08182FCE01AF
:101C700001960E946107112361F350C0023D1105D6
:101C800009F4FDC118F50F36110509F462C1083CCD
:101C9000110509F085CF64EA7FE6CE0101960E9426
:101CA000D90762E0CE0101960E94FB06CE010196A3
:101CB0000E94610710E000E060E0C8010E940A0A8B
:101CC0000F5F1F4F01311105B9F76ACF043D1105B0
:101CD00009F4DBC108F4D6C164EC7FE6053D1105CB
:101CE00009F05ECFCE0101960E94D90762E04FC194
:101CF0005BE055831091EA2869E87FE6CE01019602
:101D00000E94D907612FCE0101960E942F08182F3B
:101D1000CE0101960E946107112361F38091EA28A8
:101D20008F5F8093EA283CCF9C0122503109929E1C
:101D3000D001939EB00D1124A056B64D2DE01596FE
:101D40002C930197989ED001999EB00D1124A05616
:101D5000B64D15968C92C5821091EA2864E77FE60D
:101D6000CE0101960E94D907612FCE0101960E94F3
:101D70002F08182FCE0101960E946107112361F3ED
:101D8000CDCF9C0123503109929ED001939EB00D7E
:101D90001124A056B64D3EE015963C939C0122506E
:101DA0003109929ED001939EB00D1124A056B64DDC
:101DB00015968C920197989ED001999EB00D112492
:101DC000A056B64D1596CC9285821091EA286AE607
:101DD0007FE6CE0101960E94D907612FCE010196C0
:101DE0000E942F08182FCE0101960E94610711232F
:101DF00061F394CF40EAE42E49E2F42E10E000E0D3
:101E0000F701608171816F3F710509F00CF49AC090
:101E10005B01FFEFAF1AB1082FEFA216B10409F072
:101E20000CF494C06B013EEFC31A31E0D30AAA242C
:101E3000AA94B12C6FEF70E0312C4FEFC416D1048F
:101E400061F058F0332433943C0CAA24AA94B12CAA
:101E50006FEF70E0CC24CA94D12CC8010E940A0A0A
:101E6000F7016281C80141960E940A0A60E0C80138
:101E700081960E940A0AF7016581C801C1960E94F5
:101E80000A0AF7016681C8018F5B9F4F0E940A0A08
:101E90006A2DC8018F5A9F4F0E940A0A6C2DC801F3
:101EA0008F599F4F0E940A0A632DC8018F589F4F78
:101EB0000E940A0A0F5F1F4FF7E0EF0EF11C00317E
:101EC000110509F09DCF0E94130564197509860953
:101ED0009709683873418105910508F453CE81E272
:101EE0009AE20E94030300EA19E2F12CE12C84E15A
:101EF000B82EC7010E941E0AC82EC7018F5A9F4FD5
:101F00000E941E0AC80EDD24DD1CC7018F599F4F99
:101F10000E941E0AC80ED11CC7018F589F4F0E94F5
:101F20001E0A8C0D9D2D911DF80180839183C701A0
:101F300041960E941E0A803111F008F0A9C0F801F4
:101F40008283AEC0A12C312CC12C87CF6FEF70E003
:101F5000FACF6EE87FE6CE0101960E94D90762E0D3
:101F6000CE0101960E94FB06CE0101960E946107F8
:101F70000E9483058C010097D9F38F3F910581F46E
:101F800068E97FE6CE0101960E94D90765E0CE019F
:101F900001960E94FB06CE0101960E94610700CEC9
:101FA00001970E941E0AF82EC80140960E941E0A40
:101FB000A82EC80180960E941E0AB82EC801C0969D
:101FC0000E941E0AD82EC801805C9F4F0E941E0AE4
:101FD000E82EC801805B9F4F0E941E0A282EC80170
:101FE000805A9F4F0E941E0A382EC80180599F4F69
:101FF0000E941E0A70E060E0FF2049F02F2D220DA4
:102000003327331FB901630D711D680F711D072E32
:10201000000C880B990B4AE00E94150782EA9FE6A4
:102020000E94D9066A2D70E090E080E04AE00E94AC
:10203000150782EA9FE60E94D9066B2D70E090E0BA
:1020400080E04AE00E94150782EA9FE60E94D906D6
:102050006D2D70E090E080E04AE00E94150782EA72
:102060009FE60E94D9066E2D70E090E080E04AE085
:102070000E9415078AE59FE60E94D90679CF62EB98
:102080007FE630CE67EB7FE62DCE6DEB7FE62ACE86
:10209000813109F454CF823109F051CFF801B28275
:1020A000C70181960E941E0AF8018483C701C19668
:1020B0000E941E0AF8018583C7018F5B9F4F0E9413
:1020C0001E0AF801868382818B3220F461E070E081
:1020D0000E94D603FFEFEF1AFF0A095F1F4F2FE0A0
:1020E000E216F10409F005CFB0E14B2EBAE25B2E07
:1020F00007E0AA24A394B12CFBE06F2EA3E03A2EB4
:102100008091182A882309F48BC01092EB28109232
:10211000EC2880E090E02091192A821740F4E82F03
:10212000F0E0E85EF54D228192278F5FF4CF99238E
:1021300051F08091ED288F5F8093ED28A092EB28DD
:10214000B092EC2857C08091D42A882371F1E09096
:102150001A2A10911B2AF0901C2A0E941305209124
:10216000D52A3091D62A4091D72A5091D82A621B7D
:10217000730B840B950B2091D92A3091DA2A409168
:10218000DB2A5091DC2A621773078407950708F44D
:10219000F9C01092D42A1092C22A1092C32A90E059
:1021A00080E08093EB289093EC288091EB2890912D
:1021B000EC28892BF9F41092D42A80911A2A8111E3
:1021C00051C180911B2A811146C141E04093D42A1C
:1021D0000E9413056093D52A7093D62A8093D72A3C
:1021E0009093D82A0E94BD0082E090E08093EB2873
:1021F0009093EC28F8941092182A78948091EF2A02
:102200009091F02A2091F32AE0EAF9E2408151818D
:102210008417950709F4238337964E165F06B1F7A6
:1022200010919F29E12EF12C0E9DF0010F9DF00DD4
:102230001124E056F64D63817580C70101964C016B
:10224000611143C284EF870D833008F03EC2848160
:10225000823069F40E9413056E9CF0016F9CF00DB2
:102260001124E151F74D60837183828393830E9D26
:10227000F0010F9DF00D1124E056F64D348261E01F
:10228000610F80E00E940606682F70E0089DF00153
:10229000099DF00D1124E056F64D82810E9405043F
:1022A000670194E0C90ED11CECE07E1609F4A8C1C8
:1022B00097012E5F3F4F029FC001039F900D112495
:1022C0009C012056364D4901F9018581833009F082
:1022D00097C10C9DF0010D9DF00D1124E056F64DB7
:1022E000258062E0610F80E00E940606682F70E0A2
:1022F000F40182810E940504FEE07F1281C124E086
:1023000022127EC163E0610F81E00E940606682F01
:1023100070E0C7010396089FF001099FF00D11249A
:10232000E056F64D82810E9405040C9DC0010D9D72
:10233000900D1124AC014056564D4A01FA017380AC
:102340002580711069C1F4E02F1266C164E0610F4D
:1023500080E00E940606682F70E0F40182810E94EE
:102360000504612F81E00E940606682F70E00E9D33
:10237000F0010F9DF00D1124E056F64D82810E9470
:1023800005047FC1E1100FC0111110C00E94130598
:102390006093D52A7093D62A8093D72A9093D82A0F
:1023A00081E090E0FECE3FEFE31681F38E2D807F3B
:1023B0008037B1F70E9413056093D52A7093D62A0F
:1023C0008093D72A9093D82A8091192A843041F794
:1023D0000E949400882321F38E2D90E09C01359576
:1023E000279535952795237033272230310571F1D4
:1023F0002330310559F12130310541F11092102A75
:102400001092112A982F882788279370810F911D89
:1024100001968093122A9093132AF092142A8091A5
:10242000102A9091112A029771F4F4FA992790F9E1
:102430009093152AF3FA882780F98093162A8F2D16
:1024400087708093172A84E190E0ABCE2093102A06
:102450003093112AD7CF80911B2A80911B2A81E0CB
:1024600090E0C4CE87FD03C00E942401BFCE803C13
:1024700008F0C2C080911B2A90E080959095880F4B
:10248000991F880F991F9C01207C317040911A2A56
:102490004F735091EA2A842F90E0552339F0513040
:1024A00021F4411102C0205C3F4F0197820F931F1E
:1024B0008093ED2A9093EE2A80911B2A90911C2AFA
:1024C000282F30E0A9015595479543704F5F409301
:1024D000F22A382F31703093F32AE82FE770E09317
:1024E000F12A83FB222720F92093F42A2091ED2A58
:1024F0003091EE2AB901660F771F660F771F460FDE
:10250000572F511D4093EF2A5093F02A4091E12A12
:102510005091E22A2417350738F04091E32A509170
:10252000E42A42175307C8F42F3F57E03507A9F0B4
:102530008091E52A9091E62A2817390729F480919D
:10254000E72AE81709F48BCF2093E52A3093E62A8F
:10255000E093E72A81E190E049CE87FF24C0109202
:10256000EB2A1092EC2A4091192A443009F14630A6
:10257000D1F1433009F073CF4091E52A5091E62A1A
:102580002417350729F49091E82A891709F467CFB1
:102590002093E52A3093E62A8093E82A87FF5FCFCD
:1025A00082E190E023CEA092EB2AB092EC2ADBCF1E
:1025B0004091E52A5091E62A2417350749F44091C5
:1025C000E82A841305C04091E92A941709F447CFFB
:1025D0002093E52A3093E62A8093E82A9093E92A0B
:1025E0009093F52ADDCF80911C2A807F803E09F0F0
:1025F00036CF0E94C800FACD883E08F09FCD34CF78
:10260000612F81E00E940606682F70E00E9DF001A8
:102610000F9DF00D112484CE0E94E7058130E1F575
:10262000F1E07F1239C024E022122BC00C9DC001C2
:102630000D9D900D1124AC014056564D4A01FA01F2
:1026400094818681981758F1612F80E00E940606D8
:10265000682F70E00E9DF0010F9DF00D1124E056E3
:10266000F64D82810E94050464E0610F81E00E94C2
:102670000606682F70E0F40182810E940504F401CF
:10268000748280919F298F5F80939F29813108F404
:1026900037CD10929F2930CDF4E02F12F2CF0C9D50
:1026A000C0010D9D900D11249C012056364D7901DD
:1026B000F90184818F5F848364E0610F80E00E9470
:1026C0000606682F70E0F70159CE089DF001099DBC
:1026D000F00D1124E056F64D8381813009F0B4C02D
:1026E0002BE0271508F0B0C08581813051F60E9D92
:1026F000F0010F9DF00D1124E056F64D84818330DA
:1027000069F40E9413056E9CF0016F9CF00D11247A
:10271000E151F74D60837183828393830E9DC001E5
:102720000F9D900D1124AC014056564D6A0122E0D8
:10273000FA01248361E0610F81E00E940606682FA0
:1027400070E0089DF001099DF00D1124E056F64D52
:1027500082810E940504612F80E00E940606682F96
:1027600070E0F60182810E940504FEE07F122EC017
:1027700097012C5F3F4F029FC001039F900D1124D2
:102780009C012056364D6901F90185818430F1F4B0
:1027900064E0610F80E00E940606682F70E0F60199
:1027A00082810E94050463E0610F80E00E940606BA
:1027B000682F70E0C7010396089FF001099FF00D94
:1027C0001124E056F64D82810E9405040E94E7051F
:1027D00097012E5F3F4F8130B1F4029FC001039FEC
:1027E000900D1124AC014056564D6A01FA01F38058
:1027F000F1E0FF1208C0FA018581833021F4948151
:102800008681981798F4029FC001039F900D1124B0
:102810009C012056364D7901F9018581833009F0FC
:1028200030CF84818F5F848362E047CF62E0610FA5
:1028300081E00E940606682F70E0F60182810E9406
:102840000504F601F4821DCFFBE07F121ACF0E9D26
:10285000F0010F9DF00D1124E056F64D8281948118
:10286000913029F4611103C061E070E088CD70E01F
:102870000E9405040E9DF0010F9DF00D1124E056FD
:10288000F64D1482FECE1F93FC0199278827BC01C8
:10289000E89411911032E9F3193010F01E30C8F3AA
:1028A0001B3251F01D3249F4689406C00E946A142C
:1028B000610F711D811D911D119110531A30B0F3DC
:1028C0003EF490958095709561957F4F8F4F9F4F07
:1028D0001F910895592F482F372F262F660F771FE6
:1028E000881F991F660F771F881F991F620F731F1C
:1028F000841F951F660F771F881F991F08959111D8
:102900000C948814803219F089508550C8F70895C6
:1029100099278827089503D0808199270895FC017D
:10292000E050FC4E0895262FAF93BF93E0E0F0E116
:10293000328131FDFDCFDC01A050BC4E2C932DE93E
:1029400024BF23E020830196BF91AF9108950E9498
:10295000E314A59F900DB49F900DA49F800D911D31
:10296000112408952F923F924F925F926F927F921F
:102970008F929F92AF92BF92CF92DF92EF92FF928F
:102980000F931F93CF93DF93CDB7DEB7CA1BDB0B3B
:10299000CDBFDEBF09942A88398848885F846E8459
:1029A0007D848C849B84AA84B984C884DF80EE8073
:1029B000FD800C811B81AA81B981CE0FD11DCDBFB5
:1029C000DEBFED010895A29FB001B39FC001A39F98
:1029D000700D811D1124911DB29F700D811D112458
:1029E000911D0895AA1BBB1B51E107C0AA1FBB1F65
:1029F000A617B70710F0A61BB70B881F991F5A958B
:102A0000A9F780959095BC01CD010895A1E21A2EF9
:102A1000AA1BBB1BFD010DC0AA1FBB1FEE1FFF1F82
:102A2000A217B307E407F50720F0A21BB30BE40BD2
:102A3000F50B661F771F881F991F1A9469F7609519
:102A40007095809590959B01AC01BD01CF010895D3
:102A5000052E97FB1EF400940E943F1557FD07D0EA
:102A60000E94061507FC03D04EF40C943F155095B8
:102A70004095309521953F4F4F4F5F4F089590956A
:102A80008095709561957F4F8F4F9F4F0895EE0F02
:102A9000FF1F0590F491E02D0994B7FF0C94A71443
:102AA0000E94A714821B930B08950F931F93CF933B
:102AB000DF938230910510F482E090E0E091F82AF3
:102AC000F091F92A30E020E0B0E0A0E0309799F4EE
:102AD0002115310509F44AC0281B390B2430310572
:102AE000D8F58A819B816115710589F1FB0182838B
:102AF0009383FE0111C040815181028113814817E7
:102B00005907E0F04817590799F4109761F01296A9
:102B10000C93129713961C933296CF01DF91CF91AD
:102B20001F910F9108950093F82A1093F92AF4CF7A
:102B30002115310551F04217530738F0A901DB0187
:102B40009A01BD01DF01F801C1CFEF01F9CF8093F8
:102B5000F82A9093F92ACDCFFE01E20FF31F81935B
:102B600091932250310928833983D7CF2091F62AB7
:102B70003091F72A232B41F4209106283091072821
:102B80002093F62A3093F72A2091042830910528C3
:102B90002115310541F42DB73EB7409108285091D9
:102BA0000928241B350BE091F62AF091F72AE21749
:102BB000F307A0F42E1B3F0B2817390778F0AC0160
:102BC0004E5F5F4F2417350748F04E0F5F1F40934D
:102BD000F62A5093F72A819391939FCFF0E0E0E09B
:102BE0009CCFCF93DF930097E9F0FC0132971282DC
:102BF0001382A091F82AB091F92AED0130E020E08B
:102C00001097A1F420813181820F931F2091F62A21
:102C10003091F72A2817390709F061C0E093F62AA6
:102C2000F093F72ADF91CF910895EA01CE17DF07DD
:102C3000E8F54A815B819E0141155105B1F7E90133
:102C4000EA83FB8349915991C40FD51FEC17FD0707
:102C500061F4808191810296840F951FE901888338
:102C60009983828193818A839B83F0E0E0E01296CE
:102C70008D919C9113970097B9F52D913C911197E7
:102C8000CD010296820F931F2091F62A3091F72AE8
:102C90002817390739F6309751F51092F82A109213
:102CA000F92AA093F62AB093F72ABCCFC283D38324
:102CB00040815181840F951FC817D90761F44E5F79
:102CC0005F4F88819981480F591F408351838A81C2
:102CD0009B81828393832115310509F0B0CFE09366
:102CE000F82AF093F92A9ECFFD01DC01C0CF1282B1
:102CF0001382D7CFB0E0A0E0E0E8F6E10C94B41482
:102D00008C01009751F4CB010E9455158C01C8012C
:102D1000CDB7DEB7E0E10C94CD14FC01E60FF71F50
:102D20009C0122503109E217F30708F49DC0D90134
:102D3000CD91DC911197C617D70798F0C530D10512
:102D400030F3CE0104978617970708F3C61BD70BFD
:102D50002297C193D1936D937C93CF010E94F1157B
:102D6000D6CF5B01AC1ABD0A4C018C0E9D1EA09102
:102D7000F82AB091F92A512C412CF12CE12C109712
:102D800031F58091F62A9091F72A8815990509F076
:102D90005CC04616570608F058C0809104289091F0
:102DA0000528009741F48DB79EB7409108285091AF
:102DB0000928841B950BE817F90708F055C0E09324
:102DC000F62AF093F72AF90160837183A0CF8D91E1
:102DD0009C91119712966C90129713967C90139772
:102DE000A815B90559F56C0142E0C40ED11CCA14EE
:102DF000DB0420F1AC014A195B09DA011296159740
:102E000080F06282738240835183D9016D937C93F9
:102E1000E114F10471F0D7011296ED93FC9313972E
:102E200076CF22968C0F9D1FF90180839183F30149
:102E3000EFCFE093F82AF093F92A69CF48165906A4
:102E400008F42C017D01D3019ACFCB010E945515C6
:102E50007C01009749F0AE01B8010E943717C80104
:102E60000E94F115870153CF10E000E050CFFB0125
:102E7000DC0102C001900D9241505040D8F70895F6
:102E80006817790768F4FB01DC01E40FF51FA40F54
:102E9000B51F02C002900E9241505040D8F70895DD
:102EA0000C943717FB01DC018D9101908019011002
:102EB000D9F3990B0895FB01DC014150504048F0D3
:102EC00001900D920020C9F701C01D924150504061
:082ED000E0F70895F894FFCF2C
:102ED80000000003000102000001010000000000E2
:102EE80000000000000000000000050400050602C4
:102EF80004010300010001020302010002030405AA
:102F080002030504201001204004100208010201F8
:102F18000204080402010408102004082010020218
:102F2800000502010500040101040404030303036E
:102F380005050303000001010000000061036002B1
:102F4800C602B203F702D502E902D00668040303F9
:102F5800D4030D0A00696E7374616C6C00703130B3
:102F68003200703130340070313035007031303318
:102F7800004F4B0063616E63656C005354415254BB
:102F8800007031303100726561645F6D6F64650097
:102F9800726561645F65786974003B00666C617393
:102FA800685F636C656172656400636F6E6E0032A2
:102FB8002E362E30003035313132330061746D6574
:072FC8006761343830390065
:0A2FCF000024F4000000FA2A80003C
:00000001FF
