:100000000C9451000C9479000C9479000C947900B4
:100010000C9479000C9479000C94C60B0C94790024
:100020000C9479000C9479000C9479000C9479006C
:100030000C9479000C9479000C9479000C9479005C
:100040000C9479000C9479000C9479000C9479004C
:100050000C94570B0C9479000C9479000C94790053
:100060000C947C0B0C9479000C9479000C9479001E
:100070000C9479000C940D0B0C9479000C9479007D
:100080000C9479000C9479000C94A10B0C94320B15
:100090000C945A0C0C94110C0C94EB0B0C947900EE
:1000A000BE0C11241FBECFEFCDBFDFE3DEBF2BE2BE
:1000B000AAE0B8E201C01D92A23CB207E1F718E243
:1000C000A0E0B8E2E7EFFCE202C005900D92AA3092
:1000D000B107D9F710E0C1E5D0E004C02197FE01D7
:1000E0000E94E313C035D107C9F70E94EB0C0C94B2
:1000F000FE150C94000008958091CD2987FF0DC056
:100100008091B929282F30E0C90146E0880F991F56
:100110004A95E1F7822B932B089585FF08C08091C3
:10012000C1299091C22998278927982708958091FD
:10013000B12990E00895880F991F880F991F9C019D
:1001400023503109842F90E09595879583709927E6
:10015000820F931F4170E1EBFAE221E0608171812F
:100160006817790719F4442339F0238337963BE263
:10017000E132F30799F708951382F8CF10921C2803
:1001800010921628109215281092142810921328F5
:1001900010921228109211281092102880E8809353
:1001A0000F28F89480910E28882321F12091F228BD
:1001B0003091F32891E080E040910C2850910D2877
:1001C0004217530709F090E090930A2880930B2878
:1001D0001092F2281092F32810920C2810920D28F9
:1001E000789410920E2886E594E08093BC2B90932F
:1001F000BD2B089590E080E0E7CFAF92BF92CF9201
:10020000DF92EF92FF920F931F93CF93DF936C01D6
:100210007B018B01040F151FEB015E01AE18BF08B7
:10022000C017D10759F06991D601ED91FC91019069
:10023000F081E02DC6010995892B79F7C501DF9181
:10024000CF911F910F91FF90EF90DF90CF90BF90D3
:10025000AF900895EF92FF920F931F93CF93DF9388
:10026000C82FD0E0A09695E0CC0FDD1F9A95E1F75E
:10027000E984F82EFF0CFF0CFF0C01E010E08E2D3E
:100280008023A9F02F2D210F30E0220F331FF90119
:10029000EE56F74D80819181892B49F00190F081D4
:1002A000E02D2E5C374DD9018D919C9109951F5FF2
:1002B000000F183021F7E986DF91CF911F910F9140
:1002C000FF90EF900895FC0154894589252F30E077
:1002D000842F90E0821B930B541710F0CF96089553
:1002E00001970895FC0192898389981761F0A38989
:1002F000AE0FBF2FB11D59968C9193899F5F9F734D
:10030000938B90E008958FEF9FEF0895FC01928901
:100310008389981731F08389E80FF11D818D90E072
:1003200008958FEF9FEF0895FC0192892389892F0B
:1003300090E0805C9F4F821B91098F7399270895ED
:10034000CF93DF93EC01E881F9810680F781E02DFE
:100350000995EC85FD8586818F738683EC85FD8507
:1003600085818F7585838B898A8B198ADF91CF91DF
:100370000895CF93DF93FC0194898589C485D58541
:10038000981306C08D818F7D8D83DF91CF91089565
:10039000A589AE0FBF2FB11DA75ABF4F2C918589DC
:1003A00090E001968F739927858B80E48C83A485D8
:1003B000B58512962C93948985899813E6CFA485E8
:1003C000B58515968C9115978F7D15968C93878999
:1003D0008823D9F2808D80931301178AD6CFDC0150
:1003E0001C96ED91FC910FB607FE03C0258125FDFB
:1003F00004C0248125FD0C94B9010895EF92FF9269
:100400000F931F93CF93DF93EC0181E0898B9C893D
:100410008D8998131CC0AC85BD8514968C9114975A
:1004200085FF15C012966C93AC85BD8580E414964B
:100430008C93EC85FD8585818F7D858381E090E0BF
:10044000DF91CF911F910F91FF90EF9008958091D0
:10045000110180FF08C080911301888F8E898093DD
:10046000130181E08F8BF62E0C8910E00F5F1F4F78
:100470000F731127E02E8D898E1104C0CE010E94CA
:10048000EF01F9CFEC89EC0FFD2FF11DE75AFF4F7B
:10049000F0820C8BEC85FD8585818062CECFCF9379
:1004A000DF93FC0121892223C9F0EC018091110125
:1004B00080FF08C080911301808F8689809313018B
:1004C00081E0878BEC85FD85858185FD03C0848176
:1004D00086FD04C0CE010E94EF01F4CFDF91CF91E1
:1004E000089581E00895DC01ED91FC910088F18987
:1004F000E02D23E030E009948B3208F05AC090E000
:10050000FC01E25BF34940814F3F09F452C0FC011A
:10051000E050F449E081EE2329F0E130A1F010F041
:10052000E63018F1FC01EC5CF349E081A0E2EA9FBF
:10053000F0011124FC5F2081242341F16115710534
:10054000F1F446830895E091010ADC01A65EB34907
:100550005C915C5F21E030E001C0220F5A95EAF720
:1005600020952E232093010ADDCF20E1E29FF001A8
:100570001124E05AF54F21812F7E2183D3CF6230A1
:10058000710511F44783089545830895865E934964
:10059000DC018C91309771F08F3F61F07096E80F1D
:1005A000F11D9FB7F8948081672B39F4877F808392
:1005B0009FBF0895F0E0E0E0F4CF8860F8CFCF92DD
:1005C000DF92EF92FF920F931F93CF93DF93EC0193
:1005D0006A017B01022F8989882339F0E881F9813A
:1005E0000288F389E02DCE01099598898091E20572
:1005F000892B8093E2051FB7F89460E070E281EAEE
:1006000097E0A70196010E949A1369017A018FEF82
:10061000C81AD80AE80AF80AF694E794D794C79457
:10062000EC85FD8586818D7F8683EC85FD858681C1
:100630008683198AA09123110A2E000CBB0BA701F7
:1006400096010E94DB1320E034E040E050E00E947D
:10065000BC13EC85FD85C20ED31EE41EF51EC086BC
:10066000D186EC85FD850783EC85FD858681806CD0
:100670008683EC85FD858581806885838E858B32B8
:1006800028F590E0FC01E25BF34920812F3FF1F077
:10069000FC01EC5CF349A081E0E2AE9FD0011124A3
:1006A000BC5F865E9349FC013081F0E0E0E03F3FB3
:1006B00029F0CD014096FC01E30FF11D9FB7F8949E
:1006C00012962C938081886080839FBF8F8561E024
:1006D00070E00E947C028F858B3288F490E0FC01F0
:1006E000E25BF34920812F3F51F08C5C9349DC01A0
:1006F000EC91B0E2EB9FF0011124FC5F21831FBF5E
:10070000DF91CF911F910F91FF90EF90DF90CF90ED
:100710000895CF93DF938FB7F894209123283091D9
:1007200024284091252850912628E091BA0A9091DA
:10073000B60A90FF06C02F5F3F4F4F4F5F4FE091CB
:10074000BA0A8FBFA0912D28B0912E28C0912B28D6
:10075000D0912C280E943B13EC9F9001ED9F300D0F
:100760001124620F731F811D911DDF91CF91089598
:10077000CF930E948903C091F8282C2F30E0E0919C
:10078000FA28F091FB28DB01AE1BBF0BF901EE0F3D
:10079000FF1FEC50F74DA083B1836093FA2870934C
:1007A000FB288093FC289093FD284091F2285091DB
:1007B000F328240F351F2093F2283093F32891E07B
:1007C0008C2F89278093F828CF9108952FB7F8941C
:1007D00060911F28709120288091212890912228D3
:1007E0002FBF08950F931F930E94E6036093292B58
:1007F00070932A2B80932B2B90932C2B81E29BE2DE
:100800000E94720197FF1DC00E94E6030091292BF0
:1008100010912A2B20912B2B30912C2B601B710BCC
:10082000820B930B0091252B1091262B2091272BC7
:100830003091282B6017710782079307F8F28FEF2A
:100840009FEF1F910F9108950F931F930E94E6034E
:100850006093292B70932A2B80932B2B90932C2B16
:1008600081E29BE20E94860197FF1DC00E94E60381
:100870000091292B10912A2B20912B2B30912C2B7E
:10088000601B710B820B930B0091252B1091262B73
:100890002091272B3091282B60177107820793072F
:1008A000F8F28FEF9FEF1F910F910895F8948091C8
:1008B000F2289091F32820910C2830910D2882176E
:1008C000930711F4789408958091F2289091F32879
:1008D000821B930B029758F078948EEB90E08093F4
:1008E000BC2B9093BD2B87E68093F9280895209127
:1008F000F4283091F5288091F6289091F7284091BE
:10090000F2285091F32840930C2850930D287894A6
:10091000A901445351094D30510568F02A55310958
:10092000273B364240F08EEB90E08093BC2B9093B7
:10093000BD2B88E6D9CF9C01245331092D303105D8
:1009400038F18A559109873B964268F74D30510539
:1009500068F080910A2890910B280A97A4F085ED01
:1009600094E08093BC2B9093BD2B0895F8948091D4
:10097000F6289091F7288093F4289093F52881E049
:100980008093F828789410920A2810920B280895E2
:100990004D30510558F780910A2890910B28019607
:1009A00080930A2890930B280895F8948091F22858
:1009B0009091F32820910C2830910D2882179307ED
:1009C00011F4789408958091F2289091F328821B75
:1009D000930B029758F078948EEB90E08093BC2BA9
:1009E0009093BD2B87E68093F92808954091F428D1
:1009F0005091F5288091F6289091F7282091F228BF
:100A00003091F32820930C2830930D2878949A0184
:100A1000245331092D30310568F04A555109473BBF
:100A2000564240F08EEB90E08093BC2B9093BD2B10
:100A300088E6D9CFBC016453710941E06D3071057E
:100A400008F040E06D30710528F08A559109873B28
:100A5000964240F781E02D30310508F080E08413A4
:100A6000E1CF80910F28882389F02D30310540F4A3
:100A7000E0911028F0E0EF5EF74D9081982B908385
:100A800090E09595879580930F2808958091102880
:100A900091E0980F9093102840E840930F282D3054
:100AA0003105A8F491E090930E288250843038F4F8
:100AB00082E795E08093BC2B9093BD2B08958EEB3D
:100AC00090E08093BC2B9093BD2B89E68CCF963021
:100AD00008F48BCF8EEB90E08093BC2B9093BD2BD2
:100AE0008AE681CFEF92FF921F93CF93DF9380919D
:100AF0001128909112288927C0911028C43068F0DD
:100B0000909113288927C43041F0909114288927A7
:100B1000C53019F0909115288927EC2FF0E0E05F9F
:100B2000F74D9081981751F08EEB90E08093BC2B9D
:100B30009093BD2B84E68093F9281FC00E94E603A2
:100B4000609318287093192880931A2890931B2873
:100B500010921728C33009F089C010911228809193
:100B6000112811111AC08F3F71F48EEB90E0809321
:100B7000BC2B9093BD2BC093F928DF91CF911F918F
:100B8000FF90EF900895811108C08EEB90E0809364
:100B9000BC2B9093BD2B84E0CECF982F907C9038C7
:100BA00009F040C017FF3EC0E12EF12CE701C095CF
:100BB000D095CC0FDD1FCC0FDD1FC07CD1708F73A3
:100BC000C80FD11D0E947C0021E0C817D90709F089
:100BD00020E020931728C817D90739F0CF33D10563
:100BE00021F080912F288823A9F080911C28811161
:100BF00011C0E0913028F0913128309759F0412F01
:100C00004770B70153E0759567955A95E1F76170A4
:100C1000CE0109958EEB90E08093BC2B9093BD2B79
:100C200087E089CF87FF08C08EEB90E08093BC2BD4
:100C30009093BD2B85E67FCF107C103441F08EEB76
:100C400090E08093BC2B9093BD2B86E674CF91E00F
:100C50002091B129281390E0909317288EEB90E013
:100C60008093BC2B9093BD2B86E065CFC43069F593
:100C7000C09111288C2F807C803839F52091122862
:100C8000822F8578813009F5822F867090E0982F29
:100C90008827207744E0249F90011124820F931F1E
:100CA000CF73C80FD92FD11D0E947C0021E0C81737
:100CB000D90709F020E0209317288EEB90E080936D
:100CC000BC2B9093BD2B88E036CF8EEB90E08093C9
:100CD000BC2B9093BD2B1092F9284FCFCF92DF926F
:100CE000EF92FF92CF93D12CC12C81E29BE20E9424
:100CF0009401181619060CF04EC00E942404FC0141
:100D000097FD45C08D32910519F0C0970A97C0F53F
:100D1000C12CD12C7601C0E0E130D1F0ED32F105EB
:100D2000A1F1CF01C0970A9798F4AAE0B0E0A7011B
:100D300096010E943B136F01FF0FEE08FF08C60EDD
:100D4000D71EE81EF91E80E3C81AD108E108F10891
:100D500081E29BE20E9472010E942404FC01C09780
:100D60000A97D0F2E130C1F2CC2309F4BECFF0945F
:100D7000E094D094C094C11CD11CE11CF11CB5CFEF
:100D800081E29BE20E947201B8CFC1E0E1CFC12CA9
:100D9000D12C7601AACFC601CF91FF90EF90DF90C2
:100DA000CF9008950F931F93E091BC2BF091BD2B32
:100DB00009950E94E603E091AF292BE0E29FF00144
:100DC0001124E150F74D0081118122813381601B94
:100DD000710B820B930B21E0653F714081059105FA
:100DE00008F420E0822F1F910F9108958F929F9217
:100DF000AF92BF92CF92DF92EF92FF920F931F9329
:100E0000CF93C82F162FE091BC2BF091BD2B0995E5
:100E1000C12ED12C2BE0129FF0011124E150F74D8F
:100E200081859285892B21F488E893E181879287D7
:100E3000C13009F07CC08BE08C9D80018D9D100D30
:100E400011240150174DF801C085C13009F047C089
:100E50000E948903F801E184F28484809580A68051
:100E6000B780681979098A099B094701B12CA12C1F
:100E700086169706A806B90698F4F5EFEF16F1E086
:100E8000FF0670F00E948903F801648375838683EE
:100E90009783F9E8EF16F3E1FF0658F0C1E007C0C9
:100EA000C701855F91408439914150F4C0E08C2F97
:100EB0001EC044E6E41AF108F801E186F286F7CF95
:100EC000F4EFEF16F1E0FF0691F48BE08C9DF0015A
:100ED0008D9DF00D1124E150F74D1086E8CFC11122
:100EE00006C00E94D206813011F4F8018087CF91AC
:100EF0001F910F91FF90EF90DF90CF90BF90AF9038
:100F00009F908F9008950E948903F70164837583F1
:100F10008683978381E08087043FF1E01F0708F410
:100F2000BDCF0C591F4FF70101871287B7CF0E9421
:100F300089034BE04C9D90014D9D300D1124A9017A
:100F40004150574D7A01FA010185128584809580C0
:100F5000A680B780681979098A099B094801B12CD4
:100F6000A12C86169706A806B90620F40838F3E1E6
:100F70001F0748F2C801855F91408339914108F409
:100F800095CF0838134109F0B2CF9FCFFC010190F3
:100F90000020E9F73197AF01481B590BBC0181E2F2
:100FA0009BE20C94FD00CF93DF93FC0144815581BB
:100FB0006081718181E29BE20E94FD00EC0182E888
:100FC0009CE60E94C6078C0F9D1FDF91CF9108956C
:100FD000EF92FF920F931F93CF93DF937C01D0E0AA
:100FE000C0E0062F10E0C017D1072CF4C7010E9403
:100FF000D3072196F8CFDF91CF911F910F91FF90EA
:10100000EF9008958F929F92AF92BF920F931F938C
:10101000CF93DF93CDB7DEB7A197CDBFDEBF19A2C7
:10102000423008F44AE08E010F5D1F4F842E912C50
:10103000B12CA12CA50194010E949A13E62FB901AD
:10104000CA01EA30DCF4E05DD801EE938D01232B78
:10105000242B252B79F790E080E0109719F0CD0133
:101060000E94C607A196CDBFDEBFDF91CF911F9131
:101070000F91BF90AF909F908F900895E95CE4CF5F
:10108000CF93DF930E94C607EC0182E89CE60E94A2
:10109000C6078C0F9D1FDF91CF910895FC018081C1
:1010A0009181009711F00C9485140895FC0124811E
:1010B0003581232B39F421E0FB018081882349F01D
:1010C00020E007C0808191810E94E61521E0892BF4
:1010D000B9F7822F08950F931F93CF93DF93EC01FD
:1010E00088819981009759F02A813B81261737071B
:1010F00030F081E0DF91CF911F910F9108958B0126
:101100006F5F7F4F0E940E15009759F08883998377
:101110000A831B832C813D81232B59F7FC0110820C
:10112000E8CF80E0E7CFEF92FF920F931F93CF932A
:10113000DF93EC017B018A01BA010E946B082881D0
:101140003981811114C02115310519F0C9010E949E
:101150008514188219821C821D821A821B82CE017C
:10116000DF91CF911F910F91FF90EF9008950C8325
:101170001D83A801B701C9010E94CB15E881F9813F
:101180008C819D81E80FF91F1082E9CFFC0110824C
:1011900011821282138214821582FB0101900020B9
:1011A000E9F73197AF01461B570B0C9493089F92B8
:1011B000AF92BF92CF92DF92EF92FF920F931F9365
:1011C000CF93DF93EC015B017A01690164E87CE66F
:1011D0000E94C608EA0CFB1CC7018A199B098C15E2
:1011E0009D05ECF4F70191907F010C811D810F5F4B
:1011F0001F4FB801CE010E946B08882369F3E88174
:10120000F9818C819D81E80FF91F90820C831D83E9
:1012100088819981080F191FF8011082DDCFCE0156
:10122000DF91CF911F910F91FF90EF90DF90CF90C2
:10123000BF90AF909F9008957F928F929F92AF92B0
:10124000BF92CF92DF92EF92FF920F931F93CF93B3
:10125000DF93CDB7DEB7EA97CDBFDEBF7C01762E38
:1012600019821A821B821C821D821E82FC016081EF
:1012700071816115710531F044815581CE0101966E
:101280000E94930881E29BE20E949401892B29F439
:10129000CE0101960E94D307F5CF64E87CE6CE012B
:1012A000C5960E94C6080E94F2036C0197FD1BC000
:1012B00009AD1AAD0F5F1F4FB801CE01C5960E9450
:1012C0006B08882381F3EDA9FEA989AD9AADE80FDB
:1012D000F91FC08209AF1AAF8DA99EA9080F191F67
:1012E000F8011082E0CFADA8BEA8A114B10439F076
:1012F00009AD1AAD65010115110509F0FBC0CE015C
:1013000001960E944E0809AD1AAD0115110509F0AC
:1013100027C11982CE01C5960E94D3070E946E068E
:101320000097C1F3029709F051C165E87CE6CE0150
:1013300089960E94C60865E0CE0189960E94E8075A
:10134000CE0189960E944E0823E030E050E040E054
:10135000BE016F5F7F4FCE018F960E94D7088FA589
:1013600098A960E0009711F00E94D712072D10E0B5
:1013700087E0D82ED09EF001D19EF00D1124EF54BD
:10138000F54D62836DE87CE6C7010E945608811125
:10139000FFC062E97CE6C7010E945608811104C1C2
:1013A00067E97CE6C7010E945608811100C127E069
:1013B00030E043E050E0BE016F5F7F4FCE01899681
:1013C0000E94D7088FA598A90E94851489A59AA57F
:1013D0008FA798AB8DA59EA58BAB9CAB8BA59CA531
:1013E00089AB9AAB19A61AA61DA61EA61BA61CA6FB
:1013F000CE0189960E944E088FA598A9009709F4FE
:10140000C3C00E94D71287E0809FF001819FF00D3A
:101410001124EF54F54D608371836CE97CE6C701BC
:101420000E945608811108C067E97CE6C7010E9446
:101430005608882309F4C8C02AE030E047E050E0AD
:10144000BE016F5F7F4FCE0189960E94D7088FA59E
:1014500098A90E94851489A59AA58FA798AB8DA5F8
:101460009EA58BAB9CAB8BA59CA589AB9AAB19A613
:101470001AA61DA61EA61BA61CA6CE0189960E9412
:101480004E088FA598A960E0009711F00E94D7122E
:1014900084E6861B97E0909FF001919FF00D112448
:1014A000EF54F54D868381EA9CE60E9440080E9435
:1014B0006E0682309105B9F3892BA9F3CE018F9680
:1014C0000E944E0811E0CE01C5960E944E08812F61
:1014D000EA96CDBFDEBFDF91CF911F910F91FF90B4
:1014E000EF90DF90CF90BF90AF909F908F907F90C4
:1014F000089564014601FFEF8F1A9F0AF60180816B
:10150000082E000C990B0E941313892B91F70150A0
:1015100011090A0D1B1DF8018081082E000C990B82
:101520000E941313892B31F00C151D0518F0015082
:101530001109F1CFA8014F5F5F4F4C195D0949AF09
:101540005AAFAC14BD0420F4B601C5010E94D415F5
:10155000EDA9FEA989AD9AADE80FF91F1082CFCE93
:101560000732110510F007E210E06DA97EA9A8016D
:10157000CE0101960E94EF15E1E0F0E0EC0FFD1FB7
:10158000E00FF11F1082C6CE60E070E0CB013BCFD0
:10159000C8010197D89EF001D99EF00D1124EF5497
:1015A000F54D608171812FCFC8010397F3CF67E9B3
:1015B0007CE6C7010E94560870E060E0882309F4C9
:1015C00022CFC8010297E6CF80E064CF64EA7CE6D0
:1015D000CE0189960E94C60865E0CE0189960E94D8
:1015E000E807CE0189960E944E0810E06CCF1F9349
:1015F000CF93DF93EC01162F0E941F13181739F0B9
:10160000612FCE01DF91CF911F910C942713DF91B1
:10161000CF911F9108950C941F131F920F920FB634
:101620000F9211242F933F934F935F936F937F9368
:101630008F939F93AF93BF93EF93FF9385E00E94A7
:101640002A01FF91EF91BF91AF919F918F917F916F
:101650006F915F914F913F912F910F900FBE0F901F
:101660001F9018951F920F920FB60F9211242F936F
:101670003F934F935F936F937F938F939F93AF931A
:10168000BF93EF93FF9384E00E942A01FF91EF91B3
:10169000BF91AF919F918F917F916F915F914F918A
:1016A0003F912F910F900FBE0F901F9018951F9292
:1016B0000F920FB60F9211242F933F934F935F9386
:1016C0006F937F938F939F93AF93BF93EF93FF930A
:1016D00083E00E942A01FF91EF91BF91AF919F910A
:1016E0008F917F916F915F914F913F912F910F90CB
:1016F0000FBE0F901F9018951F920F920FB60F926A
:1017000011242F933F934F935F936F937F938F9306
:101710009F93AF93BF93EF93FF9382E00E942A01C0
:10172000FF91EF91BF91AF919F918F917F916F91B9
:101730005F914F913F912F910F900FBE0F901F908F
:1017400018951F920F920FB60F9211242F933F936B
:101750004F935F936F937F938F939F93AF93BF93B9
:10176000EF93FF9381E00E942A01FF91EF91BF91D7
:10177000AF919F918F917F916F915F914F913F9129
:101780002F910F900FBE0F901F9018951F920F92E0
:101790000FB60F9211242F933F934F935F936F9344
:1017A0007F938F939F93AF93BF93EF93FF9380E0CB
:1017B0000E942A01FF91EF91BF91AF919F918F916C
:1017C0007F916F915F914F913F912F910F900FBE3D
:1017D0000F901F9018951F920F920FB60F92112421
:1017E0002F933F934F935F936F937F938F939F9329
:1017F000AF93BF93EF93FF9381E29BE20E94B90105
:10180000FF91EF91BF91AF919F918F917F916F91D8
:101810005F914F913F912F910F900FBE0F901F90AE
:1018200018951F920F920FB60F9211242F933F938A
:101830004F935F936F937F938F939F93AF93BF93D8
:10184000EF93FF93E0912D2BF0912E2B818181FD61
:101850002FC060818091332B8F5F8F739091342BD9
:10186000891741F0E091332BF0E0EF5DF44D618F8B
:101870008093332B8091BA2B9091BB2B009739F03A
:10188000DC01ED91FC910190F081E02D0995FF9133
:10189000EF91BF91AF919F918F917F916F915F91E8
:1018A0004F913F912F910F900FBE0F901F90189561
:1018B0008081EDCF1F920F920FB60F9211242F93BC
:1018C0003F934F935F936F937F938F939F93AF93C8
:1018D000BF9340911F28509120286091212870913A
:1018E000222880911D2890911E282091292830912E
:1018F0002A28420F531F611D711D20912728309106
:101900002828820F931F883E23E0920730F0885EDC
:1019100093404F5F5F4F6F4F7F4F80931D28909391
:101920001E2840931F2850932028609321287093ED
:1019300022288091232890912428A0912528B091D5
:1019400026280196A11DB11D809323289093242859
:10195000A0932528B093262881E08093B60ABF91F2
:10196000AF919F918F917F916F915F914F913F9137
:101970002F910F900FBE0F901F901895E1E2FBE2A0
:101980001282138288EE93E0A0E0B0E08483958316
:10199000A683B7838CE69CE68083918380E698E0FB
:1019A0008487958788E1868789E1878780E4808BB3
:1019B000128A138A148A158A86E2868B178A108EF9
:1019C0001092BA2B1092BB2B8BE790E08093BC2B2C
:1019D0009093BD2B0895CF93DF93CDB7DEB72697B5
:1019E000CDBFDEBF88ED90E084BF9093610080E0C2
:1019F00094E2A4EFB0E08093002890930128A09394
:101A00000228B09303288091020686608093020624
:101A100080910006816080930006809102068F7C91
:101A2000809302068091A0008F788093A00080911F
:101A300002068061809302061092E20581E08093A5
:101A4000E40583E08093010A8FEF90E08093260AFB
:101A50009093270A80E890E08093380A9093390A9F
:101A600080933A0A90933B0A80933C0A90933D0AF4
:101A70008BE08093000A8091E50581608093E50505
:101A80008091E50582608093E505E0E8FAE037E0C3
:101A90002FEF90E885E031832487958780837096C7
:101AA000E03C4AE0F407B9F780E094E080932D2809
:101AB00090932E2880912D2890912E282FEF30E0A2
:101AC000B9010E94861360932B2870932C28809173
:101AD0002D2890912E28E8EEF3E0BF010E94861396
:101AE0006093292870932A2880912D2890912E2880
:101AF000BF010E9486138093272890932828209363
:101B0000BC0A3093BD0A8091B50A81608093B50A02
:101B100084E08093B00A8091B00A81608093B00A1B
:101B200078948BE990E0809330289093312881E07D
:101B300080932F288091FA289091FB28A091FC286F
:101B4000B091FD28892B8A2B8B2BC9F51092B729D0
:101B50001092B8291092F8281092F6281092F728BF
:101B60001092F4281092F5281092F2281092F3287F
:101B70000E9489036093FA287093FB288093FC28C5
:101B80009093FD2888EB93E08093BC289093BD2828
:101B900010925C2810925D2880915504887F809374
:101BA0005504809155048160809355048EEB90E03C
:101BB0008093BC2B9093BD2B82E08093F9280E94E8
:101BC000E6032B013C012BE330E040E052EC61E006
:101BD00070E081E29BE20E94DF02A7E0FA2EEE2491
:101BE000E3948BEA9CE60E94400881E29BE20E941B
:101BF0009401181619060CF098C1FCE0AF2E8BEA80
:101C00009CE60E9440080E946E068C011816190678
:101C1000B4F781E29BE20E949401892B81F78091C5
:101C2000FE2890E057E0589FF001599FF00D1124D5
:101C3000EF54F54D14820E36110509F40BC108F06E
:101C40004BC00736110509F49DC038F5053611055E
:101C500009F47CC00636110591F60197F89ED00173
:101C6000F99EB00D1124AF54B54D1596AC92E58296
:101C70001091FE286DE87CE6CE0101960E94C60810
:101C8000612FCE0101960E941C09182FCE010196EA
:101C90000E944E08112361F36FC00836110509F444
:101CA0009FC00936110509F0AACF44E04583109181
:101CB000FE2867E97CE6CE0101960E94C608612FE6
:101CC000CE0101960E941C09182FCE0101960E9498
:101CD0004E08112361F350C0023D110509F406C2FC
:101CE00018F50F36110509F46BC1083C110509F010
:101CF00086CF6CEC7CE6CE0101960E94C60862E0BD
:101D0000CE0101960E94E807CE0101960E944E087E
:101D100010E000E060E0C8010E94F70A0F5F1F4F6B
:101D200001311105B9F76BCF043D110509F4E4C188
:101D300008F4DFC1053D110509F061CF6CEE7CE6CA
:101D4000CE0101960E94C60863E058C18BE08583EE
:101D50001091FE2861EB7CE6CE0101960E94C60838
:101D6000612FCE0101960E941C09182FCE01019609
:101D70000E944E08112361F38091FE288F5F8093AB
:101D8000FE283DCF9C0122503109F29ED001F39EE6
:101D9000B00D1124AF54B54D2DE015962C9301973D
:101DA000F89ED001F99EB00D1124AF54B54D159693
:101DB000EC9283E085831091FE286CE97CE6CE01ED
:101DC00001960E94C608612FCE0101960E941C094F
:101DD000182FCE0101960E944E08112361F3CCCF3B
:101DE0009C0123503109F29ED001F39EB00D1124C5
:101DF000AF54B54D3EE015963C939C0122503109FD
:101E0000F29ED001F39EB00D1124AF54B54D15963E
:101E1000EC920197F89ED001F99EB00D1124AF54B9
:101E2000B54D83E015968C93E5821091FE2862E90A
:101E30007CE6CE0101960E94C608612FCE01019674
:101E40000E941C09182FCE0101960E944E081123F2
:101E500061F392CFE1EBCE2EEAE2DE2E10E000E05D
:101E6000D6016D917C916F3F710509F00CF4A1C012
:101E70004B01BFEF8B1A9108EFEF8E16910409F01A
:101E80000CF49BC05B01FEEFAF1AF1E0BF0A88249F
:101E90008A94912C6FEF70E0312C2FEFA216B104D1
:101EA00061F058F0332433943A0C88248A94912CAE
:101EB0006FEF70E0AA24AA94B12CC8010E94F70A1F
:101EC000D60112966C91C80141960E94F70A60E013
:101ED000C80181960E94F70AF6016581C801C19682
:101EE0000E94F70AD60116966C91C8018F5B9F4F2E
:101EF0000E94F70A682DC8018F5A9F4F0E94F70A67
:101F00006A2DC8018F599F4F0E94F70A632DC8019F
:101F10008F589F4F0E94F70A0F5F1F4FB7E0CB0EFD
:101F2000D11C0031110509F09BCF0E94E603641912
:101F3000750986099709683873418105910508F488
:101F400050CE81E29BE20E94A00101EB1AE2F12C4B
:101F5000E12C34E1B32EC7010E940B0BC82EC70140
:101F60008F5A9F4F0E940B0BC80EDD24DD1CC7014A
:101F70008F599F4F0E940B0BC80ED11CC7018F5861
:101F80009F4F0E940B0B8C0D9D2D911DD8018D93A1
:101F90009C93C70141960E940B0B803109F4B8C095
:101FA00008F0ADC08E3009F4B3C0D80112968C93FE
:101FB000B1C0812C312CA12C80CF6FEF70E0FACF13
:101FC00066EB7CE6CE0101960E94C60862E0CE0177
:101FD00001960E94E807CE0101960E944E080E94D9
:101FE0006E068C010097D9F38F3F910581F460EC68
:101FF0007CE6CE0101960E94C60865E0CE010196FE
:102000000E94E807CE0101960E944E08F8CD019784
:102010000E940B0BD82EC80140960E940B0B882EF5
:10202000C80180960E940B0B982EC801C0960E9492
:102030000B0BB82EC801805C9F4F0E940B0BC82E63
:10204000C801805B9F4F0E940B0B282EC801805A4D
:102050009F4F0E940B0B382EC80180599F4F0E9442
:102060000B0B70E060E0DD2049F0ED2DE20DFF2765
:10207000FF1FBF01630D711D680F711D072E000C3E
:10208000880B990B4AE00E9402088AEC9CE60E94A9
:10209000C607682D70E090E080E04AE00E940208E8
:1020A0008AEC9CE60E94C607692D70E090E080E013
:1020B0004AE00E9402088AEC9CE60E94C6076B2D4B
:1020C00070E090E080E04AE00E9402088AEC9CE622
:1020D0000E94C6076C2D70E090E080E04AE00E940C
:1020E000020882E89CE60E94C60779CF6AED7CE68A
:1020F00080CF6FED7CE67DCF65EE7CE67ACF8131D7
:1021000009F453CF823109F050CFF801B28202C0F6
:10211000F8018283C70181960E940B0BF80184832A
:10212000C701C1960E940B0BD80115968C93C7016D
:102130008F5B9F4F0E940B0BF801868382818B324D
:1021400088F490E0FC01E25BF34920812F3F51F0DD
:102150008C5C9349DC01EC91B0E2EB9FF00111241F
:10216000FC5F2183EFEFEE1AFE0A095F1F4FFFE0CD
:10217000EF16F10409F0EFCE07E082E0582E9BE065
:10218000792E23E0622EE091BC2BF091BD2B0995B6
:102190001091AF29E12EF12C0E9DF0010F9DF00D55
:1021A0001124EF54F54D638197012F5F3F4F590183
:1021B000611116C185818C50833008F011C1848172
:1021C000823069F40E94E6037E9CF0017F9CF00D52
:1021D0001124E150F74D60837183828393830E9DB8
:1021E000C0010F9D900D1124AC014F54554D6A0153
:1021F000DA0114966C9261E0610F80E00E94F606AD
:10220000682F70E00A9DF0010B9DF00D1124EF5432
:10221000F54D82810E947C025701B4E0AB0EB11CE7
:10222000F60185818D3008F46DC097012E5F3F4F18
:10223000029FC001039F900D11249C012F54354D26
:102240004901D90115968C91833009F05BC062E099
:10225000610F80E00E94F606682F70E0F401828131
:102260000E947C02D60115968C918E3009F04AC0EE
:102270000A9DF0010B9DF00D1124EF54F54D858161
:10228000843009F03FC063E0610F81E00E94F606F0
:10229000682F70E0C7010396089FF001099FF00DB9
:1022A0001124EF54F54D82810E947C020A9DC001E9
:1022B0000B9D900D1124FC01EF54F54D6F018381AE
:1022C00081112CC08581843049F564E0610F80E084
:1022D0000E94F606682F70E0D60112968C910E943B
:1022E0007C02612F81E00E94F606682F70E00E9D4F
:1022F000F0010F9DF00D1124EF54F54D82810E94E5
:102300007C0249C0612F81E00E94F606682F70E0D0
:102310000E9DF0010F9DF00D1124C3CF0E94D20637
:10232000813009F043C00A9DC0010B9D900D11241E
:10233000FC01EF54F54D6F019380F1E09F1236C020
:10234000D60115968C911597843081F514969C9141
:10235000149716968C91981748F1612F80E00E948F
:10236000F606682F70E00E9DF0010F9DF00D112410
:10237000EF54F54D82810E947C0264E0610F81E0A0
:102380000E94F606682F70E0F60182810E947C02AE
:10239000D60114969C928091AF298F5F8093AF29CC
:1023A000813108F4F0CE1092AF29EDCE0A9DC00124
:1023B0000B9D900D1124FC01EF54F54D7F0185819B
:1023C000843049F784818F5F848364E0610F80E00B
:1023D0000E94F606682F70E0D70112968C918FCF7D
:1023E0000E9DF0010F9DF00D1124EF54F54D8581E8
:1023F0000A9DD0010B9DB00D1124AF54B54D13961D
:102400009C911397913009F0B3C08C3008F4B0C0A0
:1024100015968C91813009F0BECF8481833069F4A8
:102420000E94E6037E9CF0017F9CF00D1124E15098
:10243000F74D60837183828393830E9DC0010F9D4E
:10244000900D1124FC01EF54F54D6F01548261E0B1
:10245000610F81E00E94F606682F70E00A9DF0018E
:102460000B9DF00D1124EF54F54D82810E947C02EA
:10247000612F80E00E94F606682F70E0D601129668
:102480008C910E947C02F60185818E3079F597014E
:102490002C5F3F4F029FC001039F900D11249C01B0
:1024A0002F54354D6901D90115968C918430F1F482
:1024B00064E0610F80E00E94F606682F70E0F6018C
:1024C00082810E947C0263E0610F80E00E94F60638
:1024D000682F70E0C7010396089FF001099FF00D77
:1024E0001124EF54F54D82810E947C020E94D20695
:1024F00097012E5F3F4F8130B9F4029FC001039FC7
:10250000900D1124AC014F54554D6A01DA01139618
:10251000FC90B1E0FB1208C0FA018581833021F400
:10252000948186819817A8F4029FC001039F900DA3
:1025300011249C012F54354D7901D90115968C91A8
:10254000833009F028CFF90184818F5F848362E0B2
:102550003DCF62E0610F81E00E94F606682F70E0D7
:10256000F60182810E947C02D6011496FC9213CF60
:102570008B3009F010CF0E9DF0010F9DF00D11244E
:10258000EF54F54D82819481913029F4611103C09B
:1025900061E070E0B4CE70E00E947C020E9DF0011C
:1025A0000F9DF00D1124EF54F54D1482F4CE1F93BE
:1025B000FC0199278827BC01E89411911032E9F3B6
:1025C000193010F01E30C8F31B3251F01D3249F49F
:1025D000689406C00E94FE12610F711D811D911D3D
:1025E000119110531A30B0F33EF490958095709588
:1025F00061957F4F8F4F9F4F1F910895592F482FFF
:10260000372F262F660F771F881F991F660F771F9A
:10261000881F991F620F731F841F951F660F771FF6
:10262000881F991F089591110C941C13803219F082
:1026300089508550C8F7089599278827089503D0B1
:10264000808199270895FC01E050FC4E0895262FC3
:10265000AF93BF93E0E0F0E1328131FDFDCFDC01CB
:10266000A050BC4E2C932DE924BF23E0208301967B
:10267000BF91AF9108950E947713A59F900DB49FCD
:10268000900DA49F800D911D112408952F923F92CB
:102690004F925F926F927F928F929F92AF92BF9272
:1026A000CF92DF92EF92FF920F931F93CF93DF931E
:1026B000CDB7DEB7CA1BDB0BCDBFDEBF09942A88BE
:1026C000398848885F846E847D848C849B84AA8446
:1026D000B984C884DF80EE80FD800C811B81AA81D3
:1026E000B981CE0FD11DCDBFDEBFED010895A29FF0
:1026F000B001B39FC001A39F700D811D1124911DD6
:10270000B29F700D811D1124911D0895AA1BBB1B42
:1027100051E107C0AA1FBB1FA617B70710F0A61BE1
:10272000B70B881F991F5A95A9F780959095BC0102
:10273000CD010895A1E21A2EAA1BBB1BFD010DC0FD
:10274000AA1FBB1FEE1FFF1FA217B307E407F50761
:1027500020F0A21BB30BE40BF50B661F771F881F3D
:10276000991F1A9469F760957095809590959B01D3
:10277000AC01BD01CF010895052E97FB1EF4009416
:102780000E94D31357FD07D00E949A1307FC03D071
:102790004EF40C94D31350954095309521953F4FAE
:1027A0004F4F5F4F089590958095709561957F4F3D
:1027B0008F4F9F4F0895B7FF0C943B130E943B131C
:1027C000821B930B0895EE0FFF1F0590F491E02DEF
:1027D00009940F931F93CF93DF938230910510F4E8
:1027E00082E090E0E091C02BF091C12B30E020E03E
:1027F000B0E0A0E0309799F42115310509F44AC002
:10280000281B390B24303105D8F58A819B8161154D
:10281000710589F1FB0182839383FE0111C0408120
:1028200051810281138148175907E0F04817590771
:1028300099F4109761F012960C93129713961C93CB
:102840003296CF01DF91CF911F910F9108950093A0
:10285000C02B1093C12BF4CF2115310551F0421735
:10286000530738F0A901DB019A01BD01DF01F8012E
:10287000C1CFEF01F9CF8093C02B9093C12BCDCF67
:10288000FE01E20FF31F81939193225031092883B7
:102890003983D7CF2091BE2B3091BF2B232B41F40E
:1028A00020910628309107282093BE2B3093BF2B10
:1028B00020910428309105282115310541F42DB7C8
:1028C0003EB74091082850910928241B350BE09110
:1028D000BE2BF091BF2BE217F307A0F42E1B3F0B8A
:1028E0002817390778F0AC014E5F5F4F2417350782
:1028F00048F04E0F5F1F4093BE2B5093BF2B819328
:1029000091939FCFF0E0E0E09CCFCF93DF930097CF
:10291000E9F0FC01329712821382A091C02BB09192
:10292000C12BED0130E020E01097A1F4208131812E
:10293000820F931F2091BE2B3091BF2B2817390790
:1029400009F061C0E093BE2BF093BF2BDF91CF91D4
:102950000895EA01CE17DF07E8F54A815B819E0101
:1029600041155105B1F7E901EA83FB83499159917A
:10297000C40FD51FEC17FD0761F480819181029689
:10298000840F951FE90188839983828193818A83CB
:102990009B83F0E0E0E012968D919C911397009755
:1029A000B9F52D913C911197CD010296820F931F9D
:1029B0002091BE2B3091BF2B2817390739F630975D
:1029C00051F51092C02B1092C12BA093BE2BB09347
:1029D000BF2BBCCFC283D38340815181840F951F0D
:1029E000C817D90761F44E5F5F4F88819981480FFE
:1029F000591F408351838A819B8182839383211550
:102A0000310509F0B0CFE093C02BF093C12B9ECFDE
:102A1000FD01DC01C0CF12821382D7CFB0E0A0E06D
:102A2000E4E1F5E10C9448138C01009751F4CB01DB
:102A30000E94E9138C01C801CDB7DEB7E0E10C9428
:102A40006113FC01E60FF71F9C0122503109E217C8
:102A5000F30708F49DC0D901CD91DC911197C617F9
:102A6000D70798F0C530D10530F3CE01049786170B
:102A7000970708F3C61BD70B2297C193D1936D9389
:102A80007C93CF010E948514D6CF5B01AC1ABD0A9E
:102A90004C018C0E9D1EA091C02BB091C12B512CCE
:102AA000412CF12CE12C109731F58091BE2B9091A7
:102AB000BF2B8815990509F05CC04616570608F02B
:102AC00058C08091042890910528009741F48DB753
:102AD0009EB74091082850910928841B950BE81750
:102AE000F90708F055C0E093BE2BF093BF2BF90116
:102AF00060837183A0CF8D919C91119712966C90F9
:102B0000129713967C901397A815B90559F56C0187
:102B100042E0C40ED11CCA14DB0420F1AC014A19F6
:102B20005B09DA011296159780F062827382408306
:102B30005183D9016D937C93E114F10471F0D701B5
:102B40001296ED93FC93139776CF22968C0F9D1FD0
:102B5000F90180839183F301EFCFE093C02BF093D1
:102B6000C12B69CF4816590608F42C017D01D30109
:102B70009ACFCB010E94E9137C01009749F0AE0186
:102B8000B8010E94CB15C8010E948514870153CF5C
:102B900010E000E050CFFB01DC0102C001900D927B
:102BA00041505040D8F708956817790768F4FB0141
:102BB000DC01E40FF51FA40FB51F02C002900E92B6
:102BC00041505040D8F708950C94CB15FB01DC011F
:102BD0008D91019080190110D9F3990B0895FB0193
:102BE000DC014150504048F001900D920020C9F79F
:102BF00001C01D9241505040E0F70895F894FFCF76
:102C000000000003000102000001010000000000BC
:102C1000000000000000000000000504000506029E
:102C20000401030001000102030201000203040584
:102C3000020305040202000502010500040101046B
:102C4000040403030303050503030000010120102E
:102C500001204004100208010201020408040201DC
:102C6000040810200408201000000000FE01FD00F0
:102C700063014F029401720186017302DF02A00119
:102C800071020D0A00696E7374616C6C00703130F2
:102C900032007031303400703130350070313033F3
:102CA000004F4B0063616E63656C00535441525496
:102CB000007031303100726561645F6D6F64650072
:102CC000726561645F65786974003B00666C61736E
:102CD000685F636C656172656400636F6E6E00327D
:102CE0002E362E30003035313132330061746D654F
:072CF0006761343830390040
:0A2CF7000024F4000000C22B80004E
:00000001FF
