:100000000C945D000C94260B0C94FF0A0C94850054
:100010000C9485000C9485000C9485000C9485004C
:100020000C9485000C9485000C9485000C9485003C
:100030000C9485000C9485000C9485000C9485002C
:100040000C94B50A0C9485000C94830A0C945D0AF8
:100050000C9485000C9485000C9485000C9485000C
:100060000C9485000C94850000000008000201003B
:100070000003040700000000000000000000000072
:10008000250028002B0000000000240027002A0083
:10009000040404040404040402020202020203032E
:1000A0000303030301020408102040800102040836
:1000B00010200102040810204D0B11241FBECFEFA9
:1000C000D8E0DEBFCDBF24E0A4E8B1E001C01D92BE
:1000D000AB36B207E1F711E0A0E0B1E0ECE2F1E20B
:1000E00002C005900D92A438B107D9F710E0CDE514
:1000F000D0E004C02197FE010E949C0ECC35D107B0
:10010000C9F70E94800B0C9494100C940000089581
:1001100080917E0287FF0DC080916A02282F30E017
:10012000C90146E0880F991F4A95E1F7822B932B6E
:10013000089585FF08C080917202909173029827FC
:100140008927982708958091620290E0089510927F
:100150009701109291011092900110928F011092CC
:100160008E0110928D0110928C0110928B0180E80B
:1001700080938A01F89480918901882321F120914C
:10018000A4013091A50191E080E040918701509158
:1001900088014217530709F090E0909385018093FE
:1001A00086011092A5011092A4011092880110926C
:1001B000870178941092890181ED92E09093660412
:1001C00080936504089590E080E0E7CFAF92BF92FE
:1001D000CF92DF92EF92FF920F931F93CF93DF9313
:1001E0006C017B018B01040F151FEB015E01AE1842
:1001F000BF08C017D10759F06991D601ED91FC9164
:100200000190F081E02DC6010995892B79F7C50190
:10021000DF91CF911F910F91FF90EF90DF90CF90E2
:10022000BF90AF900895FC01538D448D252F30E091
:10023000842F90E0821B930B541710F0CF960895F3
:1002400001970895FC01918D828D981761F0A28D20
:10025000AE0FBF2FB11D5D968C91928D9F5F9F73E6
:10026000928F90E008958FEF9FEF0895FC01918D9C
:10027000828D981731F0828DE80FF11D858D90E009
:1002800008958FEF9FEF0895FC01918D228D892FA6
:1002900090E0805C9F4F821B91098F73992708958E
:1002A00088EC93E00E94440121E0892B09F420E0CE
:1002B000822F089580E090E0892B29F00E94500160
:1002C00081110C9400000895FC01A48DA80FB92F92
:1002D000B11DA35ABF4F2C91848D90E001968F736E
:1002E0009927848FA689B7892C93A089B1898C918D
:1002F000837080648C93938D848D981306C00288DC
:10030000F389E02D80818F7D80830895EF92FF92A5
:100310000F931F93CF93DF93EC0181E0888F9B8D28
:100320008C8D98131AC0E889F989808185FF15C0E2
:100330009FB7F894EE89FF896083E889F989808105
:100340008370806480839FBF81E090E0DF91CF91D4
:100350001F910F91FF90EF900895F62E0B8D10E0F6
:100360000F5F1F4F0F731127E02E8C8D8E110CC065
:100370000FB607FCFACFE889F989808185FFF5CFB0
:10038000CE010E946401F1CFEB8DEC0FFD2FF11D2A
:10039000E35AFF4FF0829FB7F8940B8FEA89FB89ED
:1003A00080818062CFCFCF93DF93EC01888D88234B
:1003B000B9F0AA89BB89E889F9898C9185FD03C0C8
:1003C000808186FD0DC00FB607FCF7CF8C9185FFAD
:1003D000F2CF808185FFEDCFCE010E946401E9CF8D
:1003E000DF91CF91089590E0FC01E859FF4F2491EF
:1003F000FC01EC55FF4F3491FC01E057FF4FE491B5
:10040000EE23C9F0222339F0233001F1A8F4213082
:1004100019F1223029F1F0E0EE0FFF1FE458FF4FF1
:10042000A591B4918FB7F894EC91611126C03095E5
:100430003E233C938FBF08952730A9F02830C9F0A0
:10044000243049F7809180008F7D03C08091800027
:100450008F7780938000DFCF84B58F7784BDDBCF2B
:1004600084B58F7DFBCF8091B0008F778093B000F3
:10047000D2CF8091B0008F7DF9CF3E2BDACF3FB73E
:10048000F89480919D0190919E01A0919F01B0915F
:10049000A00126B5A89B05C02F3F19F00196A11D0C
:1004A000B11D3FBFBA2FA92F982F8827BC01CD01BE
:1004B000620F711D811D911D42E0660F771F881F1D
:1004C000991F4A95D1F70895CF930E943F02C0919A
:1004D000AA012C2F30E0E091AC01F091AD01DB01DD
:1004E000AE1BBF0BF901EE0FFF1FEA55FE4FB183A4
:1004F000A0836093AC017093AD018093AE019093A3
:10050000AF014091A4015091A501240F351F3093F4
:10051000A5012093A40191E08C2F89278093AA0143
:10052000CF9108952FB7F8946091990170919A0135
:1005300080919B0190919C012FBF08950F931F9371
:100540000E9492026093D0037093D1038093D203F0
:100550009093D30388EC93E00E94360197FF1DC06F
:100560000E9492020091D0031091D1032091D203F6
:100570003091D303601B710B820B930B0091CC0362
:100580001091CD032091CE033091CF0360177107F6
:1005900082079307F8F28FEF9FEF1F910F91089555
:1005A0000895F8948091A4019091A501209187016C
:1005B000309188018217930711F4789408958091FF
:1005C000A4019091A501821B930B029758F0789497
:1005D00087EA90E0909366048093650487E68093B1
:1005E000AB0108952091A6013091A7018091A80147
:1005F0009091A9014091A4015091A50150938801C7
:10060000409387017894A901445351094D30510515
:1006100068F02A553109273B364240F087EA90E0DE
:10062000909366048093650488E6D9CF9C01245397
:1006300031092D30310538F18A559109873B9642B1
:1006400068F74D30510568F08091850190918601E1
:100650000A97A4F080E593E0909366048093650484
:100660000895F8948091A8019091A9019093A70111
:100670008093A60181E08093AA017894109286016C
:100680001092850108954D30510558F780918501EC
:10069000909186010196909386018093850108953B
:1006A000F8948091A4019091A50120918701309147
:1006B00088018217930711F4789408958091A4011A
:1006C0009091A501821B930B029758F0789487EACA
:1006D00090E0909366048093650487E68093AB0175
:1006E00008954091A6015091A7018091A801909191
:1006F000A9012091A4013091A50130938801209394
:10070000870178949A01245331092D30310568F01E
:100710004A555109473B564240F087EA90E0909392
:1007200066048093650488E6D9CFBC0164537109DF
:1007300041E06D30710508F040E06D30710528F042
:100740008A559109873B964240F781E02D3031056B
:1007500008F080E08413E1CF80918A01882389F03A
:100760002D30310540F4E0918B01F0E0E457FE4F6D
:100770009081982B908390E09595879580938A013E
:10078000089580918B0191E0980F90938B0140E840
:1007900040938A012D303105A8F491E090938901AE
:1007A0008250843038F48DEE93E090936604809309
:1007B0006504089587EA90E0909366048093650449
:1007C00089E68CCF963008F48BCF87EA90E090933F
:1007D0006604809365048AE681CFEF92FF921F93AF
:1007E000CF93DF9380918C0190918D018927C091E7
:1007F0008B01C43068F090918E018927C43041F09C
:1008000090918F018927C53019F090919001892727
:10081000EC2FF0E0E557FE4F9081981751F087EAF2
:1008200090E0909366048093650484E68093AB0126
:100830001FC00E9492026093930170939401809371
:1008400095019093960110929201C33009F089C0EE
:1008500010918D0180918C0111111AC08F3F71F49C
:1008600087EA90E09093660480936504C093AB019F
:10087000DF91CF911F91FF90EF900895811108C0F3
:1008800087EA90E0909366048093650484E0CECF7D
:10089000982F907C903809F040C017FF3EC0E12EA1
:1008A000F12CE701C095D095CC0FDD1FCC0FDD1FDB
:1008B000C07CD1708F73C80FD11D0E94880021E0C9
:1008C000C817D90709F020E020939201C817D9076B
:1008D00039F0CF33D10521F08091A1018823A9F00F
:1008E00080919701811111C0E091A201F091A301C3
:1008F000309759F0412F4770B70153E075956795D0
:100900005A95E1F76170CE01099587EA90E09093DE
:1009100066048093650487E089CF87FF08C087EA73
:1009200090E0909366048093650485E67FCF107C09
:10093000103441F087EA90E0909366048093650458
:1009400086E674CF91E020916202281390E09093A4
:10095000920187EA90E0909366048093650486E0B4
:1009600065CFC43069F5C0918C018C2F807C8038B4
:1009700039F520918D01822F8578813009F5822FFC
:10098000867090E0982F8827207744E0249F90017C
:100990001124820F931FCF73C80FD92FD11D0E942E
:1009A000880021E0C817D90709F020E020939201C0
:1009B00087EA90E0909366048093650488E036CFE0
:1009C00087EA90E090936604809365041092AB01EF
:1009D0004FCFCF92DF92EF92FF92CF93D12CC12CC9
:1009E00088EC93E00E944401181619060CF050C0E0
:1009F0000E949E02FC0197FD47C08D32910519F0BF
:100A0000C0970A97D0F5C12CD12C7601C0E0E13017
:100A1000F105D1F0ED32F105A9F1CF01C0970A97A8
:100A200098F4AAE0B0E0A70196010E944B0E6F0176
:100A3000FF0FEE08FF08C60ED71EE81EF91E80E362
:100A4000C81AD108E108F10888EC93E00E9422015D
:100A50000E949E02FC01C0970A97C8F2E130F1059E
:100A6000B1F2CC2309F4BCCFF094E094D094C094BC
:100A7000C11CD11CE11CF11CB3CF88EC93E00E9497
:100A80002201B6CFC1E0E0CFC12CD12C7601A8CF96
:100A9000C601CF91FF90EF90DF90CF9008950F9314
:100AA0001F93E0916504F091660409950E949202FB
:100AB000E09160022BE0E29FF0011124E055FE4F2F
:100AC0000081118122813381601B710B820B930B9A
:100AD00021E0653F71408105910508F420E0822FF7
:100AE0001F910F9108958F929F92AF92BF92CF92D4
:100AF000DF92EF92FF920F931F93CF93C82F162F81
:100B0000E0916504F09166040995C12ED12C2BE08B
:100B1000129FF0011124E055FE4F81859285892BAB
:100B200021F488E893E192878187C13009F07CC085
:100B30008BE08C9D80018D9D100D112400551E4F62
:100B4000F801C085C13009F047C00E943F02F8019A
:100B5000E184F28484809580A680B7806819790941
:100B60008A099B094701B12CA12C86169706A80675
:100B7000B90698F4F5EFEF16F1E0FF0670F00E9469
:100B80003F02F8016483758386839783F9E8EF1643
:100B9000F3E1FF0658F0C1E007C0C701855F91404F
:100BA0008439914150F4C0E08C2F1EC044E6E41A11
:100BB000F108F801F286E186F7CFF4EFEF16F1E0E5
:100BC000FF0691F48BE08C9DF0018D9DF00D1124BA
:100BD000E055FE4F1086E8CFC11106C00E944F05B8
:100BE000813011F4F8018087CF911F910F91FF9010
:100BF000EF90DF90CF90BF90AF909F908F9008952F
:100C00000E943F02F701648375838683978381E0A6
:100C10008087043FF1E01F0708F4BDCF0C591F4F38
:100C2000F70112870187B7CF0E943F024BE04C9D2E
:100C300090014D9D300D1124A90140555E4F7A0160
:100C4000FA010185128584809580A680B780681995
:100C500079098A099B094801B12CA12C86169706AF
:100C6000A806B90620F40838F3E11F0748F2C801C6
:100C7000855F91408339914108F495CF083813413D
:100C800009F0B2CF9FCF42E050E06CE171E088EC18
:100C900093E00C94E6000F931F93CF93DF938C01A6
:100CA000C5E0D0E0F801448155816081718188EC14
:100CB00093E00E94E6000E944306219799F7DF9196
:100CC000CF911F910F910895CF93DF93FC01019075
:100CD0000020E9F73197AF01481B590BBC0188ECA4
:100CE00093E00E94E600EC010E9443068C0F9D1FDA
:100CF000DF91CF910895FC0180819181009711F0DF
:100D00000C943E0F0895EF92FF920F931F93CF9391
:100D1000DF93EC017B01198218821B821A821D82EB
:100D20001C82FB0101900020E9F731978F01061B1F
:100D3000170BB8016F5F7F4F90E080E00E94C70FF4
:100D40000097B9F0998388831B830A832C813D81A6
:100D5000232B11F4FC0110821D830C83B7018881C1
:100D60009981DF91CF911F910F91FF90EF900C949B
:100D70008D1088819981009711F00E943E0F198291
:100D800018821D821C821B821A82DF91CF911F91D3
:100D90000F91FF90EF9008951F93CF93DF93EC0195
:100DA000162F0E94350E181739F0612FCE01DF91F2
:100DB000CF911F910C943D0EDF91CF911F9108951B
:100DC0000C94350EAF92BF92CF92DF92EF92FF92CA
:100DD0000F931F93CF93DF93C82FD0E05E0181E183
:100DE000A80EB11C6E01E1E2CE0ED11C7E01F1E332
:100DF000EF0EF11C613009F443C0CE010E94E00601
:100E000096E09C9F80019D9F100D11240E591C4F50
:100E100090E0F80191838083C5010E94E0068F3045
:100E200081F058F48E3069F096E09C9FF0019D9F10
:100E3000F00D1124EE59FC4F05C0803111F08131C5
:100E400099F7F8018283C6010E94E00696E09C9F14
:100E500090019D9F300D1124E901CE59DC4F8C8308
:100E6000C7010E94E0068D8380E0DF91CF911F9142
:100E70000F91FF90EF90DF90CF90BF90AF900895CB
:100E800086E08C9F80018D9F100D11240E591C4F00
:100E9000F8016081CE010E94CC06F8016281C50193
:100EA0000E94CC0660E0C6010E94CC06F801658174
:100EB000C7010E94CC0681E0D8CF9F92AF92BF922B
:100EC000CF92DF92EF92FF920F931F93CF93DF9316
:100ED000162FFC01448155816081718188EC93E07B
:100EE0000E94E6000E9443060E94E9047C01873CC0
:100EF000910509F4A5C02FE6E216F10491F48FE103
:100F000091E00E9464060E94E9040097A1F336E094
:100F1000139FF0011124EE59FC4F9183808380E0F0
:100F200090C080E7E816F10409F584E291E00E94A0
:100F300064060E94E904892BC1F3812F90E0AC0183
:100F40004150510926E0249FD001259FB00D112466
:100F5000AE59BC4F4D915C91289FF001299FF00D37
:100F60001124EE59FC4F51834083D9CFE1E7EE16AF
:100F7000F10469F489E291E00E9464060E94E904A8
:100F80000097C1F326E0129FF0011124C4CF32E78D
:100F9000E316F104C1F48EE291E00E9464060E941F
:100FA000E904892BC1F3812F90E0AC014350510932
:100FB00026E0249FF001259FF00D1124EE59FC4FEF
:100FC00040815181C9CF83E7E816F10409F445C097
:100FD0005701E9E7AE1AB108F6E01F9FC0011124DE
:100FE0009C012C593C4F69018CEF982E910E0DEF0E
:100FF000010FDEEFD10FCFEFC10F35E0A316B10423
:1010000008F08DCF89E7E816F104A9F588E391E0AF
:101010000E9464060E94E9041816190674F7F60186
:10102000808361E0812F0E94E206882331F381E50D
:1010300091E00E9464060E94E904873C9105B9F79B
:1010400081E0DF91CF911F910F91FF90EF90DF90A2
:10105000CF90BF90AF909F90089583E391E00E945E
:1010600064060E94E904892BC1F3812F90E0AC0152
:10107000425051099DCFFAE7EF16F10499F48DE340
:1010800091E00E9464060E94E904181619060CF00B
:10109000B4CFF601808361E08C2F0E94E2068111BB
:1010A000C0CFABCFFBE7EF16F10499F482E491E0F7
:1010B0000E9464060E94E904181619060CF09DCFE0
:1010C000F601808361E08D2F0E94E2068111E3CF5B
:1010D00094CFFCE7EF16F10499F487E491E00E94C5
:1010E00064060E94E904181619060CF086CFF60172
:1010F000808361E0802F0E94E2068111E3CF7DCFE3
:101100008CE491E00E9464060E94E9041816190616
:101110000CF073CFF601808361E0892D0E94E20616
:101120008111E7CF6ACF7F928F929F92AF92BF9249
:10113000CF92DF92EF92FF920F931F93CF93DF93A3
:1011400000D000D000D0CDB7DEB7880F991F880F30
:10115000991F9C0123503109842F90E09595879524
:1011600083709927820F931F4170E2E6F3E021E03C
:10117000608171816817790721F4442309F49CC0C8
:101180002383369633E0E23CF30791F72091C203C4
:101190003091C3032817390709F0FCC0442309F430
:1011A000F9C0E091D803F091D90382E08083E09107
:1011B000D403F091D5031082E091D603F091D703C8
:1011C00080E180831092E003E091DC03F091DD0385
:1011D0008EE38083E091DA03F091DB03808180610C
:1011E0008083E091DA03F091DB0380818860808363
:1011F000E091DA03F091DB03808180688083E091E5
:10120000DA03F091DB0380818F7D808386E0C82E36
:1012100096E0F92E24E0B22E3CE0A32EEE24E394D7
:101220004DE0942E53E0D52E6EE0862E7BE0772E97
:1012300084E591E00E9464060E94E9048C0118167E
:101240001906B4F788EC93E00E944401892B81F7DA
:101250008091840190E0C89EF001C99EF00D112498
:10126000EE59FC4F14820936110509F40AC108F041
:1012700064C00636110509F4B8C000F5053611053D
:10128000B9F67582109184016AE571E0CE0101968C
:101290000E948306612FCE0101960E945D07182FE0
:1012A000CE0101960E947B06112361F38091840197
:1012B0008F5F80938401BCCF138263CF0736110503
:1012C00009F4B3C00836110509F0B2CF9C012350D0
:1012D0003109F29ED001F39EB00D1124AE59BC4FDE
:1012E00015968C922F5F3F4FF29ED001F39EB00D6A
:1012F0001124AE59BC4F1596EC920197F89ED0017F
:10130000F99EB00D1124AE59BC4F1596DC92E582C2
:101310001091840169E671E0CE0101960E94830676
:10132000612FCE0101960E945D07182FCE01019614
:101330000E947B06112361F3B9CF023D110509F428
:10134000B6C0E0F5083C110509F072CF88EC93E0D7
:101350000E94D301E091DA03F091DB0380818F7E5C
:101360008083E091DA03F091DB038081877F8083C3
:10137000E091DA03F091DB0380818F778083E09145
:10138000DA03F091DB0380818F7D80838091E2031B
:101390008093E10326960FB6F894DEBF0FBECDBF53
:1013A000DF91CF911F910F91FF90EF90DF90CF9041
:1013B000BF90AF909F908F907F900895033D11054F
:1013C00009F478C06EE771E0043D110509F030CFF3
:1013D000CE0101960E948306CE0101960E944B0623
:1013E000CE0101960E947B0623CF0197F89ED00183
:1013F000F99EB00D1124AE59BC4F1596AC92E58202
:10140000109184016FE571E0CE0101960E94830680
:10141000612FCE0101960E945D07182FCE01019623
:101420000E947B06112361F341CF9C0122503109B8
:10143000F29ED001F39EB00D1124AE59BC4F15960B
:101440009C920197F89ED001F99EB00D1124AE59DF
:10145000BC4F1596EC92D5821091840164E671E040
:10146000CE0101960E948306612FCE0101960E9453
:101470005D07182FCE0101960E947B06112361F3B0
:1014800015CFB582109184016EE671E0CE01019610
:101490000E948306612FCE0101960E945D07182FDE
:1014A000CE0101960E947B06112361F3FFCE63E714
:1014B00071E08ECF68E771E08BCF1F920F920FB66D
:1014C0000F9211242F933F934F935F936F937F93CA
:1014D0008F939F93AF93BF93EF93FF9388EC93E029
:1014E0000E946401FF91EF91BF91AF919F918F9105
:1014F0007F916F915F914F913F912F910F900FBE10
:101500000F901F9018951F920F920FB60F921124F3
:101510002F938F939F93EF93FF93E091D803F091D4
:10152000D9038081E091DE03F091DF0382FD1BC0CF
:1015300090818091E1038F5F8F732091E203821786
:1015400041F0E091E103F0E0E853FC4F958F809388
:10155000E103FF91EF919F918F912F910F900FBE1B
:101560000F901F9018958081F4CF1F920F920FB6A5
:101570000F9211242F933F938F939F93AF93BF9319
:101580008091990190919A01A0919B01B0919C0149
:101590003091980123E0230F2D3758F50196A11DB6
:1015A000B11D209398018093990190939A01A09383
:1015B0009B01B0939C0180919D0190919E01A0910F
:1015C0009F01B091A0010196A11DB11D80939D01C5
:1015D00090939E01A0939F01B093A001BF91AF9102
:1015E0009F918F913F912F910F900FBE0F901F9061
:1015F000189526E8230F0296A11DB11DD2CF1F9288
:101600000F920FB60F9211242F933F934F935F9336
:101610006F937F938F939F93AF93BF93EF93FF93BA
:10162000E0910201F09103010995FF91EF91BF91C3
:10163000AF919F918F917F916F915F914F913F916A
:101640002F910F900FBE0F901F9018951F920F9221
:101650000FB60F9211242F933F934F935F936F9385
:101660007F938F939F93AF93BF93EF93FF93E091FB
:101670000001F09101010995FF91EF91BF91AF91A8
:101680009F918F917F916F915F914F913F912F919A
:101690000F900FBE0F901F901895E8ECF3E01382A7
:1016A000128288EE93E0A0E0B0E084839583A68365
:1016B000B7838EE091E09183808385EC90E09587FD
:1016C000848784EC90E09787868780EC90E0918B0C
:1016D000808B81EC90E0938B828B82EC90E0958BF9
:1016E000848B86EC90E0978B868B118E128E138EF6
:1016F000148E87E890E090936604809365040895C3
:10170000789484B5826084BD84B5816084BD85B5DC
:10171000826085BD85B5816085BD80916E008160E8
:1017200080936E001092810080918100826080938E
:101730008100809181008160809381008091800090
:101740008160809380008091B10084608093B100BB
:101750008091B00081608093B00080917A008460B5
:1017600080937A0080917A00826080937A008091E1
:101770007A00816080937A0080917A0080688093FB
:101780007A001092C1008AE992E09093C30380939B
:10179000C20383E998E09093A3018093A20181E0C2
:1017A0008093A1018091AC019091AD01A091AE0117
:1017B000B091AF01892B8A2B8B2B91F51092680287
:1017C000109269021092AA011092A9011092A80128
:1017D0001092A7011092A6011092A5011092A401E7
:1017E0000E943F026093AC017093AD018093AE0103
:1017F0009093AF0184E692E0909301018093000101
:10180000809169008C7F816080936900E89A87EA03
:1018100090E0909366048093650482E08093AB012E
:10182000C2E6D3E010E060E0812F0E94E2068A81E8
:1018300090E0FC01EC55FF4F249180579F4FFC0135
:101840008491882399F090E0880F991FFC01EA5752
:10185000FF4FA591B491FC01E458FF4F85919491FD
:101860008FB7F894EC91E22BEC938FBF1F5F269615
:101870001F30C9F68091C2039091C30304979093DF
:10188000C3038093C203D6E082E0782E9BE0992EBA
:1018900023E0822EE0916504F09166040995C091E1
:1018A00060020C2F10E0D09FF001D19FF00D1124A9
:1018B000EE59FC4F638198012F5F3F4F6901611121
:1018C000FEC085818C50833008F0F9C0848182305D
:1018D00069F40E949202909EF001919EF00D1124F5
:1018E000E055FE4F6083718382839383D09FC00154
:1018F000D19F900D1124FC01EE59FC4F7F01848291
:1019000061E06C0F80E00E947305DC9DF001DD9DBD
:10191000F00D1124EE59FC4F682F82810E94F301D3
:101920006801F4E0CF0ED11CF70185818D3008F4F9
:1019300067C098012E5F3F4FD29FC001D39F900D8B
:1019400011249C012E593C4F5901F90185818330A6
:1019500009F056C062E06C0F80E00E947305682FAA
:10196000F50182810E94F301F70185818E3009F033
:1019700047C0DC9DF001DD9DF00D1124EE59FC4FB8
:1019800085818430E9F563E06C0F81E00E94730586
:1019900098012D5F3F4FD29FF001D39FF00D11248E
:1019A000EE59FC4F682F82810E94F301DC9DC0013B
:1019B000DD9D900D11249C012E593C4F7901F901B8
:1019C0008381811127C08581843021F564E06C0F0B
:1019D00080E00E947305682FF70182810E94F30165
:1019E0006C2F81E00E947305D09FF001D19FF00D14
:1019F0001124EE59FC4F682F82810E94F3013EC0F2
:101A00006C2F81E00E947305D09FF001D19FF00DF3
:101A10001124C6CF0E944F058130D9F5DC9DC0014D
:101A2000DD9D900D11249C012E593C4F7901F90147
:101A3000B380F1E0BF122DC0F9018581843049F5F2
:101A400084818A3030F16C2F80E00E947305D09F32
:101A5000F001D19FF00D1124EE59FC4F682F8281C7
:101A60000E94F30164E06C0F81E00E947305682F0F
:101A7000F70182810E94F301F701B4828091600234
:101A80008F5F80936002813108F404CF109260026E
:101A900001CFDC9D8001DD9D100D11240E591C4FDE
:101AA000F8018581843051F784818F5F848364E0FD
:101AB0006C0F80E00E947305682FF8019DCFD09FC6
:101AC000F001D19FF00D1124EE59FC4F8581DC9D72
:101AD000D001DD9DB00D1124AE59BC4F13969C91E1
:101AE0001397913009F0A4C08C3008F4A1C015966A
:101AF0008C91813019F68481833069F40E949202BE
:101B0000909EF001919EF00D1124E055FE4F6083F0
:101B1000718382839383D09FC001D19F900D112444
:101B20009C012E593C4F7901F901748261E06C0FE0
:101B300081E00E947305DC9DF001DD9DF00D112414
:101B4000EE59FC4F682F82810E94F3016C2F80E0D8
:101B50000E947305682FF70182810E94F301F7014B
:101B600085818E3069F598012C5F3F4FD29FC0016F
:101B7000D39F900D11249C012E593C4F7901F901FE
:101B800085818430E9F464E06C0F80E00E94730585
:101B9000682FF70182810E94F30163E06C0F80E0FF
:101BA0000E94730598012D5F3F4FD29FF001D39F94
:101BB000F00D1124EE59FC4F682F82810E94F30131
:101BC0000E944F0598012E5F3F4F813099F4D29FBC
:101BD0008001D39F100D11240E591C4FF801F38082
:101BE000F1E0FF1207C0F8018581833019F4848188
:101BF000833088F4D29F8001D39F100D11240E5999
:101C00001C4FF8018581833009F038CF84818F5FC4
:101C1000848362E04DCF62E06C0F81E00E94730527
:101C2000682FF80182810E94F301F801F48226CF27
:101C30008B3009F023CFD09FF001D19FF00D1124FC
:101C4000EE59FC4F82819481913021F4611102C0E0
:101C500061E0D3CE0E94F301D09FF001D19FF00D3F
:101C60001124EE59FC4F148209CFF999FECF92BD91
:101C700081BDF89A992780B50895262FF999FECF4E
:101C80001FBA92BD81BD20BD0FB6F894FA9AF99A99
:101C90000FBE019608950E948D0EA59F900DB49FD2
:101CA000900DA49F800D911D112408952F923F92B5
:101CB0004F925F926F927F928F929F92AF92BF925C
:101CC000CF92DF92EF92FF920F931F93CF93DF9308
:101CD000CDB7DEB7CA1BDB0B0FB6F894DEBF0FBE65
:101CE000CDBF09942A88398848885F846E847D84B2
:101CF0008C849B84AA84B984C884DF80EE80FD80B4
:101D00000C811B81AA81B981CE0FD11D0FB6F89429
:101D1000DEBF0FBECDBFED010895A29FB001B39FFE
:101D2000C001A39F700D811D1124911DB29F700DE4
:101D3000811D1124911D0895EE0FFF1F0590F49150
:101D4000E02D09940F931F93CF93DF938230910579
:101D500010F482E090E0E0916904F0916A0430E0D0
:101D600020E0B0E0A0E0309799F42115310509F4A6
:101D70004AC0281B390B24303105D8F58A819B8154
:101D80006115710589F1FB0193838283FE0111C006
:101D9000408151810281138148175907E0F04817AB
:101DA000590799F4109761F012960C9312971396B5
:101DB0001C933296CF01DF91CF911F910F9108951F
:101DC0000093690410936A04F4CF2115310551F092
:101DD0004217530738F0A901DB019A01BD01DF0169
:101DE000F801C1CFEF01F9CF90936A0480936904A1
:101DF000CDCFFE01E20FF31F819391932250310961
:101E000039832883D7CF2091670430916804232B2E
:101E100041F420910601309107013093680420932A
:101E2000670420910401309105012115310541F429
:101E30002DB73EB74091080150910901241B350B85
:101E4000E0916704F0916804E217F307A0F42E1BF9
:101E50003F0B2817390778F0AC014E5F5F4F24170E
:101E6000350748F04E0F5F1F509368044093670496
:101E7000819391939FCFF0E0E0E09CCFCF93DF93ED
:101E80000097E9F0FC01329713821282A091690455
:101E9000B0916A04ED0130E020E01097A1F42081B8
:101EA0003181820F931F20916704309168042817B5
:101EB000390709F061C0F0936804E0936704DF918B
:101EC000CF910895EA01CE17DF07E8F54A815B81DB
:101ED0009E0141155105B1F7E901FB83EA83499160
:101EE0005991C40FD51FEC17FD0761F480819181D2
:101EF0000296840F951FE9019983888382819381DB
:101F00009B838A83F0E0E0E012968D919C91139779
:101F10000097B9F52D913C911197CD010296820F52
:101F2000931F20916704309168042817390739F608
:101F3000309751F510926A0410926904B0936804C6
:101F4000A0936704BCCFD383C28340815181840FA7
:101F5000951FC817D90761F44E5F5F4F888199813B
:101F6000480F591F518340838A819B8193838283C9
:101F70002115310509F0B0CFF0936A04E0936904AC
:101F80009ECFFD01DC01C0CF13821282D7CFB0E01B
:101F9000A0E0EDECFFE00C94580E8C01009751F49A
:101FA000CB010E94A20E8C01C801CDB7DEB7E0E1E3
:101FB0000C94740EFC01E60FF71F9C0122503109AE
:101FC000E217F30708F49DC0D901CD91DC91119778
:101FD000C617D70798F0C530D10530F3CE01049766
:101FE0008617970708F3C61BD70B2297C193D19387
:101FF0006D937C93CF010E943E0FD6CF5B01AC1A4C
:10200000BD0A4C018C0E9D1EA0916904B0916A041A
:10201000512C412CF12CE12C109731F58091670463
:10202000909168048815990509F05CC0461657061A
:1020300008F058C08091040190910501009741F487
:102040008DB79EB74091080150910901841B950BF3
:10205000E817F90708F055C0F0936804E0936704A7
:10206000F90171836083A0CF8D919C911197129695
:102070006C90129713967C901397A815B90559F593
:102080006C0142E0C40ED11CCA14DB0420F1AC0187
:102090004A195B09DA011296159780F06282738201
:1020A00051834083D9016D937C93E114F10471F065
:1020B000D7011396FC93EE93129776CF22968C0F4E
:1020C0009D1FF90191838083F301EFCFF0936A04A0
:1020D000E093690469CF4816590608F42C017D0184
:1020E000D3019ACFCB010E94A20E7C01009749F048
:1020F000AE01B8010E948410C8010E943E0F870102
:1021000053CF10E000E050CFFB01DC0102C0019092
:102110000D9241505040D8F70895FB01DC01019029
:0C2120000D920020E1F70895F894FFCF25
:10212C00D002D00200006B04800000000000860189
:10213C00E6001301D3014401220136010D0A00709F
:10214C003131310070313132007031313300703146
:10215C003134007031313500703132310070313230
:10216C00320070313233007031323400703132351C
:10217C00004F4B00535441525400703130310070B9
:10218C003130320070313033007031303400703106
:10219C00303500636F6E6E00322E35346200323291
:0421AC003132350097
:00000001FF
