:100000000C9435000C945D000C945D000C945D0024
:100010000C945D000C945D000C945D000C945D00EC
:100020000C945D000C945D000C945D000C945D00DC
:100030000C945D000C945D000C945D000C945D00CC
:100040000C9405040C945D000C9475040C944F04FE
:100050000C945D000C945D000C945D000C945D00AC
:100060000C945D000C945D00410611241FBECFEF7F
:10007000D8E0DEBFCDBF22E0A0E8B1E001C01D9214
:10008000A139B207E1F711E0A0E0B1E0EEE9F1E15A
:1000900002C005900D92A038B107D9F710E0C5E372
:1000A000D0E004C02197FE010E94D506C433D107D9
:1000B000C9F70E94A7040C94CD080C940000AF92DD
:1000C000BF92CF92DF92EF92FF920F931F93CF9345
:1000D000DF936C017B018B01040F151FEB015E01A7
:1000E000AE18BF08C017D10759F06991D601ED913C
:1000F000FC910190F081E02DC6010995892B79F7DB
:10010000C501DF91CF911F910F91FF90EF90DF908C
:10011000CF90BF90AF900895FC01538D448D252F53
:1001200030E0842F90E0821B930B541710F0CF9691
:10013000089501970895FC01918D828D981761F0C3
:10014000A28DAE0FBF2FB11D5D968C91928D9F5FDA
:100150009F73928F90E008958FEF9FEF0895FC01B9
:10016000918D828D981731F0828DE80FF11D858D6C
:1001700090E008958FEF9FEF08952FB7F894809146
:10018000860190918701A0918801B09189012FBFCC
:100190008093920190939301A0939401B093950161
:1001A0008AE891E00E94AF0097FF26C02FB7F8942D
:1001B0008091860190918701A0918801B091890179
:1001C0002FBF4091920150919301609194017091E1
:1001D0009501841B950BA60BB70B40918E01509196
:1001E0008F01609190017091910184179507A60786
:1001F000B707B0F28FEF9FEF0895FC01918D228D2C
:10020000892F90E0805C9F4F821B91098F73992703
:1002100008958AE891E00E94FD0021E0892B09F40D
:1002200020E0822F089580E090E0892B29F00E9441
:10023000090181110C9400000895FC01A48DA80F00
:10024000B92FB11DA35ABF4F2C91848D90E0019618
:100250008F739927848FA689B7892C93A089B18938
:100260008C91837080648C93938D848D981306C0D9
:100270000288F389E02D80818F7D80830895EF923D
:10028000FF920F931F93CF93DF93EC0181E0888F50
:100290009B8D8C8D98131AC0E889F989808185FF20
:1002A00015C09FB7F894EE89FF896083E889F989C2
:1002B00080818370806480839FBF81E090E0DF91C4
:1002C000CF911F910F91FF90EF900895F62E0B8D17
:1002D00010E00F5F1F4F0F731127E02E8C8D8E11D2
:1002E0000CC00FB607FCFACFE889F989808185FF39
:1002F000F5CFCE010E941D01F1CFEB8DEC0FFD2F4C
:10030000F11DE35AFF4FF0829FB7F8940B8FEA89F3
:10031000FB8980818062CFCFCF93DF93EC01888D02
:100320008823B9F0AA89BB89E889F9898C9185FD70
:1003300003C0808186FD0DC00FB607FCF7CF8C91FE
:1003400085FFF2CF808185FFEDCFCE010E941D0198
:10035000E9CFDF91CF910895CF92DF92EF92FF9294
:10036000CF93D12CC12C8AE891E00E94FD00181691
:1003700019060CF050C00E94BD00FC0197FD47C05B
:100380008D32910519F0C0970A97D0F5C12CD12C68
:100390007601C0E0E130F105D1F0ED32F105A9F1CF
:1003A000CF01C0970A9798F4AAE0B0E0A7019601A0
:1003B0000E9484066F01FF0FEE08FF08C60ED71ECD
:1003C000E81EF91E80E3C81AD108E108F1088AE89E
:1003D00091E00E949B000E94BD00FC01C0970A971B
:1003E000C8F2E130F105B1F2CC2309F4BCCFF094AE
:1003F000E094D094C094C11CD11CE11CF11CB3CF7B
:100400008AE891E00E949B00B6CFC1E0E0CFC12C0A
:10041000D12C7601A8CFC601CF91FF90EF90DF904D
:10042000CF90089542E050E068E171E08AE891E001
:100430000C945F000F931F93CF93DF938C01C5E063
:10044000D0E0F80144815581608171818AE891E0B2
:100450000E945F000E941202219799F7DF91CF91CD
:100460001F910F910895CF93DF93FC01019000201D
:10047000E9F73197AF01481B590BBC018AE891E0BD
:100480000E945F00EC010E9412028C0F9D1FDF9101
:10049000CF910895FC0180819181009711F00C9417
:1004A00077070895EF92FF920F931F93CF93DF93F7
:1004B000EC017B01198218821B821A821D821C8228
:1004C000FB0101900020E9F731978F01061B170B04
:1004D000B8016F5F7F4F90E080E00E9400080097B6
:1004E000B9F0998388831B830A832C813D81232B58
:1004F00011F4FC0110821D830C83B701888199815E
:10050000DF91CF911F910F91FF90EF900C94C6084F
:1005100088819981009711F00E94770719821882CB
:100520001D821C821B821A82DF91CF911F910F9135
:10053000FF90EF9008951F93CF93DF93EC01162F58
:100540000E946E06181739F0612FCE01DF91CF910E
:100550001F910C947606DF91CF911F9108950F9310
:100560001F93CF93DF93082F10E096E0899FE0015F
:100570001124C95DDD4F6881C8010E949B026A8118
:10058000C80141960E949B0260E0C80181960E94CA
:100590009B026D81C801C1960E949B0281E0DF91A0
:1005A000CF911F910F9108959F92AF92BF92CF92DA
:1005B000DF92EF92FF920F931F93CF93DF93162F4B
:1005C000FC0144815581608171818AE891E00E943B
:1005D0005F000E9412020E94AC017C01873C9105E1
:1005E00009F4A4C02FE6E216F10491F48BE191E046
:1005F0000E9433020E94AC010097A1F336E0139FE2
:10060000F0011124E95DFD4F9183808380E08FC06C
:1006100080E7E816F10409F580E291E00E943302D8
:100620000E94AC01892BC1F3812F90E0AC014150B5
:10063000510926E0249FD001259FB00D1124A95D0A
:10064000BD4F4D915C91289FF001299FF00D112421
:10065000E95DFD4F51834083D9CFE1E7EE16F10408
:1006600069F485E291E00E9433020E94AC01009798
:10067000C1F326E0129FF0011124C4CF32E7E31644
:10068000F104C1F48AE291E00E9433020E94AC01BD
:10069000892BC1F3812F90E0AC014350510926E032
:1006A000249FF001259FF00D1124E95DFD4F40814D
:1006B0005181C9CF83E7E816F10409F444C057011A
:1006C000E9E7AE1AB108F6E01F9FC00111249C01B2
:1006D000275D3D4F69018CEF982E910E0DEF010FB4
:1006E000DEEFD10FCFEFC10F35E0A316B10408F054
:1006F0008DCF89E7E816F104A1F584E391E00E942B
:1007000033020E94AC011816190674F7F6018083B3
:10071000812F0E94AF02882339F38DE491E00E947B
:1007200033020E94AC01873C9105B9F781E0DF916B
:10073000CF911F910F91FF90EF90DF90CF90BF90DE
:10074000AF909F9008958FE291E00E9433020E9443
:10075000AC01892BC1F3812F90E0AC0142505109CB
:100760009ECFFAE7EF16F10491F489E391E00E943D
:1007700033020E94AC01181619060CF0B5CFF60131
:1007800080838C2F0E94AF028111C2CFADCFFBE7D7
:10079000EF16F10491F48EE391E00E9433020E947F
:1007A000AC01181619060CF09FCFF60180838D2F2F
:1007B0000E94AF028111E5CF97CFFCE7EF16F1045D
:1007C00091F483E491E00E9433020E94AC01181678
:1007D00019060CF089CFF6018083802F0E94AF02AA
:1007E0008111E5CF81CF88E491E00E9433020E941D
:1007F000AC01181619060CF077CFF6018083892D0D
:100800000E94AF028111E9CF6FCF1F920F920FB6F6
:100810000F9211242F933F938F939F93AF93BF9386
:100820008091860190918701A0918801B091890102
:100830003091850123E0230F2D3758F50196A11D36
:10084000B11D209385018093860190938701A09329
:100850008801B09389018091810190918201A091DA
:100860008301B09184010196A11DB11D8093810186
:1008700090938201A0938301B0938401BF91AF91C3
:100880009F918F913F912F910F900FBE0F901F90CE
:10089000189526E8230F0296A11DB11DD2CF1F92F5
:1008A0000F920FB60F9211242F933F934F935F93A4
:1008B0006F937F938F939F93AF93BF93EF93FF9328
:1008C0008AE891E00E941D01FF91EF91BF91AF91E5
:1008D0009F918F917F916F915F914F913F912F9158
:1008E0000F900FBE0F901F9018951F920F920FB68A
:1008F0000F9211242F938F939F93EF93FF93E09187
:100900009A01F0919B018081E091A001F091A101F9
:1009100082FD1BC090818091A3018F5F8F73209116
:10092000A401821741F0E091A301F0E0E657FE4FE9
:10093000958F8093A301FF91EF919F918F912F91BC
:100940000F900FBE0F901F9018958081F4CFCF931A
:10095000DF9300D000D000D0CDB7DEB7789484B557
:10096000826084BD84B5816084BD85B5826085BDAB
:1009700085B5816085BD80916E00816080936E0039
:10098000109281008091810082608093810080912B
:1009900081008160809381008091800081608093DC
:1009A00080008091B10084608093B1008091B0009C
:1009B00081608093B00080917A00846080937A0097
:1009C00080917A00826080937A0080917A008160C1
:1009D00080937A0080917A00806880937A001092E8
:1009E000C1008AE992E09093880280938702E091A7
:1009F0009A01F0919B0182E08083E0919601F09151
:100A000097011082E0919801F091990180E1808333
:100A10001092A201E0919E01F0919F018EE38083EC
:100A2000E0919C01F0919D01808180618083E09143
:100A30009C01F0919D01808188608083E0919C0100
:100A4000F0919D01808180688083E0919C01F0910C
:100A50009D0180818F7D808386E0C82E96E0F92EEF
:100A60002EE0B22EEE24E39433E0D32E44E0A42E05
:100A70005CE0952E6DE0862E7BE0772E80E591E0A0
:100A80000E9433020E94AC018C0118161906B4F7BB
:100A90008AE891E00E94FD00892B81F78091800116
:100AA00090E0C89EF001C99EF00D1124E95DFD4F54
:100AB00014820836110509F4A7C020F50636110581
:100AC00009F456C008F074C005361105B9F67582F0
:100AD0001091800166E571E0CE0101960E945202FC
:100AE000612FCE0101960E94D402182FCE010196EB
:100AF0000E944A02112361F3809180018F5F8093ED
:100B00008001BCCF023D110509F4B5C0D0F409360F
:100B1000110509F0B3CFA582109180016AE671E05A
:100B2000CE0101960E945202612FCE0101960E94D1
:100B3000D402182FCE0101960E944A02112361F3BC
:100B4000DBCF033D110509F499C06AE771E0043D6C
:100B5000110509F093CFCE0101960E945202CE01F9
:100B600001960E941A02CE0101960E944A0286CF87
:100B70000197F89ED001F99EB00D1124A95DBD4FDB
:100B800015969C92E582109180016BE571E0CE0193
:100B900001960E945202612FCE0101960E94D4025A
:100BA000182FCE0101960E944A02112361F3A4CFAF
:100BB0009C0122503109F29ED001F39EB00D112408
:100BC000A95DBD4F15968C920197F89ED001F99EB4
:100BD000B00D1124A95DBD4F1596EC92D5821091F0
:100BE000800160E671E0CE0101960E945202612F01
:100BF000CE0101960E94D402182FCE0101960E94C8
:100C00004A02112361F378CF9C0123503109F29EEF
:100C1000D001F39EB00D1124A95DBD4F1596BC9275
:100C20002F5F3F4FF29ED001F39EB00D1124A95DBE
:100C3000BD4F1596EC920197F89ED001F99EB00D2C
:100C40001124A95DBD4F1596DC92E58210918001BB
:100C500065E671E0CE0101960E945202612FCE013D
:100C600001960E94D402182FCE0101960E944A02DA
:100C7000112361F341CF6FE671E06DCF64E771E05E
:100C80006ACFEAE8F1E01382128288EE93E0A0E0F6
:100C9000B0E084839583A683B7838AE091E0918353
:100CA000808385EC90E09587848784EC90E097873B
:100CB000868780EC90E0918B808B81EC90E0938B29
:100CC000828B82EC90E0958B848B86EC90E0978B06
:100CD000868B118E128E138E148E0895F999FECF85
:100CE00092BD81BDF89A992780B50895262FF9996C
:100CF000FECF1FBA92BD81BD20BD0FB6F894FA9AFF
:100D0000F99A0FBE019608950E94C606A59F900D00
:100D1000B49F900DA49F800D911D112408952F92D2
:100D20003F924F925F926F927F928F929F92AF927B
:100D3000BF92CF92DF92EF92FF920F931F93CF93C8
:100D4000DF93CDB7DEB7CA1BDB0B0FB6F894DEBF5F
:100D50000FBECDBF09942A88398848885F846E8485
:100D60007D848C849B84AA84B984C884DF80EE80CF
:100D7000FD800C811B81AA81B981CE0FD11D0FB6D8
:100D8000F894DEBF0FBECDBFED010895A29FB00164
:100D9000B39FC001A39F700D811D1124911DB29FAF
:100DA000700D811D1124911D0895EE0FFF1F0590F8
:100DB000F491E02D09940F931F93CF93DF9382302A
:100DC000910510F482E090E0E0918F02F0919002A2
:100DD00030E020E0B0E0A0E0309799F42115310533
:100DE00009F44AC0281B390B24303105D8F58A8113
:100DF0009B816115710589F1FB0193838283FE015B
:100E000011C0408151810281138148175907E0F0D8
:100E10004817590799F4109761F012960C9312979E
:100E200013961C933296CF01DF91CF911F910F91B2
:100E3000089500938F0210939002F4CF211531058D
:100E400051F04217530738F0A901DB019A01BD01A7
:100E5000DF01F801C1CFEF01F9CF909390028093A9
:100E60008F02CDCFFE01E20FF31F819391932250A9
:100E7000310939832883D7CF20918D0230918E029A
:100E8000232B41F4209102013091030130938E0213
:100E900020938D022091000130910101211531052F
:100EA00041F42DB73EB74091040150910501241B38
:100EB000350BE0918D02F0918E02E217F307A0F45A
:100EC0002E1B3F0B2817390778F0AC014E5F5F4FA0
:100ED0002417350748F04E0F5F1F50938E02409342
:100EE0008D02819391939FCFF0E0E0E09CCFCF9370
:100EF000DF930097E9F0FC01329713821282A091F0
:100F00008F02B0919002ED0130E020E01097A1F443
:100F100020813181820F931F20918D0230918E02AA
:100F20002817390709F061C0F0938E02E0938D0213
:100F3000DF91CF910895EA01CE17DF07E8F54A81E6
:100F40005B819E0141155105B1F7E901FB83EA83FD
:100F500049915991C40FD51FEC17FD0761F48081A9
:100F600091810296840F951FE9019983888382817C
:100F700093819B838A83F0E0E0E012968D919C91AF
:100F800013970097B9F52D913C911197CD010296D9
:100F9000820F931F20918D0230918E0228173907FE
:100FA00039F6309751F51092900210928F02B0935B
:100FB0008E02A0938D02BCCFD383C2834081518126
:100FC000840F951FC817D90761F44E5F5F4F888162
:100FD0009981480F591F518340838A819B81938354
:100FE00082832115310509F0B0CFF0939002E09390
:100FF0008F029ECFFD01DC01C0CF13821282D7CFBA
:10100000B0E0A0E0E6E0F8E00C9491068C010097D7
:1010100051F4CB010E94DB068C01C801CDB7DEB7CD
:10102000E0E10C94AD06FC01E60FF71F9C01225095
:101030003109E217F30708F49DC0D901CD91DC9185
:101040001197C617D70798F0C530D10530F3CE01F8
:1010500004978617970708F3C61BD70B2297C193EF
:10106000D1936D937C93CF010E947707D6CF5B011C
:10107000AC1ABD0A4C018C0E9D1EA0918F02B0913E
:101080009002512C412CF12CE12C109731F58091DC
:101090008D0290918E028815990509F05CC0461664
:1010A000570608F058C08091000190910101009707
:1010B00041F48DB79EB74091040150910501841B06
:1010C000950BE817F90708F055C0F0938E02E093EE
:1010D0008D02F90171836083A0CF8D919C9111974E
:1010E00012966C90129713967C901397A815B905D9
:1010F00059F56C0142E0C40ED11CCA14DB0420F186
:10110000AC014A195B09DA011296159780F06282E8
:10111000738251834083D9016D937C93E114F10470
:1011200071F0D7011396FC93EE93129776CF229627
:101130008C0F9D1FF90191838083F301EFCFF09312
:101140009002E0938F0269CF4816590608F42C01EB
:101150007D01D3019ACFCB010E94DB067C01009771
:1011600049F0AE01B8010E94BD08C8010E9477078E
:10117000870153CF10E000E050CFFB01DC0102C03B
:1011800001900D9241505040D8F70895FB01DC01C9
:0E11900001900D920020E1F70895F894FFCF32
:10119E00000091028000000000003F015F008C0003
:1011AE008C01FD009B00AF000D0A00703131310043
:1011BE0070313132007031313300703131340070A2
:1011CE0031313500703132310070313232007031D0
:1011DE00323300703132340070313235004F4B00F3
:1011EE00535441525400703130310070313032005E
:1011FE00703130330070313034007031303500636F
:10120E006F6E6E00322E353462003232313235005E
:00000001FF
