:100000000C94A1000C94460D0C941F0D0C94C90087
:100010000C94C9000C94C9000C94C9000C94C9003C
:100020000C94C9000C94C50D0C94C9000C94C90023
:100030000C94C9000C94C9000C94C9000C94C9001C
:100040000C94D50C0C94C9000C94930D0C946D0D6C
:100050000C94C9000C94C9000C94C9000C94C900FC
:100060000C94C9000C94C90063616E63656C004F09
:100070004B0070313031004E4F5F44415441003BE2
:10008000003B003030303B003B003B007265616458
:100090005F657869740032363130323500322E3681
:1000A0002E3100636F6E6E00666C6173685F636C07
:1000B000656172656400726561645F6D6F6465009F
:1000C000494E56414C494400494E56414C49440022
:1000D000494E56414C494400494E56414C49440012
:1000E0005354415254000000000023002600290010
:1000F00000000000240027002A0000000000250066
:1001000028002B0004040404040404040202020274
:1001100002020303030303030102040810204080CA
:100120000102040810200102040810200000000849
:1001300000020100000304070000000000000000AE
:10014000560E11241FBECFEFD8E0DEBFCDBF23E097
:10015000A0E4B1E001C01D92AF3BB207E1F711E0AE
:10016000A0E0B1E0EAEAF2E302C005900D92A0340B
:10017000B107D9F710E0C1EAD0E004C02197FE0131
:100180000E943317C03AD107C9F70E94B10E0C94F0
:1001900053190C94000080E090916601891760F477
:1001A000282F30E0F901EB59FE4F928125583C4F42
:1001B000F90190838F5FF0CF809166018093810376
:1001C00081E080938203089590916601809181037C
:1001D000981320C080E091E020916601821770F4AE
:1001E000282F30E0F901EB59FE4F428125583C4F52
:1001F000F9012081421390E08F5FEECF992351F0F7
:10020000909182039F5F9093820381E0923009F086
:1002100080E008950E94CB00FBCFE3E8F3E0148276
:1002200081E08583168217821086118612861386D6
:100230001486158616861786108A118A128A148AE1
:10024000138A158A0895CF9380916601C2E08630A3
:1002500009F0C1E00E94E400882309F44CC02C2F6F
:1002600030E0F901EB59FE4F9281F901EA59FE4F56
:10027000528129593E4FF9014281892F90E09C011A
:1002800035952795359527952370332722303105ED
:1002900069F12330310551F12130310539F11092E6
:1002A0005E0110925D01982F882788279370850F33
:1002B000911D01969093600180935F0140936101CD
:1002C00080915D0190915E01029769F444FB99274A
:1002D00090F99093620143FB882780F98093630132
:1002E00047704093640185E190E007C030935E0160
:1002F00020935D01D8CF81E090E0CF910895AF9237
:10030000BF92CF92DF92EF92FF920F931F93CF9302
:10031000DF9320916701822F90E027FF38C021E012
:100320002093850320916801982F882788279F7341
:10033000822B9093840380938303809169012091A1
:100340006A0140918303509184036091A2037091EC
:10035000A303982F907C903409F052C0282F30E0EE
:1003600085FB882780F9F901EE0FFF1FEE712295BA
:1003700021702E2B2430B4F491E0223008F490E068
:1003800020E046175707A0F483E090E02EC01092BB
:100390008503909384038093830380916801209167
:1003A0006901CFCF23504617570708F440C090E0AB
:1003B0006091A4037091A50364177507A8F13091AB
:1003C0008603391309C030918703321305C0309179
:1003D0008803381709F4FBC0992361F11092870351
:1003E00081E08093860386E090E0DF91CF911F91BA
:1003F0000F91FF90EF90DF90CF90BF90AF90089556
:100400008F3309F096C1822F881F8827881F2F7786
:10041000223040F4213009F0B2CF91E0461757075F
:1004200038F605C02150BFCF222309F4ADCF84E0B8
:1004300090E0DBCF2093870310928603809388039C
:1004400085E090E0D2CF811105C00E940D0182E0CD
:1004500090E0CBCF982F907E903859F48F71909187
:100460008903891709F4B3C08093890387E090E07A
:10047000BCCF903AC1F4982F9F7084FF0AC080913E
:100480008A03981709F4A3C090938A0388E090E048
:10049000ACCF80918B03981709F499C090938B038C
:1004A00089E090E0A2CF982F987F983D09F05DC039
:1004B000E82FE77090918503992379F090916A0174
:1004C000F0E0EB59FD4F0C94331784028E02980232
:1004D000A202AC02B50270027A0290916901F0CFDB
:1004E00080918C03891709F472C090938C038AE081
:1004F00090E07BCF80918D03981709F468C09093AA
:100500008D038BE090E071CF80918E03981709F4F2
:100510005EC090938E038CE090E067CF80918F0354
:10052000981709F454C090938F038DE090E05DCF4D
:1005300080919003981709F44AC0909390038EE03D
:1005400090E053CF80919103981709F440C09093A5
:1005500091038FE090E049CF809192039817B9F111
:100560009093920380E190E040CF8D3D11F0803C6C
:1005700071F590918503992391F1803C59F5809113
:100580006A01E0916B01F0E0FE2FEE27E158FF4F8A
:1005900090E0E823F923A0916A01AA1FAA27AA1FC5
:1005A00080919603909197038E179F0721F4809175
:1005B00098038A1761F0F0939703E0939603A09352
:1005C0009803ED31F105F0F4319708F467C081E04C
:1005D00090E00BCFE0916A01EF77F0E0DCCFE091A3
:1005E0006901803C61F480916A01EF7790E0982F77
:1005F0008827E80FF92FF11DA0916901CECFEF7781
:10060000F0E0FACF81E190E0E534F10508F0EDCEBD
:10061000A0908E03B0908F03C0909003D090910370
:1006200010919203D0919303C0919403B0919503DC
:1006300021E030E040E050E060E070E080E090E0F9
:100640007F010DE1E01AF1080E2D0E943917AA234F
:1006500009F445C02A293B294C295D29612B7D2BB2
:100660008C2B9B2B20938E0330938F03409390030E
:100670005093910360939203709393038093940338
:1006800090939503E533F10508F04AC0ED32F1058A
:1006900008F055CFB59708F048CF3DCFAA23A1F079
:1006A0008FEF80938E0380938F03809390038093CA
:1006B00091038093920310929303109294031092EB
:1006C000950382E190E091CE10928E0310928F03F9
:1006D000109290031092910310929203ECCF209508
:1006E0003095409550956095709580959095A22293
:1006F0003B214C215D216123D723C823B923A0923C
:100700008E0330938F034093900350939103609333
:100710009203D0939303C0939403B0939503B2CF05
:10072000ED33F10508F415CFE534F10508F41ACFDF
:10073000F2CE4617570708F44ACF2091A403309110
:10074000A5032417350708F442CF982F907F903ED9
:1007500009F079CEDF91CF911F910F91FF90EF902B
:10076000DF90CF90BF90AF900C94230190E0FC01FC
:10077000E45DFE4F2491FC01E85EFE4F3491FC01E4
:10078000EC5FFE4FE491EE23C9F0222339F02330D1
:1007900001F1A8F4213019F1223029F1F0E0EE0F37
:1007A000FF1FE650FF4FA591B4918FB7F894EC91DD
:1007B000611126C030953E233C938FBF08952730AA
:1007C000A9F02830C9F0243049F7809180008F7D4E
:1007D00003C0809180008F7780938000DFCF84B545
:1007E0008F7784BDDBCF84B58F7DFBCF8091B00048
:1007F0008F778093B000D2CF8091B0008F7DF9CFFA
:100800003E2BDACFCF93DF9390E0FC01E85EFE4F02
:1008100024918C5F9E4FFC0184918823D1F090E05D
:10082000880F991FFC01E051FF4FA591B491FC0185
:10083000E650FF4FC591D491623071F49FB7F894A0
:100840003C91822F809583238C93E8812E2B2883E3
:100850009FBFDF91CF9108958FB7F894EC912E2B25
:100860002C938FBFF6CF2FB7F894609159017091F8
:100870005A0180915B0190915C012FBF0895E1EBDB
:10088000F0E0808182608083089508950895AF929A
:10089000BF92CF92DF92EF92FF920F931F93CF936D
:1008A000DF936C017B018B01040F151FEB015E01CF
:1008B000AE18BF08C017D10759F06991D601ED9164
:1008C000FC910190F081E02DC6010995892B79F703
:1008D000C501DF91CF911F910F91FF90EF90DF90B5
:1008E000CF90BF90AF900895FC0144815581608105
:1008F00071818EED92E00C944704FC01538D448D80
:10090000252F30E0842F90E0821B930B541710F0BA
:10091000CF96089501970895FC01918D828D9817C7
:1009200061F0A28DAE0FBF2FB11D5D968C91928D9F
:100930009F5F9F73928F90E008958FEF9FEF0895D0
:100940000F931F930E9433046093E6027093E702B3
:100950008093E8029093E9028EED92E00E948C046D
:1009600097FF1DC00E9433040091E6021091E70238
:100970002091E8023091E902601B710B820B930B0E
:100980000091E2021091E3022091E4023091E5022D
:100990006017710782079307F8F28FEF9FEF1F919F
:1009A0000F910895FC01918D828D981731F0828D01
:1009B000E80FF11D858D90E008958FEF9FEF08956A
:1009C0000F931F930E9433046093E6027093E70233
:1009D0008093E8029093E9028EED92E00E94D204A7
:1009E00097FF1DC00E9433040091E6021091E702B8
:1009F0002091E8023091E902601B710B820B930B8E
:100A00000091E2021091E3022091E4023091E502AC
:100A10006017710782079307F8F28FEF9FEF1F911E
:100A20000F910895FC01918D228D892F90E0805CBB
:100A30009F4F821B91098F73992708958EED92E045
:100A40000E94120521E0892B09F420E0822F0895ED
:100A500080E090E0892B29F00E941E0581110C9402
:100A600000000895FC01A48DA80FB92FB11DA35A51
:100A7000BF4F2C91848D90E001968F739927848FBE
:100A8000A689B7892C93A089B1898C9183708064E1
:100A90008C93938D848D981306C00288F389E02D82
:100AA00080818F7D80830895EF92FF920F931F9333
:100AB000CF93DF93EC0181E0888F9B8D8C8D981311
:100AC0001AC0E889F989808185FF15C09FB7F8941D
:100AD000EE89FF896083E889F98980818370806469
:100AE00080839FBF81E090E0DF91CF911F910F91B4
:100AF000FF90EF900895F62E0B8D10E00F5F1F4FC3
:100B00000F731127E02E8C8D8E110CC00FB607FCD1
:100B1000FACFE889F989808185FFF5CFCE010E945F
:100B20003205F1CFEB8DEC0FFD2FF11DE35AFF4F96
:100B3000F0829FB7F8940B8FEA89FB8980818062ED
:100B4000CFCF0F931F93CF93DF938C01D0E0C0E002
:100B5000F801EC0FFD1F6491662341F08EED92E0E9
:100B60000E945405892B11F02196F2CFCE01DF911E
:100B7000CF911F910F910895CF93DF93EC01888D52
:100B80008823B9F0AA89BB89E889F9898C9185FD08
:100B900003C0808186FD0DC00FB607FCF7CF8C9196
:100BA00085FFF2CF808185FFEDCFCE010E94320517
:100BB000E9CFDF91CF910895CF92DF92EF92FF922C
:100BC000CF93D12CC12C8EED92E00E941205181605
:100BD00019060CF050C00E94E004FC0197FD47C0CC
:100BE0008D32910519F0C0970A97D0F5C12CD12C00
:100BF0007601C0E0E130F105D1F0ED32F105A9F167
:100C0000CF01C0970A9798F4AAE0B0E0A701960137
:100C10000E94CE166F01FF0FEE08FF08C60ED71E0A
:100C2000E81EF91E80E3C81AD108E108F1088EED2C
:100C300092E00E948C040E94E004FC01C0970A9795
:100C4000C8F2E130F105B1F2CC2309F4BCCFF09445
:100C5000E094D094C094C11CD11CE11CF11CB3CF12
:100C60008EED92E00E948C04B6CFC1E0E0CFC12CA3
:100C7000D12C7601A8CFC601CF91FF90EF90DF90E5
:100C8000CF90089590E02AE0289FF001299FF00D71
:100C90001124E25CFD4F638308958F929F92AF927F
:100CA000BF92CF92DF92EF92FF92E62F2FB7F89488
:100CB0004091540150915501609156017091570136
:100CC00096B5A89B06C09F3F21F04F5F5F4F6F4FC7
:100CD0007F4F2FBFAE2FB0E02AE0E29FF00111243A
:100CE000E25CFD4F2381243651F480E0FF90EF90C9
:100CF000DF90CF90BF90AF909F908F900895762F08
:100D0000652F542F4427490F511D611D711D32E07D
:100D1000440F551F661F771F3A95D1F79DE09A9FA4
:100D2000F0019B9FF00D1124E259FE4F2185328581
:100D300021153105A1F5811134C088E893E192872E
:100D400081878DE08A9FF0018B9FF00D1124E2597D
:100D5000FE4F80858111C9CF21853285C480D58021
:100D6000E680F7804A015B018C189D08AE08BF0839
:100D70006901F12CE12CC814D904EA04FB0408F041
:100D800055C0283893E1390708F050C04483558393
:100D90006683778391E090872C593F4F29C081303B
:100DA00081F68DE08A9FF0018B9FF00D1124E259AE
:100DB000FE4F80858130A9F5C480D580E680F7801C
:100DC0004A015B018C189D08AE08BF086901F12C2F
:100DD000E12CC814D904EA04FB0468F4253F91E02F
:100DE000390748F044835583668377832456310955
:100DF000328721877BCFA901455F5140443951415A
:100E000008F473CF243F314011F081E06FCF9DE0B3
:100E10009A9FF0019B9FF00D1124E259FE4F10861E
:100E200065CF811162CF91E0908760CFA901455FC6
:100E300051404339514148F32838334109F055CFE7
:100E40009DE09A9FF0019B9FF00D1124E259FE4F07
:100E5000EACF90E02AE0289FF001299FF00D1124AD
:100E6000E25CFD4F3481332381F01582AC014F5F8A
:100E70005F4F249FF001259FF00D1124E25CFD4F90
:100E80002581211102C021E02583AC014E5F5F4F17
:100E90002AE0249FF001259FF00D1124E25CFD4F14
:100EA0003481332371F015820396289FF001299F26
:100EB000F00D1124E25CFD4F8581811102C081E0BB
:100EC000858308958F929F92AF92BF92DF92EF92A7
:100ED000FF920F931F93CF93DF93182FC82FD0E06B
:100EE0008AE08C9FF0018D9FF00D1124E25CFD4F94
:100EF00020813181121613060CF064C0948199236D
:100F000009F460C0968125EF290F243040F49B300E
:100F100009F009C18581811102C081E08583CE017C
:100F200002973AE0389FF001399FF00D1124E25CFE
:100F3000FD4F26812E3009F02BC1AE014E5F5F4F71
:100F4000349FD001359FB00D1124A25CBD4F159682
:100F50002C911597211106C021E03481311120E038
:100F600015962C932AE0289FD001299FB00D1124BB
:100F7000A25CBD4F15961C921597AE0141505109C8
:100F8000249FF001259FF00D1124E25CFD4F258187
:100F9000211103C014962C9125832AE02C9FF00187
:100FA0002D9FF00D1124E25CFD4F358131110AC0F7
:100FB000289FD001299FB00D1124A25CBD4F14962B
:100FC0008C9185838AE08C9FF0018D9FF00D112418
:100FD000E25CFD4F96819F3089F52185222309F43B
:100FE000DFC02150330B829FD001839FB00D1124AD
:100FF000A25CBD4F14969C919111D2C015829E01A6
:101000002F5F3F4F829FF001839FF00D1124E25C20
:10101000FD4F15822F5F3F4F829FF001839FF00DA0
:101020001124E25CFD4F15822F5F3F4F829FF0013C
:10103000839FF00D1124E25CFD4F15822AE02C9F66
:10104000C0012D9F900D11249C01225C3D4F790120
:10105000F9018581813091F410860E9433042DE0DE
:101060002C9FF0012D9FF00D1124E259FE4F60835B
:1010700071838283938382E0F70185832AE02C9F2A
:10108000C0012D9F900D11249C01225C3D4F7901E0
:10109000F9010581002369F10E943304F7013085CD
:1010A0002DE02C9FF0012D9FF00D1124E259FE4FF1
:1010B00080809180A280B380AB01BC01481959099E
:1010C0006A097B09453F51406105710508F45FC11C
:1010D000F7019781391708F45AC1D380612F81E055
:1010E0000E944D06682F8D2D0E94B60381E0F70106
:1010F00080879AE09C9FF0019D9FF00D1124E25C97
:10110000FD4F20813181121613060CF0C6C0848178
:101110008111C3C086818B3009F046C0002309F4D9
:10112000F4C01582BAC09E012F5F3F4F15829C30DC
:1011300041F4829FF001839FF00D1124E25CFD4F8A
:10114000E9CE9D30B1F3AE014D5F5F4F849FF0015A
:10115000859FF00D1124E25CFD4F15824F5F5F4FBC
:10116000849FF001859FF00D1124E25CFD4F1582F4
:1011700042505109849FF001859FF00D1124E25CDB
:10118000FD4F8581811102C0848185838AE0D1CFA2
:101190002D3009F017CF25812111FFCE2481FCCEFF
:1011A000812F0E9429074ACF8C3069F4011102C0B7
:1011B00081E08583CE0101962AE0289FF001299FD6
:1011C000F00D11241EC08D30F9F49E012F5F3F4FAA
:1011D000929FD001939FB00D1124A25CBD4F159634
:1011E0002C911597222309F490C015961C9281E04A
:1011F00085839E012E5F3F4F929FF001939FF00DDC
:101200001124E25CFD4F8DCF8E3009F07EC0AE011F
:101210004E5F5F4F949FD001959FB00D1124A25C4B
:10122000BD4F14963C9131116AC0011102C081E09A
:101230008583CE0103962AE0289FF001299FF00DB7
:101240001124E25CFD4F8581811102C081E085831C
:10125000CE0101962AE0289FF001299FF00D11246C
:10126000E25CFD4F1582249FF001259FF00D1124B3
:10127000E25CFD4F1582AE014C5F5F4F249FC001C1
:10128000259F900D11243323E1F1FC01E25CFD4F19
:101290008581811102C081E085838AE08C9FF00105
:1012A0008D9FF00D1124E25CFD4F858181111AC0E4
:1012B00080858823B9F0823008F466C00381612FED
:1012C00080E00E944D06682F802F0E94B6038AE0BE
:1012D0008C9FF0018D9FF00D1124E25CFD4F808505
:1012E00081508087812FDF91CF911F910F91FF90C7
:1012F000EF90DF90BF90AF909F908F9008951582F0
:1013000098CF825C9D4FFC010CCFAE014250510939
:101310002AE0249FF001259FF00D1124E25CFD4F8F
:10132000968133EF390F323030F42C9FF0012D9F2E
:10133000F00D112466CF9F3029F08F3009F0ADCF2A
:10134000E12F02C0EEEFE10F8AE08E9FF001112441
:10135000E25CFD4F2185222369F02150330B829FEF
:10136000F001839FF00D1124E25CFD4F94819923DD
:1013700009F493CF01111ECF8C9FF0018D9FF00DCA
:101380001124E25CFD4F14CF60E083819ECF9AE090
:101390009C9FF0019D9FF00D1124E25CFD4F81E0C8
:1013A000830F8087F380612F80E00E944D06682FB5
:1013B0008F2D0E94B6039DCE42E050E06CE171E0BB
:1013C0008EED92E00C944704CF93DF930E94740457
:1013D000EC010E94DC098C0F9D1FDF91CF910895D5
:1013E000EF92FF920F931F93CF93DF937C01D0E096
:1013F000C0E0062F10E0C017D1072CF4C7010E94EF
:10140000E4092196F8CFDF91CF911F910F91FF90C2
:10141000EF900895CF93DF93FC0101900020E9F74E
:101420003197AF01481B590BBC018EED92E00E9431
:101430004704EC010E94DC098C0F9D1FDF91CF91C6
:1014400008950F931F93CF93DF934115510541F0FA
:10145000FC01048115810115110539F4FB0110828D
:10146000DF91CF911F910F9108954150510940177D
:10147000510708F48A01EB01FC0160817181A80128
:10148000CE010E944419C00FD11F1882E9CF1F93CB
:10149000CF93DF93EC01162F0E94B816181739F07E
:1014A000612FCE01DF91CF911F910C94C016DF9177
:1014B000CF911F9108950C94B8160F931F93CF935B
:1014C000DF93CEE3D2E010E000E0C80141960E9435
:1014D0005B0A90E099838883C8010E945B0A882395
:1014E00019F1682F802F0E944206C801C1960E9400
:1014F0005B0A8E83C8018F5B9F4F0E945B0A8F83BC
:10150000C8018F5A9F4F0E945B0A8A8390E0982FF0
:10151000882728813981820F931F99838883C80186
:1015200081960E945B0A898761E08B810E94020498
:101530008E818E3011F491E0998F94EF980F923054
:1015400070F481E08D830F5F1F4F2A960F301105D5
:1015500009F0BBCFDF91CF911F910F9108958B3090
:1015600091F789858C83EFCFFC0180819181009771
:1015700011F00C942B1660E070E0CB010895AF924F
:10158000BF92CF92DF92EF92FF920F931F93CF9370
:10159000DF93DC01CD90DC901197C114D10439F0B8
:1015A0001496CD91DC918C017601209761F4DF9146
:1015B000CF911F910F91FF90EF90DF90CF90BF9050
:1015C000AF90089575015701BFEFAB1ABB0AF70141
:1015D0008081082E000C990B0E949C16892B91F794
:1015E0002197CC0DDD1D8881082E000C990B0E94DF
:1015F0009C16892B29F0CE15DF0510F02197F3CF2B
:10160000AE014F5F5F4F4E195F09D80115965C938D
:101610004E931497CE14DF0420F4B701C6010E9444
:101620003419D801ED91FC91119714968D919C91EC
:10163000E80FF91F1082BBCF0F931F93CF93DF9357
:101640008C01EB01FC01808191810097E1F06881C0
:10165000798161157105A9F0428153812C813D8109
:101660004217530770F00E943D198C819D81F8014B
:10167000958384831D821C82DF91CF911F910F91EE
:1016800008950E94EE1788819981F80191838083E3
:101690008A819B81938382838C819D8195838483BE
:1016A000198218821B821A82E5CFCF93DF93EC0157
:1016B00088819981009711F00E94EE171982188293
:1016C0001D821C821B821A82DF91CF910895FC013A
:1016D00080819181009711F00C94EE1708950F937B
:1016E0001F93CF93DF93EC0188819981009759F084
:1016F0002A813B812617370730F081E0DF91CF91B7
:101700001F910F9108958B016F5F7F4F0E94771893
:10171000009759F0998388831B830A832C813D812C
:10172000232B59F7FC011082E8CF80E0E7CFEF923E
:10173000FF920F931F93CF93DF93EC017B011982EC
:1017400018821B821A821D821C82FB0101900020DC
:10175000E9F731978F01061B170BB8010E946F0B39
:10176000811109C0CE01DF91CF911F910F91FF90A0
:10177000EF900C94550B1D830C83B70188819981E0
:10178000DF91CF911F910F91FF90EF900C943D1935
:10179000EF92FF920F931F93CF93DF938C017B0106
:1017A000EB0109900020E9F72197C61BD70BBE017A
:1017B0000E946F0B811109C0C801DF91CF911F9169
:1017C0000F91FF90EF900C94550BF801D583C483D3
:1017D000B70180819181DF91CF911F910F91FF908F
:1017E000EF900C943D19EF92FF920F931F93CF93BC
:1017F000DF9341155105B1F07B01EC010C811D8196
:10180000040F151FB8010E946F0B882361F0288117
:1018100039818C819D81B701820F931F0E943D19F0
:101820001D830C8381E0DF91CF911F910F91FF9079
:10183000EF9008950F931F93CF93DF9300D0CDB710
:10184000DEB78C016EE171E00E94970B0E94A0044C
:1018500097FD0BC089831A8241E050E0BE016F5FA3
:101860007F4FC8010E94F30BF1CFC8010F900F907A
:10187000DF91CF911F910F91089541E050E06EE20A
:1018800071E00C94F30BEF92FF920F931F93CF93A1
:10189000DF9300D000D0CDB7DEB77C01862F4AE0C1
:1018A0008E010F5F1F4FB80190E00E946216F80191
:1018B00001900020E9F73197AF01401B510BB801AF
:1018C000C7010E94F30B0F900F900F900F90DF91C4
:1018D000CF911F910F91FF90EF900895AF92BF921B
:1018E000CF92DF92EF92FF920F931F93CF93DF93EC
:1018F00000D0CDB7DEB77C016B018A0159016EE1E2
:1019000071E00E94970B0C0D1D1DC8018C199D09DB
:101910008A159B0574F4F80181918F0189831A82DD
:1019200041E050E0BE016F5F7F4FC7010E94F30BA3
:10193000ECCFC7010F900F90DF91CF911F910F91C6
:10194000FF90EF90DF90CF90BF90AF900895EF920F
:10195000FF920F931F93CF93DF93EC018B011982BA
:1019600018821B821A821D821C82CB010E9459168A
:101970007C01BC01CE010E946F0B811109C0CE0118
:10198000DF91CF911F910F91FF90EF900C94550B29
:10199000FD82EC82B80188819981DF91CF911F91FE
:1019A0000F91FF90EF900C9452161F920F920FB66A
:1019B0000F9211242F933F938F939F93AF93BF93D5
:1019C0008091590190915A01A0915B01B0915C0105
:1019D0003091580123E0230F2D3758F50196A11DB2
:1019E000B11D209358018093590190935A01A093FF
:1019F0005B01B0935C018091540190915501A091DD
:101A00005601B09157010196A11DB11D809354015B
:101A100090935501A0935601B0935701BF91AF9198
:101A20009F918F913F912F910F900FBE0F901F901C
:101A3000189526E8230F0296A11DB11DD2CF1F9243
:101A40000F920FB60F9211242F933F934F935F93F2
:101A50006F937F938F939F93AF93BF93EF93FF9376
:101A6000E0910201F09103010995FF91EF91BF917F
:101A7000AF919F918F917F916F915F914F913F9126
:101A80002F910F900FBE0F901F9018951F920F92DD
:101A90000FB60F9211242F933F934F935F936F9341
:101AA0007F938F939F93AF93BF93EF93FF93E091B7
:101AB0000001F09101010995FF91EF91BF91AF9164
:101AC0009F918F917F916F915F914F913F912F9156
:101AD0000F900FBE0F901F9018951F920F920FB688
:101AE0000F9211242F933F934F935F936F937F93A4
:101AF0008F939F93AF93BF93EF93FF938EED92E0FD
:101B00000E943205FF91EF91BF91AF919F918F910C
:101B10007F916F915F914F913F912F910F900FBEE9
:101B20000F901F9018951F920F920FB60F921124CD
:101B30002F938F939F93EF93FF93E091EE02F09199
:101B4000EF028081E091F402F091F50282FD1BC06A
:101B500090818091F7028F5F8F732091F802821736
:101B600041F0E091F702F0E0E252FD4F958F809353
:101B7000F702FF91EF919F918F912F910F900FBEE0
:101B80000F901F9018958081F4CF1F920F920FB67F
:101B90000F9211242F933F938F939F93EF93FF9373
:101BA000E0914501F09146018081909144018923A3
:101BB0001092B10096E69093B200209147012F5FFA
:101BC000209347019EB3923061F168F4913011F196
:101BD000FF91EF919F918F913F912F910F900FBEA9
:101BE0000F901F901895943091F1983089F78111DA
:101BF0005AC020914E0190E080E0821708F04AC060
:101C0000FC01E95BFE4F3181FC01EB59FE4F328351
:101C10000196F3CF81112EC02A30D0F282E08EBB24
:101C2000D7CF8823A9F284E08EBB10924E01109288
:101C300048011092490110924A0110924B011092F2
:101C40004C0110924D01109247011ABCC1CF9AB5B8
:101C5000990F9ABD811103C08AB581608ABD8091B8
:101C60004701883009F0B4CF90914E01963029F4A5
:101C700081E08EBB10924701ABCF8EBBE0914E014D
:101C800081E08E0F80934E01F0E08AB5E95BFE4F54
:101C900081839ECF2093660181E08EBBF894809370
:101CA00065017894D0CF84E08EBBCDCFEEEDF2E02D
:101CB0001382128288EE93E0A0E0B0E084839583E3
:101CC000A683B7838EE091E09183808385EC90E0DA
:101CD0009587848784EC90E09787868780EC90E0F6
:101CE000918B808B81EC90E0938B828B82EC90E0E7
:101CF000958B848B86EC90E0978B868B118E128E61
:101D0000138E148EEBE7F3E01682178281E0809346
:101D1000AF03E6EAF3E08FEF9FEF91838083938335
:101D200082839583848317822FEF2087E3E8F3E093
:101D30009183808312821382E2EAF3E091838083AD
:101D4000938382830E940D0188E290E0A0E0B0E0DE
:101D500080939E0390939F03A093A003B093A1034D
:101D60000895CF93DF93CDB7DEB76C970FB6F89495
:101D7000DEBF0FBECDBF789484B5826084BD84B5CC
:101D8000816084BD85B5826085BD85B5816085BD76
:101D900080916E00816080936E001092810080912E
:101DA00081008260809381008091810081608093B6
:101DB0008100809180008160809380008091B100DB
:101DC00084608093B1008091B00081608093B00006
:101DD00080917A00846080937A0080917A0082609A
:101DE00080937A0080917A00816080937A0080915C
:101DF0007A00806880937A001092C1000E943304B8
:101E00006D8B7E8B8F8B988FE091EE02F091EF02BD
:101E100082E08083E091EA02F091EB021082E0918F
:101E2000EC02F091ED0280E180831092F602E091E5
:101E3000F202F091F3028EE38083E091F002F091E0
:101E4000F102808180618083E091F002F091F102E3
:101E5000808188608083E091F002F091F1028081BE
:101E600080688083E091F002F091F10280818F7DA3
:101E700080838E010F5F1F4F8FE191E00E940A0A5D
:101E80008EED92E00E941205181619060CF076C02D
:101E900080EE90E00E94A1050E94DC090E94DC0512
:101EA0007C0118161906A4F78EED92E00E94120527
:101EB000892B71F72FE6E216F10409F48EC208F0BF
:101EC000FAC047E6E416F10409F47EC2A0F45AE031
:101ED000552E64E6462E85E6E816F10409F462C242
:101EE00068ED70E096E6E916F10491F6C8010E94EB
:101EF000A70C62E08BC2A9E6EA16F10409F46AC2F3
:101F000008F465C2EEE6EE16F10411F62EE3C22ED9
:101F100022E0D22EF12CE12CF6016081C70141961E
:101F20000E94470AD60113966C91C7010E94470A86
:101F3000F6016681C701C1960E94470AD60117962D
:101F40006C91C7018F5B9F4F0E94470AF601628127
:101F5000C7018F5A9F4F0E94470AD60119966C916C
:101F6000C70181960E94470ABFEFEB1AFB0AEAE01D
:101F7000CE0ED11CF0E1EF16F10471F60E9433048D
:101F80002D893E894F89588D621B730B840B950BED
:101F9000603A7F408105910508F46ECF0E945D0A8A
:101FA0008EED92E00E94BC05E091F002F091F1020A
:101FB00080818F7E8083E091F002F091F102808138
:101FC000877F8083E091F002F091F10280818F772A
:101FD0008083E091F002F091F10280818F7D808317
:101FE0008091F8028093F7021092510112E0109351
:101FF0006D0181E08EBB109247011ABC1092660100
:1020000010926501F8941092B0001092B10086E62B
:102010008093B2008091700081608093700078940A
:1020200062E082E00E9402048FE394E09093010159
:102030008093000180916900836080936900E89A31
:10204000E6E0F1E0849180934301EAE1F1E0E4917C
:10205000E0934401E82FF0E0EE0FFF1FEA51FF4F3D
:102060008591949190934601809345018FEF8093E1
:1020700052011093AF0301E010E0EE24EA94FF2434
:10208000F394DD24D39480916501882309F47CC402
:102090001092500110924F0180E090E02091660173
:1020A000821708F0F8C3E82FF0E0EB59FE4F2281C9
:1020B00092278F5FF3CFF3EDEF16F10409F4F2C22C
:1020C00068F438ECE316F10409F4CDC263EA70E079
:1020D00042EDE416F10409F409CFDACE55EDE51628
:1020E000F10409F4E5C208F4E0C295EFE91691E0C5
:1020F000F90609F0CDCEADB7BEB7BA8FA98FE09083
:1021000042016BE371E0C8010E94970B8EED92E0F3
:102110000E941205892B09F0D1C2E1108DC5C801BA
:102120000E94E409F3CFCE010F960E941A0CCE0153
:102130000F960E94BF0AC8010E94670B4B895C89F9
:102140004F5F5F4FADB7BEB7A41BB50B0FB6F8948A
:10215000BEBF0FBEADBFEDB7FEB731966F01BF0179
:10216000CE010F960E94210ACE010F960E94E4092B
:102170000E94DC050097C1F3029709F0FBC065E2FD
:1021800071E0C8010E94970B65E0C8010E94F00948
:10219000C8010E94670BB12C4B2D50E09A012D5FB6
:1021A0003F4FB601CE0109960E946E0CFD84BF0C14
:1021B0004B2D50E09A012D5F3F4FB601C8010E94A0
:1021C0006E0CB801CE0109960E941C0BC8010E943A
:1021D000670BCE0109960E94B40A662EFD84FB0CA3
:1021E0004F2D50E09A012D5F3F4FB601C8010E946C
:1021F0006E0CB801CE0109960E941C0BC8010E940A
:10220000670BCE0109960E94B40A712C569CC0013E
:10221000579C900D11249C01225C3D4F5901D9011E
:1022200016966C938D85F80E4F2D50E09A012D5F18
:102230003F4FB601C8010E946E0CB801CE0109964D
:102240000E941C0BC8010E94670BCE0109960E94D8
:10225000B40AF5016383BD84BF0C4B2D50E09A0195
:102260002C5F3F4FB601C8010E946E0CB801CE0131
:1022700009960E941C0BC8010E94670BCE010996AB
:102280000E94B40AAB01E1E06130F1E07F070CF499
:10229000E0E020E031E04F5F5109241735071CF4DE
:1022A000EF5F3395FACF569C9001579C300D112467
:1022B000A901425C5D4F7A01DA011296EC93129704
:1022C0002E2F30E0322F2227AB01421B530B4D93B0
:1022D0005C938D85B80E4B2D50E09A012D5F3F4FDA
:1022E000B601C8010E946E0CB801CE0109960E9489
:1022F0001C0BC8010E94670BCE0109960E94B40A0C
:10230000842D861BF70187838D85B80E4B2D50E0F9
:102310009A012D5F3F4FB601C8010E946E0CB801B3
:10232000CE0109960E941C0BC8010E94670BCE01CA
:1023300009960E94B40AD70119966C93FD84BF0CCC
:10234000CE0109960E94670B8B899C89B8161906E5
:1023500008F422CF8FE690E00E94A1050E94DC09DC
:102360000E94DC0582309105A9F3892B99F3FF24A3
:10237000F3940DC068E670E0C8010E94A70C65E008
:10238000C8010E94F009C8010E94670BF12CCE0120
:102390000F960E94670B0FB6F8949EBE0FBE8DBEBF
:1023A000F11076CD8DB69EB662E770E0C8010E944E
:1023B000A70C8EED92E00E941205892B09F0B3CE96
:1023C000C8010E94E409F5CF60ED70E08FCD68ECA4
:1023D00070E08CCD60EC70E089CD66EB70E0C801F8
:1023E0000E94A70C62E0C8010E94F009C8010E9487
:1023F000670B0E94DC050097E1F38F3F910569F4BC
:102400006CE870E0C8010E94A70C65E0C8010E945A
:10241000F009C8010E94670B3BCD0E945D0AF12CB8
:10242000E12C9E2CC7010E945B0A882309F40FC18E
:10243000992493949E0C2FEFE21AF20A30E1E316EE
:10244000F10479F76EE271E0CE010F960E94970BCE
:1024500049E0491520F0CE010F960E943D0C692DF0
:10246000CE010F960E94430CCE010F960E94E40904
:102470000E94DC05892BE1F39EE3E92E92E0F92E20
:10248000D12CC12C6EE171E0CE0109960E94970B10
:10249000C6010E945B0A882309F4C7C0D701AD902A
:1024A000BC90B8EEAB16B3E0BB06A4F4CE0109961F
:1024B0000E943D0CE4E6AE16B10464F4CE01099628
:1024C0000E943D0CFAE0AF16B10424F4CE01099647
:1024D0000E943D0C4AE0B801C5010E946216F80155
:1024E00001900020E9F73197AF01401B510BB80173
:1024F000CE0109960E94F30BCE0109960E94740446
:102500008AE890E00E94A105C6010E945B0AB82EED
:10251000809340016EE171E0CE0109960E94C80BE4
:1025200023E62B1568F06EE271E0CE0109960E9459
:10253000C80B39E03B1520F0CE0109960E943D0CF6
:102540006B2DCE0109960E94430CCE0109960E9484
:10255000740488E890E00E94A10583E890E00E945E
:10256000A105D7011696BC90B0924001B9E06DE28A
:1025700071E0BB1510F46EE271E0CE0109960E9485
:10258000C80B6B2DCE0109960E94430CCE01099613
:102590000E94740481E890E00E94A1056EE171E060
:1025A000CE0109960E94C80BF701B780F3E6FB1530
:1025B00058F0CE0109960E943D0C29E02B1520F021
:1025C000CE0109960E943D0C6B2DCE0109960E940A
:1025D000430CCE0109960E9474048FE790E00E949C
:1025E000A1056EE171E0CE0109960E94C80BD701EA
:1025F0001996BC90B3E6BB1558F0CE0109960E941F
:102600003D0CE9E0EB1520F0CE0109960E943D0C4F
:102610006B2DCE0109960E94430CCE0109960E94B3
:102620007404F1E09F16D1F09A94CE0109960E94AD
:10263000670B2FEFC21AD20A3AE0E30EF11C4FE00B
:10264000C416D10409F01ECFCE010F96D0CEE110F2
:10265000F9CE87E790E00E94A105CBCE8EE191E014
:102660000E940A0AE2CF68EA70E0C8010E94A70C43
:1026700062E0C8010E94F009C8010E94670BF12CBA
:10268000E12CC7010E94B816882321F060E0C70141
:102690000E94C0165FEFE51AF50A81E1E816F10421
:1026A00081F7F6CB6DE970E021CC66E970E01ECCD5
:1026B00060E371E0C8010E94970B1BCCCE010F961E
:1026C0000E941A0CCE010F960E94BF0AC8010E94F8
:1026D000670B4B895C894F5F5F4FEDB7FEB7E41B1B
:1026E000F50B0FB6F894FEBF0FBEEDBF2DB73EB78A
:1026F0002F5F3F4F4901B901CE010F960E94210A79
:1027000023E030E050E040E0B401CE0109960E94A1
:102710006E0CCE0109960E94B40A262F673CB9F4CC
:1027200010924201FF24F394CE0109960E94670B98
:10273000CE010F960E94670B898D9A8D0FB6F89483
:102740009EBF0FBE8DBFFF2009F4D5CCA1CB33E0D7
:10275000639FB00111248B899C890E941F17622EF0
:10276000660C620E8EE3482E82E0582E312C212C0E
:10277000712CAB0155275C8F4B8F8B8D9C8D281650
:1027800039060CF077C0A72CB12C650196E0C90E74
:10279000D11CA5014D5F5F4F9601B401C8010E9495
:1027A0006E0CB801CE0109960E941C0BC8010E9454
:1027B000670BCE0109960E94B40A822D0E94420640
:1027C00061E0D20113968C910E9402047501B9E078
:1027D000EB0EF11C9701A601B401C8010E946E0C1A
:1027E000B801CE0109960E941C0BC8010E94670B1C
:1027F000CE0109960E94B40AF20167839501245F15
:102800003F4FA701B401C8010E946E0CB801CE0170
:1028100009960E941C0BC8010E94670BCE01099605
:102820000E94B40AD20116966C939501215F3F4F26
:10283000A501425F5F4FB401C8010E946E0CB80150
:10284000CE0109960E941C0BC8010E94670BCE01A5
:1028500009960E94B40AF2016483118621E030E0F7
:1028600031832083760C3FEF231A330A4AE0440E6B
:10287000511C83CF6BE371E0C8010E94970B62E0AB
:10288000C8010E94F009C8010E94670B51E05093F3
:102890004201F12C49CF992351F0809151018F5F72
:1028A000809351011093500100934F0156C08091C5
:1028B0009903882371F1C0906701B0906801A090DE
:1028C00069010E94330440909A0350909B036090EA
:1028D0009C0370909D0364197509860997094090BF
:1028E0009E0350909F036090A0037090A103641515
:1028F00075058605970508F454C010929903109247
:1029000081031092820390E080E0909350018093C5
:102910004F0180914F0190915001892BF1F4109259
:102920009903809167018111ACC080916801811188
:10293000A1C0D09299030E94330460939A037093CC
:102940009B0380939C0390939D030E940D0182E062
:1029500090E09093500180934F01F894109265019C
:1029600078948091B4039091B5032091B803EEE37D
:10297000F2E0408151818417950709F424833A9647
:10298000B2E0EE3DFB07A9F7809153010E94620778
:102990008F5F80935301813108F475CB10925301FE
:1029A00072CBC1100FC0B11010C00E9433046093ED
:1029B0009A0370939B0380939C0390939D0381E003
:1029C00090E0A3CF4FEFC41681F38C2D807F80372A
:1029D000B1F70E94330460939A0370939B03809332
:1029E0009C0390939D0380916601843041F70E947F
:1029F000E400882321F38C2D90E09C0135952795E8
:102A000035952795237033272230310571F1233016
:102A1000310559F12130310541F110925E011092DA
:102A20005D01982F8827882793708B0D911D019643
:102A30009093600180935F01A092610180915D019C
:102A400090915E01029771F4A4FA992790F99093FE
:102A50006201A3FA882780F9809363018A2D877029
:102A60008093640186E190E050CF30935E01209323
:102A70005D01D7CF809168018091680181E090E08D
:102A800068CF87FD03C00E947F0163CF803C08F0C0
:102A9000CFC08091680190E080959095880F991F34
:102AA000880F991F9C01207C3170409167014F7302
:102AB0005091AF03842F90E0552341F0513009F03D
:102AC0005CC0411102C0205C3F4F0197820F931FF1
:102AD0009093B3038093B203209168013091690110
:102AE000822F90E0AC015595479543704F5F40931E
:102AF000B703922F91709093B803622F6770609321
:102B0000B60323FB882780F98093B9038091B20331
:102B10009091B303FC01EE0FFF1FEE0FFF1F4E0F4E
:102B20005F2F511D5093B5034093B4034091A6030A
:102B30005091A7038417950738F04091A80350914E
:102B4000A9034817590728F58F3FA7E09A0709F10D
:102B50002091AA033091AB038217930729F42091A7
:102B6000AC03621709F48ACF9093AB038093AA0356
:102B70006093AC0383E190E0ECCE0197820F931F4A
:102B80008F3F980709F0A4CFF092B303E092B2030D
:102B9000A3CF27FF24C01092B1031092B00340913D
:102BA0006601443009F14630D1F1433009F066CF77
:102BB0004091AA035091AB038417950729F43091F3
:102BC000AD03231709F45ACF9093AB038093AA0364
:102BD0002093AD0327FF52CF84E190E0BACE10934B
:102BE000B1030093B003DBCF4091AA035091AB0334
:102BF0008417950749F44091AD03241305C0409113
:102C0000AE03341709F43ACF9093AB038093AA0331
:102C10002093AD033093AE033093BA03DDCF8091A0
:102C20006901807F803E09F029CF0E94230191CE67
:102C3000883E08F037CE27CFF09041018F2D0E94BB
:102C4000620781E08F0D80934101813108F45ECAF3
:102C5000109241015BCA1F93FC0199278827BC0190
:102C6000E89411911032E9F3193010F01E30C8F3D6
:102C70001B3251F01D3249F4689406C00E946D1653
:102C8000610F711D811D911D119110531A30B0F308
:102C90003EF490958095709561957F4F8F4F9F4F33
:102CA0001F910895FB01DC0105900D920020E1F7D2
:102CB0000895FC0105900020E9F7809590958E0F0E
:102CC0009F1F0895BB274A3031F4992322F4BDE2B7
:102CD000909581959F4F0C948316592F482F372F2D
:102CE000262F660F771F881F991F660F771F881F73
:102CF000991F620F731F841F951F660F771F881F10
:102D0000991F0895BB27FB015527AA27880F991FF4
:102D1000AA1FA41710F0A41B83955051B9F7A05D0A
:102D2000AA3308F0A95DA193009779F7B111B19387
:102D30001192CB010C94A51691110C94B51680320A
:102D400019F089508550C8F70895DC01FC01672F00
:102D500071917723E1F7329704C07C916D93708372
:102D60006291AE17BF07C8F3089599278827089581
:102D7000F999FECF92BD81BDF89A992780B5089543
:102D8000262FF999FECF1FBA92BD81BD20BD0FB687
:102D9000F894FA9AF99A0FBE019608950E941017B6
:102DA000A59F900DB49F900DA49F800D911D11249F
:102DB00008952F923F924F925F926F927F928F92DF
:102DC0009F92AF92BF92CF92DF92EF92FF920F93BA
:102DD0001F93CF93DF93CDB7DEB7CA1BDB0B0FB6C4
:102DE000F894DEBF0FBECDBF09942A883988488881
:102DF0005F846E847D848C849B84AA84B984C88417
:102E0000DF80EE80FD800C811B81AA81B981CE0F0D
:102E1000D11D0FB6F894DEBF0FBECDBFED010895F2
:102E2000A29FB001B39FC001A39F700D811D11240B
:102E3000911DB29F700D811D1124911D0895AA1B33
:102E4000BB1B51E107C0AA1FBB1FA617B70710F095
:102E5000A61BB70B881F991F5A95A9F780959095C7
:102E6000BC01CD010895EE0FFF1F0590F491E02DF8
:102E70000994002E083090F0982F872F762F652F19
:102E8000542F432F322F22270850F4CF220F331F05
:102E9000441F551F661F771F881F991F0A95B2F799
:102EA000002D08950F931F93CF93DF9382309105E8
:102EB00010F482E090E0E091BD03F091BE0330E0B9
:102EC00020E0B0E0A0E0309799F42115310509F435
:102ED0004AC0281B390B24303105D8F58A819B81E3
:102EE0006115710589F1FB0193838283FE0111C095
:102EF000408151810281138148175907E0F048173A
:102F0000590799F4109761F012960C931297139643
:102F10001C933296CF01DF91CF911F910F910895AD
:102F20000093BD031093BE03F4CF2115310551F07A
:102F30004217530738F0A901DB019A01BD01DF01F7
:102F4000F801C1CFEF01F9CF9093BE038093BD0389
:102F5000CDCFFE01E20FF31F8193919322503109EF
:102F600039832883D7CF2091BB033091BC03232B17
:102F700041F420910601309107013093BC03209366
:102F8000BB0320910401309105012115310541F465
:102F90002DB73EB74091080150910901241B350B14
:102FA000E091BB03F091BC03E217F307A0F42E1BE2
:102FB0003F0B2817390778F0AC014E5F5F4F24179D
:102FC000350748F04E0F5F1F5093BC034093BB037F
:102FD000819391939FCFF0E0E0E09CCFCF93DF937C
:102FE0000097E9F0FC01329713821282A091BD0391
:102FF000B091BE03ED0130E020E01097A1F42081F4
:103000003181820F931F2091BB033091BC0328179D
:10301000390709F061C0F093BC03E093BB03DF9173
:10302000CF910895EA01CE17DF07E8F54A815B8169
:103030009E0141155105B1F7E901FB83EA834991EE
:103040005991C40FD51FEC17FD0761F48081918160
:103050000296840F951FE901998388838281938169
:103060009B838A83F0E0E0E012968D919C91139708
:103070000097B9F52D913C911197CD010296820FE1
:10308000931F2091BB033091BC032817390739F6F1
:10309000309751F51092BE031092BD03B093BC035C
:1030A000A093BB03BCCFD383C28340815181840FE3
:1030B000951FC817D90761F44E5F5F4F88819981CA
:1030C000480F591F518340838A819B819383828358
:1030D0002115310509F0B0CFF093BE03E093BD0395
:1030E0009ECFFD01DC01C0CF13821282D7CFB0E0AA
:1030F000A0E0EDE7F8E10C94DB168C01009751F4A9
:10310000CB010E9452178C01C801CDB7DEB7E0E1B8
:103110000C94F716FC01E60FF71F9C0122503109B1
:10312000E217F30708F49DC0D901CD91DC91119706
:10313000C617D70798F0C530D10530F3CE010497F4
:103140008617970708F3C61BD70B2297C193D19315
:103150006D937C93CF010E94EE17D6CF5B01AC1A22
:10316000BD0A4C018C0E9D1EA091BD03B091BE0303
:10317000512C412CF12CE12C109731F58091BB039F
:103180009091BC038815990509F05CC04616570656
:1031900008F058C08091040190910501009741F416
:1031A0008DB79EB74091080150910901841B950B82
:1031B000E817F90708F055C0F093BC03E093BB0390
:1031C000F90171836083A0CF8D919C911197129624
:1031D0006C90129713967C901397A815B90559F522
:1031E0006C0142E0C40ED11CCA14DB0420F1AC0116
:1031F0004A195B09DA011296159780F06282738290
:1032000051834083D9016D937C93E114F10471F0F3
:10321000D7011396FC93EE93129776CF22968C0FDC
:103220009D1FF90191838083F301EFCFF093BE03DB
:10323000E093BD0369CF4816590608F42C017D01BF
:10324000D3019ACFCB010E9452177C01009749F01D
:10325000AE01B8010E943419C8010E94EE1787011F
:1032600053CF10E000E050CFFB01DC0102C0019021
:103270000D9241505040D8F70895FB01DC010190B8
:103280000D920020E1F70895FB01DC014150504010
:1032900048F001900D920020C9F701C01D924150E5
:0A32A0005040E0F70895F894FFCFC6
:1032AA00460446040000BF038000000000005405E5
:1032BA0047047D04BC0512058C04D2040D0A005390
:1032CA005441525400696E7374616C6C0030300062
:1032DA0061746D6567613332387000703530310062
:00000001FF
