:100000000C945D000C94120A0C94EB090C9485007E
:100010000C9485000C9485000C9485000C9485004C
:100020000C9485000C9485000C9485000C9485003C
:100030000C9485000C9485000C9485000C9485002C
:100040000C94A1090C9485000C946F090C94490937
:100050000C9485000C9485000C9485000C9485000C
:100060000C9485000C94850000000008000201003B
:100070000003040700000000000000000000000072
:10008000250028002B0000000000240027002A0083
:10009000040404040404040402020202020203032E
:1000A0000303030301020408102040800102040836
:1000B0001020010204081020390A11241FBECFEFBE
:1000C000D8E0DEBFCDBF24E0ACEBB1E001C01D92B3
:1000D000AD3AB207E1F711E0A0E0B1E0EEECF3E2F7
:1000E00002C005900D92AC3BB107D9F710E0CDE509
:1000F000D0E004C02197FE010E94ED0FCC35D1075E
:10010000C9F70E946C0A0C94E5110C940000089544
:100110008091B60287FF0DC08091A202282F30E0A7
:10012000C90146E0880F991F4A95E1F7822B932B6E
:10013000089585FF08C08091AA029091AB0298278C
:1001400089279827089580919A0290E00895880F52
:10015000991F880F991F9C0123503109842F90E02B
:100160009595879583709927820F931F4170EAE9CF
:10017000F3E021E0608171816817790719F4442365
:1001800039F02383379634E0EA30F30799F708957E
:100190001382F8CF1092CE011092C8011092C701BD
:1001A0001092C6011092C5011092C4011092C301B1
:1001B0001092C20180E88093C101F8948091C0013F
:1001C000882321F12091DB013091DC0191E080E076
:1001D0004091BE015091BF014217530709F090E0D2
:1001E0009093BC018093BD011092DC011092DB0161
:1001F0001092BF011092BE0178941092C00184EF5A
:1002000092E09093A8048093A704089590E080E082
:10021000E7CFAF92BF92CF92DF92EF92FF920F9310
:100220001F93CF93DF936C017B018B01040F151F8C
:10023000EB015E01AE18BF08C017D10759F06991F4
:10024000D601ED91FC910190F081E02DC601099558
:10025000892B79F7C501DF91CF911F910F91FF9005
:10026000EF90DF90CF90BF90AF900895FC01538D39
:10027000448D252F30E0842F90E0821B930B541780
:1002800010F0CF96089501970895FC01918D828D0D
:10029000981761F0A28DAE0FBF2FB11D5D968C91A6
:1002A000928D9F5F9F73928F90E008958FEF9FEFE5
:1002B0000895FC01918D828D981731F0828DE80FA1
:1002C000F11D858D90E008958FEF9FEF0895FC015B
:1002D000918D228D892F90E0805C9F4F821B910928
:1002E0008F73992708958AE094E00E94670121E0C6
:1002F000892B09F420E0822F089580E090E0892B7B
:1003000029F00E94730181110C9400000895FC01F2
:10031000A48DA80FB92FB11DA35ABF4F2C91848D66
:1003200090E001968F739927848FA689B7892C93C3
:10033000A089B1898C91837080648C93938D848D16
:10034000981306C00288F389E02D80818F7D808319
:100350000895EF92FF920F931F93CF93DF93EC01D9
:1003600081E0888F9B8D8C8D98131AC0E889F9895C
:10037000808185FF15C09FB7F894EE89FF8960835F
:10038000E889F98980818370806480839FBF81E0E0
:1003900090E0DF91CF911F910F91FF90EF90089522
:1003A000F62E0B8D10E00F5F1F4F0F731127E02EFD
:1003B0008C8D8E110CC00FB607FCFACFE889F98935
:1003C000808185FFF5CFCE010E948701F1CFEB8DB3
:1003D000EC0FFD2FF11DE35AFF4FF0829FB7F89409
:1003E0000B8FEA89FB8980818062CFCFCF93DF9327
:1003F000EC01888D8823B9F0AA89BB89E889F9893D
:100400008C9185FD03C0808186FD0DC00FB607FC71
:10041000F7CF8C9185FFF2CF808185FFEDCFCE01A4
:100420000E948701E9CFDF91CF91089590E0FC0110
:10043000E859FF4F2491FC01EC55FF4F3491FC012A
:10044000E057FF4FE491EE23C9F0222339F0233027
:1004500001F1A8F4213019F1223029F1F0E0EE0F7A
:10046000FF1FE458FF4FA591B4918FB7F894EC911A
:10047000611126C030953E233C938FBF08952730ED
:10048000A9F02830C9F0243049F7809180008F7D91
:1004900003C0809180008F7780938000DFCF84B588
:1004A0008F7784BDDBCF84B58F7DFBCF8091B0008B
:1004B0008F778093B000D2CF8091B0008F7DF9CF3D
:1004C0003E2BDACF3FB7F8948091D4019091D501BB
:1004D000A091D601B091D70126B5A89B05C02F3FAA
:1004E00019F00196A11DB11D3FBFBA2FA92F982F5A
:1004F0008827BC01CD01620F711D811D911D42E055
:10050000660F771F881F991F4A95D1F70895CF93DB
:100510000E946202C091E1012C2F30E0E091E301E2
:10052000F091E401DB01AE1BBF0BF901EE0FFF1FE1
:10053000E352FE4FB183A0836093E3017093E40123
:100540008093E5019093E6014091DB015091DC013D
:10055000240F351F3093DC012093DB0191E08C2FB9
:1005600089278093E101CF9108952FB7F894609186
:10057000D0017091D1018091D2019091D3012FBF10
:1005800008950F931F930E94B50260931204709315
:10059000130480931404909315048AE094E00E945D
:1005A000590197FF1DC00E94B502009112041091DD
:1005B00013042091140430911504601B710B820BFD
:1005C000930B00910E0410910F04209110043091B0
:1005D00011046017710782079307F8F28FEF9FEFFE
:1005E0001F910F9108950895F8948091DB019091E7
:1005F000DC012091BE013091BF018217930711F4F5
:10060000789408958091DB019091DC01821B930B1B
:10061000029758F078948AEC90E09093A804809325
:10062000A70487E68093E20108952091DD013091CF
:10063000DE018091DF019091E0014091DB0150915A
:10064000DC015093BF014093BE017894A90144534B
:1006500051094D30510568F02A553109273B364282
:1006600040F08AEC90E09093A8048093A70488E679
:10067000D9CF9C01245331092D30310538F18A55E9
:100680009109873B964268F74D30510568F080919B
:10069000BC019091BD010A97A4F083E793E0909389
:1006A000A8048093A7040895F8948091DF019091A5
:1006B000E0019093DE018093DD0181E08093E10110
:1006C00078941092BD011092BC0108954D305105EF
:1006D00058F78091BC019091BD0101969093BD01A6
:1006E0008093BC010895F8948091DB019091DC0126
:1006F0002091BE013091BF018217930711F47894C5
:1007000008958091DB019091DC01821B930B02978D
:1007100058F078948AEC90E09093A8048093A70412
:1007200087E68093E20108954091DD015091DE015A
:100730008091DF019091E0012091DB013091DC019B
:100740003093BF012093BE0178949A01245331095C
:100750002D30310568F04A555109473B564240F06B
:100760008AEC90E09093A8048093A70488E6D9CF00
:10077000BC016453710941E06D30710508F040E03F
:100780006D30710528F08A559109873B964240F7F4
:1007900081E02D30310508F080E08413E1CF8091B5
:1007A000C101882389F02D30310540F4E091C20168
:1007B000F0E0ED53FE4F9081982B908390E095955B
:1007C00087958093C10108958091C20191E0980FAF
:1007D0009093C20140E84093C1012D303105A8F447
:1007E00091E09093C0018250843038F480E194E02D
:1007F0009093A8048093A70408958AEC90E09093C6
:10080000A8048093A70489E68CCF963008F48BCF98
:100810008AEC90E09093A8048093A7048AE681CFA5
:10082000EF92FF921F93CF93DF938091C30190913A
:10083000C4018927C091C201C43068F09091C501FC
:100840008927C43041F09091C6018927C53019F03D
:100850009091C7018927EC2FF0E0EE53FE4F908175
:10086000981751F08AEC90E09093A8048093A70425
:1008700084E68093E2011FC00E94B5026093CA0122
:100880007093CB018093CC019093CD011092C9015C
:10089000C33009F089C01091C4018091C3011111C6
:1008A0001AC08F3F71F48AEC90E09093A804809373
:1008B000A704C093E201DF91CF911F91FF90EF90C9
:1008C0000895811108C08AEC90E09093A804809369
:1008D000A70484E0CECF982F907C903809F040C0D8
:1008E00017FF3EC0E12EF12CE701C095D095CC0F4B
:1008F000DD1FCC0FDD1FC07CD1708F73C80FD11DE1
:100900000E94880021E0C817D90709F020E0209351
:10091000C901C817D90739F0CF33D10521F080912B
:10092000D8018823A9F08091CE01811111C0E091F6
:10093000D901F091DA01309759F0412F4770B70192
:1009400053E0759567955A95E1F76170CE01099569
:100950008AEC90E09093A8048093A70487E089CF65
:1009600087FF08C08AEC90E09093A8048093A704C6
:1009700085E67FCF107C103441F08AEC90E09093B4
:10098000A8048093A70486E674CF91E020919A0290
:10099000281390E09093C9018AEC90E09093A8040A
:1009A0008093A70486E065CFC43069F5C091C30188
:1009B0008C2F807C803839F52091C401822F857876
:1009C000813009F5822F867090E0982F8827207754
:1009D00044E0249F90011124820F931FCF73C80F0E
:1009E000D92FD11D0E94880021E0C817D90709F02E
:1009F00020E02093C9018AEC90E09093A8048093B2
:100A0000A70488E036CF8AEC90E09093A804809306
:100A1000A7041092E2014FCFCF92DF92EF92FF92A4
:100A2000CF93D12CC12C8AE094E00E946701181664
:100A300019060CF050C00E94C102FC0197FD47C08E
:100A40008D32910519F0C0970A97D0F5C12CD12CA1
:100A50007601C0E0E130F105D1F0ED32F105A9F108
:100A6000CF01C0970A9798F4AAE0B0E0A7019601D9
:100A70000E947A0F6F01FF0FEE08FF08C60ED71E07
:100A8000E81EF91E80E3C81AD108E108F1088AE0DF
:100A900094E00E9445010E94C102FC01C0970A97A0
:100AA000C8F2E130F105B1F2CC2309F4BCCFF094E7
:100AB000E094D094C094C11CD11CE11CF11CB3CFB4
:100AC0008AE094E00E944501B6CFC1E0E0CFC12C9E
:100AD000D12C7601A8CFC601CF91FF90EF90DF9087
:100AE000CF9008950F931F93E091A704F091A8046D
:100AF00009950E94B502E09198022BE0E29FF00177
:100B00001124E851FE4F0081118122813381601B45
:100B1000710B820B930B21E0653F714081059105BC
:100B200008F420E0822F1F910F9108958F929F92D9
:100B3000AF92BF92CF92DF92EF92FF920F931F93EB
:100B4000CF93C82F162FE091A704F091A804099520
:100B5000C12ED12C2BE0129FF0011124E851FE4F41
:100B600081859285892B21F488E893E1928781879A
:100B7000C13009F07CC08BE08C9D80018D9D100DF3
:100B8000112408511E4FF801C085C13009F047C03B
:100B90000E946202F801E184F28484809580A6803C
:100BA000B780681979098A099B094701B12CA12CE2
:100BB00086169706A806B90698F4F5EFEF16F1E049
:100BC000FF0670F00E946202F801648375838683D9
:100BD0009783F9E8EF16F3E1FF0658F0C1E007C08C
:100BE000C701855F91408439914150F4C0E08C2F5A
:100BF0001EC044E6E41AF108F801F286E186F7CF58
:100C0000F4EFEF16F1E0FF0691F48BE08C9DF0011C
:100C10008D9DF00D1124E851FE4F1086E8CFC111D3
:100C200006C00E947205813011F4F8018087CF91CF
:100C30001F910F91FF90EF90DF90CF90BF90AF90FA
:100C40009F908F9008950E946202F70164837583DC
:100C50008683978381E08087043FF1E01F0708F4D3
:100C6000BDCF0C591F4FF70112870187B7CF0E94E4
:100C700062024BE04C9D90014D9D300D1124A90165
:100C800048515E4F7A01FA01018512858480958072
:100C9000A680B780681979098A099B094801B12C97
:100CA000A12C86169706A806B90620F40838F3E1A9
:100CB0001F0748F2C801855F91408339914108F4CC
:100CC00095CF0838134109F0B2CF9FCFFC010190B6
:100CD0000020E9F73197AF01481B590BBC018AE0AE
:100CE00094E00C9409018F929F92AF92BF920F9360
:100CF0001F93CF93DF93CDB7DEB7A1970FB6F894CC
:100D0000DEBF0FBECDBF19A2423008F44AE08E010B
:100D10000F5D1F4F842E912CB12CA12CA5019401A5
:100D20000E94CB0FE62FB901CA01EA30F4F4E05D6E
:100D3000D801EE938D01232B242B252B79F790E0FE
:100D400080E0109719F0CD010E946606A1960FB6BB
:100D5000F894DEBF0FBECDBFDF91CF911F910F91F1
:100D6000BF90AF909F908F900895E95CE1CFCF93B3
:100D7000DF930E946606EC018CE191E00E9466061A
:100D80008C0F9D1FDF91CF910895EF92FF920F93EB
:100D90001F93CF93DF937C01D0E0C0E0062F10E0DB
:100DA000C017D1077CF4F7014481558160817181BE
:100DB0008AE094E00E9409018CE191E00E946606BD
:100DC0002196EECFDF91CF911F910F91FF90EF9081
:100DD00008951F93CF93DF93EC01162F0E94640FA9
:100DE000181739F0612FCE01DF91CF911F910C942C
:100DF0006C0FDF91CF911F9108950C94640F8F9227
:100E00009F92AF92BF92CF92DF92EF92FF920F9399
:100E10001F93CF93DF93882E912C540181E1A80E6C
:100E2000B11C640181E2C80ED11C740181E3E80E9B
:100E3000F11C84010F5B1F4F613009F44AC0C401EB
:100E40000E94FD0697E0989DE001999DD00D112428
:100E5000C656DC4F90E099838883C5010E94FD0649
:100E60008031A1F070F48E3089F08F3079F097E006
:100E7000989DF001999DF00D1124E656FC4F828358
:100E800006C0813119F0823191F784E18A83C6016D
:100E90000E94FD0697E0989DE001999DD00D1124D8
:100EA000C656DC4F8C83C7010E94FD068D83C801A6
:100EB0000E94FD068E8380E0DF91CF911F910F91FC
:100EC000FF90EF90DF90CF90BF90AF909F908F906A
:100ED000089587E0889DE001899DD00D1124C656B4
:100EE000DC4F6881C4010E94E9066A81C5010E9445
:100EF000E90660E0C6010E94E9066D81C7010E9413
:100F0000E9066E81C8010E94E90681E0D5CF5F92B3
:100F10006F927F928F929F92AF92BF92CF92DF9209
:100F2000EF92FF920F931F93CF93DF93C62FFC0195
:100F300044815581608171818AE094E00E940901B9
:100F40008CE191E00E9466060E940C058C01873CB2
:100F5000910509F4A1C00F36110591F48FE191E0DC
:100F60000E94B7060E940C050097A9F3F7E0CF9FF7
:100F7000E0011124C656DC4F9983888380E08DC040
:100F80000037110509F584E291E00E94B7060E943E
:100F90000C05892BC1F3D0E09E012150310987E077
:100FA000829FF001839FF00D1124E656FC4F2081B3
:100FB00031818C9FF0018D9FF00D1124E656FC4F7E
:100FC000318320831682DACF0137110569F489E273
:100FD00091E00E94B7060E940C050097C1F327E03C
:100FE000C29FE0011124C6CF0237110569F48EE2D9
:100FF00091E00E94B7060E940C05892BC1F3D0E056
:101000009E0123503109CBCF0337110509F455C098
:10101000480139E7831A910887E0C89F70011124BD
:10102000F701E656FC4F7F016F01F2E0CF0ED11CB5
:1010300026E0E20EF11C8CEF582E5C0E9DEF692E1F
:101040006C0E2EEF722E7C0EDFEFDC0F34E6A32E3B
:10105000B12C35E08316910408F090CF09371105C3
:1010600009F04BC088E391E00E94B7060E940C058E
:101070001816190674F7F601808361E08C2F0E9420
:10108000FF06882331F389E591E00E94B7060E94AC
:101090000C05873C9105B9F781E0DF91CF911F9155
:1010A0000F91FF90EF90DF90CF90BF90AF909F9007
:1010B0008F907F906F905F90089583E391E00E94FE
:1010C000B7060E940C05892BC1F3D0E09E01225087
:1010D000310987E0829FF001839FF00D1124E656CD
:1010E000FC4F208131818C9FF0018D9FF00D1124E8
:1010F000E656FC4F3183208341CF0A37110599F41E
:101100008DE391E00E94B7060E940C05181619069F
:101110000CF09FCFF601808361E08D2F0E94FF06C7
:101120008111ABCF96CF0B37110531F582E491E0F9
:101130000E94B7060E940C05181619060CF089CFFC
:10114000F601808387E491E00E94B7060E940C05B7
:101150000097C1F38436910569F09501281B390B7E
:10116000C901F701808361E0872D0E94FF0681118C
:10117000D3CF6FCF80E0F5CF0C37110599F48FE412
:1011800091E00E94B7060E940C05181619060CF093
:1011900060CFF601808361E0862D0E94FF068111F9
:1011A000E2CF57CF84E591E00E94B7060E940C057C
:1011B000181619060CF04DCFF601808387E491E0F4
:1011C0000E94B7060E940C050097C1F38436910572
:1011D00069F09501281B390BC901F701808361E093
:1011E000852D0E94FF068111D6CF33CF80E0F5CF49
:1011F000FC0180819181009711F00C948F1008956B
:10120000EF92FF920F931F93CF93DF93EC017B013B
:10121000198218821B821A821D821C82FB01019096
:101220000020E9F731978F01061B170BB8016F5F9C
:101230007F4F90E080E00E9418110097B9F09983E9
:1012400088831B830A832C813D81232B11F4FC01AD
:1012500010821D830C83B70188819981DF91CF9122
:101260001F910F91FF90EF900C94DE11888199816E
:10127000009711F00E948F10198218821D821C8223
:101280001B821A82DF91CF911F910F91FF90EF90F7
:1012900008951F920F920FB60F9211242F933F9330
:1012A0004F935F936F937F938F939F93AF93BF936E
:1012B000EF93FF938AE094E00E948701FF91EF9102
:1012C000BF91AF919F918F917F916F915F914F915E
:1012D0003F912F910F900FBE0F901F9018951F9266
:1012E0000F920FB60F9211242F938F939F93EF932A
:1012F000FF93E0911A04F0911B048081E091200497
:10130000F091210482FD1BC09081809123048F5FA6
:101310008F7320912404821741F0E0912304F0E0C0
:10132000E65FFB4F958F80932304FF91EF919F9190
:101330008F912F910F900FBE0F901F901895808165
:10134000F4CF1F920F920FB60F9211242F933F9359
:101350008F939F93AF93BF938091D0019091D101D0
:10136000A091D201B091D3013091CF0123E0230F9E
:101370002D3758F50196A11DB11D2093CF01809303
:10138000D0019093D101A093D201B093D301809169
:10139000D4019091D501A091D601B091D7010196C9
:1013A000A11DB11D8093D4019093D501A093D601C6
:1013B000B093D701BF91AF919F918F913F912F91A2
:1013C0000F900FBE0F901F90189526E8230F0296DE
:1013D000A11DB11DD2CF1F920F920FB60F921124F3
:1013E0002F933F934F935F936F937F938F939F932D
:1013F000AF93BF93EF93FF93E0910201F09103014C
:101400000995FF91EF91BF91AF919F918F917F913E
:101410006F915F914F913F912F910F900FBE0F9061
:101420001F9018951F920F920FB60F9211242F93B1
:101430003F934F935F936F937F938F939F93AF935C
:10144000BF93EF93FF93E0910001F09101010995A3
:10145000FF91EF91BF91AF919F918F917F916F918C
:101460005F914F913F912F910F900FBE0F901F9062
:101470001895EAE0F4E01382128288EE93E0A0E08F
:10148000B0E084839583A683B7838EE091E0918357
:10149000808385EC90E09587848784EC90E0978743
:1014A000868780EC90E0918B808B81EC90E0938B31
:1014B000828B82EC90E0958B848B86EC90E0978B0E
:1014C000868B118E128E138E148E87E890E0909387
:1014D000A8048093A7040895CF93DF9300D000D091
:1014E00000D0CDB7DEB7789484B5826084BD84B572
:1014F000816084BD85B5826085BD85B5816085BD0F
:1015000080916E00816080936E00109281008091C6
:10151000810082608093810080918100816080934E
:101520008100809180008160809380008091B10073
:1015300084608093B1008091B00081608093B0009E
:1015400080917A00846080937A0080917A00826032
:1015500080937A0080917A00816080937A008091F4
:101560007A00806880937A001092C10087EA90E048
:101570009093DA018093D90181E08093D801809122
:10158000E3019091E401A091E501B091E601892B7E
:101590008A2B8B2B91F51092A0021092A10210922F
:1015A000E1011092E0011092DF011092DE01109231
:1015B000DD011092DC011092DB010E946202609357
:1015C000E3017093E4018093E5019093E60187E8DD
:1015D00092E09093010180930001809169008C7FDB
:1015E000816080936900E89A8AEC90E09093A80467
:1015F0008093A70482E08093E2010E94B5024B0130
:101600005C01E0911A04F0911B0482E08083E09178
:101610001604F09117041082E0911804F091190457
:1016200080E1808310922204E0911E04F0911F0457
:101630008EE38083E0911C04F0911D048081806121
:101640008083E0911C04F0911D0480818860808378
:10165000E0911C04F0911D04808180688083E091FA
:101660001C04F0911D0480818F7D808367E0F62E3D
:10167000EE24E3947EE0D72EE4E0CE2E8CE591E0DC
:101680000E94B7068AE094E00E94670118161906C6
:101690000CF0B9C14BE0742E5CE0652E8CE591E056
:1016A0000E94B7060E940C058C0118161906B4F7A3
:1016B0008AE094E00E946701892B81F78091E7011D
:1016C00090E027E0289FF001299FF00D1124E656B5
:1016D000FC4F14820E36110509F495C108F04AC07A
:1016E0000736110509F4A8C038F50536110509F4C7
:1016F00088C00636110591F60197F89ED001F99E33
:10170000B00D1124A656BC4F15966C92E58210912F
:10171000E70167E671E0CE0101960E940009612FA2
:10172000CE0101960E948707182FCE0101960E94D4
:10173000F808112361F37AC00836110509F4AAC02C
:101740000936110509F0AACFC5821091E70166E7B5
:1017500071E0CE0101960E940009612FCE01019631
:101760000E948707182FCE0101960E94F8081123C6
:1017700061F35CC0023D110509F43CC180F50F36F0
:10178000110509F4BFC0083C110509F087CF10E02E
:1017900000E0C8010E94640F882321F060E0C801C6
:1017A0000E946C0F0F5F1F4F0131110591F761E926
:1017B00071E0CE0101960E94000965E0CE0101961C
:1017C0000E94C506CE0101960E94F80810E060E074
:1017D000812F0E94FF061F5F1031C9F75FCF043DC4
:1017E000110509F40DC108F408C1053D110509F002
:1017F00055CF60EB71E0CE0101960E94000963E0D5
:101800009FC075821091E70162E671E0CE010196FA
:101810000E940009612FCE0101960E948707182FB0
:10182000CE0101960E94F808112361F38091E7012F
:101830008F5F8093E70132CF9C0122503109F29EE5
:10184000D001F39EB00D1124A656BC4F3DE0159675
:101850003C930197F89ED001F99EB00D1124A65635
:10186000BC4F1596EC9283E085831091E7016CE6FE
:1018700071E0CE0101960E940009612FCE01019610
:101880000E948707182FCE0101960E94F8081123A5
:1018900061F3CCCF9C0123503109F29ED001F39E1D
:1018A000B00D1124A656BC4F1596DC922F5F3F4F0A
:1018B000F29ED001F39EB00D1124A656BC4F159692
:1018C000EC920197F89ED001F99EB00D1124A65616
:1018D000BC4F83E015968C93E5821091E70161E798
:1018E00071E0CE0101960E940009612FCE010196A0
:1018F0000E948707182FCE0101960E94F808112335
:1019000061F394CF6BE771E0CE0101960E9400096C
:1019100062E0CE0101960E94C506CE0101960E94AA
:10192000F8080E940C058C010097D9F38F3F9105B0
:1019300081F465E871E0CE0101960E94000965E03E
:10194000CE0101960E94C506CE0101960E94F808BC
:10195000A5CE01970E94FD06282EC80140960E9440
:10196000FD06382EC80180960E94FD06482EC8014B
:10197000C0960E94FD06582EC801805C9F4F0E94B1
:10198000FD06182F622D70E090E080E04AE00E9492
:1019900073068FE891E00E946606632D70E090E088
:1019A00080E04AE00E9473068FE891E00E9466069C
:1019B000642D70E090E080E04AE00E9473068FE8BA
:1019C00091E00E946606652D70E090E080E04AE0BC
:1019D0000E9473068FE891E00E946606612F70E016
:1019E00090E080E04AE00E9473068CE191E00E9462
:1019F000660697CF6FE971E09ECF64EA71E09BCFF6
:101A00006AEA71E098CF0E94B502681979098A09DB
:101A10009B09683873418105910508F42FCE8AE04F
:101A200094E00E94F601E0911C04F0911D04808175
:101A30008F7E8083E0911C04F0911D048081877F5C
:101A40008083E0911C04F0911D0480818F77808356
:101A5000E0911C04F0911D0480818F7D8083809132
:101A60002404809323040AE913E0F12C60E08F2D15
:101A70000E94FF06F801828190E0FC01EC55FF4FC7
:101A8000249180579F4FFC018491882399F090E026
:101A9000880F991FFC01EA57FF4FA591B491FC01F3
:101AA000E458FF4F859194918FB7F894EC91E22B15
:101AB000EC938FBFF394095F1F4FFFE0FF12D6CF67
:101AC00080910A0490910B04049790930B048093E7
:101AD0000A0407E082E0582E9BE0792E23E0622E74
:101AE000E091A704F091A804099510919802E12EC5
:101AF000F12C0E9DF0010F9DF00D1124E656FC4FC8
:101B0000638197012F5F3F4F5901611102C18581A8
:101B10008C50833008F0FDC08481823069F40E94CB
:101B2000B5027E9CF0017F9CF00D1124E851FE4F20
:101B300060837183828393830E9DC0010F9D900DFE
:101B40001124AC0146565C4F6A01FA01648261E0DF
:101B5000610F80E00E9496050A9DF0010B9DF00D3B
:101B60001124E656FC4F682F82810E94160257010D
:101B7000F4E0AF0EB11CF60185818D3008F467C02A
:101B800097012E5F3F4F029FC001039F900D1124CC
:101B90009C0126563C4F4901F9018581833009F0AB
:101BA00056C062E0610F80E00E949605682FF40144
:101BB00082810E941602F60185818E3009F047C0AD
:101BC0000A9DF0010B9DF00D1124E656FC4F858116
:101BD0008430E9F563E0610F81E00E94960597018A
:101BE0002D5F3F4F029FF001039FF00D1124E65639
:101BF000FC4F682F82810E9416020A9DC0010B9D36
:101C0000900D11249C0126563C4F6901F9018381F6
:101C1000811127C08581843021F564E0610F80E067
:101C20000E949605682FF60182810E941602612F9C
:101C300081E00E9496050E9DF0010F9DF00D11248C
:101C4000E656FC4F682F82810E9416023FC0612F2A
:101C500081E00E9496050E9DF0010F9DF00D11246C
:101C6000C6CF0E9472058130E1F50A9DC0010B9D2F
:101C7000900D11249C0126563C4F6901F901938077
:101C8000F1E09F122EC0F9018581843051F59481D5
:101C90008681981730F1612F80E00E9496050E9D95
:101CA000F0010F9DF00D1124E656FC4F682F828144
:101CB0000E94160264E0610F81E00E949605682F81
:101CC000F60182810E941602F601948280919802A8
:101CD0008F5F80939802813108F402CF10929802AE
:101CE000FFCE0A9DC0010B9D900D11249C0126562C
:101CF0003C4F7901F9018581843041F784818F5F00
:101D0000848364E0610F80E00E949605682FF701EC
:101D10009ACF0E9DD0010F9DB00D1124A656BC4F39
:101D200015968C9115970A9DF0010B9DF00D1124CD
:101D3000E656FC4F9381913009F0A9C08C3008F42D
:101D4000A6C08581813011F614968C91833069F498
:101D50000E94B5027E9CF0017F9CF00D1124E85199
:101D6000FE4F60837183828393830E9DC0010F9D1C
:101D7000900D11249C0126563C4F6901F9015482B3
:101D800061E0610F81E00E9496050A9DF0010B9DC4
:101D9000F00D1124E656FC4F682F82810E94160236
:101DA000612F80E00E949605682FF60182810E94D3
:101DB0001602F60185818E3069F597012C5F3F4F41
:101DC000029FC001039F900D11249C0126563C4F99
:101DD0006901F90185818430E9F464E0610F80E0F4
:101DE0000E949605682FF60182810E94160263E028
:101DF000610F80E00E94960597012D5F3F4F029F83
:101E0000F001039FF00D1124E656FC4F682F8281EC
:101E10000E9416020E94720597012E5F3F4F81308B
:101E2000B1F4029FC001039F900D1124AC014656EE
:101E30005C4F6A01FA01F380F1E0FF1208C0FA0179
:101E40008581833021F494818681981798F4029FCC
:101E5000C001039F900D11249C0126563C4F79012F
:101E6000F9018581833009F031CF84818F5F8483CC
:101E700062E048CF62E0610F81E00E949605682F22
:101E8000F60182810E941602F601F4821FCF8B3088
:101E900009F01CCF0E9DF0010F9DF00D1124E656A8
:101EA000FC4F82819481913021F4611102C061E084
:101EB000CBCE0E9416020E9DF0010F9DF00D112455
:101EC000E656FC4F148202CFF999FECF92BD81BD38
:101ED000F89A992780B50895262FF999FECF1FBA51
:101EE00092BD81BD20BD0FB6F894FA9AF99A0FBE43
:101EF000019608950E94BC0FA59F900DB49F900D70
:101F0000A49F800D911D112408952F923F924F920E
:101F10005F926F927F928F929F92AF92BF92CF9279
:101F2000DF92EF92FF920F931F93CF93DF93CDB782
:101F3000DEB7CA1BDB0B0FB6F894DEBF0FBECDBFFA
:101F400009942A88398848885F846E847D848C84CB
:101F50009B84AA84B984C884DF80EE80FD800C81D4
:101F60001B81AA81B981CE0FD11D0FB6F894DEBFB7
:101F70000FBECDBFED010895A29FB001B39FC00178
:101F8000A39F700D811D1124911DB29F700D811DA5
:101F90001124911D0895A1E21A2EAA1BBB1BFD015D
:101FA0000DC0AA1FBB1FEE1FFF1FA217B307E40738
:101FB000F50720F0A21BB30BE40BF50B661F771F90
:101FC000881F991F1A9469F7609570958095909570
:101FD0009B01AC01BD01CF010895EE0FFF1F0590DD
:101FE000F491E02D09940F931F93CF93DF938230E8
:101FF000910510F482E090E0E091AB04F091AC0424
:1020000030E020E0B0E0A0E0309799F421153105F0
:1020100009F44AC0281B390B24303105D8F58A81D0
:102020009B816115710589F1FB0193838283FE0118
:1020300011C0408151810281138148175907E0F096
:102040004817590799F4109761F012960C9312975C
:1020500013961C933296CF01DF91CF911F910F9170
:1020600008950093AB041093AC04F4CF211531050F
:1020700051F04217530738F0A901DB019A01BD0165
:10208000DF01F801C1CFEF01F9CF9093AC04809349
:10209000AB04CDCFFE01E20FF31F81939193225049
:1020A000310939832883D7CF2091A9043091AA041C
:1020B000232B41F420910601309107013093AA04AB
:1020C0002093A904209104013091050121153105C7
:1020D00041F42DB73EB74091080150910901241BEE
:1020E000350BE091A904F091AA04E217F307A0F4DC
:1020F0002E1B3F0B2817390778F0AC014E5F5F4F5E
:102100002417350748F04E0F5F1F5093AA044093E1
:10211000A904819391939FCFF0E0E0E09CCFCF930F
:10212000DF930097E9F0FC01329713821282A091AD
:10213000AB04B091AC04ED0130E020E01097A1F4C5
:1021400020813181820F931F2091A9043091AA042C
:102150002817390709F061C0F093AA04E093A90495
:10216000DF91CF910895EA01CE17DF07E8F54A81A4
:102170005B819E0141155105B1F7E901FB83EA83BB
:1021800049915991C40FD51FEC17FD0761F4808167
:1021900091810296840F951FE9019983888382813A
:1021A00093819B838A83F0E0E0E012968D919C916D
:1021B00013970097B9F52D913C911197CD01029697
:1021C000820F931F2091A9043091AA042817390780
:1021D00039F6309751F51092AC041092AB04B093DD
:1021E000AA04A093A904BCCFD383C28340815181A8
:1021F000840F951FC817D90761F44E5F5F4F888120
:102200009981480F591F518340838A819B81938311
:1022100082832115310509F0B0CFF093AC04E0932F
:10222000AB049ECFFD01DC01C0CF13821282D7CF59
:10223000B0E0A0E0EEE1F1E10C94870F8C01009793
:1022400051F4CB010E94F30F8C01C801CDB7DEB76A
:10225000E0E10C94A30FFC01E60FF71F9C01225054
:102260003109E217F30708F49DC0D901CD91DC9143
:102270001197C617D70798F0C530D10530F3CE01B6
:1022800004978617970708F3C61BD70B2297C193AD
:10229000D1936D937C93CF010E948F10D6CF5B01B9
:1022A000AC1ABD0A4C018C0E9D1EA091AB04B091DE
:1022B000AC04512C412CF12CE12C109731F580917C
:1022C000A9049091AA048815990509F05CC04616E6
:1022D000570608F058C080910401909105010097BD
:1022E00041F48DB79EB74091080150910901841BBC
:1022F000950BE817F90708F055C0F093AA04E0938E
:10230000A904F90171836083A0CF8D919C911197ED
:1023100012966C90129713967C901397A815B90596
:1023200059F56C0142E0C40ED11CCA14DB0420F143
:10233000AC014A195B09DA011296159780F06282A6
:10234000738251834083D9016D937C93E114F1042E
:1023500071F0D7011396FC93EE93129776CF2296E5
:102360008C0F9D1FF90191838083F301EFCFF093D0
:10237000AC04E093AB0469CF4816590608F42C016D
:102380007D01D3019ACFCB010E94F30F7C0100970E
:1023900049F0AE01B8010E94D511C8010E948F100A
:1023A000870153CF10E000E050CFFB01DC0102C0F9
:1023B00001900D9241505040D8F70895FB01DC0187
:0E23C00001900D920020E1F70895F894FFCFF0
:1023CE00F302F3020000AD04800000000000A9013A
:1023DE0009013601F6016701450159010D0A007028
:1023EE0031313100703131320070313133007031A2
:1023FE00313400703131350070313231007031328C
:10240E003200703132330073657474696D6500701B
:10241E003132340070313235004F4B00535441523B
:10242E005400703130310070313032007031303341
:10243E000070313034007031303500726561645F88
:10244E006D6F646500726561645F65786974003BE9
:10245E0000666C6173685F636C65617265640063CE
:10246E006F6E6E00322E35366200323339323900DD
:0C247E0061746D656761333238700000D6
:00000001FF
