:100000000C945D000C94EA0A0C94C30A0C948500CD
:100010000C9485000C9485000C9485000C9485004C
:100020000C9485000C9485000C9485000C9485003C
:100030000C9485000C9485000C9485000C9485002C
:100040000C94790A0C9485000C94470A0C94210AAC
:100050000C9485000C9485000C9485000C9485000C
:100060000C9485000C94850000000008000201003B
:100070000003040700000000000000000000000072
:10008000250028002B0000000000240027002A0083
:10009000040404040404040402020202020203032E
:1000A0000303030301020408102040800102040836
:1000B0001020010204081020110B11241FBECFEFE5
:1000C000D8E0DEBFCDBF24E0A2E9B1E001C01D92BF
:1000D000A338B207E1F711E0A0E0B1E0E2EBF7E20C
:1000E00002C005900D92A239B107D9F710E0CDE515
:1000F000D0E004C02197FE010E94C711CC35D10782
:10010000C9F70E94440B0C94D7130C940000089577
:1001100080918C0287FF0DC080917802282F30E0FB
:10012000C90146E0880F991F4A95E1F7822B932B6E
:10013000089585FF08C080918002909181029827E0
:100140008927982708958091700290E00895880F7C
:10015000991F880F991F9C0123503109842F90E02B
:100160009595879583709927820F931F4170E0E7DB
:10017000F3E021E0608171816817790719F4442365
:1001800039F02383379633E0E03EF30799F708957B
:100190001382F8CF1092A40110929E0110929D013B
:1001A00010929C0110929B0110929A011092990159
:1001B0001092980180E880939701F89480919601BD
:1001C000882321F12091B1013091B20191E080E0CA
:1001D00040919401509195014217530709F090E026
:1001E00090939201809393011092B2011092B10109
:1001F000109295011092940178941092960187E2E2
:1002000093E090937E0480937D04089590E080E0D5
:10021000E7CF0895AF92BF92CF92DF92EF92FF9215
:100220000F931F93CF93DF936C017B018B01040F1E
:10023000151FEB015E01AE18BF08C017D10759F0BA
:100240006991D601ED91FC910190F081E02DC601FC
:100250000995892B79F7C501DF91CF911F910F91F6
:10026000FF90EF90DF90CF90BF90AF900895FC018A
:10027000538D448D252F30E0842F90E0821B930B0B
:10028000541710F0CF96089501970895FC01918DB1
:10029000828D981761F0A28DAE0FBF2FB11D5D96B4
:1002A0008C91928D9F5F9F73928F90E008958FEF56
:1002B0009FEF0895FC01918D828D981731F0828D0A
:1002C000E80FF11D858D90E008958FEF9FEF089561
:1002D000FC01918D228D892F90E0805C9F4F821BC5
:1002E00091098F739927089580EE93E00E94680129
:1002F00021E0892B09F420E0822F089580E090E02E
:10030000892B29F00E94740181110C94000008953A
:10031000FC01A48DA80FB92FB11DA35ABF4F2C917A
:10032000848D90E001968F739927848FA689B78971
:100330002C93A089B1898C91837080648C93938D68
:10034000848D981306C00288F389E02D80818F7D0B
:1003500080830895EF92FF920F931F93CF93DF93C3
:10036000EC0181E0888F9B8D8C8D98131AC0E889F1
:10037000F989808185FF15C09FB7F894EE89FF89C0
:100380006083E889F98980818370806480839FBF5E
:1003900081E090E0DF91CF911F910F91FF90EF905E
:1003A0000895F62E0B8D10E00F5F1F4F0F7311276E
:1003B000E02E8C8D8E110CC00FB607FCFACFE889A9
:1003C000F989808185FFF5CFCE010E948801F1CFA8
:1003D000EB8DEC0FFD2FF11DE35AFF4FF0829FB71D
:1003E000F8940B8FEA89FB8980818062CFCFCF930D
:1003F000DF93EC01888D8823B9F0AA89BB89E8894D
:10040000F9898C9185FD03C0808186FD0DC00FB6F2
:1004100007FCF7CF8C9185FFF2CF808185FFEDCF70
:10042000CE010E948801E9CFDF91CF91089590E03D
:10043000FC01E859FF4F2491FC01EC55FF4F34912A
:10044000FC01E057FF4FE491EE23C9F0222339F07D
:10045000233001F1A8F4213019F1223029F1F0E024
:10046000EE0FFF1FE458FF4FA591B4918FB7F8949A
:10047000EC91611126C030953E233C938FBF0895C7
:100480002730A9F02830C9F0243049F78091800046
:100490008F7D03C0809180008F7780938000DFCFB5
:1004A00084B58F7784BDDBCF84B58F7DFBCF809102
:1004B000B0008F778093B000D2CF8091B0008F7D55
:1004C000F9CF3E2BDACF3FB7F8948091AA019091F3
:1004D000AB01A091AC01B091AD0126B5A89B05C0C0
:1004E0002F3F19F00196A11DB11D3FBFBA2FA92FB3
:1004F000982F8827BC01CD01620F711D811D911DB0
:1005000042E0660F771F881F991F4A95D1F708951B
:10051000CF930E946302C091B7012C2F30E0E0918D
:10052000B901F091BA01DB01AE1BBF0BF901EE0F6F
:10053000FF1FED54FE4FB183A0836093B901709308
:10054000BA018093BB019093BC014091B1015091DD
:10055000B201240F351F3093B2012093B10191E015
:100560008C2F89278093B701CF9108952FB7F894E6
:100570006091A6017091A7018091A8019091A901B5
:100580002FBF08950F931F930E94B6026093E80354
:100590007093E9038093EA039093EB0380EE93E07A
:1005A0000E94460197FF1DC00E94B6020091E80319
:1005B0001091E9032091EA033091EB03601B710B6A
:1005C000820B930B0091E4031091E5032091E60365
:1005D0003091E7036017710782079307F8F28FEFF6
:1005E0009FEF1F910F9108950F931F930E94B602E2
:1005F0006093E8037093E9038093EA039093EB031D
:1006000080EE93E00E945A0197FF1DC00E94B6023F
:100610000091E8031091E9032091EA033091EB0384
:10062000601B710B820B930B0091E4031091E503A7
:100630002091E6033091E703601771078207930763
:10064000F8F28FEF9FEF1F910F9108950895F8949E
:100650008091B1019091B201209194013091950166
:100660008217930711F4789408958091B1019091C5
:10067000B201821B930B029758F078948AEC90E0B9
:1006800090937E0480937D0487E68093B80108955B
:100690002091B3013091B4018091B5019091B601E0
:1006A0004091B1015091B201509395014093940152
:1006B0007894A901445351094D30510568F02A55E9
:1006C0003109273B364240F08AEC90E090937E045B
:1006D00080937D0488E6D9CF9C01245331092D30C5
:1006E000310538F18A559109873B964268F74D30BC
:1006F000510568F080919201909193010A97A4F0BE
:1007000086EA93E090937E0480937D040895F894A4
:100710008091B5019091B6019093B4018093B3019B
:1007200081E08093B7017894109293011092920126
:1007300008954D30510558F78091920190919301A1
:10074000019690939301809392010895F89480917B
:10075000B1019091B20120919401309195018217DD
:10076000930711F4789408958091B1019091B201AA
:10077000821B930B029758F078948AEC90E0909348
:100780007E0480937D0487E68093B80108954091AC
:10079000B3015091B4018091B5019091B6012091BF
:1007A000B1013091B2013093950120939401789476
:1007B0009A01245331092D30310568F04A55510909
:1007C000473B564240F08AEC90E090937E04809341
:1007D0007D0488E6D9CFBC016453710941E06D30D6
:1007E000710508F040E06D30710528F08A559109D7
:1007F000873B964240F781E02D30310508F080E0DC
:100800008413E1CF80919701882389F02D30310541
:1008100040F4E0919801F0E0E756FE4F9081982B6C
:10082000908390E0959587958093970108958091A6
:10083000980191E0980F9093980140E840939701B8
:100840002D303105A8F491E09093960182508430C8
:1008500038F483E494E090937E0480937D040895BB
:100860008AEC90E090937E0480937D0489E68CCF9F
:10087000963008F48BCF8AEC90E090937E048093BE
:100880007D048AE681CFEF92FF921F93CF93DF938F
:100890008091990190919A018927C0919801C43063
:1008A00068F090919B018927C43041F090919C01A0
:1008B0008927C53019F090919D018927EC2FF0E030
:1008C000E856FE4F9081981751F08AEC90E0909393
:1008D0007E0480937D0484E68093B8011FC00E944B
:1008E000B6026093A0017093A1018093A20190933E
:1008F000A30110929F01C33009F089C010919A01A1
:100900008091990111111AC08F3F71F48AEC90E027
:1009100090937E0480937D04C093B801DF91CF91C2
:100920001F91FF90EF900895811108C08AEC90E02C
:1009300090937E0480937D0484E0CECF982F907CAA
:10094000903809F040C017FF3EC0E12EF12CE701BE
:10095000C095D095CC0FDD1FCC0FDD1FC07CD170B2
:100960008F73C80FD11D0E94880021E0C817D907D6
:1009700009F020E020939F01C817D90739F0CF3341
:10098000D10521F08091AE018823A9F08091A401C6
:10099000811111C0E091AF01F091B001309759F091
:1009A000412F4770B70153E0759567955A95E1F768
:1009B0006170CE0109958AEC90E090937E0480935B
:1009C0007D0487E089CF87FF08C08AEC90E0909390
:1009D0007E0480937D0485E67FCF107C103441F047
:1009E0008AEC90E090937E0480937D0486E674CF39
:1009F00091E020917002281390E090939F018AEC7F
:100A000090E090937E0480937D0486E065CFC430AF
:100A100069F5C09199018C2F807C803839F520913F
:100A20009A01822F8578813009F5822F867090E0B7
:100A3000982F8827207744E0249F90011124820F6B
:100A4000931FCF73C80FD92FD11D0E94880021E0BA
:100A5000C817D90709F020E020939F018AEC90E0A5
:100A600090937E0480937D0488E036CF8AEC90E0FA
:100A700090937E0480937D041092B8014FCFCF9263
:100A8000DF92EF92FF92CF93D12CC12C80EE93E0B6
:100A90000E946801181619060CF050C00E94F4025A
:100AA000FC0197FD47C08D32910519F0C0970A9758
:100AB000D0F5C12CD12C7601C0E0E130F105D1F0A8
:100AC000ED32F105A9F1CF01C0970A9798F4AAE099
:100AD000B0E0A70196010E9454116F01FF0FEE08CC
:100AE000FF08C60ED71EE81EF91E80E3C81AD108FB
:100AF000E108F10880EE93E00E9446010E94F402B2
:100B0000FC01C0970A97C8F2E130F105B1F2CC239D
:100B100009F4BCCFF094E094D094C094C11CD11CD3
:100B2000E11CF11CB3CF80EE93E00E944601B6CFEA
:100B3000C1E0E0CFC12CD12C7601A8CFC601CF9166
:100B4000FF90EF90DF90CF9008950F931F93E09167
:100B50007D04F0917E0409950E94B602E0916E0238
:100B60002BE0E29FF0011124E254FE4F008111813D
:100B700022813381601B710B820B930B21E0653F57
:100B800071408105910508F420E0822F1F910F919B
:100B900008958F929F92AF92BF92CF92DF92EF9281
:100BA000FF920F931F93CF93C82F162FE0917D04D0
:100BB000F0917E040995C12ED12C2BE0129FF001FB
:100BC0001124E254FE4F81859285892B21F488E817
:100BD00093E192878187C13009F07CC08BE08C9DC6
:100BE00080018D9D100D112402541E4FF801C08507
:100BF000C13009F047C00E946302F801E184F28429
:100C000084809580A680B780681979098A099B0934
:100C10004701B12CA12C86169706A806B90698F4B0
:100C2000F5EFEF16F1E0FF0670F00E946302F801A5
:100C30006483758386839783F9E8EF16F3E1FF06F3
:100C400058F0C1E007C0C701855F914084399141E8
:100C500050F4C0E08C2F1EC044E6E41AF108F801FD
:100C6000F286E186F7CFF4EFEF16F1E0FF0691F49C
:100C70008BE08C9DF0018D9DF00D1124E254FE4F10
:100C80001086E8CFC11106C00E94A505813011F47D
:100C9000F8018087CF911F910F91FF90EF90DF9027
:100CA000CF90BF90AF909F908F9008950E94630265
:100CB000F701648375838683978381E08087043F8F
:100CC000F1E01F0708F4BDCF0C591F4FF701128741
:100CD0000187B7CF0E9463024BE04C9D90014D9D70
:100CE000300D1124A90142545E4F7A01FA010185A9
:100CF000128584809580A680B780681979098A0951
:100D00009B094801B12CA12C86169706A806B906A6
:100D100020F40838F3E11F0748F2C801855F9140CD
:100D20008339914108F495CF0838134109F0B2CFC7
:100D30009FCFFC0101900020E9F73197AF01481BDC
:100D4000590BBC0180EE93E00C940A01CF93DF9322
:100D5000FC01448155816081718180EE93E00E94A5
:100D60000A01EC018CE191E00E9499068C0F9D1F15
:100D7000DF91CF910895EF92FF920F931F93CF933E
:100D8000DF937C01D0E0C0E0062F10E0C017D10750
:100D90002CF4C7010E94A6062196F8CFDF91CF91CF
:100DA0001F910F91FF90EF9008958F929F92AF92B5
:100DB000BF920F931F93CF93DF93CDB7DEB7A19769
:100DC0000FB6F894DEBF0FBECDBF19A2423008F4B3
:100DD0004AE08E010F5D1F4F842E912CB12CA12C67
:100DE000A50194010E94A511E62FB901CA01EA30BC
:100DF000F4F4E05DD801EE938D01232B242B252BF9
:100E000079F790E080E0109719F0CD010E949906E3
:100E1000A1960FB6F894DEBF0FBECDBFDF91CF9184
:100E20001F910F91BF90AF909F908F900895E95CB4
:100E3000E1CFCF93DF930E949906EC018CE191E022
:100E40000E9499068C0F9D1FDF91CF910895FC01A0
:100E500080819181009711F00C94691208950F938D
:100E60001F93CF93DF938C01EB01FC018081918173
:100E70000097E1F06881798161157105A9F04281DF
:100E800053812C813D814217530770F00E94C1139A
:100E90008C819D81F801958384831D821C82DF9162
:100EA000CF911F910F9108950E94691288819981B5
:100EB000F801918380838A819B81938382838C81D3
:100EC0009D8195838483198218821B821A82E5CFC3
:100ED000FC0124813581232B39F421E0FB01808141
:100EE000882349F020E007C0808191810E94B813D7
:100EF00021E0892BB9F7822F08950F931F93CF9389
:100F0000DF93EC0188819981009759F02A813B8118
:100F10002617370730F081E0DF91CF911F910F91B5
:100F200008958B016F5F7F4F0E94F212009759F076
:100F3000998388831B830A832C813D81232B59F756
:100F4000FC011082E8CF80E0E7CFEF92FF920F9391
:100F50001F93CF93DF93EC017B01198218821B82D0
:100F60001A821D821C82FB0101900020E9F7319753
:100F70008F01061B170BB8010E947D07288139815C
:100F8000811113C02115310519F0C9010E946912A0
:100F9000198218821D821C821B821A82DF91CF91D6
:100FA0001F910F91FF90EF9008951D830C83B7015F
:100FB000C901DF91CF911F910F91FF90EF900C9499
:100FC000C1138F929F92AF92BF92CF92DF92EF9216
:100FD000FF920F931F93CF93DF9300D0CDB7DEB76F
:100FE0008C015B017A0149016EE171E00E94A50765
:100FF000EA0CFB1CC7018A199B09881599050CF599
:10100000F70181917F0189831A82F801C480D5801C
:10101000FFEFCF1ADF0AB601C8010E947D078823BF
:1010200049F3F8012081318184819581BE016F5F90
:101030007F4F820F931F0E94C113F801D582C48293
:10104000D9CFC8010F900F90DF91CF911F910F91D1
:10105000FF90EF90DF90CF90BF90AF909F908F90D8
:1010600008957F928F929F92AF92BF92CF92DF921C
:10107000EF92FF920F931F93CF93DF93CDB7DEB71D
:10108000EA970FB6F894DEBF0FBECDBF7C01762E77
:101090001A8219821C821B821E821D82FC01008121
:1010A000118101151105B9F0C480D580B601CE01BA
:1010B00001960E947D0729813A81811117C021156F
:1010C000310519F0C9010E9469121A8219821E8223
:1010D0001D821C821B8280EE93E00E946801892B96
:1010E00061F4CE0101960E94A606F5CFDE82CD8284
:1010F000B801C9010E94C113EECF6EE171E0CE01CB
:10110000C5960E94A5070E94C20297FD1BC089A731
:101110001AA609AD1AAD0F5F1F4FB801CE01C596D3
:101120000E947D07882379F32DA93EA989AD9AAD48
:10113000BE01675D7F4F820F931F0E94C1131AAFDC
:1011400009AFE1CFADA8BEA8A114B10439F009AD33
:101150001AAD65010115110509F0E0C0CE01019637
:101160000E94270709AD1AAD0115110509F00CC140
:101170001982CE01C5960E94A6060E943F050097DF
:10118000C1F3029709F036C16FE171E0CE01899693
:101190000E94A50765E0CE0189960E94BB06CE019C
:1011A00089960E94270723E030E050E040E0BE012E
:1011B0006F5F7F4FCE018F960E94E1078FA598A9A0
:1011C00060E0009711F00E94F610072D10E087E014
:1011D000D82ED09EF001D19EF00D1124E059FC4F85
:1011E000628367E271E0C7010E9468078111E4C071
:1011F0006CE271E0C7010E9468078111E9C061E3F8
:1012000071E0C7010E9468078111E5C027E030E066
:1012100043E050E0BE016F5F7F4FCE0189960E9490
:10122000E107BE01675D7F4FCE018F960E942F07B9
:10123000CE0189960E9427078FA598A9009709F4E7
:10124000B7C00E94F61087E0809FF001819FF00DEB
:101250001124E059FC4F7183608366E371E0C7019C
:101260000E946807811108C061E371E0C7010E9414
:101270006807882309F4BCC02AE030E047E050E06A
:10128000BE016F5F7F4FCE0189960E94E107BE01CC
:10129000675D7F4FCE018F960E942F07CE01899602
:1012A0000E9427078FA598A960E0009711F00E947F
:1012B000F61084E6861B97E0909FF001919FF00D59
:1012C0001124E059FC4F86838BE391E00E941907BB
:1012D0000E943F0582309105B9F3892BA9F3CE0115
:1012E0008F960E94270711E0CE01C5960E9427071E
:1012F000812FEA960FB6F894DEBF0FBECDBFDF9107
:10130000CF911F910F91FF90EF90DF90CF90BF9002
:10131000AF909F908F907F90089564014601FFEFFA
:101320008F1A9F0AF6018081082E000C990B0E94EB
:101330003211892B91F7015011090A0D1B1DF8017B
:101340008081082E000C990B0E943211892B31F0FC
:101350000C151D0518F001501109F1CFA8014F5FC0
:101360005F4F4C195D095AAF49AFAC14BD0420F46E
:10137000B601C5010E94AF13EDA9FEA989AD9AADD2
:10138000E80FF91F1082EACE0732110510F007E2CC
:1013900010E06DA97EA9A801CE0101960E94C81394
:1013A000E1E0F0E0EC0FFD1FE00FF11F1082E1CE55
:1013B00060E070E0CB0147CFC8010197D89EF001F3
:1013C000D99EF00D1124E059FC4F608171813BCF13
:1013D000C8010397F3CF61E371E0C7010E9468077A
:1013E00070E060E0882309F42ECFC8010297E6CFB1
:1013F00080E061CF6EE371E0CE0189960E94A5077F
:1014000065E0CE0189960E94BB06CE0189960E94B6
:10141000270710E069CF1F93CF93DF93EC01162FBE
:101420000E943E11181739F0612FCE01DF91CF9144
:101430001F910C944611DF91CF911F9108950C9448
:101440003E111F920F920FB60F9211242F933F93CC
:101450004F935F936F937F938F939F93AF93BF93BC
:10146000EF93FF9380EE93E00E948801FF91EF914C
:10147000BF91AF919F918F917F916F915F914F91AC
:101480003F912F910F900FBE0F901F9018951F92B4
:101490000F920FB60F9211242F938F939F93EF9378
:1014A000FF93E091F003F091F1038081E091F60366
:1014B000F091F70382FD1BC090818091F9038F5F4B
:1014C0008F732091FA03821741F0E091F903F0E065
:1014D000E052FC4F958F8093F903FF91EF919F911C
:1014E0008F912F910F900FBE0F901F9018958081B4
:1014F000F4CF1F920F920FB60F9211242F933F93A8
:101500008F939F93AF93BF938091A6019091A70172
:10151000A091A801B091A9013091A50123E0230F6A
:101520002D3758F50196A11DB11D2093A50180937B
:10153000A6019093A701A093A801B093A90180915F
:10154000AA019091AB01A091AC01B091AD010196BF
:10155000A11DB11D8093AA019093AB01A093AC0192
:10156000B093AD01BF91AF919F918F913F912F911A
:101570000F900FBE0F901F90189526E8230F02962C
:10158000A11DB11DD2CF1F920F920FB60F92112441
:101590002F933F934F935F936F937F938F939F937B
:1015A000AF93BF93EF93FF93E0910201F09103019A
:1015B0000995FF91EF91BF91AF919F918F917F918D
:1015C0006F915F914F913F912F910F900FBE0F90B0
:1015D0001F9018951F920F920FB60F9211242F9300
:1015E0003F934F935F936F937F938F939F93AF93AB
:1015F000BF93EF93FF93E0910001F09101010995F2
:10160000FF91EF91BF91AF919F918F917F916F91DA
:101610005F914F913F912F910F900FBE0F901F90B0
:101620001895E0EEF3E01382128288EE93E0A0E0DA
:10163000B0E084839583A683B7838EE091E09183A5
:10164000808385EC90E09587848784EC90E0978791
:10165000868780EC90E0918B808B81EC90E0938B7F
:10166000828B82EC90E0958B848B86EC90E0978B5C
:10167000868B118E128E138E148E87E890E09093D5
:101680007E0480937D040895CF93DF9300D000D033
:1016900000D0CDB7DEB7789484B5826084BD84B5C0
:1016A000816084BD85B5826085BD85B5816085BD5D
:1016B00080916E00816080936E0010928100809115
:1016C000810082608093810080918100816080939D
:1016D0008100809180008160809380008091B100C2
:1016E00084608093B1008091B00081608093B000ED
:1016F00080917A00846080937A0080917A00826081
:1017000080937A0080917A00816080937A00809142
:101710007A00806880937A001092C10087EA90E096
:101720009093B0018093AF0181E08093AE018091EE
:10173000B9019091BA01A091BB01B091BC01892B74
:101740008A2B8B2B91F510927602109277021092D1
:10175000B7011092B6011092B5011092B401109227
:10176000B3011092B2011092B1010E946302609322
:10177000B9017093BA018093BB019093BC0188E8D2
:1017800092E09093010180930001809169008C7F29
:10179000816080936900E89A8AEC90E090937E04DF
:1017A00080937D0482E08093B8010E94B6022B01F1
:1017B0003C01E091F003F091F10382E08083E0913D
:1017C000EC03F091ED031082E091EE03F091EF0352
:1017D00080E180831092F803E091F403F091F50327
:1017E0008EE38083E091F203F091F30380818061C6
:1017F0008083E091F203F091F3038081886080831D
:10180000E091F203F091F303808180688083E0919E
:10181000F203F091F30380818F7D8083A7E09A2EFD
:101820008824839485E491E00E94190780EE93E078
:101830000E946801181619060CF095C1FCE0CF2E25
:1018400085E491E00E9419070E943F058C0118165B
:101850001906B4F780EE93E00E946801892B81F7A6
:101860008091BD0190E027E0289FF001299FF00DB5
:101870001124E059FC4F14820E36110509F40AC1F7
:1018800008F04BC00736110509F49DC038F5053640
:10189000110509F47CC00636110591F60197989E52
:1018A000D001999EB00D1124A059BC4F1596CC9231
:1018B00085821091BD0167E271E0CE0101960E9420
:1018C000A507612FCE0101960E943108182FCE0185
:1018D00001960E942707112361F36FC00836110596
:1018E00009F49FC00936110509F0AACF84E0858369
:1018F0001091BD0161E371E0CE0101960E94A50740
:10190000612FCE0101960E943108182FCE01019659
:101910000E942707112361F350C0023D110509F40D
:101920001EC218F50F36110509F483C1083C1105D4
:1019300009F086CF66E671E0CE0101960E94A50708
:1019400062E0CE0101960E94BB06CE0101960E9484
:10195000270710E000E060E0C8010E940B0A0F5F5B
:101960001F4F01311105B9F76BCF043D110509F483
:10197000FCC108F4F7C1053D110509F061CF66E827
:1019800071E0CE0101960E94A50763E070C13BE0C3
:1019900035831091BD016BE471E0CE0101960E9488
:1019A000A507612FCE0101960E943108182FCE01A4
:1019B00001960E942707112361F38091BD018F5F7B
:1019C0008093BD013DCF9C0122503109929ED001F0
:1019D000939EB00D1124A059BC4F4DE015964C9329
:1019E0000197989ED001999EB00D1124A059BC4F2B
:1019F00015968C9283E085831091BD0166E371E0BA
:101A0000CE0101960E94A507612FCE0101960E948A
:101A10003108182FCE0101960E942707112361F388
:101A2000CCCF9C0123503109929ED001939EB00DE2
:101A30001124A059BC4F5EE015965C932F5F3F4F79
:101A4000929ED001939EB00D1124A059BC4F1596C3
:101A50008C920197989ED001999EB00D1124A059A7
:101A6000BC4F83E015968C9385821091BD016CE28A
:101A700071E0CE0101960E94A507612FCE0101966B
:101A80000E943108182FCE0101960E9427071123CA
:101A900061F393CFE0E7EE2EE3E0FE2E10E000E0EE
:101AA000F701608171816F3F710509F00CF4BAC0D4
:101AB0005B01FFEFAF1AB1082FEFA216B10409F0D6
:101AC0000CF4B4C06B013EEFC31A31E0D30AAA2470
:101AD000AA94B12C6FEF70E0312C4FEFC416D104F3
:101AE00061F058F0332433943C0CAA24AA94B12C0E
:101AF0006FEF70E0CC24CA94D12CC8010E940B0A6D
:101B0000F7016281C80141960E940B0A60E0C8019A
:101B100081960E940B0AF7016581C801C1960E9457
:101B20000B0AF7016681C8018F5B9F4F0E940B0A69
:101B30006A2DC8018F5A9F4F0E940B0A6C2DC80155
:101B40008F599F4F0E940B0A632DC8018F589F4FDA
:101B50000E940B0A0F5F1F4FF7E0EF0EF11C0031E0
:101B6000110509F09DCF0E94B60264197509860916
:101B70009709683873418105910508F453CE80EECA
:101B800093E00E94F701E091F203F091F30380816A
:101B90008F7E8083E091F203F091F3038081877F51
:101BA0008083E091F203F091F30380818F7780834B
:101BB000E091F203F091F30380818F7D8083809127
:101BC000FA038093F90300E713E0F12CE12C44E1E0
:101BD000D42EC7010E941F0AA82EC7018F5A9F4FFB
:101BE0000E941F0AA80EBB24BB1CC7018F599F4F20
:101BF0000E941F0AA80EB11CC7018F589F4F0E9458
:101C00001F0A8A0D9B2D911DF80191838083C701C6
:101C100041960E941F0A803111F008F0A9C0F80116
:101C20008283AEC0A12C312CC12C67CF6FEF70E046
:101C3000FACF60E571E0CE0101960E94A50762E04F
:101C4000CE0101960E94BB06CE0101960E94270795
:101C50000E943F058C010097D9F38F3F910581F4D5
:101C60006AE571E0CE0101960E94A50765E0CE010C
:101C700001960E94BB06CE0101960E942707E0CD87
:101C800001970E941F0AF82EC80140960E941F0A61
:101C9000A82EC80180960E941F0AB82EC801C096BF
:101CA0000E941F0AD82EC801805C9F4F0E941F0A05
:101CB000E82EC801805B9F4F0E941F0A282EC80192
:101CC000805A9F4F0E941F0A382EC80180599F4F8B
:101CD0000E941F0A70E060E0FF2049F02F2D220DC6
:101CE0003327331FB901630D711D680F711D072E56
:101CF000000C880B990B4AE00E94D50684E691E01F
:101D00000E9499066A2D70E090E080E04AE00E940F
:101D1000D50684E691E00E9499066B2D70E090E074
:101D200080E04AE00E94D50684E691E00E94990690
:101D30006D2D70E090E080E04AE00E94D50684E6D8
:101D400091E00E9499066E2D70E090E080E04AE0FC
:101D50000E94D5068CE191E00E94990679CF64E754
:101D600071E080CF69E771E07DCF6FE771E07ACFF6
:101D7000813109F454CF823109F051CFF801D28278
:101D8000C70181960E941F0AF8018483C701C1968A
:101D90000E941F0AF8018583C7018F5B9F4F0E9435
:101DA0001F0AF8018683828190E0FC01EC55FF4F09
:101DB000249180579F4FFC018491882399F090E0F3
:101DC000880F991FFC01EA57FF4FA591B491FC01C0
:101DD000E458FF4F859194918FB7F894EC912E2B96
:101DE0002C938FBFFFEFEF1AFF0A095F1F4F2FE001
:101DF000E216F10409F0EDCE07E082E0582E9BE0F8
:101E0000792E23E0622EE0917D04F0917E04099505
:101E100010916E02E12EF12C0E9DF0010F9DF00D40
:101E20001124E059FC4F6381A7014F5F5F4F5A01B6
:101E3000611101C185818C50833008F0FCC0848120
:101E4000823069F40E94B6027E9CF0017F9CF00D06
:101E50001124E254FE4F60837183828393830E9D2D
:101E6000C0010F9D900D1124FC01E059FC4F6F0142
:101E7000648261E0610F80E00E94C9050A9DF00163
:101E80000B9DF00D1124E059FC4F682F82810E94B8
:101E900017025701F4E0AF0EB11CF60185818D30B9
:101EA00008F467C097012E5F3F4F029FC001039F58
:101EB000900D11249C0120593C4F4901F901858165
:101EC000833009F056C062E0610F80E00E94C905CE
:101ED000682FF40182810E941702F60185818E30FD
:101EE00009F047C00A9DF0010B9DF00D1124E05947
:101EF000FC4F85818430E9F563E0610F81E00E9449
:101F0000C90597012D5F3F4F029FF001039FF00D20
:101F10001124E059FC4F682F82810E9417020A9D0C
:101F2000C0010B9D900D11249C0120593C4F69016B
:101F3000F9018381811127C08581843021F564E016
:101F4000610F80E00E94C905682FF60182810E941E
:101F50001702612F81E00E94C9050E9DF0010F9DBF
:101F6000F00D1124E059FC4F682F82810E94170266
:101F70003FC0612F81E00E94C9050E9DF0010F9DB9
:101F8000F00D1124C6CF0E94A5058130E1F50A9D10
:101F9000C0010B9D900D11249C0120593C4F6901FB
:101FA000F9019380F1E09F122EC0F9018581843000
:101FB00051F594818681981730F1612F80E00E945D
:101FC000C9050E9DF0010F9DF00D1124E059FC4F45
:101FD000682F82810E94170264E0610F81E00E94F5
:101FE000C905682FF60182810E941702F6019482CA
:101FF00080916E028F5F80936E02813108F403CF6F
:1020000010926E0200CF0A9DC0010B9D900D11240D
:102010009C0120593C4F7901F9018581843041F7B9
:1020200084818F5F848364E0610F80E00E94C90532
:10203000682FF7019ACF0E9DD0010F9DB00D11248E
:10204000A059BC4F15968C9115970A9DF0010B9DD8
:10205000F00D1124E059FC4F9381913009F0A9C093
:102060008C3008F4A6C08581813011F614968C91CD
:10207000833069F40E94B6027E9CF0017F9CF00DD3
:102080001124E254FE4F60837183828393830E9DFB
:10209000C0010F9D900D11249C0120593C4F6901F6
:1020A000F901548261E0610F81E00E94C9050A9D37
:1020B000F0010B9DF00D1124E059FC4F682F828137
:1020C0000E941702612F80E00E94C905682FF60167
:1020D00082810E941702F60185818E3069F5970191
:1020E0002C5F3F4F029FC001039F900D11249C0164
:1020F00020593C4F6901F90185818430E9F464E09D
:10210000610F80E00E94C905682FF60182810E945C
:10211000170263E0610F80E00E94C90597012D5FFF
:102120003F4F029FF001039FF00D1124E059FC4F37
:10213000682F82810E9417020E94A50597012E5FD9
:102140003F4F8130B1F4029FC001039F900D1124D5
:10215000AC0140595C4F6A01FA01F380F1E0FF12D3
:1021600008C0FA018581833021F494818681981713
:1021700098F4029FC001039F900D11249C012059E7
:102180003C4F7901F9018581833009F031CF848199
:102190008F5F848362E048CF62E0610F81E00E943C
:1021A000C905682FF60182810E941702F601F482A8
:1021B0001FCF8B3009F01CCF0E9DF0010F9DF00D4D
:1021C0001124E059FC4F82819481913021F46111F6
:1021D00002C061E0CBCE0E9417020E9DF0010F9D60
:1021E000F00D1124E059FC4F148202CF1F93FC0123
:1021F00099278827BC01E89411911032E9F319302E
:1022000010F01E30C8F31B3251F01D3249F46894AF
:1022100006C00E941D11610F711D811D911D11913C
:1022200010531A30B0F33EF49095809570956195F7
:102230007F4F8F4F9F4F1F910895592F482F372F52
:10224000262F660F771F881F991F660F771F881F1D
:10225000991F620F731F841F951F660F771F881FBA
:10226000991F089591110C943B11803219F08950F7
:102270008550C8F70895992788270895F999FECFC2
:1022800092BD81BDF89A992780B50895262FF999B6
:10229000FECF1FBA92BD81BD20BD0FB6F894FA9A49
:1022A000F99A0FBE019608950E949611A59F900D70
:1022B000B49F900DA49F800D911D112408952F921D
:1022C0003F924F925F926F927F928F929F92AF92C6
:1022D000BF92CF92DF92EF92FF920F931F93CF9313
:1022E000DF93CDB7DEB7CA1BDB0B0FB6F894DEBFAA
:1022F0000FBECDBF09942A88398848885F846E84D0
:102300007D848C849B84AA84B984C884DF80EE8019
:10231000FD800C811B81AA81B981CE0FD11D0FB622
:10232000F894DEBF0FBECDBFED010895A29FB001AE
:10233000B39FC001A39F700D811D1124911DB29FF9
:10234000700D811D1124911D0895A1E21A2EAA1B62
:10235000BB1BFD010DC0AA1FBB1FEE1FFF1FA21755
:10236000B307E407F50720F0A21BB30BE40BF50B52
:10237000661F771F881F991F1A9469F760957095DB
:10238000809590959B01AC01BD01CF010895EE0FA2
:10239000FF1F0590F491E02D09940F931F93CF93A5
:1023A000DF938230910510F482E090E0E0918104A7
:1023B000F091820430E020E0B0E0A0E0309799F4A2
:1023C0002115310509F44AC0281B390B2430310589
:1023D000D8F58A819B816115710589F1FB01938391
:1023E0008283FE0111C0408151810281138148170F
:1023F0005907E0F04817590799F4109761F01296C1
:102400000C93129713961C933296CF01DF91CF91C4
:102410001F910F9108950093810410938204F4CFCB
:102420002115310551F04217530738F0A901DB019E
:102430009A01BD01DF01F801C1CFEF01F9CF9093FF
:10244000820480938104CDCFFE01E20FF31F8193BC
:1024500091932250310939832883D7CF20917F046B
:1024600030918004232B41F4209106013091070123
:102470003093800420937F04209104013091050162
:102480002115310541F42DB73EB740910801509117
:102490000901241B350BE0917F04F0918004E217C1
:1024A000F307A0F42E1B3F0B2817390778F0AC0177
:1024B0004E5F5F4F2417350748F04E0F5F1F509354
:1024C000800440937F04819391939FCFF0E0E0E0FC
:1024D0009CCFCF93DF930097E9F0FC0132971382F2
:1024E0001282A0918104B0918204ED0130E020E0DD
:1024F0001097A1F420813181820F931F20917F04D6
:10250000309180042817390709F061C0F0938004E6
:10251000E0937F04DF91CF910895EA01CE17DF07A2
:10252000E8F54A815B819E0141155105B1F7E9014A
:10253000FB83EA8349915991C40FD51FEC17FD071E
:1025400061F4808191810296840F951FE90199833E
:102550008883828193819B838A83F0E0E0E01296F6
:102560008D919C9113970097B9F52D913C911197FE
:10257000CD010296820F931F20917F043091800439
:102580002817390739F6309751F5109282041092C6
:102590008104B0938004A0937F04BCCFD383C28313
:1025A00040815181840F951FC817D90761F44E5F90
:1025B0005F4F88819981480F591F518340838A81D9
:1025C0009B81938382832115310509F0B0CFF0936D
:1025D0008204E09381049ECFFD01DC01C0CF138211
:1025E0001282D7CFB0E0A0E0E8EFF2E10C946111E5
:1025F0008C01009751F4CB010E94CD118C01C801D0
:10260000CDB7DEB7E0E10C947D11FC01E60FF71FBA
:102610009C0122503109E217F30708F49DC0D9014B
:10262000CD91DC911197C617D70798F0C530D10529
:1026300030F3CE0104978617970708F3C61BD70B14
:102640002297C193D1936D937C93CF010E9469121D
:10265000D6CF5B01AC1ABD0A4C018C0E9D1EA09119
:102660008104B0918204512C412CF12CE12C109763
:1026700031F580917F04909180048815990509F0C7
:102680005CC04616570608F058C08091040190912E
:102690000501009741F48DB79EB740910801509114
:1026A0000901841B950BE817F90708F055C0F09352
:1026B0008004E0937F04F90171836083A0CF8D9142
:1026C0009C91119712966C90129713967C90139789
:1026D000A815B90559F56C0142E0C40ED11CCA1405
:1026E000DB0420F1AC014A195B09DA011296159757
:1026F00080F06282738251834083D9016D937C9311
:10270000E114F10471F0D7011396FC93EE93129744
:1027100076CF22968C0F9D1FF90191838083F30160
:10272000EFCFF0938204E093810469CF48165906F5
:1027300008F42C017D01D3019ACFCB010E94CD1169
:102740007C01009749F0AE01B8010E94AF13C801A7
:102750000E946912870153CF10E000E050CFFB01C7
:10276000DC0102C001900D9241505040D8F708950D
:10277000FB01DC018D91019080190110D9F3990BB7
:102780000895FB01DC0101900D920020E1F708950E
:10279000FB01DC014150504048F001900D920020B7
:1027A000C9F701C01D9241505040E0F70895F894D8
:0227B000FFCF59
:1027B2002603260300008304800000000000AA0113
:1027C2000A013701F701680146015A010D0A006941
:1027D2006E7374616C6C0070313032007031303461
:1027E20000703130350070313033004F4B0063617F
:1027F2006E63656C005354415254007031303100A5
:10280200726561645F6D6F646500726561645F65C6
:10281200786974003B00666C6173685F636C656124
:1028220072656400636F6E6E00322E362E30003099
:1028320035313132330061746D656761333238701E
:02284200000094
:00000001FF
