:100000000C9462000C948A000C948A000C948A0070
:100010000C948A000C948A000C948A000C948A0038
:100020000C948A000C948A000C94C6060C942D053E
:100030000C948A000C948A000C948A000C948A0018
:100040000C94E3040C948A000C94B1040C948B047B
:100050000C948A000C948A000C948A000C948A00F8
:100060000C948A000C948A000000000024002700F1
:100070002A0000000000250028002B0000000000DE
:1000800023002600290004040404040404040202DA
:100090000202020203030303030301020408102007
:1000A0004080010204081020010204081020000012
:1000B0000008000201000003040700000000000027
:1000C00000003E0D11241FBECFEFD8E0DEBFCDBF34
:1000D00023E0A4E8B1E001C01D92AD32B207E1F720
:1000E00011E0A0E0B1E0E0EBF0E202C005900D927B
:1000F000A438B107D9F710E0C2E6D0E004C02197D8
:10010000FE010E944F0EC136D107C9F70E94FC06BE
:100110000C9456100C9400000895AF92BF92CF92A9
:10012000DF92EF92FF920F931F93CF93DF936C01B7
:100130007B018B01040F151FEB015E01AE18BF0898
:10014000C017D10759F06991D601ED91FC9101904A
:10015000F081E02DC6010995892B79F7C501DF9162
:10016000CF911F910F91FF90EF90DF90CF90BF90B4
:10017000AF900895FC0144815581608171818CE8C4
:1001800092E00C948D00FC01538D448D252F30E0BE
:10019000842F90E0821B930B541710F0CF96089594
:1001A00001970895FC01918D828D981761F0A28DC1
:1001B000AE0FBF2FB11D5D968C91928D9F5F9F7387
:1001C000928F90E008958FEF9FEF0895FC01918D3D
:1001D000828D981731F0828DE80FF11D858D90E0AA
:1001E00008958FEF9FEF0895FC01918D228D892F47
:1001F00090E0805C9F4F821B91098F73992708952F
:100200008CE892E00E94F40021E0892B09F420E0C0
:10021000822F089580E090E0892B29F00E94000150
:1002200081110C9400000895FC01A48DA80FB92F32
:10023000B11DA35ABF4F2C91848D90E001968F730E
:100240009927848FA689B7892C93A089B1898C912D
:10025000837080648C93938D848D981306C002887C
:10026000F389E02D80818F7D80830895EF92FF9246
:100270000F931F93CF93DF93EC0181E0888F9B8DC9
:100280008C8D98131AC0E889F989808185FF15C083
:100290009FB7F894EE89FF896083E889F9898081A6
:1002A0008370806480839FBF81E090E0DF91CF9175
:1002B0001F910F91FF90EF900895F62E0B8D10E097
:1002C0000F5F1F4F0F731127E02E8C8D8E110CC006
:1002D0000FB607FCFACFE889F989808185FFF5CF51
:1002E000CE010E941401F1CFEB8DEC0FFD2FF11D1B
:1002F000E35AFF4FF0829FB7F8940B8FEA89FB898E
:1003000080818062CFCFCF93DF93EC01888D8823EB
:10031000B9F0AA89BB89E889F9898C9185FD03C068
:10032000808186FD0DC00FB607FCF7CF8C9185FF4D
:10033000F2CF808185FFEDCFCE010E941401E9CF7D
:10034000DF91CF910895CF93DF9390E0FC01E656C3
:10035000FF4F24918A579F4FFC0184918823D1F04D
:1003600090E0880F991FFC01E859FF4FA591B491C7
:10037000FC01EE58FF4FC591D49161110EC09FB79B
:10038000F8948C91E22FE0958E238C932881E223C0
:10039000E8839FBFDF91CF9108958FB7F894EC91D8
:1003A000E22BEC938FBFF6CF2FB7F89460918A01C0
:1003B00070918B0180918C0190918D012FBF0895D8
:1003C0000F931F930E94D40160939402709395023F
:1003D00080939602909397028CE892E00E94D2005C
:1003E00097FF1DC00E94D4010091940210919502C4
:1003F0002091960230919702601B710B820B930B38
:1004000000919002109191022091920230919302FA
:100410006017710782079307F8F28FEF9FEF1F9124
:100420000F9108950F931F930E94D401609394023B
:100430007093950280939602909397028CE892E0D5
:100440000E94E60097FF1DC00E94D4010091940213
:10045000109195022091960230919702601B710BCA
:10046000820B930B009190021091910220919202C5
:10047000309193026017710782079307F8F28FEFAC
:100480009FEF1F910F910895CF92DF92EF92FF920D
:10049000CF93D12CC12C8CE892E00E94F400181666
:1004A00019060CF050C00E941202FC0197FD47C0D3
:1004B0008D32910519F0C0970A97D0F5C12CD12C37
:1004C0007601C0E0E130F105D1F0ED32F105A9F19E
:1004D000CF01C0970A9798F4AAE0B0E0A70196016F
:1004E0000E94FE0D6F01FF0FEE08FF08C60ED71E1B
:1004F000E81EF91E80E3C81AD108E108F1088CE86B
:1005000092E00E94D2000E941202FC01C0970A975A
:10051000C8F2E130F105B1F2CC2309F4BCCFF0947C
:10052000E094D094C094C11CD11CE11CF11CB3CF49
:100530008CE892E00E94D200B6CFC1E0E0CFC12C9F
:10054000D12C7601A8CFC601CF91FF90EF90DF901C
:10055000CF900895FC0101900020E9F73197AF0199
:10056000481B590BBC018CE892E00C948D00CF9392
:10057000DF930E94BA00EC0188E191E00E94AA0298
:100580008C0F9D1FDF91CF910895EF92FF920F93F3
:100590001F93CF93DF937C01D0E0C0E0062F10E0E3
:1005A000C017D1072CF4C7010E94B7022196F8CFDB
:1005B000DF91CF911F910F91FF90EF900895CF930E
:1005C000DF930E94AA02EC0188E191E00E94AA0256
:1005D0008C0F9D1FDF91CF9108950F931F93CF93A1
:1005E000DF938C01EB01FC01808191810097E1F0A8
:1005F0006881798161157105A9F0428153812C814F
:100600003D814217530770F00E9440108C819D81FC
:10061000F801958384831D821C82DF91CF911F9105
:100620000F9108950E94F10E88819981F8019183BC
:1006300080838A819B81938382838C819D81958332
:100640008483198218821B821A82E5CFFC01808183
:100650009181009711F00C94F10E08951F93CF93A0
:10066000DF93EC01162F0E94E80D181739F0612F67
:10067000CE01DF91CF911F910C94F00DDF91CF91BE
:100680001F9108950C94E80D0F931F93CF93DF9360
:100690000CE212E0C1E0D0E0CE010E944203F8017A
:1006A0008383CE0141960E944203F8018183CE01EB
:1006B00081960E944203F801828321960A5F1F4FB0
:1006C000C131D10549F7DF91CF911F910F91089565
:1006D000FC0180819181009711F00C946B0D60E01A
:1006E00070E0CB0108950F931F93CF93DF93EC013C
:1006F00088819981009759F02A813B812617370715
:1007000030F081E0DF91CF911F910F9108958B011F
:100710006F5F7F4F0E947A0F009759F0998388830B
:100720001B830A832C813D81232B59F7FC01108206
:10073000E8CF80E0E7CFEF92FF920F931F93CF9324
:10074000DF93EC017B01198218821B821A821D82C1
:100750001C82FB0101900020E9F731978F01061BF5
:10076000170BB8010E94730328813981811113C0CE
:100770002115310519F0C9010E94F10E1982188264
:100780001D821C821B821A82DF91CF911F910F91D3
:10079000FF90EF9008951D830C83B701C901DF918D
:1007A000CF911F910F91FF90EF900C944010CF9339
:1007B000DF93EC0170E060E00E94730328813981CF
:1007C00081110FC02115310519F0C9010E94F10EE8
:1007D000198218821D821C821B821A82DF91CF919E
:1007E00008951D821C826AE171E0C901DF91CF91F9
:1007F0000C944010EF92FF920F931F93CF93DF93CF
:1008000041155105B1F07B01EC010C811D81040FF4
:10081000151FB8010E947303882361F02881398174
:100820008C819D81B701820F931F0E9440101D8310
:100830000C8381E0DF91CF911F910F91FF90EF909A
:10084000089541E050E06BE171E00C94FA03EF92FF
:10085000FF920F931F93CF93DF9300D000D0CDB7BB
:10086000DEB77C01862F4AE08E010F5F1F4FB80173
:1008700090E00E94920DF80101900020E9F7319775
:10088000AF01401B510BB801C7010E94FA030F9042
:100890000F900F900F90DF91CF911F910F91FF90CC
:1008A000EF900895AF92BF92CF92DF92EF92FF92B6
:1008B0000F931F93CF93DF9300D0CDB7DEB77C01AA
:1008C0006B018A0159016AE171E00E949B030C0DE2
:1008D0001D1DC8018C199D098A159B0574F4F8012A
:1008E00081918F0189831A8241E050E0BE016F5FE0
:1008F0007F4FC7010E94FA03ECCFC7010F900F9002
:10090000DF91CF911F910F91FF90EF90DF90CF90EB
:10091000BF90AF9008951F920F920FB60F921124BF
:100920002F933F934F935F936F937F938F939F93F7
:10093000AF93BF93EF93FF938CE892E00E94140172
:10094000FF91EF91BF91AF919F918F917F916F91A7
:100950005F914F913F912F910F900FBE0F901F907D
:1009600018951F920F920FB60F9211242F938F9309
:100970009F93EF93FF93E0919C02F0919D02808101
:10098000E091A202F091A30282FD1BC090818091B0
:10099000A5028F5F8F732091A602821741F0E0912C
:1009A000A502F0E0E457FD4F958F8093A502FF91DB
:1009B000EF919F918F912F910F900FBE0F901F90ED
:1009C00018958081F4CF1F920F920FB60F921124C9
:1009D0002F933F938F939F93AF93BF9380918A01FF
:1009E00090918B01A0918C01B0918D013091890182
:1009F00023E0230F2D3758F50196A11DB11D20933B
:100A0000890180938A0190938B01A0938C01B0930C
:100A10008D018091850190918601A0918701B0910F
:100A200088010196A11DB11D8093850190938601D7
:100A3000A0938701B0938801BF91AF919F918F914F
:100A40003F912F910F900FBE0F901F90189526E8A1
:100A5000230F0296A11DB11DD2CF1F920F920FB688
:100A60000F9211242F933F934F935F936F937F9334
:100A70008F939F93AF93BF93CF93DF93EF93FF93A6
:100A8000B19A809194019091950180549C4F9093DC
:100A90009501809394018091940190919501909398
:100AA00089008093880080918401882371F01092DE
:100AB0008401189B25C081E080939A01B59A8091AA
:100AC0006F00806280936F001BC0809199018F5FDF
:100AD0008093990180919A018430F1F58091990178
:100AE000893008F58091900190E0959587958093E5
:100AF0009001189B05C080919001806880939001BF
:100B0000FF91EF91DF91CF91BF91AF919F918F9125
:100B10007F916F915F914F913F912F910F900FBEF9
:100B20000F901F901895B59A80916F008062809306
:100B30006F0080918E0190918F0118992AC0FC015D
:100B4000E957FF4F808191810196918380831092B4
:100B5000990181E080939A0180919A01833009F094
:100B600048C0E0919701F091980180812091960111
:100B700033B190E0022E02C0959587950A94E2F772
:100B8000832780FD1CC01092990182E080939A0116
:100B900030C040919001FC01E058FF4F208131E0CE
:100BA000320F3083820F911DDC014C9337FD108290
:100BB00080E090E0892B59F20E940000C8CF80911C
:100BC0009901893008F043C03091900181E090E0B4
:100BD00001C0880F2A95EAF7908130FF36C08095D2
:100BE000892380838091900190E0959587958093EB
:100BF000900180919A01823099F48091990181113C
:100C00009FC0E0919701F0919801808190919601A9
:100C100021E030E001C0220F9A95EAF7822B808311
:100C200080919A01813009F06BCF809199018823DE
:100C300009F444CF80919901883308F461CF109270
:100C40009A0180916F008D7F3DCF892BCACF809113
:100C50009901893059F4308181E090E001C0880F1A
:100C60002A95EAF7809583238083C3CF80919B01E7
:100C70008F5F80939B0190919C01891750F5109292
:100C800099018091920190919301A0919B01A80FED
:100C9000B92FB11D8C9180939001808141E050E08B
:100CA00001C0440F2A95EAF7842B80838091840049
:100CB000909185008A5A9C4F90939501809394015E
:100CC0008091940190919501909389008093880080
:100CD00090CF81E080939101E0919201F091930196
:100CE00040918E0150918F01808180768036C9F4C9
:100CF000818130E020E0EA01C058DF4F2817B0F4CE
:100D0000DF01A20FB31F6C91A88191E09A0F988325
:100D1000A40FB52FB11D6C9397FD18822F5F3F4F25
:100D2000EDCF8081829586708E5FE3CF80E090E08A
:100D3000892B11F00E9400001092990181E026CFCA
:100D4000809199018F3008F46BCFE0919701F09179
:100D5000980120813091960181E090E001C0880FD8
:100D60003A95EAF78095822380831092990181E079
:100D700080939A01E0918E01F0918F01E357FF4F2C
:100D8000808191810196918380834ACF1F920F9237
:100D90000FB60F9211248F939F93EF93FF93B59A01
:100DA000EFE6F0E080818F7D8083809186009091D6
:100DB000870080529E4F909395018093940180917B
:100DC0009401909195019093890080938800B19A45
:100DD00080818260808384E080939A0110929901DF
:100DE00081E080938401FF91EF919F918F910F900B
:100DF0000FBE0F901F901895CF93DF93CDB7DEB73E
:100E0000A4970FB6F894DEBF0FBECDBF789484B51B
:100E1000826084BD84B5816084BD85B5826085BDF6
:100E200085B5816085BD80916E00816080936E0084
:100E30001092810080918100826080938100809176
:100E40008100816080938100809180008160809327
:100E500080008091B10084608093B1008091B000E7
:100E600081608093B00080917A00846080937A00E2
:100E700080917A00826080937A0080917A0081600C
:100E800080937A0080917A00806880937A00109233
:100E9000C10090E080E00E944203182F60E082E0F1
:100EA0000E94A30152E0F52EF0922C0260E083E054
:100EB0000E94A30183E08093320260E084E00E94FC
:100EC000A30184E08093380260E085E00E94A301E2
:100ED00085E080933E0260E086E00E94A30186E008
:100EE0008093440260E089E00E94A30189E080933E
:100EF0004A0260E08AE00E94A3018AE080935002E7
:100F000060E08BE00E94A3018BE08093560260E0DA
:100F10008CE00E94A3018CE080935C0260E08EE094
:100F20000E94A3018EE08093620260E08FE00E9445
:100F3000A3018FE08093680260E080E10E94A3013A
:100F400000E100936E0260E081E10E94A30181E173
:100F50008093740260E082E10E94A30182E18093A9
:100F60007A0260E083E10E94A30183E18093800222
:100F700060E084E10E94A30184E1809386020E94E4
:100F8000D4012B013C01E0919C02F0919D02F08282
:100F9000E0919802F09199021082E0919A02F0910A
:100FA0009B0200831092A402E091A002F091A102A2
:100FB0008EE38083E0919E02F0919F0280818061A8
:100FC0008083E0919E02F0919F02808188608083FF
:100FD000E0919E02F0919F02808180688083E09181
:100FE0009E02F0919F0280818F7D80830E94440346
:100FF0008DE191E00E94DF028CE892E00E94F40013
:10100000181619060CF0FEC18DE191E00E94DF0276
:101010000E9444028C0118161906B4F78CE892E07D
:101020000E94F400892B81F7083C110509F446C39E
:1010300000F50E36110509F4B8C10F36110509F493
:101040003AC20536110501F72DB73EB73CA32BA3D5
:1010500063E271E0CE0101960E949B038CE892E06E
:101060000E94F400892BF9F4CE0101960E94B70288
:10107000F5CF033D110509F443C358F466E671E06A
:10108000023D110509F6CE0101960E949B0362E024
:101090002FC2043D110509F436C368E771E0053D30
:1010A000110589F3B1CF6AE171E0CE014D960E943E
:1010B0009B030E94E00197FD0CC0898B1A8A41E0D6
:1010C00050E0BE016F5E7F4FCE014D960E94FA0345
:1010D000F0CFCD8CDE8CC114D10439F009A11AA156
:1010E00076010115110509F071C0CE0101960E942B
:1010F000260309A11AA1C80101962DB73EB7281BE6
:10110000390B0FB6F8943EBF0FBE2DBFADB7BEB7BB
:1011100011967D01892B29F00115110509F08CC06C
:101120001C92CE014D960E94B7020E944402009785
:10113000C1F3029709F02BC168E271E0CE0101967C
:101140000E949B0365E0CE0101960E94C502CE017C
:1011500001960E94260323E030E050E040E0B70112
:10116000CE0147960E945204CE0147960E94680322
:101170002CE0269F1001279F300C112443E0C42E41
:10118000D12C2C143D040CF4E8C04601B3E08B0EC6
:10119000911C9401A601B701CE0141960E94520410
:1011A000CE0141960E946803FB013E97E730F105AE
:1011B00008F0C1C0E252F74F0C944F0E2709A8095E
:1011C0008C098F09920995099809750157013FEF1C
:1011D000A31AB30AD7018C91082E000C990B0E9418
:1011E000CC0D892B91F7015011090C0D1D1DF80133
:1011F0008081082E000C990B0E94CC0D892B31F0B8
:101200000E151F0518F001501109F1CF0F5F1F4F88
:10121000A8014E195F095AA349A3CE14DF0420F494
:10122000B701C6010E943710ED8DFE8D89A19AA1EC
:10123000E80FF91F108259CF6D8D7E8DA801CD0169
:101240000E944710F701E00FF11F10826ACF09E0FA
:1012500010E05601E6E0AE0EB11C9501A401B70105
:10126000CE0101960E945204BE016F5F7F4FCE01F6
:1012700041960E94ED02CE0101960E942603CE0106
:1012800041960E946803F6E0F09FC001F19F900D27
:1012900011249C01245D3D4F4901D90113966C93A3
:1012A0008601075F1F4F9801A501B701CE01019686
:1012B0000E945204BE016F5F7F4FCE0141960E9493
:1012C000ED02CE0101960E942603CE0141960E94B6
:1012D0006803F4016183FCE0CF0ED11C9601A801E4
:1012E000B701CE0101960E945204BE016F5F7F4F8D
:1012F000CE0141960E94ED02CE0101960E94260386
:10130000CE0141960E946803D40112966C93CE01DF
:1013100041960E94260335CF0BE010E09ACF0CE0F7
:1013200010E097CF0DE010E094CF0EE010E091CFE9
:101330000FE010E08ECF8B01025011099B01295064
:1013400031092430310508F08B010250110981CF99
:101350000AE010E07ECF892B51F480E391E00E94F7
:10136000DF020E94440282309105A9F7F6CFCE0138
:1013700047960E942603CE014D960E942603EBA1BC
:10138000FCA10FB6F894FEBF0FBEEDBF3DCE63E3E8
:1013900071E0CE0101960E949B0365E0CE010196AB
:1013A0000E94C502CE010196E4CF3CE2E32E32E07A
:1013B000F32E01E010E064E690E080E00E942E034E
:1013C000D70113966C91C8010E942E03F701618129
:1013D000C80141960E942E03D70112966C91C80154
:1013E00081960E942E030F5F1F4FB6E0EB0EF11C9B
:1013F0000131110501F790E080E00E944203182FAF
:101400000E9444030E94D401641975098609970952
:10141000683873418105910508F4EACD143609F066
:10142000E7CD8CE892E00E948301E0919E02F0916A
:101430009F0280818F7E8083E0919E02F0919F02C7
:101440008081877F8083E0919E02F0919F0280815E
:101450008F778083E0919E02F0919F0280818F7D43
:1014600080838091A6028093A502EDE9F1E08FE8E8
:10147000DF011D928A95E9F761E087E00E94A301F0
:10148000E1EAF0E02491EDE8F0E0E491F0E0EE0F25
:10149000FF1FEE58FF4F4591549180E091E031E0FD
:1014A000291709F433C18F5F932F082E01C0990FBC
:1014B0000A94EAF7F5CF6AE371E0CE0101960E9443
:1014C0009B0362E0CE0101960E94C502CE01019607
:1014D0000E9426030E9444020097E1F38F3F91058A
:1014E00081F464E471E0CE0101960E949B0365E003
:1014F000CE0101960E94C502CE0101960E942603EC
:1015000083CD0E9444030CE212E07801C12CF70164
:1015100083818111C394F6E0EF0EF11C2CE832E0D8
:101520002E153F05A1F7CC2009F4C3C06BE171E093
:10153000CE0141960E949B0339E03C1520F0CE017C
:1015400041960E9421046C2DCE0141960E942704F1
:10155000CE0141960E94B7020E944402892BE1F31A
:10156000D80113968C911397882309F48DC06C9140
:1015700087EF860F843008F090C062502EEFD22E95
:10158000D60E6BE171E0CE0101960E949B03B9E09B
:10159000BD1520F0CE0101960E9421046D2DCE01D3
:1015A00001960E942704CE0101960E94BA008EE4A3
:1015B00091E00E94AA02CE0101960E94D703F80191
:1015C000D380F3E6FD1558F0CE0101960E94210468
:1015D00029E02D1520F0CE0101960E9421046D2DE9
:1015E000CE0101960E942704CE0101960E94BA0006
:1015F0008EE491E00E94AA02CE0101960E94D703D8
:10160000D8011196DC90B3E6BD1558F0CE010196D5
:101610000E942104E9E0ED1520F0CE0101960E9420
:1016200021046D2DCE0101960E942704CE01019662
:101630000E94BA008EE491E00E94AA02CE010196B7
:101640000E94D703D8011296DC90B3E6BD1558F07E
:10165000CE0101960E942104E9E0ED1520F0CE01B3
:1016600001960E9421046D2DCE0101960E9427044F
:10167000CE0101960E94BA00F1E0FC1598F4CA94DC
:10168000CE0101960E9426030A5F1F4FE016F10665
:1016900009F066CFCE0141961BCF6C3008F46ECFB7
:1016A00063506CCF8AE191E00E94DF02CC24C394A6
:1016B000E7CF80E591E00E94AA020CCF68E571E0D7
:1016C000CE0101960E949B0362E0CE0101960E942A
:1016D000C502CE0101960E94260310E000E0C80179
:1016E0000E94E80D882321F060E0C8010E94F00DFF
:1016F0000E9444030F5F1F4F0231110581F784CC14
:101700006BE671E0C0CC61E771E0BDCC509398010D
:1017100040939701809396018DE991E090938F011A
:1017200080938E012098E0919701F091980120819B
:101730003091960181E090E001C0880F3A95EAF778
:101740008095822380831092800081E080938100C5
:1017500010929A01B59A80916F00806280936F0019
:1017600080918100887F81608093810020E036E055
:1017700088248394912C16E4C12EFF24F39402EB69
:10178000E02EBE016F5F7F4F83E0D82E422F50E0E6
:10179000349FF001359FF00D1124E45DFD4F8081F1
:1017A00090E0FC01E255FF4F0491FC01E656FF4F2B
:1017B0001491FC01EA57FF4FE491EE23C9F0002396
:1017C00059F0033009F496C008F089C0013009F4DB
:1017D00097C0023009F498C0F0E0EE0FFF1FE45804
:1017E000FF4F85919491FC018081182381E009F4D9
:1017F00080E08170349FF001359FF00D1124E45D8D
:10180000FD4F90819431A1F4C0927C0080917A00C8
:10181000806480937A0080917A0086FDFCCFE0910D
:101820007800F091790081E0E63BF3400CF480E031
:10183000349FF001359FF00D1124E45DFD4FA4802D
:10184000B12C8A151B0409F07EC09581882309F408
:1018500068C08281981708F469C0F4821582349FA9
:10186000F001359FF00D1124E45DFD4F948143811B
:101870004150550B852F8F70FA01F695E795EF775C
:1018800040FD64C08064911101C08061E982EA83F7
:101890008B8349E19EE251E089818076803609F0B0
:1018A00057C08A8180939C01E0919C01E150109285
:1018B0009B018FEFF0919B01FE1708F04EC0A090A6
:1018C0009B01A60EB72EB11CD501FC918F27F0917C
:1018D0009B01FF5FF0939B01EDCF20E057CF0730D6
:1018E000B1F00830D1F0043009F076CF809180005B
:1018F0008F7D03C0809180008F77809380006CCFB4
:1019000084B58F7784BD68CF84B58F7DFBCF809100
:10191000B0008F778093B0005FCF8091B0008F7D53
:10192000F9CF8181981710F0148298CF349FF0017D
:10193000359FF00D1124E45DFD4F9F5F95832F309F
:1019400061F22F5F23CF15828483F9CF80669BCF0E
:101950008981829586708E5FA5CFE60FF72FF11DE6
:101960008083F89480919A01813059F48091990193
:10197000891738F010929A0180916F008D7F8093C3
:101980006F00789480919A01813039F480919901A7
:10199000843108F481CF50E07FCF80919A0181118A
:1019A0000EC0F89480916F008F7D80936F00B59B7F
:1019B00009C080916F00806280936F00789451110C
:1019C0006BCF4CC0E0919701F091980180815091CC
:1019D0009601540101C0AA0C5A95EAF78A2980831E
:1019E000E0918400F0918500EA5AFC4FF093950154
:1019F000E0939401E0919401F0919501F0938900B6
:101A0000E093880078947093930160939201109210
:101A10009B0110929101898180939001D0929A014B
:101A200010929901B19A80916F00826080936F004B
:101A300080919A018330E1F380919101882361F0D4
:101A4000E0918E01F0918F01E757FF4F80819181E6
:101A500001969183808373CF80919A019B3108F026
:101A60009150415009F017CF80912802909129029E
:101A70000196909329028093280261CFECE8F2E06E
:101A80001382128288EE93E0A0E0B0E08483958315
:101A9000A683B7838AE091E09183808385EC90E010
:101AA0009587848784EC90E09787868780EC90E028
:101AB000918B808B81EC90E0938B828B82EC90E019
:101AC000958B848B86EC90E0978B868B118E128E93
:101AD000138E148E08951F93FC0199278827BC014B
:101AE000E89411911032E9F3193010F01E30C8F368
:101AF0001B3251F01D3249F4689406C00E949D0DBE
:101B0000610F711D811D911D119110531A30B0F399
:101B10003EF490958095709561957F4F8F4F9F4FC4
:101B20001F910895BB274A3031F4992322F4BDE276
:101B3000909581959F4F0C94B30D592F482F372FB7
:101B4000262F660F771F881F991F660F771F881F24
:101B5000991F620F731F841F951F660F771F881FC1
:101B6000991F0895BB27FB015527AA27880F991FA6
:101B7000AA1FA41710F0A41B83955051B9F7A05DBC
:101B8000AA3308F0A95DA193009779F7B111B19339
:101B90001192CB010C94D50D91110C94E50D80326E
:101BA00019F089508550C8F70895DC01FC01672FB2
:101BB00071917723E1F7329704C07C916D93708324
:101BC0006291AE17BF07C8F3089599278827089533
:101BD000F999FECF92BD81BDF89A992780B50895F5
:101BE000262FF999FECF1FBA92BD81BD20BD0FB639
:101BF000F894FA9AF99A0FBE019608950E94400E41
:101C0000A59F900DB49F900DA49F800D911D112450
:101C100008952F923F924F925F926F927F928F9290
:101C20009F92AF92BF92CF92DF92EF92FF920F936B
:101C30001F93CF93DF93CDB7DEB7CA1BDB0B0FB675
:101C4000F894DEBF0FBECDBF09942A883988488832
:101C50005F846E847D848C849B84AA84B984C884C8
:101C6000DF80EE80FD800C811B81AA81B981CE0FBF
:101C7000D11D0FB6F894DEBF0FBECDBFED010895A4
:101C8000A29FB001B39FC001A39F700D811D1124BD
:101C9000911DB29F700D811D1124911D0895EE0FAD
:101CA000FF1F0590F491E02D09940F931F93CF939C
:101CB000DF938230910510F482E090E0E0912B03F5
:101CC000F0912C0330E020E0B0E0A0E0309799F4F0
:101CD0002115310509F44AC0281B390B2430310580
:101CE000D8F58A819B816115710589F1FB01938388
:101CF0008283FE0111C04081518102811381481706
:101D00005907E0F04817590799F4109761F01296B7
:101D10000C93129713961C933296CF01DF91CF91BB
:101D20001F910F91089500932B0310932C03F4CF70
:101D30002115310551F04217530738F0A901DB0195
:101D40009A01BD01DF01F801C1CFEF01F9CF9093F6
:101D50002C0380932B03CDCFFE01E20FF31F819361
:101D600091932250310939832883D7CF20912903B9
:101D700030912A03232B41F4209102013091030179
:101D800030932A032093290320910001309101010F
:101D90002115310541F42DB73EB740910401509112
:101DA0000501241B350BE0912903F0912A03E2176A
:101DB000F307A0F42E1B3F0B2817390778F0AC016E
:101DC0004E5F5F4F2417350748F04E0F5F1F50934B
:101DD0002A0340932903819391939FCFF0E0E0E0A1
:101DE0009CCFCF93DF930097E9F0FC0132971382E9
:101DF0001282A0912B03B0912C03ED0130E020E082
:101E00001097A1F420813181820F931F2091290323
:101E100030912A032817390709F061C0F0932A038B
:101E2000E0932903DF91CF910895EA01CE17DF07F0
:101E3000E8F54A815B819E0141155105B1F7E90141
:101E4000FB83EA8349915991C40FD51FEC17FD0715
:101E500061F4808191810296840F951FE901998335
:101E60008883828193819B838A83F0E0E0E01296ED
:101E70008D919C9113970097B9F52D913C911197F5
:101E8000CD010296820F931F2091290330912A03DE
:101E90002817390739F6309751F510922C03109214
:101EA0002B03B0932A03A0932903BCCFD383C2830F
:101EB00040815181840F951FC817D90761F44E5F87
:101EC0005F4F88819981480F591F518340838A81D0
:101ED0009B81938382832115310509F0B0CFF09364
:101EE0002C03E0932B039ECFFD01DC01C0CF1382B6
:101EF0001282D7CFB0E0A0E0E0E8FFE00C940B0E38
:101F00008C01009751F4CB010E94550E8C01C80141
:101F1000CDB7DEB7E0E10C94270EFC01E60FF71F0A
:101F20009C0122503109E217F30708F49DC0D90142
:101F3000CD91DC911197C617D70798F0C530D10520
:101F400030F3CE0104978617970708F3C61BD70B0B
:101F50002297C193D1936D937C93CF010E94F10E90
:101F6000D6CF5B01AC1ABD0A4C018C0E9D1EA09110
:101F70002B03B0912C03512C412CF12CE12C109708
:101F800031F58091290390912A038815990509F06C
:101F90005CC04616570608F058C080910001909129
:101FA0000101009741F48DB79EB740910401509113
:101FB0000501841B950BE817F90708F055C0F0934D
:101FC0002A03E0932903F90171836083A0CF8D91E7
:101FD0009C91119712966C90129713967C90139780
:101FE000A815B90559F56C0142E0C40ED11CCA14FC
:101FF000DB0420F1AC014A195B09DA01129615974E
:1020000080F06282738251834083D9016D937C9307
:10201000E114F10471F0D7011396FC93EE9312973B
:1020200076CF22968C0F9D1FF90191838083F30157
:10203000EFCFF0932C03E0932B0369CF481659069A
:1020400008F42C017D01D3019ACFCB010E94550EDB
:102050007C01009749F0AE01B8010E943710C80119
:102060000E94F10E870153CF10E000E050CFFB013A
:10207000DC0102C001900D9241505040D8F7089504
:10208000FB01DC0101900D920020E1F70895FB01B6
:10209000DC014150504048F001900D920020C9F7FA
:1020A00001C01D9241505040E0F70895F894FFCFD1
:1020B00000002D0380000000000036018D00C300E9
:1020C0008301F400D200E6000D0A003000535441B1
:1020D0005254007031303100696E7374616C6C0061
:1020E0004F4B0063616E63656C00726561645F6D88
:1020F0006F646500726561645F65786974003B00B8
:102100004E4F5F4441544100666C6173685F636C7D
:10211000656172656400636F6E6E00312E302E3122
:10212000003136303432340061746D6567613332AA
:042130003870000003
:00000001FF
