:100000000C945D000C9485000C9485000C94850084
:100010000C9485000C9485000C9485000C9485004C
:100020000C9485000C9485000C9485000C9485003C
:100030000C9485000C9485000C9485000C9485002C
:100040000C942F070C9485000C94FD060C94D70695
:100050000C9485000C9485000C9485000C9485000C
:100060000C9485000C94850000000008000201003B
:100070000003040700000000000000000000000072
:10008000250028002B0000000000240027002A0083
:10009000040404040404040402020202020203032E
:1000A0000303030301020408102040800102040836
:1000B0001020010204081020100C11241FBECFEFE5
:1000C000D8E0DEBFCDBF11E0A0E0B1E0E4E1F0E2B6
:1000D00002C005900D92A238B107D9F723E0A2E83B
:1000E000B1E001C01D92A639B207E1F710E0CDE5FD
:1000F000D0E004C02197FE010E94010ECC35D1074B
:10010000C9F70E9479070C9408100C94000090E045
:10011000FC01EC55FF4F249180579F4FFC018491C7
:10012000882399F090E0880F991FFC01EA57FF4F50
:10013000A591B491FC01E458FF4F859194918FB73C
:10014000F894EC91E22BEC938FBF08950895AF9251
:10015000BF92CF92DF92EF92FF920F931F93CF93B4
:10016000DF936C017B018B01040F151FEB015E0116
:10017000AE18BF08C017D10759F06991D601ED91AB
:10018000FC910190F081E02DC6010995892B79F74A
:10019000C501DF91CF911F910F91FF90EF90DF90FC
:1001A000CF90BF90AF900895FC01538D448D252FC3
:1001B00030E0842F90E0821B930B541710F0CF9601
:1001C000089501970895FC01918D828D981761F033
:1001D000A28DAE0FBF2FB11D5D968C91928D9F5F4A
:1001E0009F73928F90E008958FEF9FEF0895FC0129
:1001F000918D828D981731F0828DE80FF11D858DDC
:1002000090E008958FEF9FEF0895FC01918D228D6E
:10021000892F90E0805C9F4F821B91098F739927F3
:10022000089585EF92E00E94050121E0892B09F4F1
:1002300020E0822F089580E090E0892B29F00E9431
:10024000110181110C9400000895FC01A48DA80FE8
:10025000B92FB11DA35ABF4F2C91848D90E0019608
:100260008F739927848FA689B7892C93A089B18928
:100270008C91837080648C93938D848D981306C0C9
:100280000288F389E02D80818F7D80830895EF922D
:10029000FF920F931F93CF93DF93EC0181E0888F40
:1002A0009B8D8C8D98131AC0E889F989808185FF10
:1002B00015C09FB7F894EE89FF896083E889F989B2
:1002C00080818370806480839FBF81E090E0DF91B4
:1002D000CF911F910F91FF90EF900895F62E0B8D07
:1002E00010E00F5F1F4F0F731127E02E8C8D8E11C2
:1002F0000CC00FB607FCFACFE889F989808185FF29
:10030000F5CFCE010E942501F1CFEB8DEC0FFD2F33
:10031000F11DE35AFF4FF0829FB7F8940B8FEA89E3
:10032000FB8980818062CFCFCF93DF93EC01888DF2
:100330008823B9F0AA89BB89E889F9898C9185FD60
:1003400003C0808186FD0DC00FB607FCF7CF8C91EE
:1003500085FFF2CF808185FFEDCFCE010E94250180
:10036000E9CFDF91CF91089590E0FC01E859FF4F6C
:100370002491FC01EC55FF4F3491FC01E057FF4FF5
:10038000E491EE23C9F0222339F0233001F1A8F4DF
:10039000213019F1223029F1F0E0EE0FFF1FE4586F
:1003A000FF4FA591B4918FB7F894EC91611126C0DD
:1003B00030953E233C938FBF08952730A9F0283015
:1003C000C9F0243049F7809180008F7D03C080916F
:1003D00080008F7780938000DFCF84B58F7784BDD6
:1003E000DBCF84B58F7DFBCF8091B0008F7780937A
:1003F000B000D2CF8091B0008F7DF9CF3E2BDACF05
:100400002FB7F894609187017091880180918901DC
:1004100090918A012FBF08950F931F930E940002AD
:100420006093FD027093FE028093FF02909300039D
:1004300085EF92E00E94F70097FF1DC00E94000226
:100440000091FD021091FE022091FF023091000305
:10045000601B710B820B930B0091F9021091FA0251
:100460002091FB023091FC0260177107820793070D
:10047000F8F28FEF9FEF1F910F9108950F931F9345
:100480000E9400026093FD027093FE028093FF02BF
:100490009093000385EF92E00E94E30097FF1DC058
:1004A0000E9400020091FD021091FE022091FF02C5
:1004B00030910003601B710B820B930B0091F902CA
:1004C0001091FA022091FB023091FC026017710733
:1004D00082079307F8F28FEF9FEF1F910F91089516
:1004E000CF92DF92EF92FF92CF93D12CC12C85EF68
:1004F00092E00E940501181619060CF050C00E94E7
:100500000C02FC0197FD47C08D32910519F0C09790
:100510000A97D0F5C12CD12C7601C0E0E130F1056D
:10052000D1F0ED32F105A9F1CF01C0970A9798F407
:10053000AAE0B0E0A70196010E945E0D6F01FF0FD7
:10054000EE08FF08C60ED71EE81EF91E80E3C81A83
:10055000D108E108F10885EF92E00E94E3000E94D3
:100560000C02FC01C0970A97C8F2E130F105B1F224
:10057000CC2309F4BCCFF094E094D094C094C11C77
:10058000D11CE11CF11CB3CF85EF92E00E94E30087
:10059000B6CFC1E0E0CFC12CD12C7601A8CFC601E7
:1005A000CF91FF90EF90DF90CF9008958F929F9220
:1005B000AF92BF92CF92DF92EF92FF920F931F9371
:1005C000CF93DF93CDB7DEB762970FB6F894DEBF57
:1005D0000FBECDBFD82EE82EF12C8AE0D89E800128
:1005E000112404571E4FD8011196BC9011971296F2
:1005F000CC90129713968C90139714968C91889E9A
:10060000400111240E940002F80105811681278112
:100610003085AB01BC01401B510B620B730BC40155
:10062000990CAA0BBB0B84179507A607B70708F010
:1006300072C0D982E1E4F2E00D2D82E190E011E098
:100640002B2D30E02F5F3F4FD81699F041814C1190
:1006500010C0A1E0B0E0AC0FBD1FA10FB11D8C9385
:1006600040814217130609F4082F40854111942F49
:100670001F5F81503A978111E7CF0D1111C02AE019
:10068000289FF0011124E457FE4F32813C1105C030
:1006900031813B1510F4082F82E18F5F823180F3A6
:1006A000911139C0CE0101964C015C019AE0D92E1E
:1006B0008A2D8819811768F4D501ED915D01DE9EC0
:1006C000F0011124E457FE4F61E080810E94B401E3
:1006D000EFCF8AE0D82ED09E8001112404571E4F00
:1006E000F80182818C1117C060E080810E94B40102
:1006F000DE9CF001DF9CF00D1124E457FE4F1186C3
:1007000081E0D80119968C930E940002F80165835C
:1007100076838783908762960FB6F894DEBF0FBE0C
:10072000CDBFDF91CF911F910F91FF90EF90DF90A0
:10073000CF90BF90AF909F908F900895FC01019053
:100740000020E9F73197AF01481B590BBC0185EF39
:1007500092E00C94A700CF93DF93FC014481558174
:100760006081718185EF92E00E94A700EC018CE12D
:1007700091E00E949E038C0F9D1FDF91CF91089501
:10078000EF92FF920F931F93CF93DF937C01D0E002
:10079000C0E0062F10E0C017D1072CF4C7010E945B
:1007A000AB032196F8CFDF91CF911F910F91FF906E
:1007B000EF900895CF93DF930E949E03EC018CE1AC
:1007C00091E00E949E038C0F9D1FDF91CF910895B1
:1007D000CF92DF92EF92FF920F931F93CF93DF930D
:1007E000CDB7DEB7A1970FB6F894DEBF0FBECDBF71
:1007F000282F30E050E040E019A28E010F5D1F4F1E
:100800008AE0C82ED12CE12CF12CCA01B901A70134
:1008100096010E94A80D605DF80162938F01211579
:1008200031054105510589F790E080E0309719F0D6
:10083000CF010E949E03A1960FB6F894DEBF0FBEB3
:10084000CDBFDF91CF911F910F91FF90EF90DF907F
:10085000CF900895FC0180819181009711F00C9454
:10086000E10C60E070E0CB010895FC018081918192
:10087000009711F00C94A30E08950F931F93CF933C
:10088000DF938C01EB01FC01808191810097E1F005
:100890006881798161157105A9F0428153812C81AC
:1008A0003D814217530770F00E94F20F8C819D81A9
:1008B000F801958384831D821C82DF91CF911F9163
:1008C0000F9108950E94A30E88819981F801918368
:1008D00080838A819B81938382838C819D81958390
:1008E0008483198218821B821A82E5CF0F931F938B
:1008F000CF93DF93EC0188819981009759F02A8189
:100900003B812617370730F081E0DF91CF911F91AF
:100910000F9108958B016F5F7F4F0E942C0F0097FE
:1009200059F0998388831B830A832C813D81232B73
:1009300059F7FC011082E8CF80E0E7CFEF92FF92F9
:100940000F931F93CF93DF93EC017B0119821882E1
:100950001B821A821D821C82FB0101900020E9F794
:1009600031978F01061B170BB8010E94760428816E
:100970003981811113C02115310519F0C9010E9477
:10098000A30E198218821D821C821B821A82DF919B
:10099000CF911F910F91FF90EF9008951D830C83CD
:1009A000B701C901DF91CF911F910F91FF90EF9097
:1009B0000C94F20F8F929F92AF92BF92CF92DF92E0
:1009C000EF92FF920F931F93CF93DF9300D0CDB799
:1009D000DEB78C015B017A0149016EE171E00E9492
:1009E0009E04EA0CFB1CC7018A199B09881599050E
:1009F0000CF5F70181917F0189831A82F801C48087
:100A0000D580FFEFCF1ADF0AB601C8010E94760435
:100A1000882349F3F8012081318184819581BE01C9
:100A20006F5F7F4F820F931F0E94F20FF801D582F4
:100A3000C482D9CFC8010F900F90DF91CF911F9141
:100A40000F91FF90EF90DF90CF90BF90AF909F906D
:100A50008F9008951F93CF93DF93EC01162F0E9480
:100A6000290D181739F0612FCE01DF91CF911F9119
:100A70000C94310DDF91CF911F9108950C94290DA5
:100A8000EF92FF920F931F93CF93DF938CE8E82EA2
:100A900081E0F82E00E412E0D0E0C0E0CE010E9438
:100AA0003E05813081F5CE0143960E943E05F80156
:100AB0008083CE0185960E943E05F8018183CE0198
:100AC000C7960E943E05F8018283CE01875B9F4F47
:100AD0000E943E05F8018383CE01855A9F4F0E94F4
:100AE0003E05F80184832196FAE0EF0EF11C065FC3
:100AF0001F4FC231D10591F6DF91CF911F910F9118
:100B0000FF90EF900895823071F7CE0143960E94D6
:100B10003E05F7018083CE0185960E943E05F701D0
:100B20008183CE01C7960E943E05F7018483CE01E2
:100B3000875B9F4F0E943E05F7018383CE01855A54
:100B40009F4F0E943E05F7018283CDCF8F929F92E7
:100B5000AF92BF92CF92DF92EF92FF920F931F93CB
:100B6000CF93DF9300D0CDB7DEB77C018B0185EF4B
:100B700092E00E940501892B21F4C8010E94AB0379
:100B8000F6CF6EE171E0C7010E949E040E943E0212
:100B900097FD20C089831A82D70114960D911C916C
:100BA0000F5F1F4FB801C7010E947604882371F3BD
:100BB000F7012081318184819581BE016F5F7F4F74
:100BC000820F931F0E94F20FD70115961C930E936C
:100BD0001497DCCFF701A080B180A114B10431F0EB
:100BE0000481158165010115110589F4C7010F9074
:100BF0000F90DF91CF911F910F91FF90EF90DF90B9
:100C0000CF90BF90AF909F908F9008956401460160
:100C1000FFEF8F1A9F0AD6018C91082E000C990BBA
:100C20000E941D0D892B91F7015011090A0D1B1D02
:100C3000F8018081082E000C990B0E941D0D892B54
:100C400031F00C151D0518F001501109F1CFA80164
:100C50004F5F5F4F4C195D09D70115965C934E931A
:100C60001497AC14BD0420F4B601C5010E94E90F2D
:100C7000D701ED91FC91119714968D919C91E80FFD
:100C8000F91F1082B3CF8F929F92AF92BF92DF92E3
:100C9000EF92FF920F931F93CF93DF93E82EF12CE7
:100CA0009AE0899FE0011124C05CDD4F1B8109851A
:100CB0008D809E80AF80B884013009F044C0D98017
:100CC0000E940002AB01BC01481959096A097B095D
:100CD000D19EC0011124092E000CAA0BBB0B841756
:100CE0009507A607B70718F560E088810E94B40150
:100CF0008C81813059F40E94890C22E030E040E080
:100D000050E00E943F0D611101C000E08AE08E9D1D
:100D1000E0018F9DD00D1124C05CDD4F81E00827DC
:100D200009870E9400026D837E838F839887DF91FD
:100D3000CF911F910F91FF90EF90DF90BF90AF90F8
:100D40009F908F9008950A810E940002AB01BC0120
:100D5000481959096A097B09109FC0011124092EFD
:100D6000000CAA0BBB0B84179507A607B707F8F66C
:100D700061E088810E94B4018C81813059F40E9425
:100D8000890C22E030E040E050E00E943F0D81E01D
:100D9000611101C080E09AE09E9DE0019F9DD00D11
:100DA0001124C05CDD4F91E089278987BACF1F925B
:100DB0000F920FB60F9211242F933F934F935F938F
:100DC0006F937F938F939F93AF93BF93EF93FF9313
:100DD00085EF92E00E942501FF91EF91BF91AF91C5
:100DE0009F918F917F916F915F914F913F912F9143
:100DF0000F900FBE0F901F9018951F920F920FB675
:100E00000F9211242F938F939F93EF93FF93E09171
:100E10000503F09106038081E0910B03F0910C0330
:100E200082FD1BC0908180910E038F5F8F73209194
:100E30000F03821741F0E0910E03F0E0EB50FD4FFD
:100E4000958F80930E03FF91EF919F918F912F913A
:100E50000F900FBE0F901F9018958081F4CF1F92B6
:100E60000F920FB60F9211242F933F938F939F935E
:100E7000AF93BF938091870190918801A0918901E0
:100E8000B0918A013091860123E0230F2D3758F568
:100E90000196A11DB11D2093860180938701909337
:100EA0008801A0938901B0938A0180918201909179
:100EB0008301A0918401B09185010196A11DB11D0E
:100EC0008093820190938301A0938401B093850164
:100ED000BF91AF919F918F913F912F910F900FBE36
:100EE0000F901F90189526E8230F0296A11DB11DA3
:100EF000D2CFCF93DF93CDB7DEB7C454D1090FB6AD
:100F0000F894DEBF0FBECDBF789484B5826084BDF7
:100F100084B5816084BD85B5826085BD85B58160FD
:100F200085BD80916E00816080936E00109281007B
:100F30008091810082608093810080918100816036
:100F400080938100809180008160809380008091F7
:100F5000B10084608093B1008091B0008160809383
:100F6000B00080917A00846080937A0080917A004A
:100F7000826080937A0080917A00816080937A0009
:100F800080917A00806880937A001092C100E0918D
:100F90000503F091060382E08083E0910103F09164
:100FA00002031082E0910303F091040380E1808347
:100FB00010920D03E0910903F0910A038EE3808300
:100FC000E0910703F0910803808180618083E091C4
:100FD0000703F0910803808188608083E091070314
:100FE000F0910803808180688083E0910703F0918D
:100FF000080380818F7D80830E94400500E412E019
:101000004CE8E42E41E0F42EF80180819FEF980F28
:101010009E3F48F40E9487000E940002F801658309
:10102000768387839087F70180819FEF980F9E3F9B
:1010300048F40E9487000E940002F70165837683CE
:1010400087839087065F1F4FFAE0EF0EF11C22E0C6
:10105000043F1207C9F685EF92E00E9405011816B9
:1010600019060CF0ACC324E6E22EF12C3AE0C32EB4
:10107000D12C8FE191E00E94DA030E9470028C0172
:1010800018161906B4F785EF92E00E940501892B26
:1010900081F7083C110509F476C308F057C09AE0BF
:1010A000A92E0636110509F4C2C268F58AE0A82EF9
:1010B00005361105F1F6B0908B01B11082C165E2E1
:1010C00071E0CE0101960E949E04BE016F5F7F4FCA
:1010D000CE01CF960E94A605CE0101960E9435044E
:1010E00025960EAD1FAD25970115110509F057C0C6
:1010F00019820E947002009709F067C0CE01CF9656
:101100000E94AB03F6CF0E36110509F458C30F3613
:10111000110509F0AECF61E471E0CE0101960E94A5
:101120009E0465E0CE0101960E94C003CE010196A7
:101130000E9435040E9470028C010097D9F38F3F02
:10114000910509F0D6C26BE471E00BC0033D1105B7
:1011500009F45BC3A0F465E671E0023D110509F0F6
:1011600088CFCE0101960E949E0465E0CE010196D3
:101170000E94C003CE0101960E9435047ACF043D3F
:10118000110509F44AC3053D110509F072CF66E760
:1011900071E0CE0101960E949E0463E0E7CF013327
:1011A000110510F001E310E021966EAD7FAD21979F
:1011B000A801CE0101960E94F90FE1E0F0E0EC0FEA
:1011C000FD1FE00FF11F108294CF029709F0EBC0D2
:1011D0006AE271E0CE01C3960E949E0465E0CE01F2
:1011E000C3960E94C003CE01C3960E94350423E03B
:1011F00030E050E040E0BE016F5F7F4FCE01C99606
:101200000E94DA04CE01C9960E942A04CB01B701DC
:101210000E94D90D8C01BB24BA94B80E803109F418
:10122000B1C060F48E3091F08F3009F4A8C0AB9C4F
:10123000F0011124E05CFD4F00830AC0813109F404
:10124000A4C08231A1F78093EA0202C08093C20257
:1012500026E030E043E050E0BE016F5F7F4FCE01FB
:10126000C3960E94DA04BE016D5C7F4FCE01C99621
:101270000E943D04CE01C3960E943504CE01C9965A
:101280000E942A0401501109A09EC001A19E900D48
:1012900011248C01005C1D4FF801618329E030E0CE
:1012A00046E050E0BE016F5F7F4FCE01C3960E94C3
:1012B000DA04BE016D5C7F4FCE01C9960E943D04E9
:1012C000CE01C3960E943504CE01C9960E942A041D
:1012D000F80162832CE030E049E050E0BE016F5F2E
:1012E0007F4FCE01C3960E94DA04BE016D5C7F4F32
:1012F000CE01C9960E943D04CE01C3960E943504DA
:10130000CE01C9960E942A04F80163832FE030E0E1
:101310004CE050E0BE016F5F7F4FCE01C3960E944C
:10132000DA04BE016D5C7F4FCE01C9960E943D0478
:10133000CE01C3960E943504CE01C9960E942A04AC
:10134000CB01B6010E94D90DF801848380810E94EF
:10135000870082E391E00E94DA030E9470028230EB
:101360009105B9F30097A9F38330910511F0892B0A
:1013700079F48B2D0E9443060E947002F5CF809372
:10138000CC0266CF8093D60263CF8093E00260CF19
:10139000CE01C9960E943504CE01CF960E94350435
:1013A000B0928B0188CE65E371E0CE01C3960E94B6
:1013B0009E0465E0CE01C3960E94C003CE01C39691
:1013C000E9CF0B2D10E061E0C8010E942A052AE058
:1013D000209FC001219F900D11249C01205C3D4F56
:1013E0005901F9016081C80143960E942A05F5015F
:1013F0006181C80185960E942A05F5016281C801B4
:10140000C7960E942A05F5016381C801875B9F4F3B
:101410000E942A05F5016481C801855A9F4F0E94E8
:101420002A0510928B0125CE0133110510F001E33E
:1014300010E021966EAD7FAD2197A801CE010196F7
:101440000E94F90FE1E0F0E0EC0FFD1FE00FF11F4B
:1014500010820BC1029709F012C16AE271E0CE015D
:10146000C3960E949E0465E0CE01C3960E94C0030D
:10147000CE01C3960E94350423E030E050E040E006
:10148000BE016F5F7F4FCE01C9960E94DA04CE0184
:10149000C9960E942A04CB01B7010E94D90D8C0184
:1014A000BB24BA94B80E803109F4B1C060F48E3018
:1014B00091F08F3009F4A8C0AB9CF0011124E457DF
:1014C000FE4F00830AC0813109F4A4C08231A1F724
:1014D0008093360202C080930E0226E030E043E0A3
:1014E00050E0BE016F5F7F4FCE01C3960E94DA04C9
:1014F000BE016D5C7F4FCE01C9960E943D04CE01B6
:10150000C3960E943504CE01C9960E942A04015058
:101510001109A09EC001A19E900D11248C010457B9
:101520001E4FF801618329E030E046E050E0BE0143
:101530006F5F7F4FCE01C3960E94DA04BE016D5CDF
:101540007F4FCE01C9960E943D04CE01C3960E94F2
:101550003504CE01C9960E942A04F80163832CE069
:1015600030E049E050E0BE016F5F7F4FCE01C3968F
:101570000E94DA04BE016D5C7F4FCE01C9960E94C5
:101580003D04CE01C3960E943504CE01C9960E9447
:101590002A04F80164832FE030E04CE050E0BE0103
:1015A0006F5F7F4FCE01C3960E94DA04BE016D5C6F
:1015B0007F4FCE01C9960E943D04CE01C3960E9482
:1015C0003504CE01C9960E942A04CB01B6010E94BF
:1015D000D90DF801828380810E94870082E391E027
:1015E0000E94DA030E94700282309105B9F30097DD
:1015F000A9F38330910511F0892B79F48B2D0E948A
:10160000D6020E947002F5CF8093180266CF8093B5
:10161000220263CF80932C0260CFCE01C9960E9434
:101620003504CE01CF960E943504B0928B01B09064
:101630008B01B11032C06CE371E0CE0101960E94C3
:101640009E04BE016F5F7F4FCE01CF960E94A6051C
:10165000CE0101960E94350425960EAD1FAD25974B
:101660000115110509F0E0CE19820E947002009761
:1016700009F0F0CECE01CF960E94AB03F6CF65E322
:1016800071E0CE01C3960E949E0465E0CE01C39630
:101690000E94C003CE01C396C2CF0B2D10E062E0C2
:1016A000C8010E942A052AE0209FC001219F900DB9
:1016B00011249C0124573E4F5901F9016081C80152
:1016C00043960E942A05F5016181C80185960E9412
:1016D0002A05F5016481C801C7960E942A05F50113
:1016E0006381C801875B9F4F0E942A05F5016281D3
:1016F00093CE01970E943E05782EC80142960E9423
:101700003E05882EC80184960E943E05982EC80189
:10171000C6960E943E05A82EC801885B9F4F0E9476
:101720003E05B82EC801865A9F4F0E943E05182FCD
:10173000872D0E94E80385E591E00E949E03882D95
:101740000E94E80385E591E00E949E03892D0E9496
:10175000E80385E591E00E949E038A2D0E94E8033C
:1017600085E591E00E949E038B2D0E94E80385E5AC
:1017700091E00E949E03812F0E94E8038CE191E09A
:101780000E949E03D7CC10E000E060E0C8010E94F8
:101790002A050F5F1F4F02311105B9F70E9440055E
:1017A00067E571E0CE0101960E949E0465E0CE01DE
:1017B00001960E94C003CE0101960E9435048091DB
:1017C000F4022AE0829FF0011124E05CFD4F908139
:1017D00091509E3F10F40E9443061091F4023AE0AB
:1017E000139FF0011124E457FE4F808181508E3FFA
:1017F00018F4812F0E94D6021F5F1093F402123159
:1018000009F029CC1092F40226CC6AE671E0CE01F0
:1018100001960E949E0461E0A9CC60E771E0F7CFD9
:10182000E5EFF2E01382128288EE93E0A0E0B0E0F0
:1018300084839583A683B7838EE091E09183808330
:1018400085EC90E09587848784EC90E09787868785
:1018500080EC90E0918B808B81EC90E0938B828B7D
:1018600082EC90E0958B848B86EC90E0978B868B56
:10187000118E128E138E148E08958F929F92AF92B6
:10188000BF92CF92DF92EF92FF92CF93DF93EC0162
:10189000688179818A819B81611571058105910536
:1018A00021F464E279ED8BE597E02DE133EF41E03F
:1018B00050E00E943F0D49015A019B01AC01A7EA8B
:1018C000B1E40E945E0D6B017C01ACEEB4EFA501AA
:1018D00094010E946C0DC60ED71EE81EF91EF7FE7D
:1018E00006C081E0C81AD108E10880E8F80AC88279
:1018F000D982EA82FB82C701B6019F77DF91CF913F
:10190000FF90EF90DF90CF90BF90AF909F908F901F
:1019100008958F929F92AF92BF92CF92DF92EF92F3
:10192000FF926091000170910101809102019091FC
:101930000301611571058105910521F464E279EDDA
:101940008BE597E02DE133EF41E050E00E943F0D41
:1019500049015A019B01AC01A7EAB1E40E945E0D66
:101960006B017C01ACEEB4EFA50194010E946C0DFB
:10197000C60ED71EE81EF91EF7FE06C081E0C81A83
:10198000D108E10880E8F80AC0920001D092010174
:10199000E0920201F0920301C701B6019F77FF9028
:1019A000EF90DF90CF90BF90AF909F908F90089571
:1019B00060930001709301018093020190930301F1
:1019C00008951F93FC0199278827BC01E894119181
:1019D0001032E9F3193010F01E30C8F31B3251F009
:1019E0001D3249F4689406C00E94080D610F711DF4
:1019F000811D911D119110531A30B0F33EF4909552
:101A00008095709561957F4F8F4F9F4F1F910895DF
:101A1000592F482F372F262F660F771F881F991FA2
:101A2000660F771F881F991F620F731F841F951FF2
:101A3000660F771F881F991F089591110C94260D2A
:101A4000803219F089508550C8F708959927882762
:101A50000895F999FECF92BD81BDF89A992780B576
:101A60000895262FF999FECF1FBA92BD81BD20BDE2
:101A70000FB6F894FA9AF99A0FBE01960895052EBA
:101A800097FB1EF400940E94560D57FD07D00E944C
:101A9000A80D07FC03D04EF40C94560D50954095BC
:101AA000309521953F4F4F4F5F4F0895909580950A
:101AB000709561957F4F8F4F9F4F08950E94CA0D7B
:101AC000A59F900DB49F900DA49F800D911D112492
:101AD0000895B7FF0C945E0D0E945E0D821B930B60
:101AE00008952F923F924F925F926F927F928F92C2
:101AF0009F92AF92BF92CF92DF92EF92FF920F939D
:101B00001F93CF93DF93CDB7DEB7CA1BDB0B0FB6A6
:101B1000F894DEBF0FBECDBF09942A883988488863
:101B20005F846E847D848C849B84AA84B984C884F9
:101B3000DF80EE80FD800C811B81AA81B981CE0FF0
:101B4000D11D0FB6F894DEBF0FBECDBFED010895D5
:101B5000A1E21A2EAA1BBB1BFD010DC0AA1FBB1FB1
:101B6000EE1FFF1FA217B307E407F50720F0A21B23
:101B7000B30BE40BF50B661F771F881F991F1A9490
:101B800069F760957095809590959B01AC01BD01BA
:101B9000CF010895A29FB001B39FC001A39F700D14
:101BA000811D1124911DB29F700D811D1124911D65
:101BB000089597FB072E16F4009407D077FD09D0FF
:101BC0000E94ED0D07FC05D03EF4909581959F4F46
:101BD0000895709561957F4F0895AA1BBB1B51E135
:101BE00007C0AA1FBB1FA617B70710F0A61BB70B8D
:101BF000881F991F5A95A9F780959095BC01CD0132
:101C00000895EE0FFF1F0590F491E02D09940F93B6
:101C10001F93CF93DF938230910510F482E090E020
:101C2000E0919403F091950330E020E0B0E0A0E073
:101C3000309799F42115310509F44AC0281B390B56
:101C400024303105D8F58A819B816115710589F1B0
:101C5000FB0193838283FE0111C040815181028187
:101C6000138148175907E0F04817590799F410975E
:101C700061F012960C93129713961C933296CF0133
:101C8000DF91CF911F910F910895009394031093CA
:101C90009503F4CF2115310551F04217530738F061
:101CA000A901DB019A01BD01DF01F801C1CFEF01FC
:101CB000F9CF9093950380939403CDCFFE01E20F6B
:101CC000F31F819391932250310939832883D7CF11
:101CD0002091920330919303232B41F4209106012C
:101CE00030910701309393032093920320910401D4
:101CF000309105012115310541F42DB73EB74091D2
:101D0000080150910901241B350BE0919203F091D9
:101D10009303E217F307A0F42E1B3F0B2817390794
:101D200078F0AC014E5F5F4F2417350748F04E0F37
:101D30005F1F5093930340939203819391939FCF9E
:101D4000F0E0E0E09CCFCF93DF930097E9F0FC0157
:101D5000329713821282A0919403B0919503ED0102
:101D600030E020E01097A1F420813181820F931F91
:101D700020919203309193032817390709F061C02D
:101D8000F0939303E0939203DF91CF910895EA01DA
:101D9000CE17DF07E8F54A815B819E0141155105A9
:101DA000B1F7E901FB83EA8349915991C40FD51F2B
:101DB000EC17FD0761F4808191810296840F951FD5
:101DC000E90199838883828193819B838A83F0E0F0
:101DD000E0E012968D919C9113970097B9F52D91A3
:101DE0003C911197CD010296820F931F209192038F
:101DF000309193032817390739F6309751F510922F
:101E0000950310929403B0939303A0939203BCCFD5
:101E1000D383C28340815181840F951FC817D9078E
:101E200061F44E5F5F4F88819981480F591F51833C
:101E300040838A819B81938382832115310509F038
:101E4000B0CFF0939503E09394039ECFFD01DC01A6
:101E5000C0CF13821282D7CFB0E0A0E0E2E3FFE070
:101E60000C94730D8C01009751F4CB010E94070E66
:101E70008C01C801CDB7DEB7E0E10C948F0DFC01F9
:101E8000E60FF71F9C0122503109E217F30708F40F
:101E90009DC0D901CD91DC911197C617D70798F055
:101EA000C530D10530F3CE0104978617970708F3A4
:101EB000C61BD70B2297C193D1936D937C93CF010F
:101EC0000E94A30ED6CF5B01AC1ABD0A4C018C0E4A
:101ED0009D1EA0919403B0919503512C412CF12C9F
:101EE000E12C109731F5809192039091930388151E
:101EF000990509F05CC04616570608F058C0809155
:101F0000040190910501009741F48DB79EB740916F
:101F1000080150910901841B950BE817F90708F097
:101F200055C0F0939303E0939203F90171836083AA
:101F3000A0CF8D919C91119712966C901297139649
:101F40007C901397A815B90559F56C0142E0C40EB1
:101F5000D11CCA14DB0420F1AC014A195B09DA0177
:101F60001296159780F06282738251834083D90163
:101F70006D937C93E114F10471F0D7011396FC93F7
:101F8000EE93129776CF22968C0F9D1FF9019183C5
:101F90008083F301EFCFF0939503E093940369CF2F
:101FA0004816590608F42C017D01D3019ACFCB01C4
:101FB0000E94070E7C01009749F0AE01B8010E9413
:101FC000E90FC8010E94A30E870153CF10E000E083
:101FD00050CFFB01DC0102C001900D9241505040F6
:101FE000D8F70895FB01DC0101900D920020E1F784
:101FF0000895FB01DC014150504048F001900D92E2
:102000000020C9F701C01D9241505040E0F70895EB
:04201000F894FFCF72
:10201400010000000000960380000000000047015A
:10202400A700D40094010501E300F7000D0A005352
:1020340054415254007031303100696E7374616CD4
:102044006C004F4B0063616E63656C00703130321D
:1020540000726561645F6D6F646500726561645FE1
:1020640065786974003B00666C6173685F636C65D6
:102074006172656400636F6E6E00312E302E330022
:1020840032333035310061746D65676133323870D5
:0220940000004A
:00000001FF
