:100000000C9462000C948A000C948A000C948A0070
:100010000C948A000C948A000C948A000C948A0038
:100020000C948A000C948A000C948A000C94170893
:100030000C948A000C948A000C948A000C948A0018
:100040000C94CD070C948A000C949B070C947507B4
:100050000C948A000C948A000C948A000C948A00F8
:100060000C948A000C948A000000000024002700F1
:100070002A0000000000250028002B0000000000DE
:1000800023002600290004040404040404040202DA
:100090000202020203030303030301020408102007
:1000A0004080010204081020010204081020000012
:1000B0000008000201000003040700000000000027
:1000C0000000D30811241FBECFEFD8E0DEBFCDBFA4
:1000D00011E0A0E0B1E0EAE3F1E202C005900D9288
:1000E000AE37B107D9F722E0AEE7B1E001C01D920B
:1000F000A73DB207E1F710E0C2E6D0E004C02197C7
:10010000FE010E94940EC136D107C9F70E9438093A
:100110000C949B100C9400000895AF92BF92CF9264
:10012000DF92EF92FF920F931F93CF93DF936C01B7
:100130007B018B01040F151FEB015E01AE18BF0898
:10014000C017D10759F06991D601ED91FC9101904A
:10015000F081E02DC6010995892B79F7C501DF9162
:10016000CF911F910F91FF90EF90DF90CF90BF90B4
:10017000AF900895FC01538D448D252F30E0842FDE
:1001800090E0821B930B541710F0CF9608950197BF
:100190000895FC01918D828D981761F0A28DAE0FAC
:1001A000BF2FB11D5D968C91928D9F5F9F73928F33
:1001B00090E008958FEF9FEF0895FC01918D828D5F
:1001C000981731F0828DE80FF11D858D90E008952C
:1001D0008FEF9FEF0895FC01918D228D892F90E084
:1001E000805C9F4F821B91098F739927089589E83E
:1001F00091E00E94EB0021E0892B09F420E0822F9E
:10020000089580E090E0892B29F00E94F700811189
:100210000C9400000895FC01A48DA80FB92FB11D06
:10022000A35ABF4F2C91848D90E001968F7399272C
:10023000848FA689B7892C93A089B1898C9183700A
:1002400080648C93938D848D981306C00288F38903
:10025000E02D80818F7D80830895EF92FF920F9330
:100260001F93CF93DF93EC0181E0888F9B8D8C8D62
:1002700098131AC0E889F989808185FF15C09FB756
:10028000F894EE89FF896083E889F9898081837019
:10029000806480839FBF81E090E0DF91CF911F91C8
:1002A0000F91FF90EF900895F62E0B8D10E00F5FE9
:1002B0001F4F0F731127E02E8C8D8E110CC00FB6BF
:1002C00007FCFACFE889F989808185FFF5CFCE0157
:1002D0000E940B01F1CFEB8DEC0FFD2FF11DE35AC6
:1002E000FF4FF0829FB7F8940B8FEA89FB898081DA
:1002F0008062CFCFCF93DF93EC01888D8823B9F054
:10030000AA89BB89E889F9898C9185FD03C0808120
:1003100086FD0DC00FB607FCF7CF8C9185FFF2CF9D
:10032000808185FFEDCFCE010E940B01E9CFDF91E7
:10033000CF910895833081F028F4813099F0823094
:10034000A9F008958730A9F08830C9F08430B1F45D
:10035000809180008F7D03C0809180008F77809393
:100360008000089584B58F7784BD089584B58F7D0E
:10037000FBCF8091B0008F778093B000089580917B
:10038000B0008F7DF9CFCF93DF93282F30E0F901B4
:10039000E255FF4F8491F901E656FF4FD491F901E0
:1003A000EA57FF4FC491CC23A1F081110E949A011A
:1003B000EC2FF0E0EE0FFF1FE458FF4FA591B49132
:1003C000EC91ED2381E090E009F480E0DF91CF91A2
:1003D000089580E090E0FACF1F93CF93DF93282F0A
:1003E00030E0F901E255FF4F8491F901E656FF4FE5
:1003F000D491F901EA57FF4FC491CC23A9F0162FED
:1004000081110E949A01EC2FF0E0EE0FFF1FEE58D1
:10041000FF4FA591B4918FB7F894EC91111108C0DA
:10042000D095DE23DC938FBFDF91CF911F9108958C
:10043000DE2BF8CFCF93DF9390E0FC01E656FF4F21
:1004400024918A579F4FFC0184918823D1F090E03A
:10045000880F991FFC01E859FF4FA591B491FC0149
:10046000EE58FF4FC591D49161110EC09FB7F8941B
:100470008C91E22FE0958E238C932881E223E883F0
:100480009FBFDF91CF9108958FB7F894EC91E22B45
:10049000EC938FBFF6CF2FB7F894609184017091E1
:1004A000850180918601909187012FBF08950F9358
:1004B0001F930E944B02609391017093920180936D
:1004C00093019093940189E891E00E94DD0097FFE9
:1004D0001DC00E944B020091910110919201209148
:1004E000930130919401601B710B820B930B00916F
:1004F0008D0110918E0120918F0130919001601734
:10050000710782079307F8F28FEF9FEF1F910F910A
:1005100008950F931F930E944B0260939101709373
:100520009201809393019093940189E891E00E9455
:10053000C90097FF1DC00E944B02009191011091CC
:1005400092012091930130919401601B710B820BF9
:10055000930B00918D0110918E0120918F013091AC
:1005600090016017710782079307F8F28FEF9FEFF2
:100570001F910F9108958F929F92AF92BF92FF9219
:100580000F931F93CF93DF93FC01F0808BE08F15C7
:1005900008F44FC0828108E512E0081B110987FDAD
:1005A0001395000F111F000F111F8181C8E8D0E0C3
:1005B000C81BD10987FDD395CC0FDD1FCC0FDD1FE4
:1005C0004E010D2E000CAA08BB08DB01653B71052E
:1005D00014F0A4EBB0E09801012E000C440B550B75
:1005E000281939094A095B090E94180E24EB30E0EA
:1005F00040E050E00E94EE0D820E931EA41EB51E38
:100600008C169D062CF0E801801691060CF4E4018E
:100610002297CC0FDD1F2FB7F8948F2D90E0FC01AF
:10062000EE0FFF1FE80FF91FEA5DFD4FD283C18374
:100630002FBFDF91CF911F910F91FF90BF90AF908F
:100640009F908F9008951F93CF93DF93EC01162F07
:1006500088818C3008F04EC061E0812F0E941A0220
:100660008881282F30E0F901EE0FFF1FE20FF31F02
:10067000EA5DFD4F1F736081607C612B608319828E
:100680001A822CE0622F0E94880E829FB0011124F2
:1006900030E020E0AB01420F531FFA01EE0FFF1FC5
:1006A000E40FF51FEA5DFD4F908196FD16C02F5FA8
:1006B0003F4F2C30310571F781110FC0109280002F
:1006C00082E0809381001092850010928400B19A9C
:1006D00080916F00826080936F00E8818E2F90E0A0
:1006E000FC01EE0FFF1FE80FF91FEA5DFD4F80814F
:1006F000806480838881DF91CF911F910895CF928C
:10070000DF92EF92FF92CF93D12CC12C89E891E038
:100710000E94EB00181619060CF050C00E945702F8
:10072000FC0197FD47C08D32910519F0C0970A97DB
:10073000D0F5C12CD12C7601C0E0E130F105D1F02B
:10074000ED32F105A9F1CF01C0970A9798F4AAE01C
:10075000B0E0A70196010E940D0E6F01FF0FEE0899
:10076000FF08C60ED71EE81EF91E80E3C81AD1087E
:10077000E108F10889E891E00E94C9000E9457024F
:10078000FC01C0970A97C8F2E130F105B1F2CC2321
:1007900009F4BCCFF094E094D094C094C11CD11C57
:1007A000E11CF11CB3CF89E891E00E94C900B6CFEB
:1007B000C1E0E0CFC12CD12C7601A8CFC601CF91EA
:1007C000FF90EF90DF90CF900895CF92DF92EF925D
:1007D000FF920F931F93CF93DF93082FE82EF12CF6
:1007E00031E1839FE0011124C55BDD4F1985123093
:1007F000D9F0153009F453C09F858D81981709F4FD
:1008000090C081E18E9DE0018F9DD00D1124C55BCC
:10081000DD4F9F858C81981324C088850E94C30179
:10082000892BF9F482E084C088850E94C301892B5A
:1008300059F08A85811108C091E09A878F852D81B2
:10084000821326C0988B0DC081E18E9DE0018F9DA3
:10085000D00D1124C55BDD4F88850E94C301892B13
:10086000E1F081E18E9DF0018F9DF00D1124E55B9B
:10087000FD4F80898130C9F0823009F467C0DF9173
:10088000CF911F910F91FF90EF90DF90CF9008953F
:100890009C818913E6CF188BE4CF1A86E2CF888932
:1008A000843009F453C0853029F711E11E9DE00121
:1008B0001F9DD00D1124C55BDD4F9F858C8198173E
:1008C00009F482C00E944B02CB84DC84ED84FE8458
:1008D0006C197D098E099F096531710581059105A6
:1008E00070F2019F80011124055B1D4F6B8170E048
:1008F000C8010E9423030E944B026B877C878D876F
:100900009E876F8570E0C8010E94BB028C819D812B
:10091000981780F42F859E81920F2917A8F49F873E
:10092000AECF88850E94C301892B09F46ACF81E08C
:10093000888B97CF891708F0A2CF2F859E81322F01
:10094000391B932F321758F38F8799CF11E11E9DD2
:10095000E0011F9DD00D1124C55BDD4F9F858D816A
:10096000981791F10E944B02CB84DC84ED84FE84C5
:100970006C197D098E099F09653171058105910505
:1009800008F47DCF019F80011124055B1D4F6B8111
:1009900070E0C8010E9423030E944B026B877C8792
:1009A0008D879E876F8570E0C8010E94BB028D8194
:1009B0009C81981718F42F859F81AECF891708F076
:1009C0005ECF2F859F81BBCFE8818E2F90E0FC0109
:1009D000EE0FFF1FE80FF91FEA5DFD4F80818F7B4F
:1009E00080834DCFFC0101900020E9F73197AF01E2
:1009F000481B590BBC0189E891E00C948D00CF9302
:100A0000DF93FC01448155816081718189E891E027
:100A10000E948D00EC0188E191E00E94F2048C0FAD
:100A20009D1FDF91CF910895EF92FF920F931F9337
:100A3000CF93DF937C01D0E0C0E0062F10E0C01719
:100A4000D1072CF4C7010E94FF042196F8CFDF9153
:100A5000CF911F910F91FF90EF900895CF92DF9269
:100A6000EF92FF920F931F93CF93DF93CDB7DEB733
:100A7000A1970FB6F894DEBF0FBECDBF282F30E090
:100A800050E040E019A28E010F5D1F4F8AE0C82E92
:100A9000D12CE12CF12CCA01B901A70196010E94C9
:100AA000570E605DF80162938F01211531054105F4
:100AB000510589F790E080E0309719F0CF010E944E
:100AC000F204A1960FB6F894DEBF0FBECDBFDF9142
:100AD000CF911F910F91FF90EF90DF90CF900895ED
:100AE000FC0180819181009711F00C94900D60E0E1
:100AF00070E0CB010895FC0180819181009711F095
:100B00000C94360F08950F931F93CF93DF938C01AE
:100B1000EB01FC01808191810097E1F0688179818E
:100B200061157105A9F0428153812C813D814217E5
:100B3000530770F00E9485108C819D81F801958388
:100B400084831D821C82DF91CF911F910F910895A4
:100B50000E94360F88819981F801918380838A8170
:100B60009B81938382838C819D8195838483198269
:100B700018821B821A82E5CF0F931F93CF93DF93C6
:100B8000EC0188819981009759F02A813B812617D1
:100B9000370730F081E0DF91CF911F910F910895D9
:100BA0008B016F5F7F4F0E94BF0F009759F09983B1
:100BB00088831B830A832C813D81232B59F7FC01F9
:100BC0001082E8CF80E0E7CFEF92FF920F931F9360
:100BD000CF93DF93EC017B01198218821B821A826A
:100BE0001D821C82FB0101900020E9F731978F01E3
:100BF000061B170BB8010E94BC05288139818111A1
:100C000013C02115310519F0C9010E94360F198250
:100C100018821D821C821B821A82DF91CF911F9144
:100C20000F91FF90EF9008951D830C83B701C901C8
:100C3000DF91CF911F910F91FF90EF900C94851051
:100C40008F929F92AF92BF92CF92DF92EF92FF92DC
:100C50000F931F93CF93DF9300D0CDB7DEB78C01F6
:100C60005B017A0149016AE171E00E94E405EA0C46
:100C7000FB1CC7018A199B09881599050CF5F7011A
:100C800081917F0189831A82F801C480D580FFEFAA
:100C9000CF1ADF0AB601C8010E94BC05882349F3B8
:100CA000F8012081318184819581BE016F5F7F4F82
:100CB000820F931F0E948510F801D582C482D9CF7C
:100CC000C8010F900F90DF91CF911F910F91FF906E
:100CD000EF90DF90CF90BF90AF909F908F9008954E
:100CE0001F93CF93DF93EC01162F0E94D80D181796
:100CF00039F0612FCE01DF91CF911F910C94E00D5F
:100D0000DF91CF911F9108950C94D80DEF92FF922F
:100D10000F931F93CF93DF93CBE4D2E002E010E078
:100D200081E1E82EC80189960E948406803109F08D
:100D300010F48AA704C08231E1F3D8F7EAA6C8010B
:100D40000E948406F82E8DA3C80109960E9484068D
:100D50008EA3C80141960E9484068FA3C8014996BC
:100D60000E94840688A7C80181960E94840689A7EC
:100D7000C801C1960E9484068BA761E08F2D0E9456
:100D80001A0260E08AA50E941A020F5F1F4F619647
:100D90000A30110539F6DF91CF911F910F91FF9025
:100DA000EF9008958F929F92AF92BF92CF92DF9271
:100DB000EF92FF920F931F93CF93DF9300D0CDB7A5
:100DC000DEB77C018B01D42E89E891E00E94EB0014
:100DD000892B49F4C8010E94FF04DD20A9F380E0BB
:100DE0000E94E503F1CF6AE171E0C7010E94E405CA
:100DF0000E94890297FD20C089831A82D701149628
:100E00000D911C910F5F1F4FB801C7010E94BC05D7
:100E1000882371F3F7012081318184819581BE019E
:100E20006F5F7F4F820F931F0E948510D701159629
:100E30001C930E931497DCCFF701A080B180A1140E
:100E4000B10431F00481158165010115110589F4A2
:100E5000C7010F900F90DF91CF911F910F91FF90DD
:100E6000EF90DF90CF90BF90AF909F908F900895BC
:100E700064014601FFEF8F1A9F0AD6018C91082E5C
:100E8000000C990B0E94CC0D892B91F70150110990
:100E90000A0D1B1DF8018081082E000C990B0E9481
:100EA000CC0D892B31F00C151D0518F001501109DE
:100EB000F1CFA8014F5F5F4F4C195D09D70115961F
:100EC0005C934E931497AC14BD0420F4B601C50195
:100ED0000E947C10D701ED91FC91119714968D9191
:100EE0009C91E80FF91F1082B3CF1F920F920FB69B
:100EF0000F9211242F933F934F935F936F937F93A0
:100F00008F939F93AF93BF93EF93FF9389E891E003
:100F10000E940B01FF91EF91BF91AF919F918F9133
:100F20007F916F915F914F913F912F910F900FBEE5
:100F30000F901F9018951F920F920FB60F921124C9
:100F40002F938F939F93EF93FF93E0919901F091EB
:100F50009A018081E0919F01F091A00182FD1BC068
:100F600090818091A2018F5F8F732091A3018217DE
:100F700041F0E091A201F0E0E757FE4F958F80939A
:100F8000A201FF91EF919F918F912F910F900FBE32
:100F90000F901F9018958081F4CF1F920F920FB67B
:100FA0000F9211242F933F938F939F93AF93BF93EF
:100FB0008091840190918501A0918601B091870173
:100FC0003091830123E0230F2D3758F50196A11DA1
:100FD000B11D209383018093840190938501A09398
:100FE0008601B093870180917F0190918001A0914B
:100FF0008101B09182010196A11DB11D80937F01F5
:1010000090938001A0938101B0938201BF91AF9131
:101010009F918F913F912F910F900FBE0F901F9036
:10102000189526E8230F0296A11DB11DD2CF1F925D
:101030000F920FB60F9211242F933F934F935F930C
:101040006F937F938F939F93AF93BF93CF93DF93D0
:10105000EF93FF9380917E01C0914A02D0E087FF19
:1010600024C0109285001092840080917E018F5FD1
:1010700080937E0180917E01082E000C990B8C17C5
:101080009D0724F480917E018C30C4F1809184000E
:1010900090918500049680349C4908F47AC0809130
:1010A000840090918500049676C080917E01082E80
:1010B000000C990B8C179D07C4F6E0917E018E2FD2
:1010C000EE0F990BFC01EE0FFF1FE80FF91FEA5D11
:1010D000FD4F808186FFC9CFE0917E018E2FEE0FFC
:1010E000990BFC01EE0FFF1FE80FF91FEA5DFD4FA2
:1010F000808160E08F730E94EC01B7CF2091840063
:1011000030918500E0917E018E2FEE0F990BFC014E
:10111000EE0FFF1FE80FF91FEA5DFD4F81819281FD
:10112000820F931F9093890080938800E0917E0145
:101130008E2FEE0F990BFC01EE0FFF1FE80FF91F2A
:10114000EA5DFD4F808186FF11C0E0917E018E2F08
:10115000EE0F990BFC01EE0FFF1FE80FF91FEA5D80
:10116000FD4F808161E08F730E94EC01FF91EF9150
:10117000DF91CF91BF91AF919F918F917F916F91AF
:101180005F914F913F912F910F900FBE0F901F9045
:10119000189580E49CE990938900809388008FEFF4
:1011A00080937E01E3CF10928C0110928B0188EE28
:1011B00093E0A0E0B0E080938D0190938E01A09326
:1011C0008F01B09390018AE091E090938A0180931F
:1011D000890185EC90E0909396018093950184ECD1
:1011E00090E0909398018093970180EC90E0909329
:1011F0009A018093990181EC90E090939C018093F7
:101200009B0182EC90E090939E0180939D0186EC7F
:1012100090E09093A00180939F011092A201109200
:10122000A3011092A4011092A501EBE4F2E023EDDA
:1012300032E04FEF68EB7BE080914A028C30B0F4F3
:1012400091E0980F90934A02808390E0DC01AA0F0E
:10125000BB1FA80FB91FAA5DBD4F12967C936E935A
:10126000119771962E173F0739F708954083F9CFEC
:10127000CF93DF93CDB7DEB7CE54D1090FB6F89434
:10128000DEBF0FBECDBF789484B5826084BD84B5C7
:10129000816084BD85B5826085BD85B5816085BD71
:1012A00080916E00816080936E0010928100809129
:1012B00081008260809381008091810081608093B1
:1012C0008100809180008160809380008091B100D6
:1012D00084608093B1008091B00081608093B00001
:1012E00080917A00846080937A0080917A00826095
:1012F00080937A0080917A00816080937A00809157
:101300007A00806880937A001092C100E091990180
:10131000F0919A0182E08083E0919501F09196012D
:101320001082E0919701F091980180E18083109202
:10133000A101E0919D01F0919E018EE38083E091F7
:101340009B01F0919C01808180618083E0919B01F1
:10135000F0919C01808188608083E0919B01F091F5
:101360009C01808180688083E0919B01F0919C01C9
:1013700080818F7D80830E9486060BE412E0F80155
:1013800085A181508E3F48F40E944B02F80165A769
:1013900076A787A790AB86A181AB0F5E1F4FF2E0C7
:1013A000033D1F0761F742E0B42E89E891E00E94F7
:1013B000EB00181619060CF096C322E0A22E34E0BA
:1013C000932E8BE191E00E94F20488E191E00E946B
:1013D000F2040E947F038C011816190694F789E81D
:1013E00091E00E94EB00892B61F7023D110509F4A1
:1013F000FBC208F059C10E36110509F477C208F096
:101400002EC191E1892E05361105D9F6C0908801CB
:10141000C11038C261E271E0CE0101960E94E4057C
:1014200040E0BE016F5F7F4FCE01875B9F4F0E9400
:10143000D206CE0101960E947B052F960EAD1FAD00
:101440002F970115110509F0F9C11982CE01875BAB
:101450009F4F0E94FF040E947F030097B9F30297F9
:1014600009F002C266E271E0CE01CD960E94E40569
:1014700065E0CE01CD960E941405CE01CD960E9466
:101480007B0523E030E050E040E0BE016F5F7F4F1E
:10149000CE018D5B9F4F0E942006CE018D5B9F4F3A
:1014A0000E9470056B01CB010197889E8001899E87
:1014B000100D1124055B1D4FF801C38226E030E0BA
:1014C00043E050E0BE016F5F7F4FCE01CD960E949A
:1014D0002006BE01635C7F4FCE018D5B9F4F0E9453
:1014E0008305CE01CD960E947B05CE018D5B9F4F7B
:1014F0000E947005F801648329E030E046E050E086
:10150000BE016F5F7F4FCE01CD960E942006BE01C7
:10151000635C7F4FCE018D5B9F4F0E948305CE01A0
:10152000CD960E947B05CE018D5B9F4F0E9470057A
:10153000F80165832CE030E049E050E0BE016F5FC8
:101540007F4FCE01CD960E942006BE01635C7F4F87
:10155000CE018D5B9F4F0E948305CE01CD960E94E8
:101560007B05CE018D5B9F4F0E947005F80166835D
:101570002FE030E04DE050E0BE016F5F7F4FCE01C5
:10158000CD960E942006BE01635C7F4FCE018D5B2D
:101590009F4F0E948305CE01CD960E947B05CE0110
:1015A0008D5B9F4F0E947005F801678322E130E058
:1015B00040E150E0BE016F5F7F4FCE01CD960E94AB
:1015C0002006BE01635C7F4FCE018D5B9F4F0E9462
:1015D0008305CE01CD960E947B05CE018D5B9F4F8A
:1015E0000E947005F801608725E130E044E150E099
:1015F000BE016F5F7F4FCE01CD960E942006BE01D7
:10160000635C7F4FCE018D5B9F4F0E948305CE01AF
:10161000CD960E947B05CE018D5B9F4F0E94700589
:10162000F80161878EE291E00E94F20488E191E086
:101630000E94F2040E947F038230910599F3892B66
:1016400089F3CA94CE018D5B9F4F0E947B05CE012A
:10165000875B9F4F0E947B05C0928801D7CE0F36D3
:10166000110509F446C1083C110509F0AACE02E0B3
:1016700010E060E0C8010E9470060F5F1F4F0A3043
:101680001105B9F70E9486066EE471E0CE0101965D
:101690000E94E40565E0CE0101960E941405CE018A
:1016A00001960E947B0581CE043D110509F4A7C176
:1016B00008F49DC1053D110509F4A4C185E0882EFB
:1016C000053F114009F07DCE6AE171E0CE01875BF4
:1016D0009F4F0E94E40580915B0269E771E08111F0
:1016E00099C1CE01CD960E94E40540E0BE01635C45
:1016F0007F4FCE0101960E94D206BE016F5F7F4FE1
:10170000CE01875B9F4F0E948305CE0101960E9408
:101710007B05CE01CD960E947B052F960EAD1FADA9
:101720002F970115110509F07BC1198223E030E0E4
:1017300050E040E0BE016F5F7F4FCE018D5B9F4F59
:101740000E94200680925402E0904F0200915002C5
:10175000CE018D5B9F4F0E947005762EC62ED72E30
:1017600026E030E043E050E0BE016F5F7F4FCE01E6
:10177000CD960E942006BE01635C7F4FCE018D5B3B
:101780009F4F0E948305CE01CD960E947B05CE011E
:101790008D5B9F4F0E947005F62E29E030E046E0F9
:1017A00050E0BE016F5F7F4FCE01CD960E942006B4
:1017B000BE01635C7F4FCE018D5B9F4F0E9483050E
:1017C000CE01CD960E947B05CE018D5B9F4F0E947E
:1017D0007005162F2CE030E04BE050E0BE016F5F4B
:1017E0007F4FCE01CD960E942006BE01635C7F4FE5
:1017F000CE018D5B9F4F0E948305CE01CD960E9446
:101800007B05CE018D5B9F4F0E94700580914E023B
:101810008C151D0409F01AC1633009F017C1EF14CB
:1018200009F473C1011308C080915A02E81609F443
:101830002FC1081709F42CC110E047C10B33110563
:1018400010F00BE310E02B966EAD7FAD2B97A80147
:10185000CE0101960E948C10E1E0F0E0EC0FFD1F3C
:10186000E00FF11F1082F2CD61E371E0CE01CD9661
:101870000E94E40565E0CE01CD960E941405CE01DC
:10188000CD96E3CEEC2CF12CF1E1CF9E800111241A
:10189000055B1D4FF8016381C7010E947006F801C6
:1018A0006481C70109960E947006F8016581C7012D
:1018B00041960E947006F8016681C70149960E9410
:1018C0007006F8016781C70181960E947006F801D1
:1018D0006085C70189960E947006F8016185C7017D
:1018E000C1960E947006109288016BCD0E948606F8
:1018F0005CCD68E371E0CE0101960E94E40565E0ED
:10190000CE0101960E941405CE0101960E947B052E
:101910000E947F038C010097D9F38F3F910581F4DA
:1019200062E471E0CE0101960E94E40565E0CE011B
:1019300001960E941405CE0101960E947B0541CDBF
:1019400001970E948406782EC80108960E9484069A
:10195000882EC80140960E948406C82EC801489669
:101960000E948406D82EC80180960E948406E82E24
:10197000C80188960E948406F82EC801C0960E946D
:101980008406182F872D0E942E058CE491E00E947A
:10199000F204882D0E942E058CE491E00E94F2044E
:1019A0008C2D0E942E058CE491E00E94F2048D2D76
:1019B0000E942E058CE491E00E94F2048E2D0E947C
:1019C0002E058CE491E00E94F2048F2D0E942E05DA
:1019D0008CE491E00E94F204812F0E942E0588E1A0
:1019E00091E00E94F20494CF6CE571E09BCF61E638
:1019F00071E0CE0101960E94E40561E098CF67E6B0
:101A000071E0F7CF6EE671E0CE0101960E94E40529
:101A100063E08DCFCE01CD960E94E40541E066CE15
:101A20000133110510F001E310E02B966EAD7FAD90
:101A30002B97A801CE0101960E948C10E1E0F0E006
:101A4000EC0FFD1FE00FF11F108270CEF7ECCF16E8
:101A5000D104D1F170924E02F0924F0210935002D5
:101A60006130E1F480915B02813011F0843091F4B7
:101A700080915A028F1570F4F092500280934F02B9
:101A800090925B0281E08093510280935202D4CE07
:101A900061E0E2CF81E080935B02F4CF623091F7A6
:101AA00080915B02823011F0853059F480915A02A6
:101AB000181738F410934F028093500280925B0203
:101AC000E1CFA0925B02DECF11E0CE018D5B9F4F94
:101AD0000E947B05CE01875B9F4F0E947B051123EF
:101AE00009F4F2CD6ECC81E1B89EF0011124E55BE2
:101AF000FD4F838181508E3F18F48B2D0E94E503AA
:101B0000B394E8E0BE1251CC4ECC011709F494CE48
:101B100080915A02E81611F008138ECE62E09CCF35
:101B20001F93FC0199278827BC01E894119110327A
:101B3000E9F3193010F01E30C8F31B3251F01D329A
:101B400049F4689406C00E94B70D610F711D811D94
:101B5000911D119110531A30B0F33EF49095809579
:101B6000709561957F4F8F4F9F4F1F910895592F0B
:101B7000482F372F262F660F771F881F991F660F54
:101B8000771F881F991F620F731F841F951F660F91
:101B9000771F881F991F089591110C94D50D8032DD
:101BA00019F089508550C8F7089599278827089516
:101BB000F999FECF92BD81BDF89A992780B5089515
:101BC000262FF999FECF1FBA92BD81BD20BD0FB659
:101BD000F894FA9AF99A0FBE01960895052E97FB8C
:101BE0001EF400940E94050E57FD07D00E94570E68
:101BF00007FC03D04EF40C94050E5095409530959B
:101C000021953F4F4F4F5F4F089590958095709568
:101C100061957F4F8F4F9F4F08950E94790EA59F2A
:101C2000900DB49F900DA49F800D911D11240895D7
:101C3000B7FF0C940D0E0E940D0E821B930B08959E
:101C40002F923F924F925F926F927F928F929F92CC
:101C5000AF92BF92CF92DF92EF92FF920F931F93BA
:101C6000CF93DF93CDB7DEB7CA1BDB0B0FB6F8946B
:101C7000DEBF0FBECDBF09942A88398848885F84AB
:101C80006E847D848C849B84AA84B984C884DF801C
:101C9000EE80FD800C811B81AA81B981CE0FD11D00
:101CA0000FB6F894DEBF0FBECDBFED010895A1E2DF
:101CB0001A2EAA1BBB1BFD010DC0AA1FBB1FEE1FC6
:101CC000FF1FA217B307E407F50720F0A21BB30B11
:101CD000E40BF50B661F771F881F991F1A9469F78D
:101CE00060957095809590959B01AC01BD01CF01E9
:101CF0000895A29FB001B39FC001A39F700D811DE5
:101D00001124911DB29F700D811D1124911D089504
:101D1000991B79E004C0991F961708F0961B881F3D
:101D20007A95C9F780950895EE0FFF1F0590F491FD
:101D3000E02D09940F931F93CF93DF938230910589
:101D400010F482E090E0E091D502F091D60230E00C
:101D500020E0B0E0A0E0309799F42115310509F4B6
:101D60004AC0281B390B24303105D8F58A819B8164
:101D70006115710589F1FB0193838283FE0111C016
:101D8000408151810281138148175907E0F04817BB
:101D9000590799F4109761F012960C9312971396C5
:101DA0001C933296CF01DF91CF911F910F9108952F
:101DB0000093D5021093D602F4CF2115310551F0CE
:101DC0004217530738F0A901DB019A01BD01DF0179
:101DD000F801C1CFEF01F9CF9093D6028093D502DD
:101DE000CDCFFE01E20FF31F819391932250310971
:101DF00039832883D7CF2091D3023091D402232B6B
:101E000041F420910201309103013093D4022093D8
:101E1000D30220910001309101012115310541F4D7
:101E20002DB73EB74091040150910501241B350B9D
:101E3000E091D302F091D402E217F307A0F42E1B35
:101E40003F0B2817390778F0AC014E5F5F4F24171E
:101E5000350748F04E0F5F1F5093D4024093D302D2
:101E6000819391939FCFF0E0E0E09CCFCF93DF93FD
:101E70000097E9F0FC01329713821282A091D502FB
:101E8000B091D602ED0130E020E01097A1F420815E
:101E90003181820F931F2091D3023091D4022817F1
:101EA000390709F061C0F093D402E093D302DF91C7
:101EB000CF910895EA01CE17DF07E8F54A815B81EB
:101EC0009E0141155105B1F7E901FB83EA83499170
:101ED0005991C40FD51FEC17FD0761F480819181E2
:101EE0000296840F951FE9019983888382819381EB
:101EF0009B838A83F0E0E0E012968D919C9113978A
:101F00000097B9F52D913C911197CD010296820F62
:101F1000931F2091D3023091D4022817390739F644
:101F2000309751F51092D6021092D502B093D40298
:101F3000A093D302BCCFD383C28340815181840F4D
:101F4000951FC817D90761F44E5F5F4F888199814B
:101F5000480F591F518340838A819B8193838283D9
:101F60002115310509F0B0CFF093D602E093D502E8
:101F70009ECFFD01DC01C0CF13821282D7CFB0E02B
:101F8000A0E0E5ECFFE00C94220E8C01009751F4E8
:101F9000CB010E949A0E8C01C801CDB7DEB7E0E1FB
:101FA0000C943E0EFC01E60FF71F9C0122503109F4
:101FB000E217F30708F49DC0D901CD91DC91119788
:101FC000C617D70798F0C530D10530F3CE01049776
:101FD0008617970708F3C61BD70B2297C193D19397
:101FE0006D937C93CF010E94360FD6CF5B01AC1A64
:101FF000BD0A4C018C0E9D1EA091D502B091D60257
:10200000512C412CF12CE12C109731F58091D30209
:102010009091D4028815990509F05CC046165706C0
:1020200008F058C08091000190910101009741F49F
:102030008DB79EB74091040150910501841B950B0B
:10204000E817F90708F055C0F093D402E093D302E3
:10205000F90171836083A0CF8D919C9111971296A5
:102060006C90129713967C901397A815B90559F5A3
:102070006C0142E0C40ED11CCA14DB0420F1AC0197
:102080004A195B09DA011296159780F06282738211
:1020900051834083D9016D937C93E114F10471F075
:1020A000D7011396FC93EE93129776CF22968C0F5E
:1020B0009D1FF90191838083F301EFCFF093D60246
:1020C000E093D50269CF4816590608F42C017D012A
:1020D000D3019ACFCB010E949A0E7C01009749F060
:1020E000AE01B8010E947C10C8010E94360F870122
:1020F00053CF10E000E050CFFB01DC0102C00190A3
:102100000D9241505040D8F70895FB01DC01019039
:102110000D920020E1F70895FB01DC014150504091
:1021200048F001900D920020C9F701C01D92415066
:0A2130005040E0F70895F894FFCF47
:10213A000000D7028000000000002D018D00BA00C7
:10214A007A01EB00C900DD000D0A005354415254D4
:10215A00007031303100696E7374616C6C004F4BE2
:10216A000063616E63656C00726561645F6D6F64C4
:10217A006500726561645F65786974003B00666C2E
:10218A006173685F636C656172656400636F6E6E2C
:10219A0000312E302E310031383130323300617443
:0E21AA006D656761333238700070353031007A
:00000001FF
