:100000000C945D000C94630B0C943C0B0C948500D9
:100010000C9485000C9485000C9485000C9485004C
:100020000C9485000C9485000C9485000C948A0B2C
:100030000C9485000C9485000C9485000C9485002C
:100040000C94F20A0C9485000C94C00A0C949A0A41
:100050000C9485000C9485000C9485000C9485000C
:100060000C9485000C9485000000000024002700FB
:100070002A0000000000250028002B0004040404CE
:100080000404040402020202020203030303030342
:10009000010204081020408001020408102001021F
:1000A00004081020000000080002010000030407FB
:1000B0000000000000000000460C11241FBECFEF1E
:1000C000D8E0DEBFCDBF11E0A0E0B1E0E0E5F9E2AD
:1000D00002C005900D92A238B107D9F724E0A2E83A
:1000E000B1E001C01D92A131B207E1F710E0CDE50A
:1000F000D0E004C02197FE010E949F12CC35D107A9
:10010000C9F70E94B00C0C94A6140C94000008953A
:100110008091CD0187FF0DC08091B901282F30E07B
:10012000C90146E0880F991F4A95E1F7822B932B6E
:10013000089585FF08C08091C1019091C201982760
:100140008927982708958091B10190E00895880F3C
:10015000991F880F991F9C0123503109842F90E02B
:100160009595879583709927820F931F4170E5E7D6
:10017000F3E021E061A572A56817790719F444231B
:1001800039F021AB739633E0EA3FF30799F708950E
:1001900011AAF8CF1092940110928E0110928D0145
:1001A00010928C0110928B0110928A011092890199
:1001B0001092880180E880938701F89480918601ED
:1001C000882321F12091A2013091A30191E080E0E8
:1001D00040918401509185014217530709F090E046
:1001E00090938201809383011092A3011092A20147
:1001F000109285011092840178941092860187E014
:1002000094E090934F0380934E03089590E080E034
:10021000E7CF0895AF92BF92CF92DF92EF92FF9215
:100220000F931F93CF93DF936C017B018B01040F1E
:10023000151FEB015E01AE18BF08C017D10759F0BA
:100240006991D601ED91FC910190F081E02DC601FC
:100250000995892B79F7C501DF91CF911F910F91F6
:10026000FF90EF90DF90CF90BF90AF900895FC018A
:10027000538D448D252F30E0842F90E0821B930B0B
:10028000541710F0CF96089501970895FC01918DB1
:10029000828D981761F0A28DAE0FBF2FB11D5D96B4
:1002A0008C91928D9F5F9F73928F90E008958FEF56
:1002B0009FEF0895FC01918D828D981731F0828D0A
:1002C000E80FF11D858D90E008958FEF9FEF089561
:1002D000FC01918D228D892F90E0805C9F4F821BC5
:1002E00091098F739927089581EB92E00E9468012C
:1002F00021E0892B09F420E0822F089580E090E02E
:10030000892B29F00E94740181110C94000008953A
:10031000FC01A48DA80FB92FB11DA35ABF4F2C917A
:10032000848D90E001968F739927848FA689B78971
:100330002C93A089B1898C91837080648C93938D68
:10034000848D981306C00288F389E02D80818F7D0B
:1003500080830895EF92FF920F931F93CF93DF93C3
:10036000EC0181E0888F9B8D8C8D98131AC0E889F1
:10037000F989808185FF15C09FB7F894EE89FF89C0
:100380006083E889F98980818370806480839FBF5E
:1003900081E090E0DF91CF911F910F91FF90EF905E
:1003A0000895F62E0B8D10E00F5F1F4F0F7311276E
:1003B000E02E8C8D8E110CC00FB607FCFACFE889A9
:1003C000F989808185FFF5CFCE010E948801F1CFA8
:1003D000EB8DEC0FFD2FF11DE35AFF4FF0829FB71D
:1003E000F8940B8FEA89FB8980818062CFCFCF930D
:1003F000DF93EC01888D8823B9F0AA89BB89E8894D
:10040000F9898C9185FD03C0808186FD0DC00FB6F2
:1004100007FCF7CF8C9185FFF2CF808185FFEDCF70
:10042000CE010E948801E9CFDF91CF91089590E03D
:10043000FC01EC55FF4F2491FC01E057FF4F349134
:10044000FC01E458FF4FE491EE23C9F0222339F078
:10045000233001F1A8F4213019F1223029F1F0E024
:10046000EE0FFF1FEE58FF4FA591B4918FB7F89490
:10047000EC91611126C030953E233C938FBF0895C7
:100480002730A9F02830C9F0243049F78091800046
:100490008F7D03C0809180008F7780938000DFCFB5
:1004A00084B58F7784BDDBCF84B58F7DFBCF809102
:1004B000B0008F778093B000D2CF8091B0008F7D55
:1004C000F9CF3E2BDACF3FB7F89480919B01909102
:1004D0009C01A0919D01B0919E0126B5A89B05C0ED
:1004E0002F3F19F00196A11DB11D3FBFBA2FA92FB3
:1004F000982F8827BC01CD01620F711D811D911DB0
:1005000042E0660F771F881F991F4A95D1F708951B
:10051000CF930E946302C091A8012C2F30E0E0919C
:10052000AA01F091AB01DB01AE1BBF0BF901EE0F8D
:10053000FF1FEC55FE4FB183A0836093AA01709317
:10054000AB018093AC019093AD014091A201509119
:10055000A301240F351F3093A3012093A20191E042
:100560008C2F89278093A801CF9108952FB7F894F5
:1005700060919701709198018091990190919A01F1
:100580002FBF08950F931F930E94B6026093B90284
:100590007093BA028093BB029093BC0281EB92E00D
:1005A0000E945A0197FF1DC00E94B6020091B90235
:1005B0001091BA022091BB023091BC02601B710BFA
:1005C000820B930B0091B5021091B6022091B702F5
:1005D0003091B8026017710782079307F8F28FEF26
:1005E0009FEF1F910F9108950F931F930E94B602E2
:1005F0006093B9027093BA028093BB029093BC02DD
:1006000081EB92E00E94460197FF1DC00E94B60256
:100610000091B9021091BA022091BB023091BC0244
:10062000601B710B820B930B0091B5021091B60207
:100630002091B7023091B8026017710782079307C3
:10064000F8F28FEF9FEF1F910F91089508958F9209
:100650009F92AF92BF92FF920F931F93CF93DF931E
:10066000FC01F0808BE08F1508F44FC0828108E513
:1006700012E0081B110987FD1395000F111F000FD1
:10068000111F8181C8E8D0E0C81BD10987FDD3952F
:10069000CC0FDD1FCC0FDD1F4E010D2E000CAA0864
:1006A000BB08DB01653B710514F0A4EBB0E09801D9
:1006B000012E000C440B550B281939094A095B0916
:1006C0000E94231224EB30E040E050E00E94F91138
:1006D000820E931EA41EB51E8C169D062CF0E801FA
:1006E000801691060CF4E4012297CC0FDD1F2FB782
:1006F000F8948F2D90E0FC01EE0FFF1FE80FF91F1B
:10070000E05BFC4FD283C1832FBFDF91CF911F915C
:100710000F91FF90BF90AF909F908F900895CF93CF
:10072000DF93DC018C918C3008F06DC0CB01FB01B4
:10073000E057FF4F249184589F4FFC0184918823F8
:1007400099F090E0880F991FFC01E859FF4FC5917F
:10075000D491FC01EE58FF4F859194918FB7F89496
:10076000E881E22BE8838FBF8C91282F30E0F901DC
:10077000EE0FFF1FE20FF31FE05BFC4F962F9F73FE
:100780006081607C692B608311961C921197129690
:100790001C9212972CE0622F0E949312829FB0014C
:1007A000112430E020E0AB01420F531FFA01EE0F9D
:1007B000FF1FE40FF51FE05BFC4F908196FD16C014
:1007C0002F5F3F4F2C30310571F781110FC0109210
:1007D000800082E080938100109285001092840056
:1007E000B19A80916F00826080936F00EC918E2FA0
:1007F00090E0FC01EE0FFF1FE80FF91FE05BFC4FDC
:100800008081806480838C91DF91CF910895F894EA
:100810008091A2019091A3012091840130918501E2
:100820008217930711F4789408958091A201909112
:10083000A301821B930B029758F078948AEC90E006
:1008400090934F0380934E0387E68093A901089508
:100850002091A4013091A5018091A6019091A7015A
:100860004091A2015091A3015093850140938401CE
:100870007894A901445351094D30510568F02A5527
:100880003109273B364240F08AEC90E090934F03C9
:1008900080934E0388E6D9CF9C01245331092D3033
:1008A000310538F18A559109873B964268F74D30FA
:1008B000510568F080918201909183010A97A4F01C
:1008C00086E894E090934F0380934E030895F89444
:1008D0008091A6019091A7019093A5018093A40116
:1008E00081E08093A8017894109283011092820194
:1008F00008954D30510558F7809182019091830100
:10090000019690938301809382010895F8948091D9
:10091000A2019091A3012091840130918501821759
:10092000930711F4789408958091A2019091A30106
:10093000821B930B029758F078948AEC90E0909386
:100940004F0380934E0387E68093A9010895409159
:10095000A4015091A5018091A6019091A701209139
:10096000A2013091A30130938501209384017894F2
:100970009A01245331092D30310568F04A55510947
:10098000473B564240F08AEC90E090934F038093AF
:100990004E0388E6D9CFBC016453710941E06D3044
:1009A000710508F040E06D30710528F08A55910915
:1009B000873B964240F781E02D30310508F080E01A
:1009C0008413E1CF80918701882389F02D30310590
:1009D00040F4E0918801F0E0E757FE4F9081982BBA
:1009E000908390E0959587958093870108958091F5
:1009F000880191E0980F9093880140E84093870127
:100A00002D303105A8F491E0909386018250843016
:100A100038F483E295E090934F0380934E0308955A
:100A20008AEC90E090934F0380934E0389E68CCF3D
:100A3000963008F48BCF8AEC90E090934F0380932C
:100A40004E038AE681CFEF92FF921F93CF93DF93FD
:100A50008091890190918A018927C0918801C430D1
:100A600068F090918B018927C43041F090918C01FE
:100A70008927C53019F090918D018927EC2FF0E07E
:100A8000E857FE4F9081981751F08AEC90E09093D0
:100A90004F0380934E0384E68093A9011FC00E94F8
:100AA000B6026093900170939101809392019093AC
:100AB000930110928F01C33009F089C010918A010F
:100AC0008091890111111AC08F3F71F48AEC90E076
:100AD00090934F0380934E03C093A901DF91CF9170
:100AE0001F91FF90EF900895811108C08AEC90E06B
:100AF00090934F0380934E0384E0CECF982F907C49
:100B0000903809F040C017FF3EC0E12EF12CE701FC
:100B1000C095D095CC0FDD1FCC0FDD1FC07CD170F0
:100B20008F73C80FD11D0E94880021E0C817D90714
:100B300009F020E020938F01C817D90739F0CF338F
:100B4000D10521F080919F018823A9F08091940123
:100B5000811111C0E091A001F091A101309759F0ED
:100B6000412F4770B70153E0759567955A95E1F7A6
:100B70006170CE0109958AEC90E090934F038093C9
:100B80004E0387E089CF87FF08C08AEC90E09093FE
:100B90004F0380934E0385E67FCF107C103441F0E5
:100BA0008AEC90E090934F0380934E0386E674CFD7
:100BB00091E02091B101281390E090938F018AEC8D
:100BC00090E090934F0380934E0386E065CFC4304E
:100BD00069F5C09189018C2F807C803839F520918E
:100BE0008A01822F8578813009F5822F867090E006
:100BF000982F8827207744E0249F90011124820FAA
:100C0000931FCF73C80FD92FD11D0E94880021E0F8
:100C1000C817D90709F020E020938F018AEC90E0F3
:100C200090934F0380934E0388E036CF8AEC90E098
:100C300090934F0380934E031092A9014FCFCF9210
:100C4000DF92EF92FF92CF93D12CC12C81EB92E0F7
:100C50000E946801181619060CF050C00E94C202CA
:100C6000FC0197FD47C08D32910519F0C0970A9796
:100C7000D0F5C12CD12C7601C0E0E130F105D1F0E6
:100C8000ED32F105A9F1CF01C0970A9798F4AAE0D7
:100C9000B0E0A70196010E9418126F01FF0FEE0845
:100CA000FF08C60ED71EE81EF91E80E3C81AD10839
:100CB000E108F10881EB92E00E9446010E94C20225
:100CC000FC01C0970A97C8F2E130F105B1F2CC23DC
:100CD00009F4BCCFF094E094D094C094C11CD11C12
:100CE000E11CF11CB3CF81EB92E00E944601B6CF2C
:100CF000C1E0E0CFC12CD12C7601A8CFC601CF91A5
:100D0000FF90EF90DF90CF9008958F929F92AF92D7
:100D1000BF92DF92EF92FF920F931F93CF93DF93D7
:100D2000D82EC82FD0E043E1849FF0011124EB5866
:100D3000FC4F9485953009F084C08289843009F491
:100D4000B4C0853009F07FC053E1E52EEC9E8001F0
:100D5000ED9E100D11240B581C4FD8011D962C919F
:100D60001D9717968C911797281709F48EC00E942B
:100D7000B602F80186849784A088B1886819790939
:100D80008A099B09653171058105910508F460C0E8
:100D9000DE9C70011124A7014B585C4F7A01E08161
:100DA0008E2F90E0FC01EE0FFF1FE80FF91FE05BB4
:100DB000FC4F808186FD07C0D80116966C9170E0CB
:100DC000C7010E948F030E94B60223E12C9FF0010D
:100DD0002D9FF00D1124EB58FC4F66877787808B91
:100DE000918B97818085891708F040C08585218582
:100DF000E82FE20FFF27FF1F9E171F06ACF58F5F3E
:100E000093E19C9FF0019D9FF00D1124EB58FC4F46
:100E1000858783E18C9FF0018D9FF00D1124EB58A5
:100E2000FC4F658570E0C701DF91CF911F910F9155
:100E3000FF90EF90DF90BF90AF909F908F900C94B9
:100E4000270383858F5F813009F47ECF823069F17B
:100E5000DF91CF911F910F91FF90EF90DF90BF90A6
:100E6000AF909F908F900895820FCACF981788F601
:100E700085852185682F621B770B9617170619F059
:100E800014F08150BDCF821BBBCF923009F3EC919F
:100E90008E2F90E0FC01EE0FFF1FE80FF91FE05BC3
:100EA000FC4F80818F7B8083D3CF03E10C9F900127
:100EB0000D9F300D1124F901EB58FC4F7F01258562
:100EC0008085281709F46DC00E94B602D7011E96CE
:100ED0008D909D90AD90BC905197681979098A09C1
:100EE0009B09653171058105910508F4B1CFD09E4C
:100EF000800111240B581C4FEC918E2F90E0FC01C7
:100F0000EE0FFF1FE80FF91FE05BFC4F808186FDAD
:100F100006C016966C9170E0C8010E948F030E9473
:100F2000B60223E12C9FF0012D9FF00D1124EB5808
:100F3000FC4F66877787808B918B90858781891797
:100F400008F585852285E82FE20FFF27FF1F9E17F2
:100F50001F06B4F48F5F93E19C9FF0019D9FF00DFD
:100F60001124EB58FC4F858783E18C9FF0018D9F06
:100F7000F00D1124EB58FC4F658570E0C80154CF8B
:100F8000820FE9CF981780F785852285682F621B2D
:100F9000770B9617170619F014F08150DCCF821BDF
:100FA000DACF923009F454CFDF0171CFFC01019008
:100FB0000020E9F73197AF01481B590BBC0181EBC9
:100FC00092E00C940A01CF93DF93FC014481558198
:100FD0006081718181EB92E00E940A01EC018CE159
:100FE00091E00E94D6078C0F9D1FDF91CF9108954D
:100FF000EF92FF920F931F93CF93DF937C01D0E08A
:10100000C0E0062F10E0C017D1072CF4C7010E94E2
:10101000E3072196F8CFDF91CF911F910F91FF90B9
:10102000EF9008958F929F92AF92BF920F931F936C
:10103000CF93DF93CDB7DEB7A1970FB6F894DEBF9D
:101040000FBECDBF19A2423008F44AE08E010F5DF9
:101050001F4F842E912CB12CA12CA50194010E942C
:101060006212E62FB901CA01EA30F4F4E05DD8015A
:10107000EE938D01232B242B252B79F790E080E034
:10108000109719F0CD010E94D607A1960FB6F894DB
:10109000DEBF0FBECDBFDF91CF911F910F91BF90EB
:1010A000AF909F908F900895E95CE1CFCF93DF934D
:1010B0000E94D607EC018CE191E00E94D6078C0FCC
:1010C0009D1FDF91CF910895682F70E090E080E040
:1010D0004AE00C9412080F931F93CF93DF934115AE
:1010E000510541F0FC01048115810115110539F408
:1010F000FB011082DF91CF911F910F910895415014
:1011000051094017510708F48A01EB01FC01608185
:101110007181A801CE010E949714C00FD11F1882BF
:10112000E9CFFC0180819181009711F00C949B1113
:1011300060E070E0CB010895FC018081918100970F
:1011400011F00C94411308950F931F93CF93DF93E5
:101150008C01EB01FC01808191810097E1F06881B5
:10116000798161157105A9F0428153812C813D81FE
:101170004217530770F00E9490148C819D81F801F2
:10118000958384831D821C82DF91CF911F910F91E3
:1011900008950E94411388819981F8019183808389
:1011A0008A819B81938382838C819D8195838483B3
:1011B000198218821B821A82E5CF0F931F93CF9357
:1011C000DF93EC0188819981009759F02A813B8156
:1011D0002617370730F081E0DF91CF911F910F91F3
:1011E00008958B016F5F7F4F0E94CA13009759F0DB
:1011F000998388831B830A832C813D81232B59F794
:10120000FC011082E8CF80E0E7CFEF92FF920F93CE
:101210001F93CF93DF93EC017B01198218821B820D
:101220001A821D821C82FB0101900020E9F7319790
:101230008F01061B170BB8010E94DD082881398138
:10124000811113C02115310519F0C9010E94411304
:10125000198218821D821C821B821A82DF91CF9113
:101260001F910F91FF90EF9008951D830C83B7019C
:10127000C901DF91CF911F910F91FF90EF900C94D6
:1012800090148F929F92AF92BF92CF92DF92EF9283
:10129000FF920F931F93CF93DF9300D0CDB7DEB7AC
:1012A0008C015B017A0149016EE171E00E94050940
:1012B000EA0CFB1CC7018A199B09881599050CF5D6
:1012C000F70181917F0189831A82F801C480D5805A
:1012D000FFEFCF1ADF0AB601C8010E94DD0888239C
:1012E00049F3F8012081318184819581BE016F5FCE
:1012F0007F4F820F931F0E949014F801D582C48201
:10130000D9CFC8010F900F90DF91CF911F910F910E
:10131000FF90EF90DF90CF90BF90AF909F908F9015
:1013200008951F93CF93DF93EC01162F0E94E311D2
:10133000181739F0612FCE01DF91CF911F910C94D6
:10134000EB11DF91CF911F9108950C94E311EF926F
:10135000FF920F931F93CF93DF9305E713E0C2E053
:10136000D0E0CE010E94A509F80184A7CE0109961C
:101370000E94A509F80185A7CE0141960E94A50902
:10138000F80186A7CE0149960E94A509F80187A712
:10139000CE0181960E94A509F80180ABCE01899605
:1013A0000E94A509F80182ABCE01C1960E94A50951
:1013B000E82EF12CF801F2A6E1A6CE01C9960E9412
:1013C000A509F80183A790E0982F88278E0D9F1D0F
:1013D00092A781A721960D5E1F4FC930D10509F64E
:1013E000DF91CF911F910F91FF90EF9008958F9211
:1013F0009F92AF92BF92CF92DF92EF92FF920F93A4
:101400001F93CF93DF9300D0CDB7DEB77C018B0164
:10141000D42E81EB92E00E946801892B49F4C80127
:101420000E94E307DD20A9F380E00E948506F1CF4A
:101430006EE171E0C7010E9405090E94F40297FD68
:1014400020C089831A82D70114960D911C910F5FD9
:101450001F4FB801C7010E94DD08882371F3F7010F
:101460002081318184819581BE016F5F7F4F820F22
:10147000931F0E949014D70115961C930E931497F6
:10148000DCCFF701A080B180A114B10431F0048158
:10149000158165010115110589F4C7010F900F90A1
:1014A000DF91CF911F910F91FF90EF90DF90CF9040
:1014B000BF90AF909F908F90089564014601FFEF19
:1014C0008F1A9F0AD6018C91082E000C990B0E944E
:1014D000D711892B91F7015011090A0D1B1DF80135
:1014E0008081082E000C990B0E94D711892B31F0B6
:1014F0000C151D0518F001501109F1CFA8014F5F1F
:101500005F4F4C195D09D70115965C934E93149764
:10151000AC14BD0420F4B601C5010E948714D701A4
:10152000ED91FC91119714968D919C91E80FF91F04
:101530001082B3CF1F920F920FB60F9211242F93E8
:101540003F934F935F936F937F938F939F93AF934B
:10155000BF93EF93FF9381EB92E00E948801FF918C
:10156000EF91BF91AF919F918F917F916F915F911B
:101570004F913F912F910F900FBE0F901F90189594
:101580001F920F920FB60F9211242F938F939F9358
:10159000EF93FF93E091C102F091C2028081E0914C
:1015A000C702F091C80282FD1BC090818091CA02DF
:1015B0008F5F8F732091CB02821741F0E091CA02B6
:1015C000F0E0EF54FD4F958F8093CA02FF91EF91A9
:1015D0009F918F912F910F900FBE0F901F90189594
:1015E0008081F4CF1F920F920FB60F9211242F9388
:1015F0003F938F939F93AF93BF9380919701909167
:101600009801A0919901B0919A013091960123E03F
:10161000230F2D3758F50196A11DB11D209396017A
:101620008093970190939801A0939901B0939A01A8
:1016300080919B0190919C01A0919D01B0919E0190
:101640000196A11DB11D80939B0190939C01A093D5
:101650009D01B0939E01BF91AF919F918F913F915A
:101660002F910F900FBE0F901F90189526E8230F13
:101670000296A11DB11DD2CF1F920F920FB60F92ED
:1016800011242F933F934F935F936F937F938F9387
:101690009F93AF93BF93EF93FF93E0910201F0917B
:1016A00003010995FF91EF91BF91AF919F918F91A8
:1016B0007F916F915F914F913F912F910F900FBE4E
:1016C0000F901F9018951F920F920FB60F92112432
:1016D0002F933F934F935F936F937F938F939F933A
:1016E000AF93BF93EF93FF93E0910001F09101015D
:1016F0000995FF91EF91BF91AF919F918F917F914C
:101700006F915F914F913F912F910F900FBE0F906E
:101710001F9018951F920F920FB60F9211242F93BE
:101720003F934F935F936F937F938F939F93AF9369
:10173000BF93CF93DF93EF93FF9380919501C09177
:101740007403D0E087FF24C01092850010928400BB
:10175000809195018F5F8093950180919501082E6E
:10176000000C990B8C179D0724F4809195018C3007
:10177000C4F18091840090918500049680349C4946
:1017800008F47AC08091840090918500049676C018
:1017900080919501082E000C990B8C179D07C4F6BB
:1017A000E09195018E2FEE0F990BFC01EE0FFF1FBC
:1017B000E80FF91FE05BFC4F808186FFC9CFE09105
:1017C00095018E2FEE0F990BFC01EE0FFF1FE80F16
:1017D000F91FE05BFC4F808160E08F730E9417026D
:1017E000B7CF2091840030918500E09195018E2F34
:1017F000EE0F990BFC01EE0FFF1FE80FF91FE05BE6
:10180000FC4F81819281820F931F90938900809376
:101810008800E09195018E2FEE0F990BFC01EE0FE1
:10182000FF1FE80FF91FE05BFC4F808186FF11C0AE
:10183000E09195018E2FEE0F990BFC01EE0FFF1F2B
:10184000E80FF91FE05BFC4F808161E08F730E941D
:101850001702FF91EF91DF91CF91BF91AF919F91CF
:101860008F917F916F915F914F913F912F910F9049
:101870000FBE0F901F90189580E49CE9909389000B
:10188000809388008FEF80939501E3CF1092B4028C
:101890001092B30288EE93E0A0E0B0E08093B5022E
:1018A0009093B602A093B702B093B8028EE091E095
:1018B0009093B2028093B10285EC90E09093BE02C7
:1018C0008093BD0284EC90E09093C0028093BF02AD
:1018D00080EC90E09093C2028093C10281EC90E092
:1018E0009093C4028093C30282EC90E09093C6026E
:1018F0008093C50286EC90E09093C8028093C70263
:101900001092CA021092CB021092CC021092CD0219
:1019100087E890E090934F0380934E03E5E7F3E070
:101920002FEF48EB5BE0809174038C30B8F491E0CA
:10193000980F90937403808390E0DC01AA0FBB1F83
:10194000A80FB91FA05BBC4F12965C934E931197E2
:10195000739684E0ED30F80731F708952083F8CFCF
:10196000CF93DF93CDB7DEB766970FB6F894DEBF9F
:101970000FBECDBF789484B5826084BD84B581608C
:1019800084BD85B5826085BD85B5816085BD80914A
:101990006E00816080936E001092810080918100C2
:1019A00082608093810080918100816080938100BA
:1019B000809180008160809380008091B10084607C
:1019C0008093B1008091B00081608093B0008091DD
:1019D0007A00846080937A0080917A00826080939C
:1019E0007A0080917A00816080937A0080917A00F9
:1019F000806880937A001092C10087EA90E090930B
:101A0000A1018093A00181E080939F018091AA01B0
:101A10009091AB01A091AC01B091AD01892B8A2BC3
:101A20008B2B91F51092B7011092B8011092A8017A
:101A30001092A7011092A6011092A5011092A40184
:101A40001092A3011092A2010E9463026093AA0166
:101A50007093AB018093AC019093AD0188E892E064
:101A60009093010180930001809169008C7F8160D7
:101A700080936900E89A8AEC90E090934F038093FA
:101A80004E0382E08093A9010E94A7090E94B6023A
:101A90006B8B7C8B8D8B9E8BE091C102F091C2028F
:101AA00082E08083E091BD02F091BE021082E0915D
:101AB000BF02F091C00280E180831092C902E091E0
:101AC000C502F091C6028EE38083E091C302F091DB
:101AD000C402808180618083E091C302F091C402DE
:101AE000808188608083E091C302F091C40280818C
:101AF00080688083E091C302F091C40280818F7D71
:101B0000808362E0262E74E0372E8FE191E00E9400
:101B1000560881EB92E00E946801181619060CF035
:101B20009CC28FE191E00E9456080E941F067C0132
:101B300018161906B4F781EB92E00E946801892B10
:101B400081F722EDE216F10409F479C308F06DC1C2
:101B50004EE6E416F10409F47EC208F03FC185E6C2
:101B6000E816F104F1F60091AE01011137C28DB60D
:101B70009EB665E271E0CE0101960E94050940E043
:101B8000BE016F5F7F4FCE010D960E94F709CE0117
:101B900001960E949C0849895A894F5F5F4F8DB713
:101BA0009EB7841B950B0FB6F8949EBF0FBE8DBFDA
:101BB000EDB7FEB731967F01BF01CE010D960E94B1
:101BC0006B08CE010D960E94E3070E941F06009746
:101BD000C1F3029709F0F4C16AE271E0CE01019607
:101BE0000E94050965E0CE0101960E94F807CE012A
:101BF00001960E949C0823E030E050E040E0B701ED
:101C0000CE0107960E944109CE0107960E949108D5
:101C10002B015B01F1E0AF1AB10823E12A9DC0015D
:101C20002B9D900D1124AC014B585C4F6A01FA01B9
:101C3000468226E030E043E050E0B701CE01019655
:101C40000E944109BE016F5F7F4FCE0107960E943F
:101C5000A408CE0101960E949C08CE0107960E941E
:101C60009108F601678329E030E046E050E0B701D3
:101C7000CE0101960E944109BE016F5F7F4FCE01E8
:101C800007960E94A408CE0101960E949C08CE01EE
:101C900007960E949108F60160872CE030E04AE048
:101CA00050E0B701CE0101960E944109BE016F5F6D
:101CB0007F4FCE0107960E94A408CE0101960E9494
:101CC0009C08CE0107960E949108F60161872FE0DB
:101CD00030E04DE050E0B701CE0101960E9441098D
:101CE000BE016F5F7F4FCE0107960E94A408CE0110
:101CF00001960E949C08CE0107960E949108F60169
:101D0000628726E130E044E150E0B701CE01019660
:101D10000E944109BE016F5F7F4FCE0107960E946E
:101D2000A408CE0101960E949C08CE0107960E944D
:101D30009108F601648723E130E04FE050E0B701FD
:101D4000CE0101960E944109BE016F5F7F4FCE0117
:101D500007960E94A408CE0101960E949C08CE011D
:101D600007960E9491089B01E0E050E040E02417B4
:101D700035070CF00E2FEF5F5395E732C1F723E1E3
:101D80002A9DF0012B9DF00D1124EB58FC4F202FC4
:101D900030E0322F2227AB01421B530B5483438385
:101DA000058382E391E00E9456080E941F0682305C
:101DB0009105B9F3892BA9F30FEF040DCE01079616
:101DC0000E949C08CE010D960E949C080FB6F894C4
:101DD0009EBE0FBE8DBE0093AE01C5CE9FE6E91636
:101DE000F10409F4A4C1E8ECEE16F10409F099CE6F
:101DF00010E000E060E0C8010E9491090F5F1F4FF2
:101E000002311105B9F70E94A70962E571E0CE0120
:101E100001960E94050965E0CE0101960E94F8072F
:101E2000CE0101960E949C0818C1F4EDEF16F10452
:101E300009F410C208F406C235EDE316F10409F402
:101E400011C255E0552E45EFE41641E0F40609F0C5
:101E500068CEADB6BEB66EE171E0CE010D960E94C1
:101E60000509809187036DE771E0811103C2CE01FE
:101E700007960E94050940E0BE01695F7F4FCE01D1
:101E800001960E94F709BE016F5F7F4FCE010D964C
:101E90000E94A408CE0101960E949C08CE010796DC
:101EA0000E949C0849895A894F5F5F4F2DB73EB702
:101EB000241B350B0FB6F8943EBF0FBE2DBF8DB758
:101EC0009EB701967C01BC01CE010D960E946B0865
:101ED00023E030E050E040E0B701CE0107960E94D9
:101EE00041095092810370907C0390907D03CE0154
:101EF00007960E949108662EC62ED72E26E030E067
:101F000043E050E0B701CE0101960E944109BE01B5
:101F10006F5F7F4FCE0107960E94A408CE01019605
:101F20000E949C08CE0107960E949108862E29E007
:101F300030E046E050E0B701CE0101960E94410931
:101F4000BE016F5F7F4FCE0107960E94A408CE01AD
:101F500001960E949C08CE0107960E949108162FB8
:101F60002CE030E04BE050E0B701CE0101960E943A
:101F70004109BE016F5F7F4FCE0107960E94A40802
:101F8000CE0101960E949C08CE0107960E949108FE
:101F900080917B038C151D0409F072C1633009F038
:101FA0006FC1781409F4BCC1911208C080918203FA
:101FB000781609F487C1981609F484C110E09FC10E
:101FC00065E371E0CE0101960E94050965E0CE014E
:101FD00001960E94F807CE010196F2CE10E033E19F
:101FE000309FC001319F900D1124AC014B585C4FC4
:101FF0006A01FA016681C8010E949109F6016781B0
:10200000C80109960E949109F6016085C8014196B0
:102010000E949109F6016185C80149960E949109C3
:10202000F6016285C80181960E949109F6016485D6
:10203000C80189960E949109F6016381C801C19681
:102040000E949109F6016581C801C9960E94910913
:102050001092AE0166CD0E94A7090E94B6022B899C
:102060003C894D895E89621B730B840B950B683824
:1020700073418105910508F448CD81EB92E00E94FF
:10208000F701E091C302F091C40280818F7E8083CA
:10209000E091C302F091C4028081877F8083E09148
:1020A000C302F091C40280818F778083E091C302E4
:1020B000F091C40280818F7D80838091CB028093D8
:1020C000CA020E94A70905E713E0F80184A583501E
:1020D0008C3F48F40E94B602F80164AB75AB86AB46
:1020E00097AB85A583AB0D5E1F4FF3E00A3F1F073B
:1020F00061F783E1F82E02E0E0914E03F0914F0387
:1021000009951091AF01F19EF0011124EB58FC4F9D
:10211000868183508C3F18F4812F0E9485061F5FB3
:102120001093AF01193040F30093AF01E5CF6CE39A
:1021300071E0CE0101960E94050965E0CE0101968D
:102140000E94F807CE0101960E949C080E941F067B
:102150007C010097D9F38F3F910581F466E471E02B
:10216000CE0101960E94050965E0CE0101960E940C
:10217000F807CE0101960E949C08D3CC01970E94DB
:10218000A509882EC70108960E94A509982EC701A7
:1021900040960E94A509D82EC70148960E94A5091D
:1021A000A82EC70180960E94A509182FC7018896FE
:1021B0000E94A509C82EC701C0960E94A509B82E85
:1021C000C701C8960E94A509F82E882D0E946408B0
:1021D00080E591E00E94D607892D0E94640880E581
:1021E00091E00E94D6078A2D0E94640880E591E064
:1021F0000E94D6076F2D70E0762F66276B0D711D3C
:1022000090E080E04AE00E94120880E591E00E94A0
:10221000D6078C2D0E94640880E591E00E94D607C5
:102220008D2D0E94640880E591E00E94D607812FE1
:102230000E9464088CE191E00E94D60787CF60E697
:1022400071E08ECF65E671E0CE0101960E9405092E
:1022500061E08BCF6BE671E0CE0101960E9405092B
:1022600062E083CF62E771E0CE0101960E9405092A
:1022700063E07BCFCE0107960E94050941E0FCCDCB
:1022800097ECC916D104D1F160927B0380927C0354
:1022900010937D036130E1F480918703813011F068
:1022A000843091F480918203881570F480927D03CC
:1022B00080937C033092870381E080937E03809338
:1022C0007F037CCE61E0E2CF81E080938703F4CF8F
:1022D000623091F780918703823011F0853059F494
:1022E00080918203181738F410937C0380937D0348
:1022F00050928703E1CF20928703DECF11E0CE0119
:1023000007960E949C08CE010D960E949C080FB66D
:10231000F894BEBE0FBEADBE112309F49ACD01CC18
:10232000911609F44BCE80918203781611F0981221
:1023300045CE62E0ABCF1F93FC0199278827BC01F3
:10234000E89411911032E9F3193010F01E30C8F3FF
:102350001B3251F01D3249F4689406C00E94C2112C
:10236000610F711D811D911D119110531A30B0F331
:102370003EF490958095709561957F4F8F4F9F4F5C
:102380001F910895592F482F372F262F660F771F3B
:10239000881F991F660F771F881F991F620F731F71
:1023A000841F951F660F771F881F991F089591112D
:1023B0000C94E011803219F089508550C8F70895C7
:1023C000992788270895F999FECF92BD81BDF89A83
:1023D000992780B50895262FF999FECF1FBA92BD8F
:1023E00081BD20BD0FB6F894FA9AF99A0FBE0196F6
:1023F0000895052E97FB1EF400940E94101257FDBD
:1024000007D00E94621207FC03D04EF40C94101205
:1024100050954095309521953F4F4F4F5F4F089510
:1024200090958095709561957F4F8F4F9F4F089540
:102430000E948412A59F900DB49F900DA49F800DC3
:10244000911D11240895B7FF0C9418120E941812C0
:10245000821B930B08952F923F924F925F926F923F
:102460007F928F929F92AF92BF92CF92DF92EF9224
:10247000FF920F931F93CF93DF93CDB7DEB7CA1BA5
:10248000DB0B0FB6F894DEBF0FBECDBF09942A88D0
:10249000398848885F846E847D848C849B84AA8478
:1024A000B984C884DF80EE80FD800C811B81AA8105
:1024B000B981CE0FD11D0FB6F894DEBF0FBECDBFD0
:1024C000ED010895A1E21A2EAA1BBB1BFD010DC050
:1024D000AA1FBB1FEE1FFF1FA217B307E407F507D4
:1024E00020F0A21BB30BE40BF50B661F771F881FB0
:1024F000991F1A9469F760957095809590959B0146
:10250000AC01BD01CF010895A29FB001B39FC001EE
:10251000A39F700D811D1124911DB29F700D811D0F
:102520001124911D0895991B79E004C0991F9617F5
:1025300008F0961B881F7A95C9F780950895EE0FCD
:10254000FF1F0590F491E02D09940F931F93CF93F3
:10255000DF938230910510F482E090E0E0910F0467
:10256000F091100430E020E0B0E0A0E0309799F462
:102570002115310509F44AC0281B390B24303105D7
:10258000D8F58A819B816115710589F1FB019383DF
:102590008283FE0111C0408151810281138148175D
:1025A0005907E0F04817590799F4109761F012960F
:1025B0000C93129713961C933296CF01DF91CF9113
:1025C0001F910F91089500930F0410931004F4CFFE
:1025D0002115310551F04217530738F0A901DB01ED
:1025E0009A01BD01DF01F801C1CFEF01F9CF90934E
:1025F000100480930F04CDCFFE01E20FF31F8193EF
:1026000091932250310939832883D7CF20910D042B
:1026100030910E04232B41F42091060130910701E3
:1026200030930E0420930D04209104013091050194
:102630002115310541F42DB73EB740910801509165
:102640000901241B350BE0910D04F0910E04E217F3
:10265000F307A0F42E1B3F0B2817390778F0AC01C5
:102660004E5F5F4F2417350748F04E0F5F1F5093A2
:102670000E0440930D04819391939FCFF0E0E0E02E
:102680009CCFCF93DF930097E9F0FC013297138240
:102690001282A0910F04B0911004ED0130E020E00F
:1026A0001097A1F420813181820F931F20910D0496
:1026B00030910E042817390709F061C0F0930E0419
:1026C000E0930D04DF91CF910895EA01CE17DF0763
:1026D000E8F54A815B819E0141155105B1F7E90199
:1026E000FB83EA8349915991C40FD51FEC17FD076D
:1026F00061F4808191810296840F951FE90199838D
:102700008883828193819B838A83F0E0E0E0129644
:102710008D919C9113970097B9F52D913C9111974C
:10272000CD010296820F931F20910D0430910E046B
:102730002817390739F6309751F510921004109286
:102740000F04B0930E04A0930D04BCCFD383C283B7
:1027500040815181840F951FC817D90761F44E5FDE
:102760005F4F88819981480F591F518340838A8127
:102770009B81938382832115310509F0B0CFF093BB
:102780001004E0930F049ECFFD01DC01C0CF138243
:102790001282D7CFB0E0A0E0E0EDF3E10C942D126F
:1027A0008C01009751F4CB010E94A5128C01C80145
:1027B000CDB7DEB7E0E10C944912FC01E60FF71F3C
:1027C0009C0122503109E217F30708F49DC0D9019A
:1027D000CD91DC911197C617D70798F0C530D10578
:1027E00030F3CE0104978617970708F3C61BD70B63
:1027F0002297C193D1936D937C93CF010E94411393
:10280000D6CF5B01AC1ABD0A4C018C0E9D1EA09167
:102810000F04B0911004512C412CF12CE12C109795
:1028200031F580910D0490910E048815990509F0F9
:102830005CC04616570608F058C08091040190917C
:102840000501009741F48DB79EB740910801509162
:102850000901841B950BE817F90708F055C0F093A0
:102860000E04E0930D04F90171836083A0CF8D9174
:102870009C91119712966C90129713967C901397D7
:10288000A815B90559F56C0142E0C40ED11CCA1453
:10289000DB0420F1AC014A195B09DA0112961597A5
:1028A00080F06282738251834083D9016D937C935F
:1028B000E114F10471F0D7011396FC93EE93129793
:1028C00076CF22968C0F9D1FF90191838083F301AF
:1028D000EFCFF0931004E0930F0469CF4816590628
:1028E00008F42C017D01D3019ACFCB010E94A512DF
:1028F0007C01009749F0AE01B8010E948714C8011D
:102900000E944113870153CF10E000E050CFFB013C
:10291000DC0102C001900D9241505040D8F708955B
:10292000FB01DC0101900D920020E1F70895FB010D
:10293000DC014150504048F001900D920020C9F751
:1029400001C01D9241505040E0F70895F894FFCF28
:102950002603260300001104800000000000AA01E5
:102960000A013701F701680146015A010D0A0053B7
:1029700054415254007031303100696E7374616C8F
:102980006C004F4B0063616E63656C00726561643F
:102990005F6D6F646500726561645F65786974007E
:1029A0003B00666C6173685F636C656172656400AF
:1029B000636F6E6E00312E302E3100313131313285
:1029C000330061746D656761333238700070353083
:0229D0003100D4
:00000001FF
